:100000000C94FB010C9485120C94B6120C94E7121C
:100010000C9418130C9449130C947A130C94AB138E
:100020000C94DC130C942C020C942C020C942C02D7
:100030000C942C020C942C020C942C020C942C0288
:100040000C942C020C942C020C942C020C942C0278
:100050000C942C020C942C020C942C020C9423165D
:100060000C942C020C94C1180C94B1190C942C0211
:100070000C942C020C942C020C942C020C942C0248
:100080000C942C020C942C020C942C020C942C0238
:100090000C94F5180C94F0190C942C020C942C026E
:1000A0000C942C020C942C020C942C020C942C0218
:1000B0000C942C020C942C020C942C020C942C0208
:1000C0000C942C020C942C020C942C020C942919E4
:1000D0000C942F1A0C942C020C945D190C946E1A2B
:1000E0000C942C027B11801185118F11081299112B
:1000F000A111A911B311BD11C711D611E011081238
:10010000EA11F411FE115F12291231123D124A1246
:100110006B1278123D1740173317371777174417AC
:1001200048174E17521756175C1760176417771742
:100130006A176E1772170C941E030C9460170C94B8
:1001400059180C945C170C9477170C9464170C9442
:1001500048170C9444030C94C7110C94A1020C94FE
:1001600087070C9471040C949E020C9428030C9441
:10017000FE110C94EA110C945F120C94AD020C94D5
:10018000E6020C9446040C9440170C94E9020C947B
:10019000D2020C942E020C9452020C94EC020C9499
:1001A000B3110C943D170C945B040C945D030C94F8
:1001B00044170C949A040C94D8020C94DF020C940B
:1001C000FB020C940D180C94CF020C944D040C946B
:1001D000F1020C94910E0C9479040C94071C0C946D
:1001E00031120C946B120C9429120C9452030C943F
:1001F0009B020C941D180C948F110C94A4020C9467
:10020000B0020C9439180C943D030C94BD110C945D
:1002100008120C94A7020C94D5020C9441030C9480
:10022000A1110C9414030C9455030C940A030C9420
:1002300066050C9490190C943F060C944A120C9489
:100240006A170C94C6020C9452170C9472170C94F3
:100250007B110C9447030C9480110C9433170C946D
:10026000150C0C9456170C9475040C946E170C9482
:100270004E030C9492050C9464180C944E170C9435
:10028000D6110C9454040C94C9020C9478120C945A
:10029000351B0C94F4110C9437170C94F6020C9443
:1002A00097060C94AA020C9499110C9400030C94D8
:1002B0006D040C9485110C94A9110C9498020C9463
:1002C00058030C94CC020C94E0110C943D120C9445
:1002D000B9020000090A02080B0C0D07060304010D
:1002E000000000000000000000000000000000000E
:1002F00000000000000000000000000000001110DD
:100300000F000000000000000000000000000000DE
:10031000000000000000000001021020200808106A
:100320002040102040800201020108040201010265
:10033000040810204080804020100804020180043E
:100340000201804020100804020108040201010299
:100350000408102040800102040810204080050598
:100360000505070508080808020202020A0A08082B
:100370000404040401010101010101010303030359
:1003800003030303040707070C0C0C0C0C0C0C0CE8
:100390000202020206060606060606060B0B0B0BF9
:1003A0000B0B0B0B000020002300260029002C0063
:1003B0002F003200000100000301060109010000C6
:1003C0002200250028002B002E00310034000201FD
:1003D0000000050108010B01000021002400270096
:1003E0002A002D0030003300010100000401070144
:1003F0000A01910E351B11241FBECFEFD1E2DEBFE3
:10040000CDBF00E00CBF14E0A0E0B2E0E2EEF9E303
:1004100000E00BBF02C007900D92AA3FB107D9F7C9
:100420002DE0AAEFB4E001C01D92AC36B207E1F7AF
:1004300011E0CBEFD1E000E006C021970109802F49
:10044000FE010E94B01CC93FD10780E00807A9F750
:100450000E942F1C0C94EF1C0C940000DC01FB018B
:1004600012968C911297808313968C9113978183A7
:1004700014968C911497828315968C91159783838B
:1004800016968C911697848317968C91179785836F
:1004900018968C911897868319968C91878388E09B
:1004A00090E00895FC01DB014C9150E060E070E0C9
:1004B000428353836483758311968C911197582BD3
:1004C000428353836483758312968C911297682BB1
:1004D000428353836483758313968C911397782B8F
:1004E000428353836483758314964C91149750E030
:1004F00060E070E0468357836087718715968C9122
:100500001597582B468357836087718716968C9171
:100510001697682B468357836087718717968C914F
:10052000782B468357836087718788E090E0089531
:1005300086E092E0089584E192E0089585E392E0F8
:1005400008958EE492E008958FE692E0089582E89F
:1005500092E0089588E594E0089583EA92E0089592
:10056000FC0122818381FB012083818382E090E072
:100570000895FB01218130E0322F22274081242B76
:10058000FC013383228382E090E0089584EC92E0C2
:10059000089583ED92E0089580E090E0089580E072
:1005A00090E0089584EF92E0089583E093E0089549
:1005B000FC018281FB01808381E090E00895FB01D2
:1005C0002081FC01228381E090E0089584E293E0A1
:1005D000089582E393E008951092F4051092F305D4
:1005E00008951092F2051092F10508951092F00509
:1005F0001092EF0508951092EE051092ED05089502
:100600008091F3059091F40501969093F405809301
:10061000F30508958091F1059091F205019690936C
:10062000F2058093F10508958091EF059091F00512
:1006300001969093F0058093EF0508958091ED0564
:100640009091EE0501969093EE058093ED05089547
:100650000F931F93CF93DF938C01EC012696CE016D
:100660000E94B902D8011A96ED91FC911B97CE0118
:10067000DF91CF911F910F911994FC01848595858D
:10068000089584EC92E0089583ED92E00895DC01F2
:100690001896ED91FC91199706961994FC018285A4
:1006A0009385089584EF92E0089583E093E00895A0
:1006B000FC01EA57FB4F80810895AF92BF92CF9221
:1006C000DF92EF92FF920F931F93CF93DF9300D0AF
:1006D0001F921F92CDB7DEB78C016B016436710596
:1006E0003CF0FC01EA57FB4F8081882309F478C075
:1006F000DA01ED91FC910190F081E02DB801615E8D
:100700007D4FCA0119957801B8EEEB1ABDEFFB0ACF
:100710002FEFF70120832EEF3196208331968083CF
:10072000319690833196292F280F2095208331967A
:10073000C082D801A25EBD4FDC9245E050E020E0CF
:1007400030E0BC016A5F7F4F6417750734F0A191F8
:100750002A0F311D4F5F5F4FF7CF6C01F8E0CF0ECE
:10076000D11C800F911FFC01E15EFD4F209520837D
:1007700021E0C21622E0D206CCF45701C5018E1941
:100780009F098C159D0584F4D80112968D919C913A
:100790001397F50161915F01DC01ED91FC910190EE
:1007A000F081E02D1995EACFC6011CC080E994E0E4
:1007B0009A83898383E08B8383E593E09D838C8395
:1007C000D801ED91FC910190F081E02DAE014F5FD9
:1007D0005F4F67E070E0C80119958FEF9FEF02C08F
:1007E00080E090E00F900F900F900F900F90DF91AE
:1007F000CF911F910F91FF90EF90DF90CF90BF901E
:10080000AF900895CF93DF93AB01EC01AE81BF8130
:10081000ED91FC9111976C817D810190F081E02D2B
:10082000CD01DF91CF911994FC01862F60837183F4
:1008300061E00C94781761E0FC0180810C94B4179E
:1008400060E0FC0180810C94B417FC0180810C9461
:100850005211FC01862F6083718360E00C9478173D
:10086000FC0180810C94E417CF93DF93EC01229676
:100870001616170624F0719561957109CE010E9434
:100880002504CE01DF91CF910C942004FC016281FC
:10089000738181E895E00C943404FC0162817381DA
:1008A0008DE795E00C943404FC016281738189E743
:1008B00095E00C943404FC016281738185E795E036
:1008C0000C943404CF93DF93EC010E942004CE01FA
:1008D0000296DF91CF910C94200481E895E00C946E
:1008E00062048DE795E00C94620489E795E00C942E
:1008F000620485E795E00C946204CF92DF92EF9258
:10090000FF9220E030E06A017B01022E04C0F694E1
:10091000E794D794C7940A94D2F7FC01C192CF010F
:10092000285F3F4F2032310571F7FF90EF90DF9045
:10093000CF9008954F925F926F927F92AF92BF9245
:10094000CF92DF92EF92FF920F931F93CF93DF939B
:10095000EC017B018A81FB0180838B8181838C8107
:1009600082838D818383DB01179640E050E0BA01DA
:10097000E4E0F0E04A805B806C807D808F010C5F5A
:100980001F4F4415550566057705C0F48A859B857C
:10099000E80FF91F3497D080218192818381FD0176
:1009A0003397D08231962083319690838C93F801CF
:1009B0004F5F5F4F6F4F7F4F1496DCCFEE0DFF1DE3
:1009C0008C8580838D8581838E8582838F858383CB
:1009D00080E090E040E050E0BA014C845D846E8499
:1009E0007F84F701E00FF11F0C5F1F4F4415550581
:1009F00066057705B8F4AC89BD89A80FB91FCC90FE
:100A00001196DC90119712963C91129713962C91A7
:100A1000C082D182328323834F5F5F4F6F4F7F4FFE
:100A20000496DBCF8E8980838F898183888D828332
:100A3000898D8383412C512C32018E899F89A88D09
:100A4000B98D481659066A067B0680F55201AA0C34
:100A5000BB1CEC8DFD8DEA0DFB1DA081B181FD015C
:100A600001900020E9F731976F01CA1ADB0AA6014D
:100A700060E070E0C701800F911F0E947D040C5F51
:100A80001F4F8C8D9D8DFC01EA0DFB1D60817181D6
:100A9000A601C701800F911F0E94E61C0C0D1D1DB1
:100AA000FFEF4F1A5F0A6F0A7F0AC7CFC801DF91B5
:100AB000CF911F910F91FF90EF90DF90CF90BF905B
:100AC000AF907F906F905F904F900895EF92FF925C
:100AD0000F931F93CF93DF938C017B01EC018A81ED
:100AE000FB018193AB81BC81ED0109900020E9F706
:100AF0002197CA1BDB0BAE0160E070E0CF010E94C2
:100B00007D04F80163817481AE01C70105960E94DE
:100B1000E61CCE010596DF91CF911F910F91FF90BA
:100B2000EF900895CF92DF92EF92FF920F931F9371
:100B3000CF93DF936C01EB01FC0182818883838179
:100B40008983A481B581FD0101900020E9F73197E7
:100B50008F010A1B1B0BA80160E070E0CE0102961A
:100B60000E947D04F60164817581A801CE0106967C
:100B70000E94E61CC8010696F601A681B781FD0118
:100B800001900020E9F731977F01EA1AFB0AA701DB
:100B900060E070E08C0F9D1F0E947D04065F1F4F78
:100BA000F60166817781A701CE01800F911F0E9417
:100BB000E61C0E0D1F1DF601A085B185FD010190FB
:100BC0000020E9F731977F01EA1AFB0AA70160E0EC
:100BD00070E0CE01800F911F0E947D040C5F1F4FBB
:100BE000F60160857185A701CE01800F911F0E94DB
:100BF000E61CC8018E0D9F1DF60162854385348574
:100C00002585C80FD91F688349833A832B830496AF
:100C1000DF91CF911F910F91FF90EF90DF90CF90D8
:100C20000895CF92DF92EF92FF92FC011082118221
:100C300012821382DB0120E030E04D9150E0022E61
:100C400002C0440F551F0A94E2F7052E000C660BF4
:100C5000770BC080D180E280F3804C295D296E291A
:100C60007F294083518362837383285F3F4F203203
:100C7000310519F7FF90EF90DF90CF9008958F9294
:100C80009F92AF92BF92CF92DF92EF92FF920F931B
:100C90001F93CF93DF9300D01F92CDB7DEB77C01B7
:100CA0008B01FB018191BF01F7018283CE01019687
:100CB0000E94110689819A81AB81BC814C015D0142
:100CC000F5E08F0E911CA11CB11C680125E0C20E3D
:100CD000D11CA601401B510B60E070E0481559057E
:100CE0006A057B0548F4F60141916F019F0122508E
:100CF0003109F9014083EDCFF801E80FF91F1482A3
:100D00000C5F1F4FF7011483038305960F900F901C
:100D10000F900F90DF91CF911F910F91FF90EF9067
:100D2000DF90CF90BF90AF909F908F9008954F929B
:100D30005F926F927F928F929F92AF92BF92CF926B
:100D4000DF92EF92FF920F931F93CF93DF93CDB774
:100D5000DEB72C970FB6F894DEBF0FBECDBF7C0177
:100D60008B01DB018C9190E0F701938382831196D4
:100D70002C91922B938382836E5F7F4FCE010996D5
:100D80000E94110689849A84AB84BC84B501A401B5
:100D90004A5F5F4F6F4F7F4FF8013696CF01801B40
:100DA000910BA0E0B0E084179507A607B70728F4D9
:100DB0008191DF0112978C93F1CFF801E80DF91DB5
:100DC0001582C8010596D70115969C938E931497AA
:100DD000B4016A5F7F4F600F711FCE0105960E94BC
:100DE0001106BAE08B0E911C4D815E816F81788572
:100DF0002401092C000C66087708440E551E661E57
:100E0000771EF801E80DF91DCF01801B910BA0E0C2
:100E1000B0E084159505A605B70528F48191DF019A
:100E200012978C93F1CF6401C40ED51EB8016C0DDE
:100E30007D1DFB0131971082C4010197800F911F26
:100E4000F70197838683CE0101960E941106A601C1
:100E50004C5F5F4F49805A806B807C804A01052E31
:100E6000000CAA08BB08840C951CA61CB71CF80132
:100E7000E40FF51F9F01201B310BC901A0E0B0E07A
:100E800088159905AA05BB0528F48191DF01129701
:100E90008C93F0CFCA01840D951DF801E80FF91F5E
:100EA000DF0111971C929A0121503109020F131F83
:100EB000D70119961C930E9318972181428150E017
:100EC00060E070E0BA0155274427522B2081422B65
:100ED0002381722BF70142875387648775870496B5
:100EE0002C960FB6F894DEBF0FBECDBFDF91CF9129
:100EF0001F910F91FF90EF90DF90CF90BF90AF9038
:100F00009F908F907F906F905F904F9008952F9259
:100F10003F924F925F926F927F928F929F92AF9289
:100F2000BF92CF92DF92EF92FF920F931F93CF93D6
:100F3000DF93CDB7DEB728970FB6F894DEBF0FBEAC
:100F4000CDBF8C015B01DB018C9111969C911197B7
:100F50001296CC901297D12CE12CF12C7601DD2445
:100F6000CC24D92AC82A13968C91F82AF8018281B8
:100F70009381A481B5818C159D05AE05BF0570F4E4
:100F8000B601660F771F660F771F828593850E94D3
:100F90000D14D8011B969C938E931A97F801C28268
:100FA000D382E482F582D5011796C12CD12C76012B
:100FB000F4E08F2E912C98012A5F3F4FF801428177
:100FC000538164817581C4010496C416D506E60672
:100FD000F70680F54C9150E060E070E0742F6627D2
:100FE00055274427FD013397E0814E2BFD013297B1
:100FF000E0815E2BFD013197E0816E2BF801468385
:101000005783608771874C01089742855385840F09
:10101000951FF9014081518162817381FC014083F8
:10102000518362837383FFEFCF1ADF0AEF0AFF0A4F
:101030001496C4CFF401EA0DFB1D20813181C280DA
:10104000D12CE12CF12C7601DD24CC24D32AC22A28
:101050002381F22A4C01F80184859585A685B78500
:101060008C159D05AE05BF0570F4B601660F771FA0
:10107000660F771F848995890E940D14D8015596B3
:101080009C938E935497F801C486D586E686F7869E
:1010900020E030E0C12CD12C7601D8015096F80127
:1010A0004485558566857785F501E80DF91DC401F0
:1010B0000496C416D506E606F70648F591804281E7
:1010C00050E060E070E0BA0155274427592990802C
:1010D0004929E3817E2BF801408B518B628B738B06
:1010E0004C0184899589FC01E20FF31F4D915D91BC
:1010F0006D917C9113974083518362837383FFEFDB
:10110000CF1ADF0AEF0AFF0A2C5F3F4FC8CF2081BA
:101110003181C280D12CE12CF12C7601DD24CC244C
:10112000D32AC22A2381F22A4C01F80186899789A1
:10113000A08DB18D8C159D05AE05BF0560F4B6017F
:10114000660F771F848D958D0E940D14D8015D96D2
:101150009C938E935C97F801C68AD78AE08EF18EB5
:10116000412C512C32011801FAE12F0E311CF801EB
:1011700086899789A08DB18D481659066A067B0627
:1011800008F05AC0B501680D791DCE0101960E9484
:10119000110694012C5F3F4FC980DA80EB80FC8000
:1011A000C901032E000CAA0BBB0BAC01BD014C0DF9
:1011B0005D1D6E1D7F1D4D835E836F837887F501F6
:1011C000E20FF31FAF014A195B09CA01A0E0B0E0CA
:1011D0004D815E816F81788584179507A607B707D3
:1011E00028F44191DF0112974C93ECCFC9018C0D8B
:1011F0009D1DF501E80FF91F31971082215031092B
:101200002A0D3B1DD8015B963C932E935A974C01B7
:10121000C201880F991F5C96ED91FC915D97E80FD4
:10122000F91FD1018D919C9191838083BFEF4B1A5F
:101230005B0A6B0A7B0A9BCFC40128960FB6F89411
:10124000DEBF0FBECDBFDF91CF911F910F91FF90F9
:10125000EF90DF90CF90BF90AF909F908F907F9056
:101260006F905F904F903F902F900895FC01E85E43
:10127000FB4F20E030E041915191452B91F4F90171
:10128000E45FFD4FEE0FFF1FE80FF91F71836083CE
:1012900023583F4FFB01358324839783868381E066
:1012A00008952F5F3F4F2931310529F780E00895D8
:1012B000DC01A65BBB4F20E030E04D915D91452BFA
:1012C00081F4F901EB5DFD4FEE0FFF1FE80FF91FF1
:1012D000718360832C593F4FFB013383228381E06C
:1012E00008952F5F3F4F2931310539F780E0089588
:1012F000DC01A65BBB4F20E030E04D915D91452BBA
:1013000081F4F901EB5DFD4FEE0FFF1FE80FF91FB0
:10131000718360832C593F4FFB013383228381E02B
:1013200008952F5F3F4F2931310539F780E0089547
:10133000E5EFF5E044815581668177818281938173
:101340000E94AD1A1092720A1092710A1092740AD9
:101350001092730A1092780A1092770A1092760A05
:101360001092750A63ED75E085EF95E00E943609ED
:1013700069EC75E085EF95E00E9436096FEB75E04A
:1013800085EF95E00E94360965EB75E085EF95E005
:101390000E94360969EA75E085EF95E00E945809D8
:1013A0006DE975E085EF95E00E94580961E975E007
:1013B00085EF95E00E94580965E875E085EF95E0B6
:1013C0000E94580967E675E085EF95E00E9478096C
:1013D00069E575E085EF95E00E9478096BE475E0BA
:1013E00085EF95E00E9478096DE375E085EF95E063
:1013F0000E94780961E375E085EF95E00E94580945
:1014000065E275E085EF95E00E94580969E175E0B5
:1014100085EF95E00E9458096DE075E085EF95E055
:101420000E9458098BE095E00E941B0489E095E03A
:101430000E9420046AEF74E085EF95E00E9436096F
:1014400042E050E060E073E082E00E94111242E06E
:1014500050E06AE073E083E00E94111242E050E045
:1014600064E173E084E00E94111242E050E06EE11A
:1014700073E085E00C9411120F931F93CF93DF93C9
:10148000CDB7DEB72A970FB6F894DEBF0FBECDBF3B
:101490008C0188E794E09A8389831B821C821D82D9
:1014A0001E821F82188619861A86D801ED91FC913A
:1014B0000190F081E02DAE014F5F5F4F6AE070E078
:1014C000C80119950E946D16F8016087718782879F
:1014D00093872A960FB6F894DEBF0FBECDBFDF917B
:1014E000CF911F910F9108954F925F926F927F92CB
:1014F000AF92BF92CF92DF92EF92FF920F931F9322
:10150000CF93DF93CDB7DEB72E970FB6F894DEBF3B
:101510000FBECDBF8C0184E894E09A8389831C823E
:101520001B828BE893E09E838D8398878F839A87B5
:1015300089871B861C861D861E86680188EEC81A50
:101540008BEFD80A7801A6EBEA1AABEFFA0A412C26
:1015500092E0592E612C712CD601ED91FC913097BF
:10156000B9F1848195819C838B83808191819E8355
:101570008D8382819381DC01ED91FC910480F58162
:10158000E02D199598878F83D601ED91FC9182818A
:101590009381DC01ED91FC910680F781E02D199596
:1015A0009A8789874B865C866D867E86F801808166
:1015B0009181F601A081B18118966D917C91199766
:1015C000DC01ED91FC91AE014F5F5F4FC8011995B1
:1015D000B2E0CB0ED11CCE14DF0409F0BDCF680100
:1015E000E4E8CE1AEBEFDE0A412C82E0582E612CA3
:1015F000712CF701A081B1811097E1F112968D91C4
:101600009C9113979C838B8314968D919C91159735
:101610009E838D83ED91FC9111970480F581E02DDF
:10162000CD01199598878F83D7018D919C91DC010D
:10163000ED91FC910680F781E02D19959A878987B5
:101640004B865C866D867E86D801ED91FC91A080EC
:10165000B180F70180819181DC01ED91FC910280E4
:10166000F381E02D1995AE014F5F5F4FBC01C801BA
:10167000F5011995F2E0EF0EF11CEC14FD0409F0F0
:10168000B8CFF801EA57FB4F81E080832E960FB662
:10169000F894DEBF0FBECDBFDF91CF911F910F91A8
:1016A000FF90EF90DF90CF90BF90AF907F906F90C2
:1016B0005F904F9008958F929F92AF92BF92CF927A
:1016C000DF92EF92FF920F931F93CF93DF93CDB7EB
:1016D000DEB72A970FB6F894DEBF0FBECDBF8C01E0
:1016E0005B0188E794E09A8389831B821C821D82B8
:1016F0001E821F82188619861A860E946D16F801AE
:10170000C084D184E284F3849B01AC012C193D098F
:101710004E095F0969017A01B501CE0101960E9467
:10172000520288EE882E83E0982EA12CB12CC7019E
:10173000B601A50194010E948E1CCB80DC80ED8057
:10174000FE80C20ED31EE41EF51ECB82DC82ED822B
:10175000FE829B01AC0160E472E48FE090E00E94A5
:101760006A1CCF80D884E984FA84DC01CB018C0D1B
:101770009D1DAE1DBF1D8F839887A987BA870E94C4
:101780006D16CB80DC80ED80FE8031E0C31AD1087D
:10179000E108F108A50194010E948E1CC21AD30A27
:1017A000E40AF50AF801C486D586E686F786CF8076
:1017B000D884E984FA84F6E3DF1AF5E6EF0AF4EC5C
:1017C000FF0A9B01AC0160E472E48FE090E00E94AC
:1017D0006A1CC61AD70AE80AF90AF801C08AD18A2F
:1017E000E28AF38AB801605F7F4FC8010C960E94BD
:1017F0003C1C0E946D16F801E557FB4F6083718316
:10180000828393832A960FB6F894DEBF0FBECDBFB6
:10181000DF91CF911F910F91FF90EF90DF90CF90CC
:10182000BF90AF909F908F9008952F923F924F92CC
:101830005F926F927F928F929F92AF92BF92CF9260
:10184000DF92EF92FF920F931F93CF93DF93CDB769
:10185000DEB760970FB6F894DEBF0FBECDBF988B92
:101860008F870E946D164B015C012F8538892557A3
:101870003B4F3E832D83F90180819181A281B38109
:10188000A5019401281B390B4A0B5B0BDA01C90136
:10189000893F9A42A105B10528F0EF85F889EA57FA
:1018A000FB4F10820F85188904581B4FD8018D916A
:1018B0009C91892B81F0EF85F889E157FB4F80815E
:1018C0009181A281B38188159905AA05BB0518F4F9
:1018D000F801118210826F847888FCE76F1AFBEFA1
:1018E0007F0A2F85388920583B4F3A832983CF843C
:1018F000D88838E1C30ED11C4F8558894A575B4FB1
:1019000058874F832F8538892C563B4F3A87298734
:101910004F8558894D565B4F5C874B87EF84F8881D
:1019200052E8E51A5BEFF50A2F8538892E573B4FB1
:101930003C832B834F85588941575B4F5E874D878A
:101940001401250154E1250E311C411C511CEF8569
:10195000F88984899589A689B789892B8A2B8B2B4D
:1019600089F4AF85B88912968D919C911397DC010B
:10197000ED91FC910680F781E02D19959C0197FF70
:1019800015C037C10E946D16DC01CB018819990979
:10199000AA09BB09EF85F8892489358946895789C1
:1019A000281739074A075B07E0F64BC1D3018D9131
:1019B0009C911197820F931F8D939C93F801408106
:1019C000518147305105D9F4AB81BC818D919C91F7
:1019D0001197AC014F5F5F4F4D935C93EF85F88992
:1019E000E80FF91F208FF701808191810197918382
:1019F0008083892B09F0ABCF88E090E02FC04115A0
:101A0000510521F52F3F310569F481E090E0F8019F
:101A100091838083AD85BE852D923D924D925C92DF
:101A2000139795CF0E946D16DC01CB018819990997
:101A3000AA09BB0989389341A105B10508F487CFEC
:101A4000EF85F889EA57FB4F1082FBC04130510502
:101A5000B1F42E3F310531F482E090E0D8018D934E
:101A60009C9375CFF80111821082AF81B8858C915B
:101A700081116DCF8F8598890E943C0A68CF4230D2
:101A8000510569F4F70131832083AB81BC811D923C
:101A90001C9283E090E0F801918380832EC0433054
:101AA000510561F4322F2227F70180819181280F9F
:101AB000391F3183208384E090E0D0CF443051053A
:101AC00081F460E071E00E947A1C8F3F910531F44F
:101AD00085E090E0F8019183808339CF11821082F4
:101AE00036CF4530510569F4E981FA81318320838D
:101AF000E6E0F0E0D801ED93FC93D3012D933C9305
:101B000026CF4630510599F4322F2227E981FA81F8
:101B100080819181280F391F31832083E7E0F0E035
:101B2000D801ED93FC93D7018D919C9162CF483001
:101B3000510509F00CCFF8011182108260E071E0CC
:101B40000E947A1C8F3F910509F001CFA981BA81CB
:101B50008D919C910097C9F48F8598890E943C0AC9
:101B60008F8598890E94740AEF85F889E957FB4FA1
:101B700080829182A282B382ED81FE8180829182F5
:101B8000A282B3828FEF9FEF61C08A30910531F45A
:101B9000B6018F8598890E945B0BD9CE863091055E
:101BA00051F4B60189859A850E94870781E0AB854B
:101BB000BC858C93CCCE8B30910521F4EF81F885D8
:101BC0001082C5CEFC01EF53FE4FEE0FFF1F2F8595
:101BD0003889E20FF31F80819181009709F4B7CE15
:101BE000DC01ED91FC910190F081E02DB601199599
:101BF000AECEEF85F889EA57FB4F8081882321F12B
:101C00000F85188909571B4FF80180819181A281A6
:101C1000B381A5019401281B390B4A0B5B0BDA0138
:101C2000C901853C9940A105B10570F08F8598895F
:101C30000E943C0AD8018D929D92AD92BC9213975E
:101C400003C08EEF9FEF02C080E090E060960FB679
:101C5000F894DEBF0FBECDBFDF91CF911F910F91E2
:101C6000FF90EF90DF90CF90BF90AF909F908F90BC
:101C70007F906F905F904F903F902F90089580914C
:101C8000F3059091F4059093EC058093EB0580911A
:101C9000F1059091F2059093E8058093E705809116
:101CA000EF059091F0059093E4058093E305809112
:101CB000ED059091EE059093E0058093DF0569EEC8
:101CC00075E083ED95E00E94020465EE75E089EC15
:101CD00095E00E94020461EE75E08FEB95E00E94B2
:101CE00002046DED75E085EB95E00E94020487E04B
:101CF00095E00E94300421E0892B09F420E0209334
:101D0000060564E075E08AEF94E00E94020485EF26
:101D100095E00E94150C6AE070E080E090E00C9481
:101D20009E16AF92BF92CF92DF92EF92FF920F93E7
:101D30001F93CF93DF9300D01F92CDB7DEB78CEC0B
:101D400094E09093F6058093F50586E29BE09093EE
:101D5000F8058093F70580E091EEA0E0B0E0809375
:101D6000F9059093FA05A093FB05B093FC0510923A
:101D70007B0A8CE994E090938A0A8093890A1092F6
:101D80008B0A10928C0A10928D0A10928E0A109271
:101D9000940A1092930A1092950A1092960A109241
:101DA000970A1092980A10929E0A10929D0A109219
:101DB0009F0A1092A00A1092A10A1092A20A1092F1
:101DC000A60A1092A50AEDE0FAE0119211928AE0BB
:101DD000EF33F807D1F7EFE3FAE0119211928AE0BE
:101DE000E137F807D1F7EDE0F6E0119288E0ED3049
:101DF000F807D9F7EDE0F8E011928AE0ED30F80746
:101E0000D9F71092090610920A0610920B0610924A
:101E10000C061092F4051092F3051092F205109240
:101E2000F1051092F0051092EF051092EE05109258
:101E3000ED0588EAA82E84E0B82EB092EA05A092BB
:101E4000E9051092EC051092EB05B092E605A09220
:101E5000E5051092E8051092E705B092E205A09220
:101E6000E1051092E4051092E305B092DE05A09220
:101E7000DD051092E0051092DF058CE893E0909369
:101E8000D4058093D30589EE95E09093D605809391
:101E9000D5051092DC051092DB0588E993E090935C
:101EA000CA058093C90585EE95E09093CC05809393
:101EB000CB051092D2051092D10584EA93E090935D
:101EC000C0058093BF0581EE95E09093C205809395
:101ED000C1051092C8051092C70580EB93E090935E
:101EE000B6058093B5058DED95E09093B805809388
:101EF000B7051092BE051092BD0596EDC92E94E06F
:101F0000D92ED092AA05C092A90524EBE22E24E096
:101F1000F22EF092B005E092AF058CEE92E0909335
:101F2000B2058093B10501E010E01093B405009371
:101F3000B3058CEB93E09093AE058093AD05D09202
:101F40009E05C0929D05F092A405E092A30581EF45
:101F500092E09093A6058093A5051093A8050093A1
:101F6000A70589EC93E09093A2058093A105D092F8
:101F70009205C0929105F0929805E092970586EF40
:101F800092E090939A058093990510939C05009395
:101F90009B0586ED93E09093960580939505D092EE
:101FA0008605C0928505F0928C05E0928B058BEF3B
:101FB00092E090938E0580938D0510939005009389
:101FC0008F0583EE93E090938A058093890562E004
:101FD00070E0CE0103960E94140463E070E0CE012D
:101FE00001960E94140489819A812B813C8130934F
:101FF000820520938105909384058093830564E096
:1020000070E0CE0103960E94140465E070E0CE01FA
:1020100001960E94140489819A812B813C8130931E
:102020007E0520937D059093800580937F0566E073
:1020300070E0CE0103960E94140467E070E0CE01C8
:1020400001960E94140489819A812B813C813093EE
:102050007A052093790590937C0580937B0568E051
:1020600070E0CE0103960E94140469E070E0CE0196
:1020700001960E94140489819A812B813C813093BE
:10208000760520937505909378058093770582EE09
:1020900094E09093680580936705B0926E05A092D6
:1020A0006D051092700510926F0526E434E03093B0
:1020B000720520937105109374050093730520EF4A
:1020C00033E030936C0520936B0590935A05809311
:1020D0005905B0926005A0925F05109262051092BA
:1020E00061052DE434E0309364052093630510937B
:1020F0006605009365052DEF33E030935E05209370
:102100005D0590934C0580934B05B0925205A092CB
:102110005105109254051092530524E534E0309394
:1021200056052093550510935805009357052AE04E
:1021300034E03093500520934F0590933E058093F3
:102140003D05B0924405A0924305109246051092B9
:1021500045058BE594E090934805809347051093DF
:102160004A050093490587E194E0909342058093E6
:102170004105D0923205C0923105F0923805E092C7
:1021800037058DE694E090933A05809339051093D6
:102190003C0500933B0584E294E0909336058093E0
:1021A0003505D0922605C0922505F0922C05E092C7
:1021B0002B0581E794E090932E0580932D051093D5
:1021C000300500932F058FE294E090932A058093C9
:1021D0002905D0921A05C0921905F0922005E092C7
:1021E0001F0585E794E090932205809321051093C5
:1021F0002405009323058AE394E090931E058093C1
:102200001D05D0920E05C0920D05F0921405E092C6
:10221000130589E794E090931605809315051093B4
:1022200018050093170585E494E0909312058093B8
:10223000110568E170E08BE095E00E94140466E10E
:1022400070E089E095E00E9414046AE170E087E0A4
:1022500095E00E94290480EC94E09093050580931A
:1022600004051092060580E594E09093FB048093AA
:10227000FA0484E095E09093FD048093FC041092AE
:102280000305109202050F900F900F900F90DF91B1
:10229000CF911F910F91FF90EF90DF90CF90BF9063
:1022A000AF9008951F93CF93DF93182FEB0161E058
:1022B0000E947817209711F460E004C0CF3FD10549
:1022C00039F461E0812FDF91CF911F910C94B41705
:1022D000E12FF0E0EE52FD4FE4914E2F50E0FA0175
:1022E0003197E131F10508F093C08827EE58FF4F90
:1022F0008F4F0C94B01C84B5806884BDC7BD8DC061
:1023000084B5806284BDC8BD88C08091800080682B
:1023100080938000D0938900C09388007EC0809114
:102320008000806280938000D0938B00C0938A00ED
:1023300074C08091B00080688093B000C093B300F7
:102340006CC08091B00080628093B000C093B400F4
:1023500064C080919000806880939000D093990031
:10236000C09398005AC08091900080628093900042
:10237000D0939B00C0939A0050C0809190008860D9
:1023800080939000D0939D00C0939C0046C08091A4
:10239000A00080688093A0008091A0008F7B809334
:1023A000A000D093A900C093A80037C08091A000DE
:1023B00080628093A000D093AB00C093AA002DC090
:1023C0008091A00088608093A000D093AD00C0935E
:1023D000AC0023C080912001806880932001D093BD
:1023E0002901C093280119C0809120018062809347
:1023F0002001D0932B01C0932A010FC080912001AE
:10240000886080932001D0932D01C0932C0105C0DA
:10241000C038D1050CF055CF4FCFDF91CF911F9130
:102420000895883008F070C0A82FB0E0AA0FBB1F35
:10243000A955B54F11967C936E9390E0FC013197AE
:10244000E730F105A0F58827ED57FF4F8F4F0C942B
:10245000B01C809169008C7F482B40936900E89AFA
:10246000089580916900440F551F440F551F837FC5
:10247000482B40936900E99A08958091690074E0BF
:10248000440F551F7A95E1F78F7C482B40936900E4
:10249000EA9A08958091690066E0440F551F6A9595
:1024A000E1F78F73482B40936900EB9A0895809170
:1024B0006A008C7F482B40936A00EC9A08958091C3
:1024C0006A00440F551F440F551F837F482B4093CC
:1024D0006A00ED9A089580916A0024E0440F551F28
:1024E0002A95E1F78F7C482B40936A00EE9A089575
:1024F00080916A0096E0440F551F9A95E1F78F731B
:10250000482B40936A00EF9A08951F920F920FB6DE
:102510000F9211240BB60F922F933F934F935F931B
:102520006F937F938F939F93AF93BF93EF93FF939B
:102530008091AB0A9091AC0A892B29F0E091AB0A0B
:10254000F091AC0A1995FF91EF91BF91AF919F91D6
:102550008F917F916F915F914F913F912F910F904C
:102560000BBE0F900FBE0F901F9018951F920F92E9
:102570000FB60F9211240BB60F922F933F934F93E8
:102580005F936F937F938F939F93AF93BF93EF93DB
:10259000FF938091AD0A9091AE0A892B29F0E091CA
:1025A000AD0AF091AE0A1995FF91EF91BF91AF91ED
:1025B0009F918F917F916F915F914F913F912F915B
:1025C0000F900BBE0F900FBE0F901F9018951F928B
:1025D0000F920FB60F9211240BB60F922F933F93C9
:1025E0004F935F936F937F938F939F93AF93BF931B
:1025F000EF93FF938091AF0A9091B00A892B29F055
:10260000E091AF0AF091B00A1995FF91EF91BF9157
:10261000AF919F918F917F916F915F914F913F917A
:102620002F910F900BBE0F900FBE0F901F9018951B
:102630001F920F920FB60F9211240BB60F922F9389
:102640003F934F935F936F937F938F939F93AF933A
:10265000BF93EF93FF938091B10A9091B20A892BB7
:1026600029F0E091B10AF091B20A1995FF91EF912A
:10267000BF91AF919F918F917F916F915F914F919A
:102680003F912F910F900BBE0F900FBE0F901F9098
:1026900018951F920F920FB60F9211240BB60F923E
:1026A0002F933F934F935F936F937F938F939F935A
:1026B000AF93BF93EF93FF938091A70A9091A80ADD
:1026C000892B29F0E091A70AF091A80A1995FF91AA
:1026D000EF91BF91AF919F918F917F916F915F919A
:1026E0004F913F912F910F900BBE0F900FBE0F9007
:1026F0001F9018951F920F920FB60F9211240BB6D0
:102700000F922F933F934F935F936F937F938F938A
:102710009F93AF93BF93EF93FF938091A90A9091FA
:10272000AA0A892B29F0E091A90AF091AA0A199521
:10273000FF91EF91BF91AF919F918F917F916F9199
:102740005F914F913F912F910F900BBE0F900FBE55
:102750000F901F9018951F920F920FB60F92112491
:102760000BB60F922F933F934F935F936F937F938B
:102770008F939F93AF93BF93EF93FF938091B30A8F
:102780009091B40A892B29F0E091B30AF091B40A30
:102790001995FF91EF91BF91AF919F918F917F918B
:1027A0006F915F914F913F912F910F900BBE0F90C2
:1027B0000FBE0F901F9018951F920F920FB60F9299
:1027C00011240BB60F922F933F934F935F936F9308
:1027D0007F938F939F93AF93BF93EF93FF938091DA
:1027E000B50A9091B60A892B29F0E091B50AF091CB
:1027F000B60A1995FF91EF91BF91AF919F918F917B
:102800007F916F915F914F913F912F910F900BBEF0
:102810000F900FBE0F901F9018956F927F928F921E
:102820009F92AF92BF92CF92DF92EF92FF920F935F
:102830001F93CF93DF93EC01009789F4CB01DF91D5
:10284000CF911F910F91FF90EF90DF90CF90BF90AD
:10285000AF909F908F907F906F900C94F614FC0136
:10286000E60FF71F9C0122503109E217F30708F425
:10287000ACC0D9010D911C91119706171707B0F044
:102880000530110508F49FC0C80104978617970703
:1028900008F499C002501109061B170B01931193FC
:1028A0006D937C93CF010E948B158DC05B01A01AA4
:1028B000B10A4C01800E911EA0916A0DB0916B0D72
:1028C00040E050E0E12CF12C109709F44AC0A81523
:1028D000B905D1F56D907C901197630182E0C80E27
:1028E000D11CCA14DB0480F1A3014A195B096A01F7
:1028F00082E0C80ED11C1296BC9012971396AC9130
:10290000B5E0CB16D10440F0B282A383518340835B
:10291000D9016D937C930AC00E5F1F4FC301800FD6
:10292000911FF90191838083EB2DFA2FE114F104BB
:1029300031F0D7011396FC93EE93129744C0F093B5
:102940006B0DE0936A0D3FC08D919C9111974817D4
:10295000590708F4AC017D0112960D90BC91A02D91
:10296000B3CF8091680D9091690D88159905E1F4B8
:1029700046175707C8F48091000290910102009712
:1029800041F48DB79EB74091040250910502841B1B
:10299000950BE817F907C8F4F093690DE093680DFB
:1029A000F901718360830FC0CB010E94F6147C0192
:1029B000009759F0A801BE010E94E61CCE010E94BA
:1029C0008B15C70104C0CE0102C080E090E0DF910A
:1029D000CF911F910F91FF90EF90DF90CF90BF901C
:1029E000AF909F908F907F906F900895CF93DF93DB
:1029F0008230910510F482E090E0E0916A0DF09150
:102A00006B0D20E030E0C0E0D0E0309711F1408164
:102A1000518148175907C0F04817590761F482815E
:102A20009381209719F09B838A832BC090936B0D21
:102A300080936A0D26C02115310519F042175307FE
:102A400018F49A01BE01DF01EF010280F381E02D4D
:102A5000DCCF2115310509F1281B390B2430310554
:102A600090F412968D919C9113976115710521F048
:102A7000FB019383828304C090936B0D80936A0D56
:102A8000FD01329644C0FD01E20FF31F8193919343
:102A9000225031092D933C933AC02091680D30911A
:102AA000690D232B41F420910202309103023093EF
:102AB000690D2093680D20910002309101022115CB
:102AC000310541F42DB73EB7409104025091050203
:102AD000241B350BE091680DF091690DE217F307A7
:102AE000A0F42E1B3F0B2817390778F0AC014E5F7E
:102AF0005F4F2417350748F04E0F5F1F5093690D45
:102B00004093680D8193919302C0E0E0F0E0CF0123
:102B1000DF91CF9108950F931F93CF93DF93009789
:102B200009F48CC0FC0132971382128200916A0D65
:102B300010916B0D0115110581F420813181820FF7
:102B4000931F2091680D3091690D2817390779F589
:102B5000F093690DE093680D71C0D80140E050E03A
:102B6000AE17BF0750F412962D913C911397AD010B
:102B70002115310509F1D901F3CF9D01DA01338324
:102B8000228360817181860F971F8217930769F4F2
:102B9000EC0128813981260F371F2E5F3F4F31838B
:102BA00020838A819B8193838283452B29F4F09330
:102BB0006B0DE0936A0D42C01396FC93EE9312974F
:102BC000ED01499159919E01240F351FE217F3073A
:102BD00071F480819181840F951F029611969C93C8
:102BE0008E938281938113969C938E931297E0E04B
:102BF000F0E0D80112968D919C911397009719F0EF
:102C0000F8018C01F6CF8D919C9198012E5F3F4F7A
:102C1000820F931F2091680D3091690D2817390795
:102C200069F4309729F410926B0D10926A0D02C06E
:102C3000138212821093690D0093680DDF91CF917A
:102C40001F910F9108951F920F920FB60F921124AA
:102C50002F933F938F939F93AF93BF938091B80A25
:102C60009091B90AA091BA0AB091BB0A3091B70A03
:102C700023E0230F2D3720F40196A11DB11D05C0BF
:102C800026E8230F0296A11DB11D2093B70A809359
:102C9000B80A9093B90AA093BA0AB093BB0A80917C
:102CA000BC0A9091BD0AA091BE0AB091BF0A0196DC
:102CB000A11DB11D8093BC0A9093BD0AA093BE0ACA
:102CC000B093BF0ABF91AF919F918F913F912F9188
:102CD0000F900FBE0F901F9018952FB7F89460912A
:102CE000B80A7091B90A8091BA0A9091BB0A2FBFB5
:102CF00008953FB7F8948091BC0A9091BD0AA091C5
:102D0000BE0AB091BF0A26B5A89B05C02F3F19F097
:102D10000196A11DB11D3FBFBA2FA92F982F88275B
:102D2000820F911DA11DB11DBC01CD0142E0660FB6
:102D3000771F881F991F4A95D1F70895CF92DF9288
:102D4000EF92FF92CF93DF936B017C010E94791683
:102D5000EB01C114D104E104F10479F00E94791669
:102D60006C1B7D0B683E7340A0F381E0C81AD1084C
:102D7000E108F108C851DC4FECCFDF91CF91FF9013
:102D8000EF90DF90CF900895789484B5826084BDF1
:102D900084B5816084BD85B5826085BD85B581605F
:102DA00085BDEEE6F0E0808181608083E1E8F0E0BF
:102DB0001082808182608083808181608083E0E8EE
:102DC000F0E0808181608083E1EBF0E080818460CD
:102DD0008083E0EBF0E0808181608083E1E9F0E0D6
:102DE000808182608083808181608083E0E9F0E07F
:102DF000808181608083E1EAF0E08081826080836D
:102E0000808181608083E0EAF0E08081816080835E
:102E1000E1E2F1E080818260808380818160808353
:102E2000E0E2F1E0808181608083EAE7F0E0808188
:102E300084608083808182608083808181608083E0
:102E40008081806880831092C100089590E0FC0129
:102E50003197E131F10508F04AC08827E657FF4F66
:102E60008F4F0C94B01C809180008F7703C08091AD
:102E700080008F7D80938000089584B58F7702C095
:102E800084B58F7D84BD08958091B0008F7703C095
:102E90008091B0008F7D8093B00008958091900064
:102EA0008F7707C0809190008F7D03C08091900044
:102EB000877F8093900008958091A0008F7707C04E
:102EC0008091A0008F7D03C08091A000877F8093B8
:102ED000A0000895809120018F7707C08091200184
:102EE0008F7D03C080912001877F8093200108950A
:102EF000CF93DF9390E0FC01E85EFC4F2491FC014E
:102F0000E25AFC4F8491882361F190E0880F991F69
:102F1000FC01E852FC4FC591D491FC01E254FC4FF6
:102F2000A591B491611109C09FB7F894888120954B
:102F300082238883EC912E230BC0623061F49FB70B
:102F4000F8943881822F809583238883EC912E2BEF
:102F50002C939FBF06C08FB7F894E8812E2B28834F
:102F60008FBFDF91CF9108951F93CF93DF93282FC9
:102F700030E0F901EE52FD4F8491F901E85EFC4F1B
:102F8000D491F901E25AFC4FC491CC23C9F0162F19
:102F900081110E942617EC2FF0E0EE0FFF1FE25484
:102FA000FC4FA591B4918FB7F894111105C09C9175
:102FB000ED2FE095E92302C0EC91ED2BEC938FBF50
:102FC000DF91CF911F910895CF93DF93282F30E0A9
:102FD000F901EE52FD4F8491F901E85EFC4FD49166
:102FE000F901E25AFC4FC491CC2391F081110E9467
:102FF0002617EC2FF0E0EE0FFF1FEC55FC4FA591CC
:10300000B491EC91ED2381E090E021F480E002C0E6
:1030100080E090E0DF91CF910895FC012485358513
:10302000F901E05CFF4F80819181329620813181EE
:10303000821B930B8F7399270895DC011C96ED91E9
:10304000FC911D97DF01A05CBF4F2D913C91119722
:1030500012968D919C9111972817390739F08D910F
:103060009C91E80FF91F808190E008958FEF9FEF0A
:103070000895FC01A485B585FD01E05CFF4F20812A
:1030800031813296808191812817390779F08081CA
:103090009181A80FB91F8C91208131812F5F3F4F03
:1030A0002F7333273183208390E008958FEF9FEFB4
:1030B0000895FC0181A1882329F0A489B5898C9108
:1030C00086FFFBCF11A208950F931F93CF93DF9339
:1030D000FC01A685B7858D01005C1F4FE801888142
:1030E000998101968F739927AD014E5B5F4FEA017D
:1030F0002881398182179307D1F3E801288139812A
:10310000A20FB31F6C93A685B785A05CBF4F119625
:103110009C938E93A689B7892C9181E090E0078CCF
:1031200002C0880F991F0A94E2F7822B8C9381E0EA
:1031300081A30488F589E02D80818064808381E00B
:1031400090E0DF91CF911F910F910895FB01E05C1A
:10315000FF4F208131812F5F3F4F2F733327DB01DA
:10316000AE5BBF4F4D915C912417350741F0408114
:103170005181DB01A40FB51F8C9331832083089507
:1031800008951F920F920FB60F9211240BB60F9253
:103190002F933F934F935F936F937F938F939F935F
:1031A000AF93BF93EF93FF938091C00082FD07C060
:1031B0008091C60064E27DE00E94A61802C0809162
:1031C000C600FF91EF91BF91AF919F918F917F9139
:1031D0006F915F914F913F912F910F900BBE0F9088
:1031E0000FBE0F901F90189508951F920F920FB663
:1031F0000F9211240BB60F922F933F934F935F932F
:103200006F937F938F939F93AF93BF93EF93FF93AE
:103210008091C80082FD07C08091CE006CE97CE0FF
:103220000E94A61802C08091CE00FF91EF91BF913D
:10323000AF919F918F917F916F915F914F913F914E
:103240002F910F900BBE0F900FBE0F901F901895EF
:1032500008951F920F920FB60F9211240BB60F9282
:103260002F933F934F935F936F937F938F939F938E
:10327000AF93BF93EF93FF938091D00082FD07C07F
:103280008091D60064E17CE00E94A61802C0809183
:10329000D600FF91EF91BF91AF919F918F917F9158
:1032A0006F915F914F913F912F910F900BBE0F90B7
:1032B0000FBE0F901F90189508951F920F920FB692
:1032C0000F9211240BB60F922F933F934F935F935E
:1032D0006F937F938F939F93AF93BF93EF93FF93DE
:1032E0008091300182FD07C0809136016CE87BE05F
:1032F0000E94A61802C080913601FF91EF91BF9104
:10330000AF919F918F917F916F915F914F913F917D
:103310002F910F900BBE0F900FBE0F901F9018951E
:1033200086E29BE00E940D18892B11F00E94C018C4
:1033300084E09BE00E940D18892B11F00E94F41884
:1033400082EE9AE00E940D18892B11F00E94281934
:1033500080EC9AE00E940D18892B11F00C945C19F6
:1033600008951F920F920FB60F9211240BB60F9271
:103370002F933F938F939F93EF93FF932091200D73
:103380003091210D8091220D9091230D281739073E
:1033900031F48091C1008F7D8093C10014C0E09111
:1033A000220DF091230DE052F34F20818091220DE8
:1033B0009091230D01968F7399279093230D8093FD
:1033C000220D2093C600FF91EF919F918F913F9125
:1033D0002F910F900BBE0F900FBE0F901F9018955E
:1033E0001F920F920FB60F9211240BB60F922F93CC
:1033F0003F938F939F93EF93FF932091980C30917D
:10340000990C80919A0C90919B0C2817390731F4F4
:103410008091C9008F7D8093C90014C0E0919A0CFF
:10342000F0919B0CE85AF34F208180919A0C909177
:103430009B0C01968F73992790939B0C80939A0C09
:103440002093CE00FF91EF919F918F913F912F910B
:103450000F900BBE0F900FBE0F901F9018951F92EC
:103460000F920FB60F9211240BB60F922F933F932A
:103470008F939F93EF93FF932091100C3091110C39
:103480008091120C9091130C2817390731F4809118
:10349000D1008F7D8093D10014C0E091120CF09187
:1034A000130CE053F44F20818091120C9091130C77
:1034B00001968F7399279093130C8093120C20938D
:1034C000D600FF91EF919F918F913F912F910F9097
:1034D0000BBE0F900FBE0F901F9018951F920F926A
:1034E0000FB60F9211240BB60F922F933F938F9329
:1034F0009F93EF93FF932091880B3091890B8091DC
:103500008A0B90918B0B2817390731F48091310188
:103510008F7D8093310114C0E0918A0BF0918B0B69
:10352000E85BF44F208180918A0B90918B0B019680
:103530008F73992790938B0B80938A0B209336017E
:10354000FF91EF919F918F913F912F910F900BBE23
:103550000F900FBE0F901F901895CF92DF92EF92B1
:10356000FF920F931F93CF93DF93EC016A017B01CE
:103570004115514E6105710509F1EC89FD8981E024
:1035800090E008A002C0880F991F0A94E2F7808398
:1035900060E079E08DE390E0A70196010E948E1C27
:1035A00089019A01015011092109310936952795A0
:1035B00017950795980101151041A8F0EC89FD8930
:1035C000108260E874E88EE190E0A70196010E9405
:1035D0008E1CDA01C9010197A109B109B695A79519
:1035E000979587959C01E889F9893083EA89FB8959
:1035F000208319A2EE89FF89408181E090E09C013F
:103600000C8C02C0220F331F0A94E2F7242B208374
:10361000EE89FF8940819C010D8C02C0220F331F6F
:103620000A94E2F7242B2083EE89FF8940819C01D4
:103630000E8C02C0220F331F0A94E2F7242B208342
:10364000EE89FF8920810F8C02C0880F991F0A9490
:10365000E2F7809582238083DF91CF911F910F91B4
:10366000FF90EF90DF90CF900895CF92DF92EF928E
:10367000FF92E6E2FBE01382128288EEC82E83E01E
:10368000D82EE12CF12CC482D582E682F7826EEE30
:1036900074E07183608384E29DE09587848780EE87
:1036A0009CE09787868785EC90E0918B808B84ECFB
:1036B00090E0938B828B80EC90E0958B848B81ECF7
:1036C00090E0978B868B82EC90E0918F808F86ECD8
:1036D00090E0938F828F44E0448F33E0358F27E072
:1036E000268F95E0978F81E080A3E4E0FBE01382D2
:1036F0001282C482D582E682F78271836083ACE94C
:10370000BCE0B587A487A8E5BCE0B787A687ADEC89
:10371000B0E0B18BA08BACECB0E0B38BA28BA8EC8B
:10372000B0E0B58BA48BA9ECB0E0B78BA68BAAEC6C
:10373000B0E0B18FA08FAEECB0E0B38FA28F448F1A
:10374000358F268F978F80A3E2EEFAE013821282E4
:10375000C482D582E682F78271836083A4E1BCE0F3
:10376000B587A487A0EDBBE0B787A687A5EDB0E03D
:10377000B18BA08BA4EDB0E0B38BA28BA0EDB0E039
:10378000B58BA48BA1EDB0E0B78BA68BA2EDB0E01A
:10379000B18FA08FA6EDB0E0B38FA28F448F358F8D
:1037A000268F978F80A3E0ECFAE013821282C48206
:1037B000D582E682F782718360836CE87BE075874F
:1037C000648768E47BE07787668765E371E0718BE7
:1037D000608B64E371E0738B628B60E371E0758BE7
:1037E000648B61E371E0778B668B62E371E0718FCC
:1037F000608F66E371E0738F628F448F358F268F01
:10380000978F80A3FF90EF90DF90CF900895CF9295
:10381000DF92EF92FF920F931F93CF93DF936C0190
:10382000EB017B01E40EF51E00E010E0CE15DF0594
:1038300061F06991D601ED91FC910190F081E02D4C
:10384000C6011995080F191FF1CFC801DF91CF915B
:103850001F910F91FF90EF90DF90CF9008950E94FD
:10386000C4160E949809C0E9D9E10E943F0E209732
:10387000E1F30E949019F9CFCF92DF92EF92FF927D
:103880000F931F93CF93DF938C01EB0168817981B4
:103890008A819B8120E03AEC4AE95BE30E948E1C1E
:1038A000F801C080D180E280F380C20ED31EE41EF6
:1038B000F51EC082D182E282F382688379838A8393
:1038C0009B83DF91CF911F910F91FF90EF90DF903D
:1038D000CF900895DB018F939F930E94B81CBF91F6
:1038E000AF91A29F800D911DA39F900DB29F900D4F
:1038F0001124089597FB072E16F4009407D077FD46
:1039000009D00E94C31C07FC05D03EF49095819518
:103910009F4F0895709561957F4F0895A1E21A2EEB
:10392000AA1BBB1BFD010DC0AA1FBB1FEE1FFF1F63
:10393000A217B307E407F50720F0A21BB30BE40BB3
:10394000F50B661F771F881F991F1A9469F76095FA
:103950007095809590959B01AC01BD01CF010895B4
:10396000EE0FFF1F881F8BBF0790F691E02D199473
:103970000E94D71CA59F900DB49F900DA49F800D11
:10398000911D11240895AA1BBB1B51E107C0AA1F5A
:10399000BB1FA617B70710F0A61BB70B881F991FF0
:1039A0005A95A9F780959095BC01CD010895A29FE5
:1039B000B001B39FC001A39F700D811D1124911D03
:1039C000B29F700D811D1124911D0895FB01DC0132
:1039D00002C001900D9241505040D8F70895F894DC
:0239E000FFCF17
:1039E20000006C0D80007374645F6D7367732F54F5
:1039F200696D650063643731363663373463353554
:103A020032633331316662636332666535613762D0
:103A12006332383900726F7373657269616C5F6DFE
:103A22007367732F546F706963496E666F003061FC
:103A3200643531663838666334343839326638630F
:103A4200313036383430373736343630303500722C
:103A52006F7373657269616C5F6D7367732F4C6FFF
:103A62006700313161626437333163323539333360
:103A7200323631636436313833626431326436321D
:103A8200393500396630653938626461363539381E
:103A92003139383664646635336166613761343092
:103AA200653439007374645F6D7367732F496E7484
:103AB200313600383532343538366533346662642F
:103AC200376362316330386335663566316361303E
:103AD200653537007374645F6D7367732F456D705E
:103AE2007479006434316438636439386630306222
:103AF20032303465393830303939386563663834B4
:103B0200323765007374645F6D7367732F426F6F32
:103B12006C0038623934633162353364623631663F
:103B2200623661656434303630323861643633333C
:103B32003261004D6573736167652066726F6D2037
:103B42006465766963652064726F707065643A209B
:103B52006D657373616765206C617267657220744D
:103B620068616E206275666665722E006D6F746F95
:103B720072302F7A65726F006D6F746F72312F7AA7
:103B820065726F006D6F746F72322F7A65726F009B
:103B92006D6F746F72332F7A65726F006D6F746F11
:103BA20072302F7265736574006D6F746F72312F8E
:103BB2007265736574006D6F746F72322F72657304
:103BC2006574006D6F746F72332F72657365740064
:103BD2006D6F746F72302F6D6F746F72006D6F74D2
:103BE2006F72312F6D6F746F72006D6F746F7232FE
:103BF2002F6D6F746F72006D6F746F72332F6D6FF4
:103C0200746F72006D6F746F72302F6F6666006D25
:103C12006F746F72312F6F6666006D6F746F7232E0
:103C22002F6F6666006D6F746F72332F6F6666005A
:103C32007377697463683000726F73736572696158
:103C42006C5F6D7367732F52657175657374506124
:103C520072616D00000000002E02520298029B0267
:103C620000000000920597069E02A10200000000DB
:103C720066053F06A402A702000000009A04870717
:103C8200AA02AD0200000000B002B902C602C902D7
:103C920000000000CC02CF02D202D50200000000D8
:103CA200D802DF02E602E902000000005D03150C03
:103CB20058030000000047034E035203550300005F
:103CC200000028033D034103440300000000641880
:0A3CD200071C0D1839181D185918A9
:00000001FF
