:100000000C9463000C94870E0C94B40E0C948B002B
:100010000C948B000C948B000C948B000C948B0034
:100020000C948B000C948B000C948B000C948B0024
:100030000C948B000C948B000C948B000C948B0014
:100040000C94F7100C948B000C94FB120C943E1340
:100050000C948B000C948B000C948B000C948B00F4
:100060000C948B000C948B00000000070002010030
:100070000003040600000000000000000102040864
:100080001020408001020408102001020408102002
:10009000040404040404040402020202020203032E
:1000A00003030303000000002300260029000000D2
:1000B0000000250028002B0000000000240027007D
:1000C0002A008A0D011411241FBECFEFD8E0DEBF35
:1000D000CDBF12E0A0E0B1E0E8E4FAE202C0059092
:1000E0000D92A43CB107D9F726E0A4ECB2E001C020
:1000F0001D92A93BB207E1F710E0C3E6D0E004C0CF
:100100002197FE010E940415C136D107C9F70E944C
:1001100064140C9422150C940000DC01FB0112966F
:100120008C911297808313968C91139781831496E8
:100130008C911497828315968C91159783831696CC
:100140008C911697848317968C91179785831896B0
:100150008C911897868319968C91878388E090E01C
:100160000895FC01DB014C9150E060E070E04283B7
:1001700053836483758311968C911197582B428316
:1001800053836483758312968C911297682B4283F4
:1001900053836483758313968C911397782B4283D2
:1001A00053836483758314964C91149750E060E0F8
:1001B00070E0468357836087718715968C911597F9
:1001C000582B468357836087718716968C911697B4
:1001D000682B468357836087718717968C91782B9D
:1001E000468357836087718788E090E0089586E1B1
:1001F00091E0089584E291E0089585E491E0089506
:100200008EE591E008958FE791E0089582E991E00D
:10021000089581E592E0089583EB91E00895DC0173
:10022000FB0112964C91129713962C9113971496EA
:100230009C91149715968C9140832183928383839C
:1002400084E090E00895FB012181428150E060E06C
:1002500070E0BA0155274427522B2081422B23817D
:10026000722BFC01428353836483758384E090E0A6
:10027000089584ED91E0089583EE91E00895FC01E6
:10028000EA54FD4F80810895CF93DF9389E10E9466
:100290003812EC0185E10E943812892B49F08091D7
:1002A0000A0390910B03892B61F02097B1F009C0EC
:1002B00080910A0390910B03892B79F0209739F1F3
:1002C0000CC08091060390910703A0910803B091A0
:1002D00009030197A109B1090BC080910603909110
:1002E0000703A0910803B09109030196A11DB11D58
:1002F0008093060390930703A0930803B093090328
:10030000D0930B03C0930A03DF91CF9108954091DE
:10031000060350910703609108037091090341504F
:1003200051096109710940930603509307036093D3
:10033000080370930903E4CFCF93DF9388E10E9411
:100340003812EC0184E10E943812892B49F0809127
:10035000F4029091F502892B61F02097B1F009C069
:100360008091F4029091F502892B79F0209739F170
:100370000CC08091F0029091F102A091F202B09134
:10038000F3020197A109B1090BC08091F00290918D
:10039000F102A091F202B091F3020196A11DB11DEC
:1003A0008093F0029093F102A093F202B093F302D3
:1003B000D093F502C093F402DF91CF91089540915C
:1003C000F0025091F1026091F2027091F3024150FB
:1003D0005109610971094093F0025093F102609351
:1003E000F2027093F302E4CFCF93DF9387E10E9490
:1003F0003812EC0183E10E943812892B49F0809178
:10040000DE029091DF02892B61F02097B1F009C0E4
:100410008091DE029091DF02892B79F0209739F1EB
:100420000CC08091DA029091DB02A091DC02B091C5
:10043000DD020197A109B1090BC08091DA02909108
:10044000DB02A091DC02B091DD020196A11DB11D7D
:100450008093DA029093DB02A093DC02B093DD027A
:10046000D093DF02C093DE02DF91CF9108954091D7
:10047000DA025091DB026091DC027091DD024150A2
:100480005109610971094093DA025093DB026093CC
:10049000DC027093DD02E4CFCF93DF9386E10E940C
:1004A0003812EC0182E10E943812892B49F08091C8
:1004B000C8029091C902892B61F02097B1F009C060
:1004C0008091C8029091C902892B79F0209739F167
:1004D0000CC08091C4029091C502A091C602B09157
:1004E000C7020197A109B1090BC08091C402909184
:1004F000C502A091C602B091C7020196A11DB11D0F
:100500008093C4029093C502A093C602B093C70221
:10051000D093C902C093C802DF91CF910895409152
:10052000C4025091C5026091C6027091C702415049
:100530005109610971094093C4025093C502609347
:10054000C6027093C702E4CFAF92BF92CF92DF9200
:10055000EF92FF920F931F93CF93DF9300D000D0C1
:100560001F92CDB7DEB78C016B01643671053CF08C
:10057000FC01EA54FD4F8081882309F478C0DA0138
:10058000ED91FC910190F081E02DB801695C7E4F06
:10059000CA0109957801B0EDEB1ABEEFFB0A2FEF07
:1005A000F70120832EEF3196208331968083319698
:1005B00090833196292F280F209520833196C08271
:1005C000D801AA5CBE4FDC9245E050E020E030E06C
:1005D000BC016A5F7F4F6417750734F0A1912A0F41
:1005E000311D4F5F5F4FF7CF6C01F8E0CF0ED11C8C
:1005F000800F911FFC01E95CFE4F2095208329E1CB
:10060000C21621E0D206CCF45701C5018E199F090C
:100610008C159D0584F4D80112968D919C911397A9
:10062000F50161915F01DC01ED91FC910190F08198
:10063000E02D0995EACFC6011CC089E892E09A83B3
:10064000898383E08B8384E092E09D838C83D8014F
:10065000ED91FC910190F081E02DAE014F5F5F4F75
:1006600067E070E0C80109958FEF9FEF02C080E05E
:1006700090E00F900F900F900F900F90DF91CF911F
:100680001F910F91FF90EF90DF90CF90BF90AF90B0
:100690000895CF93DF93AB01EC01AE81BF81ED9163
:1006A000FC9111976C817D810190F081E02DCD014D
:1006B000DF91CF910994CF93DF93EC0160E08881C3
:1006C0000E94FC1160E08A81DF91CF910C94FC11B3
:1006D00066E173E08CE093E00C944903809106039B
:1006E00090910703A0910803B09109038093180328
:1006F00090931903A0931A03B0931B03089560E02D
:1007000073E086EF92E00C9449038091F00290919F
:10071000F102A091F202B091F30280930203909350
:100720000303A0930403B093050308956AEE72E0F7
:1007300080EE92E00C9449038091DA029091DB0202
:10074000A091DC02B091DD028093EC029093ED0267
:10075000A093EE02B093EF02089564ED72E08AEC8C
:1007600092E00C9449038091C4029091C502A0913B
:10077000C602B091C7028093D6029093D702A0938D
:10078000D802B093D90208950E946E030E94850397
:100790000E949C030C94B303CF92DF92EF92FF92DE
:1007A00020E030E06A017B01022E04C0F694E79459
:1007B000D794C7940A94D2F7FC01C192CF01285F65
:1007C0003F4F2032310571F7FF90EF90DF90CF90CF
:1007D00008954F925F926F927F92AF92BF92CF92A5
:1007E000DF92EF92FF920F931F93CF93DF93EC0171
:1007F0007B018A81FB0180838B8181838C81828351
:100800008D818383DB01179640E050E0BA01E4E07C
:10081000F0E04A805B806C807D808F010C5F1F4F11
:100820004415550566057705C0F48A859B85E80F54
:10083000F91F3497D080218192818381FD01339704
:10084000D08231962083319690838C93F8014F5F4C
:100850005F4F6F4F7F4F1496DCCFEE0DFF1D8C85E1
:1008600080838D8581838E8582838F85838380E0DD
:1008700090E040E050E0BA014C845D846E847F8457
:10088000F701E00FF11F0C5F1F4F4415550566057A
:100890007705B8F4AC89BD89A80FB91FCC90119623
:1008A000DC90119712963C91129713962C91C0826E
:1008B000D182328323834F5F5F4F6F4F7F4F049608
:1008C000DBCF8E8980838F898183888D8283898D18
:1008D0008383412C512C32018E899F89A88DB98D3B
:1008E000481659066A067B0680F55201AA0CBB1C05
:1008F000EC8DFD8DEA0DFB1DA081B181FD01019004
:100900000020E9F731976F01CA1ADB0AA60160E0FF
:1009100070E0C701800F911F0E94CC030C5F1F4F36
:100920008C8D9D8DFC01EA0DFB1D60817181A601FE
:10093000C701800F911F0E9419150C0D1D1DFFEF9F
:100940004F1A5F0A6F0A7F0AC7CFC801DF91CF91A4
:100950001F910F91FF90EF90DF90CF90BF90AF90DD
:100960007F906F905F904F900895EF92FF920F935A
:100970001F93CF93DF938C017B01EC018A81FB01F4
:100980008193AB81BC81ED0109900020E9F72197AB
:10099000CA1BDB0BAE0160E070E0CF010E94CC030C
:1009A000F80163817481AE01C70105960E94191593
:1009B000CE010596DF91CF911F910F91FF90EF909F
:1009C0000895CF92DF92EF92FF920F931F93CF93F0
:1009D000DF936C01EB01FC01828188838381898331
:1009E000A481B581FD0101900020E9F731978F01C5
:1009F0000A1B1B0BA80160E070E0CE0102960E946A
:100A0000CC03F60164817581A801CE0106960E948F
:100A10001915C8010696F601A681B781FD0101905E
:100A20000020E9F731977F01EA1AFB0AA70160E08D
:100A300070E08C0F9D1F0E94CC03065F1F4FF601D4
:100A400066817781A701CE01800F911F0E94191541
:100A50000E0D1F1DF601A085B185FD01019000203E
:100A6000E9F731977F01EA1AFB0AA70160E070E01D
:100A7000CE01800F911F0E94CC030C5F1F4FF60127
:100A800060857185A701CE01800F911F0E94191505
:100A9000C8018E0D9F1DF60162854385348525852D
:100AA000C80FD91F688349833A832B830496DF914B
:100AB000CF911F910F91FF90EF90DF90CF9008950D
:100AC000CF92DF92EF92FF92FC011082118212828C
:100AD0001382DB0120E030E04D9150E0022E02C095
:100AE000440F551F0A94E2F7052E000C660B770B96
:100AF000C080D180E280F3804C295D296E297F2956
:100B00004083518362837383285F3F4F20323105D6
:100B100019F7FF90EF90DF90CF9008958F929F92FA
:100B2000AF92BF92CF92DF92EF92FF920F931F93FB
:100B3000CF93DF9300D000D0CDB7DEB77C018B011F
:100B4000FB018191BF01F7018283CE0101960E94D2
:100B5000600589819A81AB81BC814C015D01F5E022
:100B60008F0E911CA11CB11C680125E0C20ED11C86
:100B7000A601401B510B60E070E0481559056A055D
:100B80007B0548F4F60141916F019F012250310924
:100B9000F9014083EDCFF801E80FF91F14820C5FD3
:100BA0001F4FF7011483038305960F900F900F904A
:100BB0000F90DF91CF911F910F91FF90EF90DF90F9
:100BC000CF90BF90AF909F908F9008954F925F927B
:100BD0006F927F928F929F92AF92BF92CF92DF924D
:100BE000EF92FF920F931F93CF93DF93CDB7DEB7B2
:100BF0002C970FB6F894DEBF0FBECDBF7C018B01E2
:100C0000DB018C9190E0F7019383828311962C9104
:100C1000922B938382836E5F7F4FCE0109960E9451
:100C2000600589849A84AB84BC84B501A4014A5FC1
:100C30005F4F6F4F7F4FF8013696CF01801B910BAE
:100C4000A0E0B0E084179507A607B70728F48191C4
:100C5000DF0112978C93F1CFF801E80DF91D158291
:100C6000C8010596D70115969C938E931497B401ED
:100C70006A5F7F4F600F711FCE0105960E9460056D
:100C8000BAE08B0E911C4D815E816F8178852401C5
:100C9000092C000C66087708440E551E661E771E48
:100CA000F801E80DF91DCF01801B910BA0E0B0E029
:100CB00084159505A605B70528F48191DF011297E3
:100CC0008C93F1CF6401C40ED51EB8016C0D7D1D4F
:100CD000FB0131971082C4010197800F911FF7012A
:100CE00097838683CE0101960E946005A6014C5F22
:100CF0005F4F49805A806B807C804A01052E000C32
:100D0000AA08BB08840C951CA61CB71CF801E40FAC
:100D1000F51F9F01201B310BC901A0E0B0E0881531
:100D20009905AA05BB0528F48191DF0112978C93E0
:100D3000F0CFCA01840D951DF801E80FF91FDF01FE
:100D400011971C929A0121503109020F131FD701EC
:100D500019961C930E9318972181428150E060E010
:100D600070E0BA0155274427522B2081422B238162
:100D7000722BF701428753876487758704962C96F8
:100D80000FB6F894DEBF0FBECDBFDF91CF911F919C
:100D90000F91FF90EF90DF90CF90BF90AF909F901A
:100DA0008F907F906F905F904F9008952F923F9219
:100DB0004F925F926F927F928F929F92AF92BF926B
:100DC000CF92DF92EF92FF920F931F93CF93DF9317
:100DD000CDB7DEB728970FB6F894DEBF0FBECDBFF4
:100DE0008C015B01DB018C9111969C9111971296FD
:100DF000CC901297D12CE12CF12C7601DD24CC245F
:100E0000D92AC82A13968C91F82AF80182819381F5
:100E1000A481B5818C159D05AE05BF0570F4B601A2
:100E2000660F771F660F771F828593850E94E10EFC
:100E3000D8011B969C938E931A97F801C282D38295
:100E4000E482F582D5011796C12CD12C7601F4E00D
:100E50008F2E912C98012A5F3F4FF80142815381D8
:100E600064817581C4010496C416D506E606F706AA
:100E700080F54C9150E060E070E0742F66275527B4
:100E80004427FD013397E0814E2BFD013297E0812D
:100E90005E2BFD013197E0816E2BF801468357836D
:100EA000608771874C01089742855385840F951F91
:100EB000F9014081518162817381FC01408351833A
:100EC00062837383FFEFCF1ADF0AEF0AFF0A1496DB
:100ED000C4CFF401EA0DFB1D20813181C280D12CE9
:100EE000E12CF12C7601DD24CC24D32AC22A2381E3
:100EF000F22A4C01F80184859585A685B7858C1565
:100F00009D05AE05BF0570F4B601660F771F660F2D
:100F1000771F848995890E94E10ED80155969C938C
:100F20008E935497F801C486D586E686F78620E02E
:100F300030E0C12CD12C7601D8015096F8014485BF
:100F4000558566857785F501E80DF91DC401049680
:100F5000C416D506E606F70648F59180428150E0B2
:100F600060E070E0BA01552744275929908049294B
:100F7000E3817E2BF801408B518B628B738B4C018C
:100F800084899589FC01E20FF31F4D915D916D916C
:100F90007C9113974083518362837383FFEFCF1A51
:100FA000DF0AEF0AFF0A2C5F3F4FC8CF2081318153
:100FB000C280D12CE12CF12C7601DD24CC24D32A63
:100FC000C22A2381F22A4C01F80186899789A08DD3
:100FD000B18D8C159D05AE05BF0560F4B601660F99
:100FE000771F848D958D0E94E10ED8015D969C93AC
:100FF0008E935C97F801C68AD78AE08EF18E412CD9
:10100000512C32011801FAE12F0E311CF8018689AA
:101010009789A08DB18D481659066A067B0608F09F
:101020005AC0B501680D791DCE0101960E94600578
:1010300094012C5F3F4FC980DA80EB80FC80C901AE
:10104000032E000CAA0BBB0BAC01BD014C0D5D1DAA
:101050006E1D7F1D4D835E836F837887F501E20FE0
:10106000F31FAF014A195B09CA01A0E0B0E04D814E
:101070005E816F81788584179507A607B70728F4E6
:101080004191DF0112974C93ECCFC9018C0D9D1D4E
:10109000F501E80FF91F31971082215031092A0D0F
:1010A0003B1DD8015B963C932E935A974C01C2018D
:1010B000880F991F5C96ED91FC915D97E80FF91FE1
:1010C000D1018D919C9191838083BFEF4B1A5B0A74
:1010D0006B0A7B0A9BCFC40128960FB6F894DEBF3B
:1010E0000FBECDBFDF91CF911F910F91FF90EF9079
:1010F000DF90CF90BF90AF909F908F907F906F9038
:101100005F904F903F902F900895FC01E85BFD4F5A
:1011100020E030E041915191452B91F4F901EC5DD3
:10112000FE4FEE0FFF1FE80FF91F718360832358F6
:101130003F4FFB01358324839783868381E00895A5
:101140002F5F3F4F2931310529F780E00895109234
:101150000B0310920A0310920603109207031092D9
:101160000803109209036CE073E08CE193E00E94A5
:1011700085088CE091E00E945B0341E050E064E46C
:1011800071E082E00E94670E10921803109219031A
:1011900010921A0310921B0308951092F5021092F8
:1011A000F4021092F0021092F1021092F2021092E8
:1011B000F30266EF72E08CE193E00E94850888E01C
:1011C00091E00E945B0341E050E06CE971E083E054
:1011D0000E94670E10920203109203031092040300
:1011E0001092050308951092DF021092DE02109211
:1011F000DA021092DB021092DC021092DD0260EE45
:1012000072E08CE193E00E94850884E091E00E9406
:101210005B0341E050E064EF71E084E00E94670E00
:101220001092EC021092ED021092EE021092EF0278
:1012300008951092C9021092C8021092C40210922E
:10124000C5021092C6021092C7026AEC72E08CE1ED
:1012500093E00E94850880E091E00E945B0341E0FA
:1012600050E06CE472E085E00E94670E1092D602B6
:101270001092D7021092D8021092D90208950E94BB
:10128000A7080E94CD080E94F3080C941909ECE10C
:10129000F3E04481558166817781828193810E9448
:1012A00079131092C9051092C8051092CB051092BF
:1012B000CA051092CF051092CE051092CD0510925E
:1012C000CC050C943F090F931F93CF93DF93CDB7B9
:1012D000DEB72A970FB6F894DEBF0FBECDBF8C01E4
:1012E00081E792E09A8389831B821C821D821E8281
:1012F0001F82188619861A86D801ED91FC910190FB
:10130000F081E02DAE014F5F5F4F6AE070E0C801F1
:1013100009950E944111F801608771878287938740
:101320002A960FB6F894DEBF0FBECDBFDF91CF91E6
:101330001F910F9108954F925F926F927F92AF929B
:10134000BF92CF92DF92EF92FF920F931F93CF93B2
:10135000DF93CDB7DEB72E970FB6F894DEBF0FBE82
:10136000CDBF8C018DE792E09A8389831C821B821A
:101370008CE392E09E838D8398878F839A878987F9
:101380001B861C861D861E86680188EBC81A8DEF99
:10139000D80A7801A6E8EA1AADEFFA0A98E1492ED0
:1013A00055245394612C712CD601ED91FC9130970A
:1013B000B9F1848195819C838B83808191819E8307
:1013C0008D8382819381DC01ED91FC910480F58114
:1013D000E02D099598878F83D601ED91FC9182814C
:1013E0009381DC01ED91FC910680F781E02D099558
:1013F0009A8789874B865C866D867E86F801808118
:101400009181F601A081B18118966D917C91199717
:10141000DC01ED91FC91AE014F5F5F4FC801099572
:10142000B2E0CB0ED11CCE14DF0409F0BDCF6801B1
:10143000E4E5CE1AEDEFDE0A88E1482E55245394F8
:10144000612C712CF701A081B1811097E1F1129606
:101450008D919C9113979C838B8314968D919C9175
:1014600015979E838D83ED91FC9111970480F581F2
:10147000E02DCD01099598878F83D7018D919C919F
:10148000DC01ED91FC910680F781E02D09959A87AA
:1014900089874B865C866D867E86D801ED91FC91AE
:1014A000A080B180F70180819181DC01ED91FC91F8
:1014B0000280F381E02D0995AE014F5F5F4FBC01C3
:1014C000C801F5010995F2E0EF0EF11CEC14FD04E2
:1014D00009F0B8CFF801EA54FD4F81E080832E96E1
:1014E0000FB6F894DEBF0FBECDBFDF91CF911F9135
:1014F0000F91FF90EF90DF90CF90BF90AF907F90D3
:101500006F905F904F9008958F929F92AF92BF928D
:10151000CF92DF92EF92FF920F931F93CF93DF93BF
:10152000CDB7DEB72A970FB6F894DEBF0FBECDBF9A
:101530008C015B0181E792E09A8389831B821C8284
:101540001D821E821F82188619861A860E944111EA
:10155000F801C084D184E284F3849B01AC012C198E
:101560003D094E095F0969017A01B501CE01019675
:101570000E94B10088EE882E83E0982EA12CB12C19
:10158000C701B601A50194010E94C314CB80DC8081
:10159000ED80FE80C20ED31EE41EF51ECB82DC82DF
:1015A000ED82FE829B01AC0160E472E48FE090E08A
:1015B0000E949F14CF80D884E984FA84DC01CB0197
:1015C0008C0D9D1DAE1DBF1D8F839887A987BA877F
:1015D0000E944111CB80DC80ED80FE8031E0C31A97
:1015E000D108E108F108A50194010E94C314C21AB0
:1015F000D30AE40AF50AF801C486D586E686F7869A
:10160000CF80D884E984FA84F6E3DF1AF5E6EF0A9E
:10161000F4ECFF0A9B01AC0160E472E48FE090E01F
:101620000E949F14C61AD70AE80AF90AF801C08A6C
:10163000D18AE28AF38AB801605F7F4FC8010C96B5
:101640000E9471140E944111F801E554FD4F60831E
:101650007183828393832A960FB6F894DEBF0FBE00
:10166000CDBFDF91CF911F910F91FF90EF90DF9051
:10167000CF90BF90AF909F908F9008952F923F9200
:101680004F925F926F927F928F929F92AF92BF9292
:10169000CF92DF92EF92FF920F931F93CF93DF933E
:1016A000CDB7DEB760970FB6F894DEBF0FBECDBFE3
:1016B000988B8F870E9441114B015C012F853889DF
:1016C00025543D4F3E832D83F90180819181A28174
:1016D000B381A5019401281B390B4A0B5B0BDA017E
:1016E000C901893F9A42A105B10528F0EF85F88923
:1016F000EA54FD4F10820F85188904551D4FD801FB
:101700008D919C91892B81F0EF85F889E154FD4FF3
:1017100080819181A281B38188159905AA05BB05B5
:1017200018F4F801118210826F847888FCE46F1A33
:10173000FDEF7F0A2F85388920553D4F3A83298355
:10174000CF84D88838E1C30ED11C4F8558894A54BC
:101750005D4F58874F832F8538892C533D4F3A87EB
:1017600029874F8558894D535D4F5C874B87EF84A0
:10177000F88852E5E51A5DEFF50A2F8538892E5471
:101780003D4F3C832B834F85588941545D4F5E8785
:101790004D871401250154E1250E311C411C511CBB
:1017A000EF85F88984899589A689B789892B8A2B41
:1017B0008B2B89F4AF85B88912968D919C911397E4
:1017C000DC01ED91FC910680F781E02D09959C01EB
:1017D00097FF15C037C10E944111DC01CB01881968
:1017E0009909AA09BB09EF85F889248935894689B1
:1017F0005789281739074A075B07E0F64BC1D30121
:101800008D919C911197820F931F8D939C93F8015A
:101810004081518147305105D9F4AB81BC818D9114
:101820009C911197AC014F5F5F4F4D935C93EF8597
:10183000F889E80FF91F208FF701808191810197C6
:1018400091838083892B09F0ABCF88E090E02FC093
:101850004115510521F52F3F310569F481E090E0F4
:10186000F80191838083AD85BE852D923D924D9286
:101870005C92139795CF0E944111DC01CB0188192E
:101880009909AA09BB0989389341A105B10508F452
:1018900087CFEF85F889EA54FD4F1082FBC04130B5
:1018A0005105B1F42E3F310531F482E090E0D801CA
:1018B0008D939C9375CFF80111821082AF81B8850A
:1018C0008C9181116DCF8F8598890E94630968CFB3
:1018D0004230510569F4F70131832083AB81BC812B
:1018E0001D921C9283E090E0F801918380832EC0CA
:1018F0004330510561F4322F2227F7018081918115
:10190000280F391F3183208384E090E0D0CF44300A
:10191000510581F460E071E00E94AF148F3F9105A2
:1019200031F485E090E0F8019183808339CF118212
:10193000108236CF4530510569F4E981FA8131834F
:101940002083E6E0F0E0D801ED93FC93D3012D93E2
:101950003C9326CF4630510599F4322F2227E98156
:10196000FA8180819181280F391F31832083E7E03C
:10197000F0E0D801ED93FC93D7018D919C9162CF5B
:101980004830510509F00CCFF8011182108260E057
:1019900071E00E94AF148F3F910509F001CFA9813A
:1019A000BA818D919C910097C9F48F8598890E9486
:1019B00063098F8598890E949B09EF85F889E9540E
:1019C000FD4F80829182A282B382ED81FE8180826E
:1019D0009182A282B3828FEF9FEF61C08A3091051E
:1019E00031F4B6018F8598890E94840AD9CE863059
:1019F000910551F4B60189859A850E94D60681E049
:101A0000AB85BC858C93CCCE8B30910521F4EF81D6
:101A1000F8851082C5CEFC01E752FF4FEE0FFF1F85
:101A20002F853889E20FF31F80819181009709F497
:101A3000B7CEDC01ED91FC910190F081E02DB60173
:101A40000995AECEEF85F889EA54FD4F8081882351
:101A500021F10F85188909541D4FF801808191816A
:101A6000A281B381A5019401281B390B4A0B5B0BA2
:101A7000DA01C901853C9940A105B10570F08F8557
:101A800098890E946309D8018D929D92AD92BC9273
:101A9000139703C08EEF9FEF02C080E090E0609646
:101AA0000FB6F894DEBF0FBECDBFDF91CF911F916F
:101AB0000F91FF90EF90DF90CF90BF90AF909F90ED
:101AC0008F907F906F905F904F903F902F900895F0
:101AD0000E94C4030E9468038CE193E00E943E0BC5
:101AE0000E947F038CE193E00E943E0B0E949603CC
:101AF0008CE193E00E943E0B0C94AD030E94680DB4
:101B00008CE193E00E943E0B61E070E080E090E0A9
:101B10000C94721181EA92E090931D0380931C0350
:101B20008BE096E090931F0380931E0380E091EE7C
:101B3000A0E0B0E08093200390932103A0932203C0
:101B4000B09323031092D20585E992E09093E105CA
:101B50008093E0051092E2051092E3051092E405EF
:101B60001092E5051092EB051092EA051092EC0533
:101B70001092ED051092EE051092EF051092F5050A
:101B80001092F4051092F6051092F7051092F805E0
:101B90001092F9051092FD051092FC05E4E6F5E0BF
:101BA0001192119285E0E639F807D1F7E6E9F5E000
:101BB0001192119285E0E83CF807D1F7E4E3F3E0F5
:101BC000119284E0EC34F807D9F7ECE4F4E01192D8
:101BD00085E0E436F807D9F710923003109231030C
:101BE00010923203109233038BEA92E09093170322
:101BF00080931603109218031092190310921A037F
:101C000010921B032DE332E030930D0320930C035D
:101C100026E133E030930F0320930E031092150357
:101C20001092140390930103809300031092020317
:101C300010920303109204031092050322E432E091
:101C40003093F7022093F60220E033E03093F9025C
:101C50002093F8021092FF021092FE029093EB0282
:101C60008093EA021092EC021092ED021092EE02C2
:101C70001092EF0227E432E03093E1022093E00279
:101C80002AEE32E03093E3022093E2021092E9025E
:101C90001092E8029093D5028093D4021092D6025B
:101CA0001092D7021092D8021092D9028CE492E0DE
:101CB0009093CB028093CA0284ED92E09093CD0280
:101CC0008093CC021092D3021092D20208958230F7
:101CD000E8F4E82FF0E0EE0FFF1FE250FA4F7183B7
:101CE0006083813041F0809169008C7F482B409364
:101CF0006900E89A089580916900440F551F440FC8
:101D0000551F837F482B40936900E99A08951F92DD
:101D10000F920FB60F9211242F933F934F935F931F
:101D20006F937F938F939F93AF93BF93EF93FF93A3
:101D30008091FE059091FF05892B29F0E091FE0529
:101D4000F091FF050995FF91EF91BF91AF919F91A0
:101D50008F917F916F915F914F913F912F910F9054
:101D60000FBE0F901F9018951F920F920FB60F92F3
:101D700011242F933F934F935F936F937F938F9390
:101D80009F93AF93BF93EF93FF9380910006909141
:101D90000106892B29F0E0910006F09101060995D2
:101DA000FF91EF91BF91AF919F918F917F916F9133
:101DB0005F914F913F912F910F900FBE0F901F9009
:101DC00018956F927F928F929F92AF92BF92CF920F
:101DD000DF92EF92FF920F931F93CF93DF93EC016B
:101DE000009789F4CB01DF91CF911F910F91FF9064
:101DF000EF90DF90CF90BF90AF909F908F907F90AB
:101E00006F900C94CA0FFC01E60FF71F9C01225043
:101E10003109E217F30708F4ACC0D9010D911C9108
:101E2000119706171707B0F00530110508F49FC089
:101E3000C80104978617970708F499C00250110942
:101E4000061B170B019311936D937C93CF010E9496
:101E50005F108DC05B01A01AB10A4C01800E911E6B
:101E6000A091B706B091B80640E050E0E12CF12C0B
:101E7000109709F44AC0A815B905D1F56D907C906A
:101E80001197630182E0C80ED11CCA14DB0480F1F3
:101E9000A3014A195B096A0182E0C80ED11C12969F
:101EA000BC9012971396AC91B5E0CB16D10440F0DC
:101EB000B282A38351834083D9016D937C930AC07E
:101EC0000E5F1F4FC301800F911FF9019183808323
:101ED000EB2DFA2FE114F10431F0D7011396FC93A6
:101EE000EE93129744C0F093B806E093B7063FC054
:101EF0008D919C9111974817590708F4AC017D0109
:101F000012960D90BC91A02DB3CF8091B506909103
:101F1000B60688159905E1F446175707C8F480916D
:101F2000100190911101009741F48DB79EB7409137
:101F3000140150911501841B950BE817F907C8F49B
:101F4000F093B606E093B506F901718360830FC084
:101F5000CB010E94CA0F7C01009759F0A801BE0175
:101F60000E941915CE010E945F10C70104C0CE0166
:101F700002C080E090E0DF91CF911F910F91FF9020
:101F8000EF90DF90CF90BF90AF909F908F907F9019
:101F90006F900895CF93DF938230910510F482E023
:101FA00090E0E091B706F091B80620E030E0C0E0A4
:101FB000D0E0309711F14081518148175907C0F0A6
:101FC0004817590761F482819381209719F09B8308
:101FD0008A832BC09093B8068093B70626C021153C
:101FE000310519F04217530718F49A01BE01DF01B9
:101FF000EF010280F381E02DDCCF2115310509F1DD
:10200000281B390B2430310590F412968D919C9148
:1020100013976115710521F0FB019383828304C03E
:102020009093B8068093B706FD01329644C0FD0137
:10203000E20FF31F81939193225031092D933C932A
:102040003AC02091B5063091B606232B41F4209179
:102050001201309113013093B6062093B5062091FA
:102060001001309111012115310541F42DB73EB712
:102070004091140150911501241B350BE091B506D8
:10208000F091B606E217F307A0F42E1B3F0B2817BA
:10209000390778F0AC014E5F5F4F2417350748F0E1
:1020A0004E0F5F1F5093B6064093B50681939193F0
:1020B00002C0E0E0F0E0CF01DF91CF9108950F93EF
:1020C0001F93CF93DF93009709F48CC0FC013297E4
:1020D000138212820091B7061091B80601151105FE
:1020E00081F420813181820F931F2091B5063091B8
:1020F000B6062817390779F5F093B606E093B506CA
:1021000071C0D80140E050E0AE17BF0750F41296FE
:102110002D913C911397AD012115310509F1D9019C
:10212000F3CF9D01DA013383228360817181860FB1
:10213000971F8217930769F4EC0128813981260FD4
:10214000371F2E5F3F4F318320838A819B8193838A
:102150008283452B29F4F093B806E093B70642C07A
:102160001396FC93EE931297ED01499159919E01BC
:10217000240F351FE217F30771F480819181840FDA
:10218000951F029611969C938E938281938113964C
:102190009C938E931297E0E0F0E0D80112968D9117
:1021A0009C911397009719F0F8018C01F6CF8D914F
:1021B0009C9198012E5F3F4F820F931F2091B5068F
:1021C0003091B6062817390769F4309729F4109230
:1021D000B8061092B70602C0138212821093B60698
:1021E0000093B506DF91CF911F910F9108951F9233
:1021F0000F920FB60F9211242F933F938F939F93BB
:10220000AF93BF938091030690910406A0910506B9
:10221000B09106063091020623E0230F2D3720F4FB
:102220000196A11DB11D05C026E8230F0296A11D30
:10223000B11D209302068093030690930406A09399
:102240000506B09306068091070690910806A091B6
:102250000906B0910A060196A11DB11D80930706DB
:1022600090930806A0930906B0930A06BF91AF9118
:102270009F918F913F912F910F900FBE0F901F90C4
:1022800018952FB7F8946091030670910406809119
:102290000506909106062FBF08953FB7F8948091E8
:1022A000070690910806A0910906B0910A0626B586
:1022B000A89B05C02F3F19F00196A11DB11D3FBF7E
:1022C000BA2FA92F982F8827820F911DA11DB11D0C
:1022D000BC01CD0142E0660F771F881F991F4A9508
:1022E000D1F70895CF92DF92EF92FF92CF93DF93D1
:1022F0006B017C010E944D11EB01C114D104E1047A
:10230000F10479F00E944D116C1B7D0B683E734007
:10231000A0F381E0C81AD108E108F108C851DC4FE8
:10232000ECCFDF91CF91FF90EF90DF90CF900895A9
:10233000789484B5826084BD84B5816084BD85B5A0
:10234000826085BD85B5816085BDEEE6F0E0808167
:1023500081608083E1E8F0E0108280818260808388
:10236000808181608083E0E8F0E08081816080830B
:10237000E1EBF0E0808184608083E0EBF0E080813D
:1023800081608083EAE7F0E08081846080838081DF
:102390008260808380818160808380818068808387
:1023A0001092C1000895833081F028F4813099F0B3
:1023B0008230A1F008958630A9F08730B9F08430DA
:1023C000D1F4809180008F7D03C0809180008F7751
:1023D00080938000089584B58F7702C084B58F7D87
:1023E00084BD08958091B0008F7703C08091B000C4
:1023F0008F7D8093B0000895CF93DF9390E0FC0130
:10240000E458FF4F2491FC01E057FF4F849188234B
:1024100061F190E0880F991FFC01E854FF4FC591CE
:10242000D491FC01E255FF4FA591B491611109C00F
:102430009FB7F8948881209582238883EC912E237E
:102440000BC0623061F49FB7F8943881822F809579
:1024500083238883EC912E2B2C939FBF06C08FB7CC
:10246000F894E8812E2B28838FBFDF91CF910895B8
:10247000CF93DF93282F30E0F901E859FF4F849183
:10248000F901E458FF4FD491F901E057FF4FC4918F
:10249000CC2391F081110E94D311EC2FF0E0EE0FCC
:1024A000FF1FEC55FF4FA591B491EC91ED2381E016
:1024B00090E021F480E002C080E090E0DF91CF91D5
:1024C0000895FC0124853585F901E05CFF4F80818A
:1024D0009181329620813181821B930B8F739927D2
:1024E0000895DC011C96ED91FC911D97DF01A05C25
:1024F000BF4F2D913C91119712968D919C91119700
:102500002817390739F08D919C91E80FF91F8081C8
:1025100090E008958FEF9FEF0895FC01A485B585A5
:10252000FD01E05CFF4F20813181329680819181F5
:102530002817390779F080819181A80FB91F8C91F4
:10254000208131812F5F3F4F2F73332731832083C9
:1025500090E008958FEF9FEF0895FC0181A18823FB
:1025600029F0A489B5898C9186FFFBCF11A208952B
:102570000F931F93CF93DF93FC01A685B7858D0141
:10258000005C1F4FE8018881998101968F7399271C
:10259000AD014E5B5F4FEA012881398182179307B5
:1025A000D1F3E80128813981A20FB31F6C93A6856E
:1025B000B785A05CBF4F11969C938E93A689B7896F
:1025C0002C9181E090E0078C02C0880F991F0A943B
:1025D000E2F7822B8C9381E081A30488F589E02DBA
:1025E00080818064808381E090E0DF91CF911F91B2
:1025F0000F91089508951F920F920FB60F92112414
:102600002F934F935F938F939F93EF93FF938091BB
:10261000C00082FD1CC02091C6008091B10690913F
:10262000B20601968F7399274091B3065091B40674
:102630008417950771F0E091B106F091B206EF585A
:10264000F94F20839093B2068093B10602C0809127
:10265000C600FF91EF919F918F915F914F912F91C4
:102660000F900FBE0F901F9018958BE096E00E9480
:102670006112892B11F00C94FA1208951F920F9297
:102680000FB60F9211242F933F938F939F93EF9345
:10269000FF9320916D0630916E0680916F069091A8
:1026A00070062817390731F48091C1008F7D80931F
:1026B000C10014C0E0916F06F0917006E35DF94F20
:1026C000208180916F069091700601968F739927F3
:1026D0009093700680936F062093C600FF91EF9150
:1026E0009F918F913F912F910F900FBE0F901F9050
:1026F0001895CF92DF92EF92FF920F931F93CF9393
:10270000DF93EC016A017B014115514E61057105B2
:1027100009F1EC89FD8981E090E008A002C0880FF2
:10272000991F0A94E2F7808360E079E08DE390E0FE
:10273000A70196010E94C31489019A010150110951
:1027400021093109369527951795079598010115A7
:102750001041A8F0EC89FD89108260E874E88EE1F0
:1027600090E0A70196010E94C314DA01C901019704
:10277000A109B109B695A795979587959C01E88918
:10278000F9893083EA89FB89208319A2EE89FF89C0
:10279000408181E090E09C010C8C02C0220F331F2D
:1027A0000A94E2F7242B2083EE89FF8940819C0163
:1027B0000D8C02C0220F331F0A94E2F7242B2083D2
:1027C000EE89FF8940819C010E8C02C0220F331FCD
:1027D0000A94E2F7242B2083EE89FF8920810F8C55
:1027E00002C0880F991F0A94E2F7809582238083A4
:1027F000DF91CF911F910F91FF90EF90DF90CF90DD
:102800000895EBE0F6E01382128288EE93E0A0E0F8
:10281000B0E084839583A683B78387EB92E09183AE
:10282000808381E796E0958784878DE296E097879D
:10283000868785EC90E0918B808B84EC90E0938B85
:10284000828B80EC90E0958B848B81EC90E0978B71
:10285000868B82EC90E0918F808F86EC90E0938F56
:10286000828F84E0848F83E0858F87E0868F85E088
:10287000878F81E080A30895CF92DF92EF92FF923D
:102880000F931F93CF93DF936C01EB017B01E40E59
:10289000F51E00E010E0CE15DF0561F06991D6016C
:1028A000ED91FC910190F081E02DC6010995080F92
:1028B000191FF1CFC801DF91CF911F910F91FF90A8
:1028C000EF90DF90CF9008950E9498110E944709E1
:1028D000C5E3D3E10E947E0D2097E1F30E943513FA
:1028E000F9CFCF92DF92EF92FF920F931F93CF9386
:1028F000DF938C01EB01688179818A819B8120E0E3
:102900003AEC4AE95BE30E94C314F801C080D1802D
:10291000E280F380C20ED31EE41EF51EC082D18277
:10292000E282F382688379838A839B83DF91CF91EC
:102930001F910F91FF90EF90DF90CF900895DB01F2
:102940008F939F930E94E514BF91AF91A29F800D3A
:10295000911DA39F900DB29F900D1124089597FB98
:10296000072E16F4009407D077FD09D00E94F014CA
:1029700007FC05D03EF4909581959F4F0895709582
:1029800061957F4F0895A1E21A2EAA1BBB1BFD0182
:102990000DC0AA1FBB1FEE1FFF1FA217B307E4073E
:1029A000F50720F0A21BB30BE40BF50B661F771F96
:1029B000881F991F1A9469F7609570958095909576
:1029C0009B01AC01BD01CF0108950E940A15A59F8E
:1029D000900DB49F900DA49F800D911D112408951A
:1029E000AA1BBB1B51E107C0AA1FBB1FA617B70735
:1029F00010F0A61BB70B881F991F5A95A9F7809551
:102A00009095BC01CD010895EE0FFF1F0590F49144
:102A1000E02D0994A29FB001B39FC001A39F700D48
:102A2000811D1124911DB29F700D811D1124911DD6
:102A30000895FB01DC0102C001900D92415050400D
:082A4000D8F70895F894FFCFC8
:102A480014001800130017001200160015001900D2
:102A58000000B90680007374645F6D7367732F5448
:102A6800696D6500636437313636633734633535ED
:102A7800326333313166626363326665356137626A
:102A88006332383900726F7373657269616C5F6D98
:102A98007367732F546F706963496E666F00306196
:102AA80064353166383866633434383932663863A9
:102AB80031303638343037373634363030350072C6
:102AC8006F7373657269616C5F6D7367732F4C6F99
:102AD80067003131616264373331633235393333FA
:102AE80032363163643631383362643132643632B7
:102AF80039350039663065393862646136353938B8
:102B0800313938366464663533616661376134302B
:102B1800653439007374645F6D7367732F496E741D
:102B2800333200646135393039666265333738616C
:102B380065616638356535343765383330636331F8
:102B4800626237004D6573736167652066726F6DE9
:102B5800206465766963652064726F707065643A95
:102B6800206D657373616765206C6172676572209B
:102B78007468616E206275666665722E00656E63A4
:102B88003000656E633100656E633200656E6333D5
:102B980000726F7373657269616C5F6D7367732F11
:102BA80052657175657374506172616D0000000043
:102BB800008D00B100F700FA0000000000E104E613
:102BC80005FD00000100000000B5048E05030106A4
:102BD8000100000000E903D60609010C010000000D
:102BE80000A4023E0B3F01000000000F0123013941
:102BF800013C0100000000B8123C1461128D1271F2
:042C080012AD1200F7
:00000001FF
