:100000000C9462000C948A000C948A000C948A0070
:100010000C948A000C948A000C948A000C948A0038
:100020000C948A000C948A000C948A000C948A0028
:100030000C948A000C948A000C948A000C948A0018
:100040000C9467040C948A000C940A020C944D02E0
:100050000C948A000C948A000C948A000C948A00F8
:100060000C948A000C948A00000000070002010032
:100070000003040600000000000000000102040864
:100080001020408001020408102001020408102002
:10009000040404040404040402020202020203032E
:1000A00003030303000000002300260029000000D2
:1000B0000000250028002B0000000000240027007D
:1000C0002A00100311241FBECFEFD8E0DEBFCDBF42
:1000D00011E0A0E0B1E0ECE2FAE002C005900D9280
:1000E000A031B107D9F721E0A0E1B1E001C01D9234
:1000F000A33CB207E1F710E0C2E6D0E004C02197CC
:10010000FE010E940E05C136D107C9F70E945A04AC
:100110000C9414050C94000063E080E00E94DB0066
:1001200064E081E00E94DB0065E081E00E94DB008A
:1001300061E084E00E94170160E085E00E94170101
:1001400040E855E260E070E080E191E00C948802C4
:1001500082E00E9447014AE050E0BC0180E191E06A
:100160000C944304833081F028F4813099F082307C
:10017000A1F008958630A9F08730B9F08430D1F429
:10018000809180008F7D03C0809180008F77809365
:100190008000089584B58F7702C084B58F7D84BDBB
:1001A00008958091B0008F7703C08091B0008F7D5B
:1001B0008093B0000895CF93DF9390E0FC01E45862
:1001C000FF4F2491FC01E057FF4F8491882361F198
:1001D00090E0880F991FFC01E854FF4FC591D4911E
:1001E000FC01E255FF4FA591B491611109C09FB781
:1001F000F8948881209582238883EC912E230BC06C
:10020000623061F49FB7F8943881822F8095832300
:100210008883EC912E2B2C939FBF06C08FB7F89448
:10022000E8812E2B28838FBFDF91CF9108951F93F4
:10023000CF93DF93282F30E0F901E859FF4F8491E5
:10024000F901E458FF4FD491F901E057FF4FC491F1
:10025000CC23C9F0162F81110E94B200EC2FF0E0E0
:10026000EE0FFF1FE255FF4FA591B4918FB7F894A1
:10027000111105C09C91ED2FE095E92302C0EC918E
:10028000ED2BEC938FBFDF91CF911F910895CF930A
:10029000DF93282F30E0F901E859FF4F8491F901ED
:1002A000E458FF4FD491F901E057FF4FC491CC239C
:1002B00091F081110E94B200EC2FF0E0EE0FFF1FD1
:1002C000EC55FF4FA591B491EC91ED2381E090E0C6
:1002D00021F480E002C080E090E0DF91CF910895AA
:1002E000FC0124853585F901E05CFF4F8081918117
:1002F000329620813181821B930B8F739927089549
:10030000DC011C96ED91FC911D97DF01A05CBF4FB5
:100310002D913C91119712968D919C9111972817D0
:10032000390739F08D919C91E80FF91F808190E099
:1003300008958FEF9FEF0895FC01A485B585FD0119
:10034000E05CFF4F208131813296808191812817B6
:10035000390779F080819181A80FB91F8C91208194
:1003600031812F5F3F4F2F7333273183208390E0FC
:1003700008958FEF9FEF0895FC0181A1882329F054
:10038000A489B5898C9186FFFBCF11A208950F93A4
:100390001F93CF93DF93FC01A685B7858D01005C89
:1003A0001F4FE8018881998101968F739927AD01CC
:1003B0004E5B5F4FEA012881398182179307D1F3A1
:1003C000E80128813981A20FB31F6C93A685B785F8
:1003D000A05CBF4F11969C938E93A689B7892C91F0
:1003E00081E090E0078C02C0880F991F0A94E2F721
:1003F000822B8C9381E081A30488F589E02D808194
:100400008064808381E090E0DF91CF911F910F9114
:10041000089508951F920F920FB60F9211242F93F3
:100420004F935F938F939F93EF93FF938091C000BF
:1004300082FD1CC02091C6008091B6019091B70149
:1004400001968F7399274091B8015091B901841793
:10045000950771F0E091B601F091B701EA58FE4FAF
:1004600020839093B7018093B60102C08091C600AB
:10047000FF91EF919F918F915F914F912F910F90ED
:100480000FBE0F901F90189580E191E00E947001BF
:10049000892B11F00C94090208951F920F920FB648
:1004A0000F9211242F933F938F939F93EF93FF937A
:1004B00020917201309173018091740190917501C6
:1004C0002817390731F48091C1008F7D8093C100D6
:1004D00014C0E0917401F0917501EE5CFE4F208133
:1004E000809174019091750101968F739927909373
:1004F0007501809374012093C600FF91EF919F9145
:100500008F913F912F910F900FBE0F901F901895D4
:10051000CF92DF92EF92FF920F931F93CF93DF93CF
:10052000EC016A017B014115514E6105710509F12C
:10053000EC89FD8981E090E008A002C0880F991F36
:100540000A94E2F7808360E079E08DE390E0A70110
:1005500096010E94EC0489019A01015011092109B8
:100560003109369527951795079598010115104182
:10057000A8F0EC89FD89108260E874E88EE190E0D3
:10058000A70196010E94EC04DA01C9010197A109B3
:10059000B109B695A795979587959C01E889F98942
:1005A0003083EA89FB89208319A2EE89FF89408183
:1005B00081E090E09C010C8C02C0220F331F0A9452
:1005C000E2F7242B2083EE89FF8940819C010D8C6A
:1005D00002C0220F331F0A94E2F7242B2083EE89F6
:1005E000FF8940819C010E8C02C0220F331F0A94A8
:1005F000E2F7242B2083EE89FF8920810F8C02C033
:10060000880F991F0A94E2F7809582238083DF91F7
:10061000CF911F910F91FF90EF90DF90CF900895B1
:10062000E0E1F1E01382128288EE93E0A0E0B0E016
:1006300084839583A683B78384E091E0918380834C
:1006400086E791E09587848782E391E097878687A4
:1006500085EC90E0918B808B84EC90E0938B828B87
:1006600080EC90E0958B848B81EC90E0978B868B6F
:1006700082EC90E0918F808F86EC90E0938F828F58
:1006800084E0848F83E0858F87E0868F85E0878F85
:1006900081E080A30895CF92DF92EF92FF920F93B3
:1006A0001F93CF93DF936C01EB017B01E40EF51EEA
:1006B00000E010E0CE15DF0561F06991D601ED9103
:1006C000FC910190F081E02DC6010995080F191FDA
:1006D000F1CFC801DF91CF911F910F91FF90EF9063
:1006E000DF90CF9008956115710579F0FB010190BD
:1006F0000020E9F73197AF01461B570BDC01ED9164
:10070000FC910280F381E02D099480E090E008954F
:10071000DC01ED91FC910190F081E02D09940F93A3
:100720001F93CF93DF93EC016DE00E9488038C014F
:100730006AE0CE010E948803800F911FDF91CF9164
:100740001F910F9108958F929F92AF92BF92CF9277
:10075000DF92EF92FF920F931F93CF93DF93CDB76A
:10076000DEB7A1970FB6F894DEBF0FBECDBF6C0108
:10077000142FE52FCB01022F19A2223008F40AE032
:100780007E0121E2E20EF11C802E912CA12CB12CD5
:10079000612F7E2FA50194010E94EC04029F101985
:1007A000112481E0E81AF1081A3014F4105D01C038
:1007B000195CF7011083122FE32FCA01232B242B7E
:1007C000252B31F7B701C6010E947303A1960FB61E
:1007D000F894DEBF0FBECDBFDF91CF911F910F9177
:1007E000FF90EF90DF90CF90BF90AF909F908F9051
:1007F0000895CF92DF92EF92FF920F931F93CF93C2
:10080000DF93EC016A017B012115310579F4E88160
:10081000F9810190F081E02D642FDF91CF911F913C
:100820000F91FF90EF90DF90CF9009942A3031051F
:10083000E9F477FF1AC06DE20E9488038C01442717
:100840005527BA014C195D096E097F092AE0CE01CE
:100850000E94A303800F911FDF91CF911F910F91F1
:10086000FF90EF90DF90CF9008952AE0B701A601A6
:10087000CE01DF91CF911F910F91FF90EF90DF900C
:10088000CF900C94A3030F931F93CF93DF93EC01AE
:100890009A01AB01770F660B770B0E94F9038C016D
:1008A000CE010E948F03800F911FDF91CF911F9186
:1008B0000F9108950E94B1040E948C00C4E4D2E01C
:1008C0000E94A8002097E1F30E944402F9CF1F92F2
:1008D0000F920FB60F9211242F933F938F939F93F4
:1008E000AF93BF938091BB019091BC01A091BD01DA
:1008F000B091BE013091BA0123E0230F2D3720F4CF
:100900000196A11DB11D05C026E8230F0296A11D69
:10091000B11D2093BA018093BB019093BC01A093B9
:10092000BD01B093BE018091BF019091C001A09123
:10093000C101B091C2010196A11DB11D8093BF01FB
:100940009093C001A093C101B093C201BF91AF9138
:100950009F918F913F912F910F900FBE0F901F90FD
:100960001895789484B5826084BD84B5816084BD17
:1009700085B5826085BD85B5816085BDEEE6F0E018
:10098000808181608083E1E8F0E010828081826074
:100990008083808181608083E0E8F0E080818160F5
:1009A0008083E1EBF0E0808184608083E0EBF0E025
:1009B000808181608083EAE7F0E0808184608083C9
:1009C0008081826080838081816080838081806873
:1009D00080831092C1000895A1E21A2EAA1BBB1BAE
:1009E000FD010DC0AA1FBB1FEE1FFF1FA217B307FB
:1009F000E407F50720F0A21BB30BE40BF50B661F11
:100A0000771F881F991F1A9469F7609570958095D4
:100A100090959B01AC01BD01CF010895EE0FFF1F22
:0C0A20000590F491E02D0994F894FFCFAC
:100A2C0000000000C7014B0370019C018001BC0158
:00000001FF
