:100000000C94E0010C94FC120C942D130C945E13D0
:100010000C948F130C94C0130C94F1130C942214B1
:100020000C9453140C9411020C9411020C941102B0
:100030000C9411020C9411020C9411020C941102F4
:100040000C9411020C9411020C9411020C941102E4
:100050000C9411020C9411020C9411020C949A1637
:100060000C9411020C940F190C94FF190C941102AA
:100070000C9411020C9411020C9411020C941102B4
:100080000C9411020C9411020C9411020C941102A4
:100090000C9443190C943E1A0C9411020C94110206
:1000A0000C9411020C9411020C9411020C94110284
:1000B0000C9411020C9411020C9411020C94110274
:1000C0000C9411020C9411020C9411020C947719E7
:1000D0000C947D1A0C9411020C94AB190C94BC1A5C
:1000E0000C941102F211F711FC1106127F1210127A
:1000F000181220122A1234123E124D1257127F1279
:1001000061126B127512D612A012A812B412C1128B
:10011000E212EF12B417B717AA17AE17EE17BB17F4
:10012000BF17C517C917CD17D317D717DB17EE178A
:10013000E117E517E9170C94C2030C9432030C94F1
:10014000A0120C94DD030C94DB170C945B030C944D
:10015000E1030C9406120C942A120C94F2110C94E4
:10016000C5170C94E7030C94E9170C9435030C9411
:10017000B4120C94E5170C94320F0C94CF020C942B
:10018000C5030C9457120C94D2020C94A8120C9430
:10019000C3020C94D5020C94860F0C947F040C942B
:1001A000BE030C94C1120C94C9020C94C8030C94A5
:1001B00020120C94CC020C9402030C94C0020C94F8
:1001C000E9020C946B180C9410120C94E80B0C942C
:1001D000C9170C9434120C948C030C94A7180C942B
:1001E00077050C943E030C94800E0C94831B0C94A6
:1001F000C6020C9452030C94E1170C94B4170C949F
:100200002F030C9495030C94551C0C9419030C9417
:100210006B120C9424060C94B2180C94080F0C94D6
:1002200077020C94AA170C94D7170C946F030C94B4
:10023000E2120C9487180C94EF120C94D3170C94C0
:1002400078030C947C060C9461120C94560E0C945A
:100250005C0F0C94DE190C9475120C94FC110C9428
:100260006C070C94E4030C94B7170C94EE170C94E1
:100270003E120C94BB170C947F120C94FF020C944A
:10028000010F0C9405030C94F7110C94BF170C94F8
:10029000A9030C94BD020C945B180C9418120C94D6
:1002A0004B050C94D6120C944D120C94CD170C9453
:1002B000AE170C9453020000090A02080B0C0D073C
:1002C0000603040100000000000000000000000020
:1002D000000000000000000000000000000000001E
:1002E000000011100F0000000000000000000000DE
:1002F00000000000000000000000000001021020CB
:10030000200808102040102040800201020108044B
:1003100002010102040810204080804020100804DF
:100320000201800402018040201008040201080438
:10033000020101020408102040800102040810207C
:1003400040800505050507050808080802020202A5
:100350000A0A080804040404010101010101010161
:100360000303030303030303040707070C0C0C0C2C
:100370000C0C0C0C02020202060606060606060615
:100380000B0B0B0B0B0B0B0B0000220025002800A6
:100390002B002E003100340002010000050108018D
:1003A0000B0100002100240027002A002D0030004E
:1003B000330001010000040107010A01860F831BBD
:1003C00011241FBECFEFD1E2DEBFCDBF00E00CBFD6
:1003D00014E0A0E0B2E0E2EBF0E400E00BBF02C00A
:1003E00007900D92AA3CB107D9F72DE0AAECB4E032
:1003F00001C01D92A733B207E1F711E0C0EED1E0D2
:1004000000E006C021970109802FFE010E945D1DBA
:10041000CE3DD10780E00807A9F70E947D1C0C940F
:1004200057200C940000CF93DF93EC01842F488376
:1004300059836A837B8361E00E94EF1761E08A81C0
:10044000DF91CF910C94EF170F931F93CF93DF930E
:100450008C01EB016F3F710509F03CF461307F4F77
:1004600074F01C161D061CF00CC0CFEFD0E0BE01CE
:10047000F80180810E94C91160E070E00CC0C1E009
:10048000DFEF60E070E0F80180810E94C91166270B
:1004900077276C1B7D0BF8018281DF91CF911F9133
:1004A0000F910C94C911DC01FB0112968C911297EB
:1004B000808313968C911397818314968C91149753
:1004C000828315968C911597838316968C91169737
:1004D000848317968C911797858318968C9118971B
:1004E000868319968C91878388E090E00895FC01BB
:1004F000DB014C9150E060E070E042835383648301
:10050000758311968C911197582B42835383648382
:10051000758312968C911297682B42835383648360
:10052000758313968C911397782B4283538364833E
:10053000758314964C91149750E060E070E0468308
:1005400057836087718715968C911597582B468332
:1005500057836087718716968C911697682B468310
:1005600057836087718717968C91782B46835783C2
:100570006087718788E090E0089586E192E00895B1
:1005800084E292E0089585E492E008958EE592E099
:1005900008958FE792E0089582E992E0089583E359
:1005A00094E0089583EB92E00895FB01DC0112963C
:1005B0004C91129713963C91139714962C91149783
:1005C00015968C91408331832283838384E090E06D
:1005D0000895FB012181428150E060E070E0BA01A2
:1005E00055274427522B2081422B2381722BFC015B
:1005F000428353836483758384E090E0089584ED9F
:1006000092E0089585EE92E00895DC01FB011296D8
:100610004C91129713962C91139714969C911497C2
:1006200015968C91408321839283838384E090E0AC
:100630000895FB012181428150E060E070E0BA0141
:1006400055274427522B2081422B2381722BFC01FA
:10065000428353836483758384E090E0089586E049
:1006600093E0089585E193E008951092B605109205
:10067000B7051092B8051092B90508958091B60596
:100680009091B705A091B805B091B9050196A11D4B
:10069000B11D8093B6059093B705A093B805B093AC
:1006A000B905089510929205109293051092940541
:1006B0001092950508958091920590919305A091CF
:1006C0009405B09195050196A11DB11D80939205E9
:1006D00090939305A0939405B09395050895109277
:1006E0006E0510926F0510927005109271050895B5
:1006F00080916E0590916F05A0917005B091710584
:100700000196A11DB11D80936E0590936F05A09376
:100710007005B0937105089510924A0510924B052B
:1007200010924C0510924D05089580914A059091C4
:100730004B05A0914C05B0914D050196A11DB11D31
:1007400080934A0590934B05A0934C05B0934D05BB
:1007500008950F931F93CF93DF938C01EC0126969E
:10076000CE010E94E902D8011C96ED91FC911D97E3
:10077000CE01DF91CF911F910F911994FC018685D5
:100780009785089584ED92E0089585EE92E00895AE
:100790000F931F93CF93DF938C01EC012696CE012C
:1007A0000E941903D8011C96ED91FC911D97CE0172
:1007B000DF91CF911F910F911994FC018685978548
:1007C000089586E093E0089585E193E00895FC01A3
:1007D000EA57FB4F80810895CF93DF93AB01EC0183
:1007E000AE81BF81ED91FC9111976C817D8101906B
:1007F000F081E02DCD01DF91CF91199460EA75E091
:1008000086E995E00C94EC038091B6059091B705CC
:10081000A091B805B091B9058093A2059093A30566
:10082000A093A405B093A50508956CE775E082E751
:1008300095E00C94EC038091920590919305A09122
:100840009405B091950580937E0590937F05A093C4
:100850008005B0938105089568E575E08EE495E024
:100860000C94EC0380916E0590916F05A09170053A
:10087000B091710580935A0590935B05A0935C0538
:10088000B0935D05089564E375E08AE295E00C9409
:10089000EC0380914A0590914B05A0914C05B091D5
:1008A0004D058093360590933705A0933805B09396
:1008B000390508950E9404040E941B040E9432041A
:1008C0000C944904CF92DF92EF92FF9220E030E047
:1008D0006A017B01022E04C0F694E794D794C79472
:1008E0000A94D2F7FC01C192CF01285F3F4F20321A
:1008F000310571F7FF90EF90DF90CF9008954F9200
:100900005F926F927F92AF92BF92CF92DF92EF92FF
:10091000FF920F931F93CF93DF93EC017B018A81AA
:10092000FB0180838B8181838C8182838D81838392
:10093000DB01179640E050E0BA01E4E0F0E04A80C5
:100940005B806C807D808F010C5F1F4F44155505C7
:1009500066057705C0F48A859B85E80FF91F3497F3
:10096000D080218192818381FD013397D08231969D
:100970002083319690838C93F8014F5F5F4F6F4FC8
:100980007F4F1496DCCFEE0DFF1D8C8580838D8507
:1009900081838E8582838F85838380E090E040E031
:1009A00050E0BA014C845D846E847F84F701E00FCF
:1009B000F11F0C5F1F4F4415550566057705B8F408
:1009C000AC89BD89A80FB91FCC901196DC90119706
:1009D00012963C91129713962C91C082D182328349
:1009E00023834F5F5F4F6F4F7F4F0496DBCF8E891E
:1009F00080838F898183888D8283898D8383412C35
:100A0000512C32018E899F89A88DB98D48165906BF
:100A10006A067B0680F55201AA0CBB1CEC8DFD8D8D
:100A2000EA0DFB1DA081B181FD0101900020E9F7D5
:100A300031976F01CA1ADB0AA60160E070E0C701B6
:100A4000800F911F0E9462040C5F1F4F8C8D9D8D43
:100A5000FC01EA0DFB1D60817181A601C701800FB9
:100A6000911F0E94931D0C0D1D1DFFEF4F1A5F0A71
:100A70006F0A7F0AC7CFC801DF91CF911F910F91F5
:100A8000FF90EF90DF90CF90BF90AF907F906F90EE
:100A90005F904F900895EF92FF920F931F93CF9323
:100AA000DF938C017B01EC018A81FB018193AB8197
:100AB000BC81ED0109900020E9F72197CA1BDB0BEF
:100AC000AE0160E070E0CF010E946204F801638132
:100AD0007481AE01C70105960E94931DCE01059653
:100AE000DF91CF911F910F91FF90EF900895CF92DA
:100AF000DF92EF92FF920F931F93CF93DF936C01DE
:100B0000EB01FC018281888383818983A481B58183
:100B1000FD0101900020E9F731978F010A1B1B0BA3
:100B2000A80160E070E0CE0102960E946204F60126
:100B300064817581A801CE0106960E94931DC801AB
:100B40000696F601A681B781FD0101900020E9F724
:100B500031977F01EA1AFB0AA70160E070E08C0F71
:100B60009D1F0E946204065F1F4FF6016681778118
:100B7000A701CE01800F911F0E94931D0E0D1F1D16
:100B8000F601A085B185FD0101900020E9F73197BC
:100B90007F01EA1AFB0AA70160E070E0CE01800F36
:100BA000911F0E9462040C5F1F4FF60160857185E2
:100BB000A701CE01800F911F0E94931DC8018E0DC9
:100BC0009F1DF6016285438534852585C80FD91F91
:100BD000688349833A832B830496DF91CF911F91D9
:100BE0000F91FF90EF90DF90CF900895CF92DF921A
:100BF000EF92FF92FC011082118212821382DB01BC
:100C000020E030E04D9150E0022E02C0440F551F0D
:100C10000A94E2F7052E000C660B770BC080D1809A
:100C2000E280F3804C295D296E297F29408351831E
:100C300062837383285F3F4F2032310519F7FF909D
:100C4000EF90DF90CF9008958F929F92AF92BF92D6
:100C5000CF92DF92EF92FF920F931F93CF93DF9388
:100C600000D01F92CDB7DEB77C018B01FB018191D3
:100C7000BF01F7018283CE0101960E94F6058981AA
:100C80009A81AB81BC814C015D01F5E08F0E911C16
:100C9000A11CB11C680125E0C20ED11CA601401B9D
:100CA000510B60E070E0481559056A057B0548F472
:100CB000F60141916F019F0122503109F9014083F2
:100CC000EDCFF801E80FF91F14820C5F1F4FF701F9
:100CD0001483038305960F900F900F900F90DF9170
:100CE000CF911F910F91FF90EF90DF90CF90BF9029
:100CF000AF909F908F9008954F925F926F927F92E6
:100D00008F929F92AF92BF92CF92DF92EF92FF921B
:100D10000F931F93CF93DF93CDB7DEB72C970FB60A
:100D2000F894DEBF0FBECDBF7C018B01DB018C913F
:100D300090E0F7019383828311962C91922B9383F9
:100D400082836E5F7F4FCE0109960E94F6058984EB
:100D50009A84AB84BC84B501A4014A5F5F4F6F4F96
:100D60007F4FF8013696CF01801B910BA0E0B0E0D9
:100D700084179507A607B70728F48191DF0112971A
:100D80008C93F1CFF801E80DF91D1582C801059685
:100D9000D70115969C938E931497B4016A5F7F4F89
:100DA000600F711FCE0105960E94F605BAE08B0E0A
:100DB000911C4D815E816F8178852401092C000C86
:100DC00066087708440E551E661E771EF801E80D6A
:100DD000F91DCF01801B910BA0E0B0E084159505B3
:100DE000A605B70528F48191DF0112978C93F1CF06
:100DF0006401C40ED51EB8016C0D7D1DFB01319739
:100E00001082C4010197800F911FF7019783868399
:100E1000CE0101960E94F605A6014C5F5F4F498006
:100E20005A806B807C804A01052E000CAA08BB0802
:100E3000840C951CA61CB71CF801E40FF51F9F013C
:100E4000201B310BC901A0E0B0E088159905AA0567
:100E5000BB0528F48191DF0112978C93F0CFCA0172
:100E6000840D951DF801E80FF91FDF0111971C9201
:100E70009A0121503109020F131FD70119961C93B3
:100E80000E9318972181428150E060E070E0BA0132
:100E900055274427522B2081422B2381722BF701A7
:100EA000428753876487758704962C960FB6F8940B
:100EB000DEBF0FBECDBFDF91CF911F910F91FF908D
:100EC000EF90DF90CF90BF90AF909F908F907F90EA
:100ED0006F905F904F9008952F923F924F925F9244
:100EE0006F927F928F929F92AF92BF92CF92DF923A
:100EF000EF92FF920F931F93CF93DF93CDB7DEB79F
:100F000028970FB6F894DEBF0FBECDBF8C015B01F2
:100F1000DB018C9111969C9111971296CC901297AF
:100F2000D12CE12CF12C7601DD24CC24D92AC82A3D
:100F300013968C91F82AF80182819381A481B5815E
:100F40008C159D05AE05BF0570F4B601660F771FC1
:100F5000660F771F828593850E948414D8011B96A3
:100F60009C938E931A97F801C282D382E482F58211
:100F7000D5011796C12CD12C7601F4E08F2E912C3F
:100F800098012A5F3F4FF801428153816481758146
:100F9000C4010496C416D506E606F70680F54C9102
:100FA00050E060E070E0742F662755274427FD016C
:100FB0003397E0814E2BFD013297E0815E2BFD01DE
:100FC0003197E0816E2BF8014683578360877187E4
:100FD0004C01089742855385840F951FF901408184
:100FE000518162817381FC014083518362837383E9
:100FF000FFEFCF1ADF0AEF0AFF0A1496C4CFF401FD
:10100000EA0DFB1D20813181C280D12CE12CF12C15
:101010007601DD24CC24D32AC22A2381F22A4C0172
:10102000F80184859585A685B7858C159D05AE0547
:10103000BF0570F4B601660F771F660F771F8489AE
:1010400095890E948414D80155969C938E93549749
:10105000F801C486D586E686F78620E030E0C12C0C
:10106000D12C7601D8015096F801448555856685C6
:101070007785F501E80DF91DC4010496C416D5065F
:10108000E606F70648F59180428150E060E070E0A6
:10109000BA0155274427592990804929E3817E2B9D
:1010A000F801408B518B628B738B4C01848995893D
:1010B000FC01E20FF31F4D915D916D917C911397AF
:1010C0004083518362837383FFEFCF1ADF0AEF0AF5
:1010D000FF0A2C5F3F4FC8CF20813181C280D12CC5
:1010E000E12CF12C7601DD24CC24D32AC22A2381E1
:1010F000F22A4C01F80186899789A08DB18D8C1553
:101100009D05AE05BF0560F4B601660F771F848D9F
:10111000958D0E948414D8015D969C938E935C9764
:10112000F801C68AD78AE08EF18E412C512C32010B
:101130001801FAE12F0E311CF80186899789A08DDC
:10114000B18D481659066A067B0608F05AC0B501EB
:10115000680D791DCE0101960E94F60594012C5F61
:101160003F4FC980DA80EB80FC80C901032E000C60
:10117000AA0BBB0BAC01BD014C0D5D1D6E1D7F1D8F
:101180004D835E836F837887F501E20FF31FAF0114
:101190004A195B09CA01A0E0B0E04D815E816F8110
:1011A000788584179507A607B70728F44191DF01D2
:1011B00012974C93ECCFC9018C0D9D1DF501E80FE2
:1011C000F91F31971082215031092A0D3B1DD8019A
:1011D0005B963C932E935A974C01C201880F991F3E
:1011E0005C96ED91FC915D97E80FF91FD1018D910F
:1011F0009C9191838083BFEF4B1A5B0A6B0A7B0A39
:101200009BCFC40128960FB6F894DEBF0FBECDBFAA
:10121000DF91CF911F910F91FF90EF90DF90CF90D2
:10122000BF90AF909F908F907F906F905F904F9006
:101230003F902F900895FC01E85EFB4F20E030E0E6
:1012400041915191452B91F4F901E45FFD4FEE0F6F
:10125000FF1FE80FF91F7183608323583F4FFB0185
:10126000358324839783868381E008952F5F3F4FE2
:101270002931310529F780E008951092B6051092C2
:10128000B7051092B8051092B90566E975E08AEBCA
:1012900095E00E941B091092A2051092A3051092DE
:1012A000A4051092A50542E050E06EE373E082E0F1
:1012B0000C94881210929205109293051092940546
:1012C0001092950562E775E08AEB95E00E941B0994
:1012D00010927E0510927F05109280051092810574
:1012E00042E050E06BE573E082E00C9488121092CB
:1012F0006E0510926F0510927005109271056EE4E4
:1013000075E08AEB95E00E941B0910925A05109235
:101310005B0510925C0510925D0542E050E068E7C5
:1013200073E082E00C94881210924A0510924B05EB
:1013300010924C0510924D056AE275E08AEB95E03B
:101340000E941B091092360510923705109238053D
:101350001092390542E050E065E973E082E00C94B8
:1013600088120E943D090E945A090E9477090C9434
:101370009409DC01A65BBB4F20E030E04D915D910C
:10138000452B81F4F901EB5DFD4FEE0FFF1FE80FD8
:10139000F91F718360832C593F4FFB0133832283F4
:1013A00081E008952F5F3F4F2931310539F780E003
:1013B000089566E175E08AEB95E00E94B90962E064
:1013C00075E08AEB95E00E94B9096EEE74E08AEB55
:1013D00095E00E94B9096AED74E08AEB95E00C94FF
:1013E000B909EAEBF5E04481558166817781828114
:1013F00093810E94FB1A1092370A1092360A1092BB
:10140000390A1092380A10923D0A10923C0A109242
:101410003B0A10923A0A0E94D9090C94B1090F9321
:101420001F93CF93DF93CDB7DEB72A970FB6F8940B
:10143000DEBF0FBECDBF8C0183E594E09A83898324
:101440001B821C821D821E821F82188619861A86A4
:10145000D801ED91FC910190F081E02DAE014F5F3C
:101460005F4F6AE070E0C80119950E94E416F80128
:1014700060877187828793872A960FB6F894DEBFBC
:101480000FBECDBFDF91CF911F910F9108954F9265
:101490005F926F927F92AF92BF92CF92DF92EF9264
:1014A000FF920F931F93CF93DF93CDB7DEB72E97A5
:1014B0000FB6F894DEBF0FBECDBF8C018FE594E070
:1014C0009A8389831C821B8288E793E09E838D83A5
:1014D00098878F839A8789871B861C861D861E8620
:1014E000680188EEC81A8BEFD80A7801A6EBEA1AD1
:1014F000ABEFFA0A412C92E0592E612C712CD601E7
:10150000ED91FC913097B9F1848195819C838B8317
:10151000808191819E838D8382819381DC01ED9115
:10152000FC910480F581E02D199598878F83D60171
:10153000ED91FC9182819381DC01ED91FC9106801B
:10154000F781E02D19959A8789874B865C866D8691
:101550007E86F80180819181F601A081B181189683
:101560006D917C911997DC01ED91FC91AE014F5F7B
:101570005F4FC8011995B2E0CB0ED11CCE14DF0429
:1015800009F0BDCF6801E4E8CE1AEBEFDE0A412C8A
:1015900082E0582E612C712CF701A081B181109747
:1015A000E1F112968D919C9113979C838B831496F5
:1015B0008D919C9115979E838D83ED91FC91119750
:1015C0000480F581E02DCD01199598878F83D7018F
:1015D0008D919C91DC01ED91FC910680F781E02DCD
:1015E00019959A8789874B865C866D867E86D80199
:1015F000ED91FC91A080B180F70180819181DC01A7
:10160000ED91FC910280F381E02D1995AE014F5FC1
:101610005F4FBC01C801F5011995F2E0EF0EF11C16
:10162000EC14FD0409F0B8CFF801EA57FB4F81E054
:1016300080832E960FB6F894DEBF0FBECDBFDF912C
:10164000CF911F910F91FF90EF90DF90CF90BF90BF
:10165000AF907F906F905F904F9008958F929F9280
:10166000AF92BF92CF92DF92EF92FF920F931F93B0
:10167000CF93DF93CDB7DEB72A970FB6F894DEBFCE
:101680000FBECDBF8C015B0183E594E09A83898313
:101690001B821C821D821E821F82188619861A8652
:1016A0000E94E416F801C084D184E284F3849B0193
:1016B000AC012C193D094E095F0969017A01B50198
:1016C000CE0101960E94770288EE882E83E0982E44
:1016D000A12CB12CC701B601A50194010E943B1DAC
:1016E000CB80DC80ED80FE80C20ED31EE41EF51E92
:1016F000CB82DC82ED82FE829B01AC0160E472E46D
:101700008FE090E00E94171DCF80D884E984FA848E
:10171000DC01CB018C0D9D1DAE1DBF1D8F839887F5
:10172000A987BA870E94E416CB80DC80ED80FE801A
:1017300031E0C31AD108E108F108A50194010E9423
:101740003B1DC21AD30AE40AF50AF801C486D586FD
:10175000E686F786CF80D884E984FA84F6E3DF1A38
:10176000F5E6EF0AF4ECFF0A9B01AC0160E472E4D9
:101770008FE090E00E94171DC61AD70AE80AF90AFE
:10178000F801C08AD18AE28AF38AB801605F7F4F8C
:10179000C8010C960E948A1C0E94E416F801E557C5
:1017A000FB4F60837183828393832A960FB6F894EC
:1017B000DEBF0FBECDBFDF91CF911F910F91FF9084
:1017C000EF90DF90CF90BF90AF909F908F90089553
:1017D0002F923F924F925F926F927F928F929F9241
:1017E000AF92BF92CF92DF92EF92FF920F931F932F
:1017F000CF93DF93CDB7DEB760970FB6F894DEBF17
:101800000FBECDBF988B8F870E94E4164B015C0101
:101810002F85388925573B4F3E832D83F9018081E1
:101820009181A281B381A5019401281B390B4A0B38
:101830005B0BDA01C901893F9A42A105B10528F085
:10184000EF85F889EA57FB4F10820F8518890458F5
:101850001B4FD8018D919C91892B81F0EF85F889E0
:10186000E157FB4F80819181A281B3818815990551
:10187000AA05BB0518F4F801118210826F847888DC
:10188000FCE76F1AFBEF7F0A2F85388920583B4F02
:101890003A832983CF84D88838E1C30ED11C4F8581
:1018A00058894A575B4F58874F832F8538892C5664
:1018B0003B4F3A8729874F8558894D565B4F5C8748
:1018C0004B87EF84F88852E8E51A5BEFF50A2F851D
:1018D00038892E573B4F3C832B834F85588941577E
:1018E0005B4F5E874D871401250154E1250E311CA5
:1018F000411C511CEF85F88984899589A689B7898F
:10190000892B8A2B8B2B89F4AF85B88912968D9100
:101910009C911397DC01ED91FC910680F781E02DFD
:1019200019959C0197FF15C037C10E94E416DC0190
:10193000CB0188199909AA09BB09EF85F88924897F
:10194000358946895789281739074A075B07E0F622
:101950004BC1D3018D919C911197820F931F8D9351
:101960009C93F8014081518147305105D9F4AB81F6
:10197000BC818D919C911197AC014F5F5F4F4D934E
:101980005C93EF85F889E80FF91F208FF7018081BC
:101990009181019791838083892B09F0ABCF88E0F7
:1019A00090E02FC04115510521F52F3F310569F415
:1019B00081E090E0F80191838083AD85BE852D9212
:1019C0003D924D925C92139795CF0E94E416DC01F4
:1019D000CB0188199909AA09BB0989389341A10546
:1019E000B10508F487CFEF85F889EA57FB4F1082DD
:1019F000FBC041305105B1F42E3F310531F482E096
:101A000090E0D8018D939C9375CFF80111821082DC
:101A1000AF81B8858C9181116DCF8F8598890E9497
:101A20000F0A68CF4230510569F4F70131832083F2
:101A3000AB81BC811D921C9283E090E0F801918300
:101A400080832EC04330510561F4322F2227F701E5
:101A500080819181280F391F3183208384E090E0B9
:101A6000D0CF4430510581F460E071E00E94271D21
:101A70008F3F910531F485E090E0F80191838083F8
:101A800039CF1182108236CF4530510569F4E98192
:101A9000FA8131832083E6E0F0E0D801ED93FC93F6
:101AA000D3012D933C9326CF4630510599F4322F24
:101AB0002227E981FA8180819181280F391F3183A2
:101AC0002083E7E0F0E0D801ED93FC93D7018D91FE
:101AD0009C9162CF4830510509F00CCFF80111827A
:101AE000108260E071E00E94271D8F3F910509F090
:101AF00001CFA981BA818D919C910097C9F48F85FE
:101B000098890E940F0A8F8598890E94470AEF855D
:101B1000F889E957FB4F80829182A282B382ED81DE
:101B2000FE8180829182A282B3828FEF9FEF61C09B
:101B30008A30910531F4B6018F8598890E942E0B69
:101B4000D9CE8630910551F4B60189859A850E94D7
:101B50006C0781E0AB85BC858C93CCCE8B30910536
:101B600021F4EF81F8851082C5CEFC01EF53FE4FC2
:101B7000EE0FFF1F2F853889E20FF31F80819181BF
:101B8000009709F4B7CEDC01ED91FC910190F08152
:101B9000E02DB6011995AECEEF85F889EA57FB4FD7
:101BA0008081882321F10F85188909571B4FF8017F
:101BB00080819181A281B381A5019401281B390BF9
:101BC0004A0B5B0BDA01C901853C9940A105B105BF
:101BD00070F08F8598890E940F0AD8018D929D928E
:101BE000AD92BC92139703C08EEF9FEF02C080E0CE
:101BF00090E060960FB6F894DEBF0FBECDBFDF91C8
:101C0000CF911F910F91FF90EF90DF90CF90BF90F9
:101C1000AF909F908F907F906F905F904F903F908C
:101C20002F9008950E945A040E94FE038AEB95E0CB
:101C30000E94E80B0E9415048AEB95E00E94E80BD5
:101C40000E942C048AEB95E00E94E80B0C9443045C
:101C50000E94120E8AEB95E00E94E80B61E070E0B2
:101C600080E090E00C941517CF93DF9300D01F9283
:101C70001F92CDB7DEB72BE634E03A8329836B831E
:101C80005D834C83DC01ED91FC910190F081E02DAE
:101C9000AE014F5F5F4F67E070E019950F900F90B6
:101CA0000F900F900F90DF91CF910895CF93DF9316
:101CB000EC016A817B818C819D810E94B81C8EEF32
:101CC00094E00E9424028D818F938C818F938B816D
:101CD0008F938A818F9386E393E09F938F930E94E3
:101CE0009C1D0F900F900F900F900F900F9049E355
:101CF00053E061E08AEB95E0DF91CF910C94340ED4
:101D0000CF92DF92EF92FF920F931F93CF93DF93C7
:101D1000EC017B01643671053CF0FE01EA57FB4F94
:101D20008081882309F462C0DA01ED91FC91019071
:101D3000F081E02DBE01615E7D4FCA0119958E01D3
:101D4000085E1D4F2FEFF80120832EEF3196208380
:101D500031968083319690833196292F280F2095D4
:101D600020833196E082DE01A25EBD4FFC9245E009
:101D700050E020E030E0BC016A5F7F4F64177507D8
:101D800034F0A1912A0F311D4F5F5F4FF7CF7C01D7
:101D9000F8E0EF0EF11C8C0F9D1FFC01E15EFD4F82
:101DA0002095208341E0E41642E0F406B4F4680193
:101DB000C601801B910B8E159F056CF48A819B8157
:101DC000D6016D916D01DC01ED91FC910190F081E6
:101DD000E02D1995EDCFC7010BC040E453E063E05F
:101DE000CE010E94340E8FEF9FEF02C080E090E0A2
:101DF000DF91CF911F910F91FF90EF90DF90CF90E7
:101E0000089549E753E061E08AEB95E00C94340EC5
:101E1000CF93DF93EC016A817B818C819D810E944D
:101E2000B81C8AEE94E00E9424028D818F938C81ED
:101E30008F938B818F938A818F9386E393E09F9317
:101E40008F930E949C1D0F900F900F900F900F90FA
:101E50000F9042E853E061E08AEB95E0DF91CF918B
:101E60000C94340ECF93DF93EC016A817B818C81DB
:101E70009D810E94B81C86E295E00E9424028D811B
:101E80008F938C818F938B818F938A818F9386E33D
:101E900093E09F938F930E949C1D0F900F900F9043
:101EA0000F900F900F9049E853E061E08AEB95E0C6
:101EB000DF91CF910C94340ECF93DF93EC016A81C4
:101EC0007B818C819D810E94B81C82E195E00E94FB
:101ED00024028D818F938C818F938B818F938A8144
:101EE0008F9386E393E09F938F930E949C1D0F90A6
:101EF0000F900F900F900F900F9040E953E061E02A
:101F00008AEB95E0DF91CF910C94340EEF92FF9223
:101F10000F931F93CF93DF938FE894E09093BB05CB
:101F20008093BA058BEE9AE09093BD058093BC0533
:101F300080E091EEA0E0B0E08093BE059093BF05F5
:101F4000A093C005B093C1051092400A87E794E0C2
:101F500090934F0A80934E0A1092500A1092510AA1
:101F60001092520A1092530A1092590A1092580A6B
:101F700010925A0A10925B0A10925C0A10925D0A43
:101F80001092630A1092620A1092640A1092650A13
:101F90001092660A1092670A10926B0A10926A0AEF
:101FA000E2EDF9E0119211928AE0E430F807D1F7FE
:101FB000E4E0FAE0119211928AE0E633F807D1F7F3
:101FC000E2EDF5E0119287E0E23DF807D9F7E2EDA6
:101FD000F7E0119289E0E23DF807D9F71092CE05BB
:101FE0001092CF051092D0051092D10525EA34E069
:101FF0003093A7052093A60589E994E09093AD0559
:102000008093AC051092AE051092AF051092B0050A
:102010001092B10545E353E05093B3054093B205E8
:10202000C1E0D0E0D093B505C093B40547E953E0D3
:102030005093AB054093AA059093A1058093A0050A
:102040001092A2051092A3051092A4051092A50566
:1020500044EA53E0509397054093960540EA55E0D3
:10206000509399054093980510929F0510929E05F4
:10207000309383052093820590938905809388058A
:1020800010928A0510928B0510928C0510928D0586
:1020900042E553E050938F0540938E05D093910510
:1020A000C093900540EB53E050938705409386051D
:1020B00090937D0580937C0510927E0510927F059C
:1020C00010928005109281054DEB53E050937305FB
:1020D000409372054CE755E05093750540937405A5
:1020E00010927B0510927A0530935F0520935E0570
:1020F00090936505809364051092660510926705BC
:1021000010926805109269054FE653E050936B05F5
:1021100040936A05D0936D05C0936C0549EC53E07C
:102120005093630540936205909359058093580539
:1021300010925A0510925B0510925C0510925D0595
:1021400046ED53E050934F0540934E0548E555E06A
:102150005093510540935005109257051092560523
:1021600030933B0520933A059093410580934005B9
:1021700010924205109243051092440510924505B5
:102180002CE833E03093470520934605D09349056A
:10219000C093480522EE33E030933F0520933E057F
:1021A00090933505809334051092360510923705CB
:1021B00010923805109239058FEE93E090932B051D
:1021C00080932A0584E395E090932D0580932C0558
:1021D000109233051092320540910C0250910D027D
:1021E00060910E0270910F0286E295E00E94130248
:1021F00081EBE82E84E0F82EF0921705E0921605A8
:1022000003E814E010931D0500931C0510921E05B1
:1022100010921F05109220051092210582E39FE085
:102220009093230580932205D0932505C093240520
:102230008BEF93E090931B0580931A054091080261
:102240005091090260910A0270910B0282E195E0BF
:102250000E941302F0920305E09202051093090513
:102260000093080510920A0510920B0510920C05B8
:1022700010920D058CE59FE090930F0580930E055D
:10228000D0931105C093100588E094E09093070562
:102290008093060540910402509105026091060268
:1022A000709107028EEF94E00E941302F092EF0407
:1022B000E092EE041093F5040093F4041092F604F7
:1022C0001092F7041092F8041092F90486E59EE04B
:1022D0009093FB048093FA04D093FD04C093FC0414
:1022E00085E194E09093F3048093F204409100021E
:1022F0005091010260910202709103028AEE94E013
:102300000E941302F092DB04E092DA041093E104DD
:102310000093E0041092E2041092E3041092E404AB
:102320001092E50488E09FE09093E7048093E60430
:10233000D093E904C093E80482E294E09093DF0430
:102340008093DE04F092CB04E092CA041093D1048F
:102350000093D0041092D2041092D3041092D404AB
:102360001092D50481E09FE09093D7048093D60427
:10237000D093D904C093D8048FE294E09093CF0413
:102380008093CE04DF91CF911F910F91FF90EF903A
:1023900008951F93CF93DF93182FEB0161E00E9404
:1023A000EF17209711F460E004C0CF3FD10539F456
:1023B00061E0812FDF91CF911F910C942B18E12FB9
:1023C000F0E0EA54FD4FE4914E2F50E0FA013197CE
:1023D000E131F10508F093C08827EE58FF4F8F4F89
:1023E0000C945D1D84B5806884BDC7BD8DC084B567
:1023F000806284BDC8BD88C0809180008068809361
:102400008000D0938900C09388007EC080918000B6
:10241000806280938000D0938B00C0938A0074C048
:102420008091B00080688093B000C093B3006CC00E
:102430008091B00080628093B000C093B40064C00B
:1024400080919000806880939000D0939900C09311
:1024500098005AC080919000806280939000D09341
:102460009B00C0939A0050C0809190008860809338
:102470009000D0939D00C0939C0046C08091A00026
:1024800080688093A0008091A0008F7B8093A00043
:10249000D093A900C093A80037C08091A0008062AB
:1024A0008093A000D093AB00C093AA002DC0809170
:1024B000A00088608093A000D093AD00C093AC00D2
:1024C00023C080912001806880932001D09329014E
:1024D000C093280119C0809120018062809320015F
:1024E000D0932B01C0932A010FC0809120018860F6
:1024F00080932001D0932D01C0932C0105C0C038DA
:10250000D1050CF055CF4FCFDF91CF911F9108959A
:10251000883008F070C0A82FB0E0AA0FBB1FA459E4
:10252000B54F11967C936E9390E0FC013197E730A4
:10253000F105A0F58827ED57FF4F8F4F0C945D1DD7
:10254000809169008C7F482B40936900E89A089538
:1025500080916900440F551F440F551F837F482BFE
:1025600040936900E99A08958091690074E0440FEE
:10257000551F7A95E1F78F7C482B40936900EA9AC2
:1025800008958091690066E0440F551F6A95E1F750
:102590008F73482B40936900EB9A089580916A00ED
:1025A0008C7F482B40936A00EC9A089580916A00D2
:1025B000440F551F440F551F837F482B40936A00DB
:1025C000ED9A089580916A0024E0440F551F2A95E2
:1025D000E1F78F7C482B40936A00EE9A0895809132
:1025E0006A0096E0440F551F9A95E1F78F73482BC8
:1025F00040936A00EF9A08951F920F920FB60F92C0
:1026000011240BB60F922F933F934F935F936F93C9
:102610007F938F939F93AF93BF93EF93FF9380919B
:10262000700A9091710A892B29F0E091700AF0915B
:10263000710A1995FF91EF91BF91AF919F918F9181
:102640007F916F915F914F913F912F910F900BBEB2
:102650000F900FBE0F901F9018951F920F920FB6FC
:102660000F9211240BB60F922F933F934F935F93CA
:102670006F937F938F939F93AF93BF93EF93FF934A
:102680008091720A9091730A892B29F0E091720A65
:10269000F091730A1995FF91EF91BF91AF919F91BE
:1026A0008F917F916F915F914F913F912F910F90FB
:1026B0000BBE0F900FBE0F901F9018951F920F9298
:1026C0000FB60F9211240BB60F922F933F934F9397
:1026D0005F936F937F938F939F93AF93BF93EF938A
:1026E000FF938091740A9091750A892B29F0E091EB
:1026F000740AF091750A1995FF91EF91BF91AF910E
:102700009F918F917F916F915F914F913F912F9109
:102710000F900BBE0F900FBE0F901F9018951F9239
:102720000F920FB60F9211240BB60F922F933F9377
:102730004F935F936F937F938F939F93AF93BF93C9
:10274000EF93FF938091760A9091770A892B29F075
:10275000E091760AF091770A1995FF91EF91BF9178
:10276000AF919F918F917F916F915F914F913F9129
:102770002F910F900BBE0F900FBE0F901F901895CA
:102780001F920F920FB60F9211240BB60F922F9338
:102790003F934F935F936F937F938F939F93AF93E9
:1027A000BF93EF93FF9380916C0A90916D0A892BF0
:1027B00029F0E0916C0AF0916D0A1995FF91EF9163
:1027C000BF91AF919F918F917F916F915F914F9149
:1027D0003F912F910F900BBE0F900FBE0F901F9047
:1027E00018951F920F920FB60F9211240BB60F92ED
:1027F0002F933F934F935F936F937F938F939F9309
:10280000AF93BF93EF93FF9380916E0A90916F0AFD
:10281000892B29F0E0916E0AF0916F0A1995FF91CA
:10282000EF91BF91AF919F918F917F916F915F9148
:102830004F913F912F910F900BBE0F900FBE0F90B5
:102840001F9018951F920F920FB60F9211240BB67E
:102850000F922F933F934F935F936F937F938F9339
:102860009F93AF93BF93EF93FF938091780A9091DA
:10287000790A892B29F0E091780AF091790A199563
:10288000FF91EF91BF91AF919F918F917F916F9148
:102890005F914F913F912F910F900BBE0F900FBE04
:1028A0000F901F9018951F920F920FB60F92112440
:1028B0000BB60F922F933F934F935F936F937F933A
:1028C0008F939F93AF93BF93EF93FF9380917A0A77
:1028D00090917B0A892B29F0E0917A0AF0917B0A8A
:1028E0001995FF91EF91BF91AF919F918F917F913A
:1028F0006F915F914F913F912F910F900BBE0F9071
:102900000FBE0F901F9018956F927F928F929F929B
:10291000AF92BF92CF92DF92EF92FF920F931F93ED
:10292000CF93DF93EC01009789F4CB01DF91CF9136
:102930001F910F91FF90EF90DF90CF90BF90AF90DD
:102940009F908F907F906F900C946D15FC01E60F17
:10295000F71F9C0122503109E217F30708F4ACC0BD
:10296000D9010D911C91119706171707B0F005308A
:10297000110508F49FC0C80104978617970708F44B
:1029800099C002501109061B170B019311936D9307
:102990007C93CF010E9402168DC05B01A01AB10A80
:1029A0004C01800E911EA0912F0DB091300D40E092
:1029B00050E0E12CF12C109709F44AC0A815B90594
:1029C000D1F56D907C901197630182E0C80ED11C07
:1029D000CA14DB0480F1A3014A195B096A0182E091
:1029E000C80ED11C1296BC9012971396AC91B5E00C
:1029F000CB16D10440F0B282A38351834083D90126
:102A00006D937C930AC00E5F1F4FC301800F911F0F
:102A1000F90191838083EB2DFA2FE114F10431F059
:102A2000D7011396FC93EE93129744C0F093300DA8
:102A3000E0932F0D3FC08D919C9111974817590736
:102A400008F4AC017D0112960D90BC91A02DB3CF7E
:102A500080912D0D90912E0D88159905E1F4461762
:102A60005707C8F48091100290911102009741F429
:102A70008DB79EB74091140250911502841B950B9F
:102A8000E817F907C8F4F0932E0DE0932D0DF90126
:102A9000718360830FC0CB010E946D157C0100978C
:102AA00059F0A801BE010E94931DCE010E9402169A
:102AB000C70104C0CE0102C080E090E0DF91CF9159
:102AC0001F910F91FF90EF90DF90CF90BF90AF904C
:102AD0009F908F907F906F900895CF93DF93823077
:102AE000910510F482E090E0E0912F0DF091300D0F
:102AF00020E030E0C0E0D0E0309711F1408151811A
:102B000048175907C0F04817590761F4828193812B
:102B1000209719F09B838A832BC09093300D80936C
:102B20002F0D26C02115310519F04217530718F44F
:102B30009A01BE01DF01EF010280F381E02DDCCFBD
:102B40002115310509F1281B390B2430310590F48A
:102B500012968D919C9113976115710521F0FB01DF
:102B60009383828304C09093300D80932F0DFD01D9
:102B7000329644C0FD01E20FF31F819391932250DE
:102B800031092D933C933AC020912D0D30912E0D9B
:102B9000232B41F4209112023091130230932E0D19
:102BA00020932D0D20911002309111022115310535
:102BB00041F42DB73EB74091140250911502241BE9
:102BC000350BE0912D0DF0912E0DE217F307A0F4D7
:102BD0002E1B3F0B2817390778F0AC014E5F5F4F73
:102BE0002417350748F04E0F5F1F50932E0D40936A
:102BF0002D0D8193919302C0E0E0F0E0CF01DF91D1
:102C0000CF9108950F931F93CF93DF93009709F40B
:102C10008CC0FC0132971382128200912F0D10910B
:102C2000300D0115110581F420813181820F931F30
:102C300020912D0D30912E0D2817390779F5F0933D
:102C40002E0DE0932D0D71C0D80140E050E0AE177D
:102C5000BF0750F412962D913C911397AD012115A9
:102C6000310509F1D901F3CF9D01DA0133832283C4
:102C700060817181860F971F8217930769F4EC01B9
:102C800028813981260F371F2E5F3F4F31832083E4
:102C90008A819B8193838283452B29F4F093300DA5
:102CA000E0932F0D42C01396FC93EE931297ED0123
:102CB000499159919E01240F351FE217F30771F4D2
:102CC00080819181840F951F029611969C938E931B
:102CD0008281938113969C938E931297E0E0F0E0AB
:102CE000D80112968D919C911397009719F0F801D5
:102CF0008C01F6CF8D919C9198012E5F3F4F820FF2
:102D0000931F20912D0D30912E0D2817390769F44E
:102D1000309729F41092300D10922F0D02C01382BB
:102D2000128210932E0D00932D0DDF91CF911F91E4
:102D30000F9108951F920F920FB60F9211242F93A7
:102D40003F938F939F93AF93BF9380917D0A909110
:102D50007E0AA0917F0AB091800A30917C0A23E01C
:102D6000230F2D3720F40196A11DB11D05C026E8C3
:102D7000230F0296A11DB11D20937C0A80937D0A2A
:102D800090937E0AA0937F0AB093800A8091810A73
:102D90009091820AA091830AB091840A0196A11DA4
:102DA000B11D8093810A9093820AA093830AB09305
:102DB000840ABF91AF919F918F913F912F910F9076
:102DC0000FBE0F901F9018952FB7F89460917D0A51
:102DD00070917E0A80917F0A9091800A2FBF08959A
:102DE0003FB7F8948091810A9091820AA091830A5A
:102DF000B091840A26B5A89B05C02F3F19F0019613
:102E0000A11DB11D3FBFBA2FA92F982F8827820F70
:102E1000911DA11DB11DBC01CD0142E0660F771FC0
:102E2000881F991F4A95D1F70895CF92DF92EF92AC
:102E3000FF92CF93DF936B017C010E94F016EB01B0
:102E4000C114D104E104F10479F00E94F0166C1B66
:102E50007D0B683E7340A0F381E0C81AD108E108F9
:102E6000F108C851DC4FECCFDF91CF91FF90EF908C
:102E7000DF90CF900895789484B5826084BD84B546
:102E8000816084BD85B5826085BD85B5816085BD65
:102E9000EEE6F0E0808181608083E1E8F0E010827E
:102EA000808182608083808181608083E0E8F0E0BF
:102EB000808181608083E1EBF0E0808184608083A9
:102EC000E0EBF0E0808181608083E1E9F0E08081E7
:102ED00082608083808181608083E0E9F0E080818E
:102EE00081608083E1EAF0E080818260808380817C
:102EF00081608083E0EAF0E0808181608083E1E2AC
:102F0000F1E0808182608083808181608083E0E263
:102F1000F1E0808181608083EAE7F0E08081846075
:102F200080838081826080838081816080838081D2
:102F3000806880831092C100089590E0FC01319771
:102F4000E131F10508F04AC08827E657FF4F8F4F5F
:102F50000C945D1D809180008F7703C0809180006C
:102F60008F7D80938000089584B58F7702C084B5EB
:102F70008F7D84BD08958091B0008F7703C08091CC
:102F8000B0008F7D8093B0000895809190008F777E
:102F900007C0809190008F7D03C080919000877F53
:102FA0008093900008958091A0008F7707C0809152
:102FB000A0008F7D03C08091A000877F8093A00038
:102FC0000895809120018F7707C0809120018F7D27
:102FD00003C080912001877F809320010895CF93C3
:102FE000DF9390E0FC01E450FD4F2491FC01EE5B87
:102FF000FC4F8491882361F190E0880F991FFC01B8
:10300000EE55FC4FC591D491FC01E857FC4FA591BA
:10301000B491611109C09FB7F894888120958223EB
:103020008883EC912E230BC0623061F49FB7F89433
:103030003881822F809583238883EC912E2B2C93CB
:103040009FBF06C08FB7F894E8812E2B28838FBFCF
:10305000DF91CF9108951F93CF93DF93282F30E016
:10306000F901EA54FD4F8491F901E450FD4FD491E8
:10307000F901EE5BFC4FC491CC23C9F0162F8111EE
:103080000E949D17EC2FF0E0EE0FFF1FE857FC4F5A
:10309000A591B4918FB7F894111105C09C91ED2FB3
:1030A000E095E92302C0EC91ED2BEC938FBFDF910B
:1030B000CF911F910895FC0124853585F901E05CCD
:1030C000FF4F80819181329620813181821B930B49
:1030D0008F7399270895DC011C96ED91FC911D9743
:1030E000DF01A05CBF4F2D913C91119712968D91FD
:1030F0009C9111972817390739F08D919C91E80F11
:10310000F91F808190E008958FEF9FEF0895FC01F3
:10311000A485B585FD01E05CFF4F208131813296A9
:10312000808191812817390779F080819181A80FDA
:10313000B91F8C91208131812F5F3F4F2F7333272F
:103140003183208390E008958FEF9FEF0895FC0175
:1031500081A1882329F0A489B5898C9186FFFBCFB2
:1031600011A208950F931F93CF93DF93FC01A685BF
:10317000B7858D01005C1F4FE80188819981019618
:103180008F739927AD014E5B5F4FEA01288139812A
:1031900082179307D1F3E80128813981A20FB31F69
:1031A0006C93A685B785A05CBF4F11969C938E93B8
:1031B000A689B7892C9181E090E0078C02C0880F26
:1031C000991F0A94E2F7822B8C9381E081A30488F3
:1031D000F589E02D80818064808381E090E0DF913B
:1031E000CF911F910F910895FB01E05CFF4F20816B
:1031F00031812F5F3F4F2F733327DB01AE5BBF4F12
:103200004D915C912417350741F040815181DB01DC
:10321000A40FB51F8C9331832083089508951F92C6
:103220000F920FB60F9211240BB60F922F933F936C
:103230004F935F936F937F938F939F93AF93BF93BE
:10324000EF93FF938091C00082FD07C08091C6007C
:1032500069EE7CE00E94F41802C08091C600FF91E4
:10326000EF91BF91AF919F918F917F916F915F91FE
:103270004F913F912F910F900BBE0F900FBE0F906B
:103280001F90189508951F920F920FB60F92112458
:103290000BB60F922F933F934F935F936F937F9350
:1032A0008F939F93AF93BF93EF93FF938091C80049
:1032B00082FD07C08091CE0061E67CE00E94F41898
:1032C00002C08091CE00FF91EF91BF91AF919F918D
:1032D0008F917F916F915F914F913F912F910F90BF
:1032E0000BBE0F900FBE0F901F90189508951F9260
:1032F0000F920FB60F9211240BB60F922F933F939C
:103300004F935F936F937F938F939F93AF93BF93ED
:10331000EF93FF938091D00082FD07C08091D6008B
:1033200069ED7BE00E94F41802C08091D600FF9105
:10333000EF91BF91AF919F918F917F916F915F912D
:103340004F913F912F910F900BBE0F900FBE0F909A
:103350001F90189508951F920F920FB60F92112487
:103360000BB60F922F933F934F935F936F937F937F
:103370008F939F93AF93BF93EF93FF93809130010F
:1033800082FD07C08091360161E57BE00E94F41860
:1033900002C080913601FF91EF91BF91AF919F9153
:1033A0008F917F916F915F914F913F912F910F90EE
:1033B0000BBE0F900FBE0F901F9018958BEE9AE0EA
:1033C0000E945B18892B11F00E940E1989EC9AE07B
:1033D0000E945B18892B11F00E94421987EA9AE03B
:1033E0000E945B18892B11F00E94761985E89AE0FB
:1033F0000E945B18892B11F00C94AA1908951F9252
:103400000F920FB60F9211240BB60F922F933F938A
:103410008F939F93EF93FF932091E50C3091E60CEF
:103420008091E70C9091E80C2817390731F48091CE
:10343000C1008F7D8093C10014C0E091E70CF09132
:10344000E80CEB55F34F20818091E70C9091E80C4C
:1034500001968F7399279093E80C8093E70C209343
:10346000C600FF91EF919F918F913F912F910F9007
:103470000BBE0F900FBE0F901F9018951F920F92CA
:103480000FB60F9211240BB60F922F933F938F9389
:103490009F93EF93FF9320915D0C30915E0C809190
:1034A0005F0C9091600C2817390731F48091C900A6
:1034B0008F7D8093C90014C0E0915F0CF091600C87
:1034C000E35EF34F208180915F0C9091600C019638
:1034D0008F7399279093600C80935F0C2093CE009C
:1034E000FF91EF919F918F913F912F910F900BBE84
:1034F0000F900FBE0F901F9018951F920F920FB64E
:103500000F9211240BB60F922F933F938F939F939B
:10351000EF93FF932091D50B3091D60B8091D70B71
:103520009091D80B2817390731F48091D1008F7D05
:103530008093D10014C0E091D70BF091D80BEB56DB
:10354000F44F20818091D70B9091D80B01968F7307
:1035500099279093D80B8093D70B2093D600FF9197
:10356000EF919F918F913F912F910F900BBE0F90F4
:103570000FBE0F901F9018951F920F920FB60F92CB
:1035800011240BB60F922F933F938F939F93EF933A
:10359000FF9320914D0B30914E0B80914F0B9091EA
:1035A000500B2817390731F4809131018F7D8093BA
:1035B000310114C0E0914F0BF091500BE35FF44FD9
:1035C000208180914F0B9091500B01968F7399271A
:1035D0009093500B80934F0B20933601FF91EF9106
:1035E0009F918F913F912F910F900BBE0F900FBE27
:1035F0000F901F901895CF92DF92EF92FF920F934A
:103600001F93CF93DF93EC016A017B014115514E6B
:103610006105710509F1EC89FD8981E090E008A060
:1036200002C0880F991F0A94E2F7808360E079E076
:103630008DE390E0A70196010E943B1D89019A014C
:1036400001501109210931093695279517950795DC
:10365000980101151041A8F0EC89FD89108260E8FD
:1036600074E88EE190E0A70196010E943B1DDA010B
:10367000C9010197A109B109B695A79597958795B5
:103680009C01E889F9893083EA89FB89208319A2A2
:10369000EE89FF89408181E090E09C010C8C02C0A2
:1036A000220F331F0A94E2F7242B2083EE89FF892F
:1036B00040819C010D8C02C0220F331F0A94E2F757
:1036C000242B2083EE89FF8940819C010E8C02C04F
:1036D000220F331F0A94E2F7242B2083EE89FF89FF
:1036E00020810F8C02C0880F991F0A94E2F7809501
:1036F00082238083DF91CF911F910F91FF90EF90F4
:10370000DF90CF900895CF92DF92EF92FF92EBEE91
:10371000FAE01382128288EEC82E83E0D82EE12CC4
:10372000F12CC482D582E682F7826DEB74E071835E
:10373000608389EE9CE09587848785EA9CE0978783
:10374000868785EC90E0918B808B84EC90E0938B66
:10375000828B80EC90E0958B848B81EC90E0978B52
:10376000868B82EC90E0918F808F86EC90E0938F37
:10377000828F44E0448F33E0358F27E0268F95E039
:10378000978F81E080A3E9ECFAE013821282C48271
:10379000D582E682F78271836083A1E6BCE0B587BB
:1037A000A487ADE1BCE0B787A687ADECB0E0B18BF4
:1037B000A08BACECB0E0B38BA28BA8ECB0E0B58BE7
:1037C000A48BA9ECB0E0B78BA68BAAECB0E0B18FCC
:1037D000A08FAEECB0E0B38FA28F448F358F268FD1
:1037E000978F80A3E7EAFAE013821282C482D5821F
:1037F000E682F78271836083A9EDBBE0B587A48779
:10380000A5E9BBE0B787A687A5EDB0E0B18BA08B9B
:10381000A4EDB0E0B38BA28BA0EDB0E0B58BA48B90
:10382000A1EDB0E0B78BA68BA2EDB0E0B18FA08F79
:10383000A6EDB0E0B38FA28F448F358F268F978F80
:1038400080A3E5E8FAE013821282C482D582E68280
:10385000F7827183608361E57BE0758764876DE043
:103860007BE07787668765E371E0718B608B64E34B
:1038700071E0738B628B60E371E0758B648B61E345
:1038800071E0778B668B62E371E0718F608F66E326
:1038900071E0738F628F448F358F268F978F80A34F
:1038A000FF90EF90DF90CF900895CF92DF92EF924C
:1038B000FF920F931F93CF93DF936C01EB017B017A
:1038C000E40EF51E00E010E0CE15DF0561F0699111
:1038D000D601ED91FC910190F081E02DC601199582
:1038E000080F191FF1CFC801DF91CF911F910F91E0
:1038F000FF90EF90DF90CF9008950E943B170E94B9
:10390000F109CEEDD9E10E94280E2097E1F30E9443
:10391000DE19F9CFCF92DF92EF92FF920F931F93B0
:10392000CF93DF938C01EB01688179818A819B8140
:1039300020E03AEC4AE95BE30E943B1DF801C080BD
:10394000D180E280F380C20ED31EE41EF51EC08239
:10395000D182E282F382688379838A839B83DF91B9
:10396000CF911F910F91FF90EF90DF90CF9008952E
:103970000E94BF1C6894B1110C94111D08950E94FF
:10398000F61C88F09F5798F0B92F9927B751B0F0DF
:10399000E1F0660F771F881F991F1AF0BA95C9F7D3
:1039A00014C0B13091F00E94101DB1E008950C9444
:1039B000101D672F782F8827B85F39F0B93FCCF3F7
:1039C000869577956795B395D9F73EF49095809550
:1039D000709561957F4F8F4F9F4F089557FD905879
:1039E000440F551F59F05F3F71F04795880F97FBC3
:1039F000991F61F09F3F79F087950895121613067D
:103A00001406551FF2CF4695F1DF08C016161706AB
:103A10001806991FF1CF86957105610508940895E0
:103A2000E894BB2766277727CB0197F90895DB0138
:103A30008F939F930E94651DBF91AF91A29F800DB0
:103A4000911DA39F900DB29F900D1124089597FB97
:103A5000072E16F4009407D077FD09D00E94701D40
:103A600007FC05D03EF4909581959F4F0895709581
:103A700061957F4F0895A1E21A2EAA1BBB1BFD0181
:103A80000DC0AA1FBB1FEE1FFF1FA217B307E4073D
:103A9000F50720F0A21BB30BE40BF50B661F771F95
:103AA000881F991F1A9469F7609570958095909575
:103AB0009B01AC01BD01CF010895EE0FFF1F881FD0
:103AC0008BBF0790F691E02D19940E94841DA59F4D
:103AD000900DB49F900DA49F800D911D1124089509
:103AE000AA1BBB1B51E107C0AA1FBB1FA617B70724
:103AF00010F0A61BB70B881F991F5A95A9F7809540
:103B00009095BC01CD010895A29FB001B39FC00163
:103B1000A39F700D811D1124911DB29F700D811DF9
:103B20001124911D0895FB01DC0102C001900D924A
:103B300041505040D8F70895CF93DF93CDB7DEB70B
:103B4000AE014A5F5F4FFA0161917191AF018091BF
:103B5000330D9091340D0E94B01DDF91CF910895E7
:103B60002F923F924F925F926F927F928F929F928D
:103B7000AF92BF92CF92DF92EF92FF920F931F937B
:103B8000CF93DF93CDB7DEB72C970FB6F894DEBF97
:103B90000FBECDBF7C016B018A01FC01178216822A
:103BA000838181FFBDC1CE0101964C01F701938154
:103BB000F60193FD859193FF81916F01882309F4AC
:103BC000ABC1853239F493FD859193FF81916F01EB
:103BD000853229F4B70190E00E94C11FE7CF512C34
:103BE000312C20E02032A0F48B3269F030F48032A6
:103BF00059F0833269F420612CC08D3239F0803362
:103C000039F4216026C02260246023C0286021C0CE
:103C100027FD27C030ED380F3A3078F426FF06C074
:103C2000FAE05F9E300D1124532E13C08AE0389EB7
:103C3000300D1124332E20620CC08E3221F426FD6B
:103C40006BC1206406C08C3611F4206802C088362F
:103C500041F4F60193FD859193FF81916F018111EC
:103C6000C1CF982F9F7D9554933028F40C5F1F4F40
:103C7000FFE3F9830DC0833631F0833771F083356C
:103C800009F05BC022C0F801808189830E5F1F4F5D
:103C900044244394512C540115C03801F2E06F0EB6
:103CA000711CF801A080B18026FF03C0652D70E073
:103CB00002C06FEF7FEFC5012C870E94B61F2C0159
:103CC00083012C852F77222E17C03801F2E06F0E6A
:103CD000711CF801A080B18026FF03C0652D70E043
:103CE00002C06FEF7FEFC5012C870E94AB1F2C0134
:103CF0002C852068222E830123FC1BC0832D90E09D
:103D000048165906B0F4B70180E290E00E94C11F46
:103D10003A94F4CFF50127FC859127FE81915F014C
:103D2000B70190E00E94C11F31103A94F1E04F1AA0
:103D300051084114510471F7E5C0843611F08936F9
:103D400039F5F80127FF07C0608171818281938175
:103D50000C5F1F4F08C060817181072E000C880B1B
:103D6000990B0E5F1F4F2F76722E97FF09C090950B
:103D70008095709561957F4F8F4F9F4F2068722E71
:103D80002AE030E0A4010E94F91FA82EA81844C020
:103D9000853729F42F7EB22E2AE030E025C0F22F9D
:103DA000F97FBF2E8F36C1F018F4883579F0B4C092
:103DB000803719F0883721F0AFC02F2F2061B22E45
:103DC000B4FE0DC08B2D8460B82E09C024FF0AC03C
:103DD0009F2F9660B92E06C028E030E005C020E194
:103DE00030E002C020E132E0F801B7FE07C0608198
:103DF0007181828193810C5F1F4F06C06081718148
:103E000080E090E00E5F1F4FA4010E94F91FA82ED2
:103E1000A818FB2DFF777F2E76FE0BC0372D3E7F37
:103E2000A51450F474FE0AC072FC08C0372D3E7E03
:103E300005C0BA2C372D03C0BA2C01C0B52C34FFF5
:103E40000DC0FE01EA0DF11D8081803311F4397E31
:103E500009C032FF06C0B394B39404C0832F8678A0
:103E600009F0B39433FD13C030FF06C05A2CB314CD
:103E700018F4530C5B18B32CB31468F4B70180E248
:103E800090E03C870E94C11FB3943C85F5CFB314EA
:103E900010F43B1801C0312C34FF12C0B70180E38D
:103EA00090E03C870E94C11F3C8532FF17C031FD66
:103EB00003C088E790E002C088E590E0B7010CC03D
:103EC000832F867859F031FF02C08BE201C080E277
:103ED00037FD8DE2B70190E00E94C11FA51438F4B0
:103EE000B70180E390E00E94C11F5A94F7CFAA94D3
:103EF000F401EA0DF11D8081B70190E00E94C11F1D
:103F0000A110F5CF332009F451CEB70180E290E043
:103F10000E94C11F3A94F6CFF7018681978102C0B3
:103F20008FEF9FEF2C960FB6F894DEBF0FBECDBF7C
:103F3000DF91CF911F910F91FF90EF90DF90CF9085
:103F4000BF90AF909F908F907F906F905F904F90B9
:103F50003F902F900895FC01059061507040011032
:103F6000D8F7809590958E0F9F1F0895FC016150A2
:103F7000704001900110D8F7809590958E0F9F1F8B
:103F800008950F931F93CF93DF93FB01238121FDAE
:103F900003C08FEF9FEF28C022FF16C046815781D4
:103FA000248135814217530744F4A081B1819D01DA
:103FB0002F5F3F4F318320838C93268137812F5F82
:103FC0003F4F3783268310C0EB01092F182F008441
:103FD000F185E02D1995892BE1F68E819F8101965F
:103FE0009F838E83812F902FDF91CF911F910F910F
:103FF0000895FA01AA27283051F1203181F1E8947F
:104000006F936E7F6E5F7F4F8F4F9F4FAF4FB1E0CB
:104010003ED0B4E03CD0670F781F891F9A1FA11DC6
:10402000680F791F8A1F911DA11D6A0F711D811DC7
:10403000911DA11D20D009F468943F912AE0269F8C
:1040400011243019305D3193DEF6CF010895462FEB
:104050004770405D4193B3E00FD0C9F7F6CF462FCC
:104060004F70405D4A3318F0495D31FD4052419335
:1040700002D0A9F7EACFB4E0A695979587957795F2
:104080006795BA95C9F700976105710508959B0179
:10409000AC010A2E06945795479537952795BA9502
:1040A000C9F7620F731F841F951FA01D0895F89410
:0240B000FFCF40
:1040B2002C002E00060007002D0005000200030060
:1040C2000000370D80007374645F6D7367732F5443
:1040D200696D65006364373136366337346335356D
:1040E20032633331316662636332666535613762EA
:1040F2006332383900726F7373657269616C5F6D18
:104102007367732F546F706963496E666F00306115
:104112006435316638386663343438393266386328
:104122003130363834303737363436303035007245
:104132006F7373657269616C5F6D7367732F4C6F18
:104142006700313161626437333163323539333379
:104152003236316364363138336264313264363236
:104162003935003966306539386264613635393837
:1041720031393836646466353361666137613430AB
:10418200653439007374645F6D7367732F466C6FA7
:1041920061743332003733666362663436623439AF
:1041A2003139316536373239303865353038343265
:1041B2006138336434007374645F6D7367732F49BD
:1041C2006E74333200646135393039666265333773
:1041D2003861656166383565353437653833306343
:1041E2006331626237002564006D6F746F72320052
:1041F2004D6573736167652066726F6D20646576C5
:104202006963652064726F707065643A206D6573CE
:1042120073616765206C6172676572207468616E94
:10422200206275666665722E00416C6C5F73746FF6
:1042320070006D6F746F7233006D6F746F72300047
:104242006D6F746F7231006D6F746F72302F7265A3
:10425200736574006D6F746F72302F7A65726F00C0
:104262006D6F746F72312F7265736574006D6F7448
:104272006F72312F7A65726F006D6F746F72322FA9
:104282007265736574006D6F746F72322F7A657226
:104292006F006D6F746F72332F7265736574006D8A
:1042A2006F746F72332F7A65726F006D6F746F72F5
:1042B200302F6D6F746F72006D6F746F72312F6D6E
:1042C2006F746F72006D6F746F72322F6D6F746FD7
:1042D20072006D6F746F72332F6D6F746F72006145
:1042E2006C6C00726F7373657269616C5F6D73677A
:1042F200732F52657175657374506172616D000040
:1043020000000053027702BD02C0020000000077E5
:10431200057C06C302C602000000004B052406C944
:1043220002CC02000000007F046C07CF02D2020020
:10433200000000D502E902FF020203000000008033
:104342000EE80BE70300000000050319032F0332F8
:104352000300000000C803DD03E103E403000000E2
:1043620000A903BE03C203C50300000000B2185532
:0A4372001C5B1887186B18A71800D1
:00000001FF
