:100000000C945E000C94BF100C94EC100C948600C1
:100010000C9486000C9486000C9486000C94860048
:100020000C9486000C9486000C9486000C94860038
:100030000C9486000C9486000C9486000C94860028
:100040000C942F130C9486000C943A150C947D1587
:100050000C9486000C9486000C9486000C94860008
:100060000C9486000C94860000000007000201003A
:100070000003040600000000000000000102040864
:100080001020408001020408102001020408102002
:10009000040404040404040402020202020203032E
:1000A0000303030300000000250028002B000000CC
:1000B0000000240027002A00FD0D401611241FBE59
:1000C000CFEFD8E0DEBFCDBF13E0A0E0B1E0EAE1C2
:1000D000F5E302C005900D92AA3CB107D9F728E0DC
:1000E000AAECB3E001C01D92AD35B207E1F710E014
:1000F000CEE5D0E004C02197FE010E94A217CC35C6
:10010000D107C9F70E94A3160C948B1A0C94000017
:10011000CF93DF93EC01842F488359836A837B83D9
:1001200061E00E94341461E08A81DF91CF910C94E8
:1001300034140F931F93CF93DF938C01EB016F3F28
:10014000710509F03CF461307F4F74F01C161D06F8
:100150001CF00CC0CFEFD0E0BE01F80180810E94FE
:10016000401060E070E00CC0C1E0DFEF60E070E0E4
:10017000F80180810E944010662777276C1B7D0B59
:10018000F8018281DF91CF911F910F910C94401063
:10019000DC01FB0112968C911297808313968C914F
:1001A0001397818314968C911497828315968C9162
:1001B0001597838316968C911697848317968C9146
:1001C0001797858318968C911897868319968C912A
:1001D000878388E090E00895FC01DB014C9150E0BA
:1001E00060E070E0428353836483758311968C9141
:1001F0001197582B428353836483758312968C9195
:100200001297682B428353836483758313968C9172
:100210001397782B428353836483758314964C9190
:10022000149750E060E070E04683578360877187E1
:1002300015968C911597582B468357836087718745
:1002400016968C911697682B468357836087718723
:1002500017968C91782B468357836087718788E047
:1002600090E0089586E191E0089584E291E0089598
:1002700085E491E008958EE591E008958FE791E09F
:10028000089582E991E0089583E393E0089583EB74
:1002900091E00895FB01DC0112964C9112971396A0
:1002A0003C91139714962C91149715968C9140833A
:1002B00031832283838384E090E00895FB012181D0
:1002C000428150E060E070E0BA0155274427522B8C
:1002D0002081422B2381722BFC0142835383648350
:1002E000758384E090E0089584ED91E0089585EEB3
:1002F00091E00895DC01FB0112964C911297139640
:100300002C91139714969C91149715968C91408379
:1003100021839283838384E090E00895FB0121810F
:10032000428150E060E070E0BA0155274427522B2B
:100330002081422B2381722BFC01428353836483EF
:10034000758384E090E0089586E092E0089585E169
:1003500092E008951092B6041092B7041092B80477
:100360001092B90408958091B6049091B704A091B9
:10037000B804B091B9040196A11DB11D8093B604D3
:100380009093B704A093B804B093B9040895109261
:10039000920410929304109294041092950408957C
:1003A0008091920490919304A0919404B09195044B
:1003B0000196A11DB11D8093920490939304A09384
:1003C0009404B0939504089510926E0410926F04F3
:1003D0001092700410927104089580916E049091AF
:1003E0006F04A0917004B09171040196A11DB11D1C
:1003F00080936E0490936F04A0937004B093710483
:10040000089510924A0410924B0410924C041092DA
:100410004D04089580914A0490914B04A0914C049E
:10042000B0914D040196A11DB11D80934A04909393
:100430004B04A0934C04B0934D0408950F931F9365
:10044000CF93DF938C01EC012696CE010E945E01D2
:10045000D8011C96ED91FC911D97CE01DF91CF91B3
:100460001F910F910994FC0186859785089584ED6D
:1004700091E0089585EE91E008950F931F93CF9337
:10048000DF938C01EC012696CE010E948E01D801EB
:100490001C96ED91FC911D97CE01DF91CF911F919C
:1004A0000F910994FC0186859785089586E092E076
:1004B000089585E192E00895FC01EA54FD4F8081A2
:1004C0000895CF93DF93AB01EC01AE81BF81ED9135
:1004D000FC9111976C817D810190F081E02DCD011F
:1004E000DF91CF91099460EA74E086E994E00C947E
:1004F00061028091B6049091B704A091B804B091C4
:10050000B9048093A2049093A304A093A404B0938D
:10051000A50408956CE774E082E794E00C9461020E
:100520008091920490919304A0919404B0919504C9
:1005300080937E0490937F04A0938004B093810401
:10054000089568E574E08EE494E00C946102809173
:100550006E0490916F04A0917004B0917104809327
:100560005A0490935B04A0935C04B0935D040895D7
:1005700064E374E08AE294E00C94610280914A049E
:1005800090914B04A0914C04B0914D04809336049B
:1005900090933704A0933804B093390408950E94CF
:1005A00079020E9490020E94A7020C94BE02CF9290
:1005B000DF92EF92FF9220E030E06A017B01022E91
:1005C00004C0F694E794D794C7940A94D2F7FC0138
:1005D000C192CF01285F3F4F2032310571F7FF9064
:1005E000EF90DF90CF9008954F925F926F927F923D
:1005F000AF92BF92CF92DF92EF92FF920F931F9331
:10060000CF93DF93EC017B018A81FB0180838B8197
:1006100081838C8182838D818383DB01179640E007
:1006200050E0BA01E4E0F0E04A805B806C807D80BD
:100630008F010C5F1F4F4415550566057705C0F403
:100640008A859B85E80FF91F3497D080218192819C
:100650008381FD013397D082319620833196908338
:100660008C93F8014F5F5F4F6F4F7F4F1496DCCF35
:10067000EE0DFF1D8C8580838D8581838E85828321
:100680008F85838380E090E040E050E0BA014C84A5
:100690005D846E847F84F701E00FF11F0C5F1F4FB4
:1006A0004415550566057705B8F4AC89BD89A80FD2
:1006B000B91FCC901196DC90119712963C9112972D
:1006C00013962C91C082D182328323834F5F5F4F78
:1006D0006F4F7F4F0496DBCF8E8980838F89818314
:1006E000888D8283898D8383412C512C32018E89A0
:1006F0009F89A88DB98D481659066A067B0680F534
:100700005201AA0CBB1CEC8DFD8DEA0DFB1DA081D6
:10071000B181FD0101900020E9F731976F01CA1AFC
:10072000DB0AA60160E070E0C701800F911F0E9404
:10073000D7020C5F1F4F8C8D9D8DFC01EA0DFB1DB8
:1007400060817181A601C701800F911F0E94B717B8
:100750000C0D1D1DFFEF4F1A5F0A6F0A7F0AC7CFEE
:10076000C801DF91CF911F910F91FF90EF90DF9023
:10077000CF90BF90AF907F906F905F904F90089513
:10078000EF92FF920F931F93CF93DF938C017B0126
:10079000EC018A81FB018193AB81BC81ED01099061
:1007A0000020E9F72197CA1BDB0BAE0160E070E087
:1007B000CF010E94D702F80163817481AE01C701A5
:1007C00005960E94B717CE010596DF91CF911F9134
:1007D0000F91FF90EF900895CF92DF92EF92FF92EA
:1007E0000F931F93CF93DF936C01EB01FC01828188
:1007F000888383818983A481B581FD0101900020D4
:10080000E9F731978F010A1B1B0BA80160E070E02C
:10081000CE0102960E94D702F60164817581A8017B
:10082000CE0106960E94B717C8010696F601A6816A
:10083000B781FD0101900020E9F731977F01EA1AA5
:10084000FB0AA70160E070E08C0F9D1F0E94D70299
:10085000065F1F4FF60166817781A701CE01800FE9
:10086000911F0E94B7170E0D1F1DF601A085B185BF
:10087000FD0101900020E9F731977F01EA1AFB0A98
:10088000A70160E070E0CE01800F911F0E94D702A7
:100890000C5F1F4FF60160857185A701CE01800FA7
:1008A000911F0E94B717C8018E0D9F1DF60162852A
:1008B000438534852585C80FD91F688349833A83CA
:1008C0002B830496DF91CF911F910F91FF90EF90B2
:1008D000DF90CF900895CF92DF92EF92FF92FC01CC
:1008E0001082118212821382DB0120E030E04D91F0
:1008F00050E0022E02C0440F551F0A94E2F7052E65
:10090000000C660B770BC080D180E280F3804C290D
:100910005D296E297F294083518362837383285F19
:100920003F4F2032310519F7FF90EF90DF90CF90C5
:1009300008958F929F92AF92BF92CF92DF92EF92E3
:10094000FF920F931F93CF93DF9300D000D0CDB7CA
:10095000DEB77C018B01FB018191BF01F70182832E
:10096000CE0101960E946B0489819A81AB81BC8182
:100970004C015D01F5E08F0E911CA11CB11C6801BA
:1009800025E0C20ED11CA601401B510B60E070E0B7
:10099000481559056A057B0548F4F60141916F0138
:1009A0009F0122503109F9014083EDCFF801E80F92
:1009B000F91F14820C5F1F4FF70114830383059600
:1009C0000F900F900F900F90DF91CF911F910F918B
:1009D000FF90EF90DF90CF90BF90AF909F908F905F
:1009E00008954F925F926F927F928F929F92AF92F3
:1009F000BF92CF92DF92EF92FF920F931F93CF930C
:100A0000DF93CDB7DEB72C970FB6F894DEBF0FBEDD
:100A1000CDBF7C018B01DB018C9190E0F7019383CA
:100A2000828311962C91922B938382836E5F7F4FEA
:100A3000CE0109960E946B0489849A84AB84BC849D
:100A4000B501A4014A5F5F4F6F4F7F4FF8013696A3
:100A5000CF01801B910BA0E0B0E084179507A6079B
:100A6000B70728F48191DF0112978C93F1CFF80139
:100A7000E80DF91D1582C8010596D70115969C93BE
:100A80008E931497B4016A5F7F4F600F711FCE0180
:100A900005960E946B04BAE08B0E911C4D815E811D
:100AA0006F8178852401092C000C66087708440EB4
:100AB000551E661E771EF801E80DF91DCF01801B3B
:100AC000910BA0E0B0E084159505A605B70528F4C4
:100AD0008191DF0112978C93F1CF6401C40ED51E72
:100AE000B8016C0D7D1DFB0131971082C401019787
:100AF000800F911FF70197838683CE0101960E9494
:100B00006B04A6014C5F5F4F49805A806B807C80EC
:100B10004A01052E000CAA08BB08840C951CA61CD3
:100B2000B71CF801E40FF51F9F01201B310BC90111
:100B3000A0E0B0E088159905AA05BB0528F48191CD
:100B4000DF0112978C93F0CFCA01840D951DF80137
:100B5000E80FF91FDF0111971C929A01215031090A
:100B6000020F131FD70119961C930E93189721811A
:100B7000428150E060E070E0BA0155274427522BD3
:100B80002081422B2381722BF70142875387648790
:100B9000758704962C960FB6F894DEBF0FBECDBFB6
:100BA000DF91CF911F910F91FF90EF90DF90CF9049
:100BB000BF90AF909F908F907F906F905F904F907D
:100BC00008952F923F924F925F926F927F928F92F1
:100BD0009F92AF92BF92CF92DF92EF92FF920F93CC
:100BE0001F93CF93DF93CDB7DEB728970FB6F89456
:100BF000DEBF0FBECDBF8C015B01DB018C91119676
:100C00009C9111971296CC901297D12CE12CF12C3B
:100C10007601DD24CC24D92AC82A13968C91F82A8F
:100C2000F80182819381A481B5818C159D05AE0563
:100C3000BF0570F4B601660F771F660F771F8285B8
:100C400093850E941911D8011B969C938E931A9735
:100C5000F801C282D382E482F582D5011796C12CB5
:100C6000D12C7601F4E08F2E912C98012A5F3F4F12
:100C7000F8014281538164817581C4010496C416D0
:100C8000D506E606F70680F54C9150E060E070E08E
:100C9000742F662755274427FD013397E0814E2B9B
:100CA000FD013297E0815E2BFD013197E0816E2BD3
:100CB000F80146835783608771874C010897428506
:100CC0005385840F951FF9014081518162817381A1
:100CD000FC014083518362837383FFEFCF1ADF0AE5
:100CE000EF0AFF0A1496C4CFF401EA0DFB1D208120
:100CF0003181C280D12CE12CF12C7601DD24CC2471
:100D0000D32AC22A2381F22A4C01F80184859585D1
:100D1000A685B7858C159D05AE05BF0570F4B60197
:100D2000660F771F660F771F848995890E941911B6
:100D3000D80155969C938E935497F801C486D58616
:100D4000E686F78620E030E0C12CD12C7601D80170
:100D50005096F8014485558566857785F501E80D3F
:100D6000F91DC4010496C416D506E606F70648F533
:100D70009180428150E060E070E0BA01552744273D
:100D8000592990804929E3817E2BF801408B518BB2
:100D9000628B738B4C0184899589FC01E20FF31FF0
:100DA0004D915D916D917C91139740835183628346
:100DB0007383FFEFCF1ADF0AEF0AFF0A2C5F3F4F62
:100DC000C8CF20813181C280D12CE12CF12C760159
:100DD000DD24CC24D32AC22A2381F22A4C01F80133
:100DE00086899789A08DB18D8C159D05AE05BF05AF
:100DF00060F4B601660F771F848D958D0E941911DE
:100E0000D8015D969C938E935C97F801C68AD78A29
:100E1000E08EF18E412C512C32011801FAE12F0E97
:100E2000311CF80186899789A08DB18D4816590625
:100E30006A067B0608F05AC0B501680D791DCE011F
:100E400001960E946B0494012C5F3F4FC980DA80A9
:100E5000EB80FC80C901032E000CAA0BBB0BAC017C
:100E6000BD014C0D5D1D6E1D7F1D4D835E836F8327
:100E70007887F501E20FF31FAF014A195B09CA0138
:100E8000A0E0B0E04D815E816F8178858417950781
:100E9000A607B70728F44191DF0112974C93ECCFD6
:100EA000C9018C0D9D1DF501E80FF91F31971082C6
:100EB000215031092A0D3B1DD8015B963C932E939E
:100EC0005A974C01C201880F991F5C96ED91FC91D5
:100ED0005D97E80FF91FD1018D919C9191838083DB
:100EE000BFEF4B1A5B0A6B0A7B0A9BCFC4012896A3
:100EF0000FB6F894DEBF0FBECDBFDF91CF911F912B
:100F00000F91FF90EF90DF90CF90BF90AF909F90A8
:100F10008F907F906F905F904F903F902F900895AB
:100F2000FC01E85BFD4F20E030E041915191452B01
:100F300091F4F901EC5DFE4FEE0FFF1FE80FF91F72
:100F40007183608323583F4FFB013583248397834C
:100F5000868381E008952F5F3F4F2931310529F7BE
:100F600080E008951092B6041092B7041092B8046D
:100F70001092B90466E974E08AEB94E00E9490074D
:100F80001092A2041092A3041092A4041092A5043B
:100F900042E050E063EB71E082E00C949F1010920D
:100FA000920410929304109294041092950462E7B4
:100FB00074E08AEB94E00E94900710927E041092F5
:100FC0007F04109280041092810442E050E060EDB2
:100FD00071E082E00C949F1010926E0410926F04E6
:100FE00010927004109271046EE474E08AEB94E045
:100FF0000E94900710925A0410925B0410925C04B5
:1010000010925D0442E050E06DEE71E082E00C94DD
:101010009F1010924A0410924B0410924C041092AC
:101020004D046AE274E08AEB94E00E94900710920B
:10103000360410923704109238041092390442E0BA
:1010400050E06AE072E082E00C949F100E94B207C8
:101050000E94CF070E94EC070C940908DC01A658F7
:10106000BD4F20E030E04D915D91452B81F4F901B9
:10107000E35CFE4FEE0FFF1FE80FF91F71836083E3
:101080002C593F4FFB013383228381E008952F5F6A
:101090003F4F2931310539F780E0089566E174E06A
:1010A0008AEB94E00E942E0862E074E08AEB94E000
:1010B0000E942E086EEE73E08AEB94E00E942E08E8
:1010C0006AED73E08AEB94E00C942E08EAEBF4E00E
:1010D0004481558166817781828193810E94B81510
:1010E00010926707109266071092690710926807BE
:1010F00010926D0710926C0710926B0710926A079E
:101100000E944E080C9426080F931F93CF93DF93F1
:10111000CDB7DEB72A970FB6F894DEBF0FBECDBFAE
:101120008C0183E593E09A8389831B821C821D8254
:101130001E821F82188619861A86D801ED91FC91AD
:101140000190F081E02DAE014F5F5F4F6AE070E0EB
:10115000C80109950E947913F80160877187828719
:1011600093872A960FB6F894DEBF0FBECDBFDF91EE
:10117000CF911F910F9108954F925F926F927F923E
:10118000AF92BF92CF92DF92EF92FF920F931F9395
:10119000CF93DF93CDB7DEB72E970FB6F894DEBFAF
:1011A0000FBECDBF8C018FE593E09A8389831C82AB
:1011B0001B8288E792E09E838D8398878F839A872E
:1011C00089871B861C861D861E86680188EBC81AC7
:1011D0008DEFD80A7801A6E8EA1AADEFFA0A98E18D
:1011E000492E55245394612C712CD601ED91FC911C
:1011F0003097B9F1848195819C838B838081918123
:101200009E838D8382819381DC01ED91FC9104802A
:10121000F581E02D099598878F83D601ED91FC919A
:1012200082819381DC01ED91FC910680F781E02DB4
:1012300009959A8789874B865C866D867E86F8013C
:1012400080819181F601A081B18118966D917C9188
:101250001997DC01ED91FC91AE014F5F5F4FC80122
:101260000995B2E0CB0ED11CCE14DF0409F0BDCF3E
:101270006801E4E5CE1AEDEFDE0A88E1482E552438
:101280005394612C712CF701A081B1811097E1F189
:1012900012968D919C9113979C838B8314968D91BC
:1012A0009C9115979E838D83ED91FC9111970480FD
:1012B000F581E02DCD01099598878F83D7018D9118
:1012C0009C91DC01ED91FC910680F781E02D099560
:1012D0009A8789874B865C866D867E86D801ED91DC
:1012E000FC91A080B180F70180819181DC01ED91BA
:1012F000FC910280F381E02D0995AE014F5F5F4FB5
:10130000BC01C801F5010995F2E0EF0EF11CEC14E7
:10131000FD0409F0B8CFF801EA54FD4F81E0808365
:101320002E960FB6F894DEBF0FBECDBFDF91CF91E2
:101330001F910F91FF90EF90DF90CF90BF90AF90F3
:101340007F906F905F904F9008958F929F92AF9291
:10135000BF92CF92DF92EF92FF920F931F93CF93A2
:10136000DF93CDB7DEB72A970FB6F894DEBF0FBE76
:10137000CDBF8C015B0183E593E09A8389831B8257
:101380001C821D821E821F82188619861A860E9460
:101390007913F801C084D184E284F3849B01AC0109
:1013A0002C193D094E095F0969017A01B501CE0189
:1013B00001960E94EC0088EE882E83E0982EA12CE6
:1013C000B12CC701B601A50194010E946117CB8021
:1013D000DC80ED80FE80C20ED31EE41EF51ECB82A3
:1013E000DC82ED82FE829B01AC0160E472E48FE05E
:1013F00090E00E943D17CF80D884E984FA84DC0114
:10140000CB018C0D9D1DAE1DBF1D8F839887A987B5
:10141000BA870E947913CB80DC80ED80FE8031E0BA
:10142000C31AD108E108F108A50194010E946117CF
:10143000C21AD30AE40AF50AF801C486D586E686FC
:10144000F786CF80D884E984FA84F6E3DF1AF5E6DC
:10145000EF0AF4ECFF0A9B01AC0160E472E48FE058
:1014600090E00E943D17C61AD70AE80AF90AF80167
:10147000C08AD18AE28AF38AB801605F7F4FC801CF
:101480000C960E94B0160E947913F801E554FD4FA6
:1014900060837183828393832A960FB6F894DEBFAC
:1014A0000FBECDBFDF91CF911F910F91FF90EF90B5
:1014B000DF90CF90BF90AF909F908F9008952F9224
:1014C0003F924F925F926F927F928F929F92AF92D4
:1014D000BF92CF92DF92EF92FF920F931F93CF9321
:1014E000DF93CDB7DEB760970FB6F894DEBF0FBEBF
:1014F000CDBF988B8F870E9479134B015C012F859C
:10150000388925543D4F3E832D83F9018081918197
:10151000A281B381A5019401281B390B4A0B5B0BF7
:10152000DA01C901893F9A42A105B10528F0EF858A
:10153000F889EA54FD4F10820F85188904551D4F14
:10154000D8018D919C91892B81F0EF85F889E15428
:10155000FD4F80819181A281B38188159905AA05EB
:10156000BB0518F4F801118210826F847888FCE4BE
:101570006F1AFDEF7F0A2F85388920553D4F3A833A
:101580002983CF84D88838E1C30ED11C4F85588970
:101590004A545D4F58874F832F8538892C533D4FD0
:1015A0003A8729874F8558894D535D4F5C874B8714
:1015B000EF84F88852E5E51A5DEFF50A2F85388942
:1015C0002E543D4F3C832B834F85588941545D4FAA
:1015D0005E874D871401250154E1250E311C411C05
:1015E000511CEF85F88984899589A689B789892B4B
:1015F0008A2B8B2B89F4AF85B88912968D919C919B
:101600001397DC01ED91FC910680F781E02D09959F
:101610009C0197FF15C037C10E947913DC01CB01F3
:1016200088199909AA09BB09EF85F88924893589A0
:1016300046895789281739074A075B07E0F64BC1E7
:10164000D3018D919C911197820F931F8D939C9341
:10165000F8014081518147305105D9F4AB81BC81FB
:101660008D919C911197AC014F5F5F4F4D935C93AF
:10167000EF85F889E80FF91F208FF70180819181AC
:10168000019791838083892B09F0ABCF88E090E0AC
:101690002FC04115510521F52F3F310569F481E037
:1016A00090E0F80191838083AD85BE852D923D92B7
:1016B0004D925C92139795CF0E947913DC01CB0178
:1016C00088199909AA09BB0989389341A105B1056F
:1016D00008F487CFEF85F889EA54FD4F1082FBC0EC
:1016E00041305105B1F42E3F310531F482E090E0F4
:1016F000D8018D939C9375CFF80111821082AF8130
:10170000B8858C9181116DCF8F8598890E9484084E
:1017100068CF4230510569F4F70131832083AB81F2
:10172000BC811D921C9283E090E0F801918380833C
:101730002EC04330510561F4322F2227F7018081FA
:101740009181280F391F3183208384E090E0D0CF2E
:101750004430510581F460E071E00E944D178F3FE5
:10176000910531F485E090E0F8019183808339CFD1
:101770001182108236CF4530510569F4E981FA8132
:1017800031832083E6E0F0E0D801ED93FC93D301B0
:101790002D933C9326CF4630510599F4322F2227C2
:1017A000E981FA8180819181280F391F318320835B
:1017B000E7E0F0E0D801ED93FC93D7018D919C9187
:1017C00062CF4830510509F00CCFF8011182108228
:1017D00060E071E00E944D178F3F910509F001CF45
:1017E000A981BA818D919C910097C9F48F859889C0
:1017F0000E9484088F8598890E94BC08EF85F8892B
:10180000E954FD4F80829182A282B382ED81FE81F4
:1018100080829182A282B3828FEF9FEF61C08A3073
:10182000910531F4B6018F8598890E94A509D9CE1A
:101830008630910551F4B60189859A850E94E105AB
:1018400081E0AB85BC858C93CCCE8B30910521F4A7
:10185000EF81F8851082C5CEFC01E752FF4FEE0FF5
:10186000FF1F2F853889E20FF31F80819181009738
:1018700009F4B7CEDC01ED91FC910190F081E02DEF
:10188000B6010995AECEEF85F889EA54FD4F808107
:10189000882321F10F85188909541D4FF801808193
:1018A0009181A281B381A5019401281B390B4A0BB8
:1018B0005B0BDA01C901853C9940A105B10570F0C7
:1018C0008F8598890E948408D8018D929D92AD924F
:1018D000BC92139703C08EEF9FEF02C080E090E0B0
:1018E00060960FB6F894DEBF0FBECDBFDF91CF91EB
:1018F0001F910F91FF90EF90DF90CF90BF90AF902E
:101900009F908F907F906F905F904F903F902F901F
:1019100008950E94CF020E9473028AEB94E00E9415
:101920005F0A0E948A028AEB94E00E945F0A0E948A
:10193000A1028AEB94E00E945F0A0C94B8020E9414
:10194000890C8AEB94E00E945F0A61E070E080E01D
:1019500090E00C94AA13CF93DF9300D000D01F9295
:10196000CDB7DEB72BE633E03A8329836B835D8303
:101970004C83DC01ED91FC910190F081E02DAE01F2
:101980004F5F5F4F67E070E009950F900F900F90E9
:101990000F900F90DF91CF910895CF93DF93EC01DB
:1019A0006A817B818C819D810E94DE168EEF93E09F
:1019B0000E9499008D818F938C818F938B818F935F
:1019C0008A818F9386E392E09F938F930E94C01742
:1019D0000F900F900F900F900F900F9049E352E0EF
:1019E00061E08AEB94E0DF91CF910C94AB0CCF9245
:1019F000DF92EF92FF920F931F93CF93DF93EC014F
:101A00007B01643671053CF0FE01EA54FD4F808194
:101A1000882309F462C0DA01ED91FC910190F08114
:101A2000E02DBE01695C7E4FCA0109958E01005D03
:101A30001E4F2FEFF80120832EEF31962083319631
:101A40008083319690833196292F280F209520830B
:101A50003196E082DE01AA5CBE4FFC9245E050E088
:101A600020E030E0BC016A5F7F4F6417750734F0F7
:101A7000A1912A0F311D4F5F5F4FF7CF7C01F8E036
:101A8000EF0EF11C8C0F9D1FFC01E95CFE4F2095B1
:101A9000208349E1E41641E0F406B4F46801C6018C
:101AA000801B910B8E159F056CF48A819B81D6015A
:101AB0006D916D01DC01ED91FC910190F081E02DC3
:101AC0000995EDCFC7010BC040E452E063E0CE01C1
:101AD0000E94AB0C8FEF9FEF02C080E090E0DF919F
:101AE000CF911F910F91FF90EF90DF90CF900895CD
:101AF00049E752E061E08AEB94E00C94AB0CCF93A1
:101B0000DF93EC016A817B818C819D810E94DE16CE
:101B10008AEE93E00E9499008D818F938C818F9340
:101B20008B818F938A818F9386E392E09F938F932B
:101B30000E94C0170F900F900F900F900F900F9072
:101B400042E852E061E08AEB94E0DF91CF910C949F
:101B5000AB0CCF93DF93EC016A817B818C819D81FB
:101B60000E94DE1686E294E00E9499008D818F9398
:101B70008C818F938B818F938A818F9386E392E000
:101B80009F938F930E94C0170F900F900F900F900C
:101B90000F900F9049E852E061E08AEB94E0DF910A
:101BA000CF910C94AB0CCF93DF93EC016A817B81D6
:101BB0008C819D810E94DE1682E194E00E94990052
:101BC0008D818F938C818F938B818F938A818F935B
:101BD00086E392E09F938F930E94C0170F900F901F
:101BE0000F900F900F900F9040E952E061E08AEB68
:101BF00094E0DF91CF910C94AB0CEF92FF920F9396
:101C00001F93CF93DF938FE893E09093BB0480936F
:101C1000BA0489EA97E09093BD048093BC0480E005
:101C200091EEA0E0B0E08093BE049093BF04A09337
:101C3000C004B093C1041092700787E793E09093BB
:101C40007F0780937E071092800710928107109281
:101C500082071092830710928907109288071092CA
:101C60008A0710928B0710928C0710928D071092A2
:101C70009307109292071092940710929507109272
:101C800096071092970710929B0710929A07E2E02E
:101C9000F7E01192119287E0E433F807D1F7E4E31B
:101CA000F7E01192119287E0E636F807D1F7E2EDFE
:101CB000F4E0119285E0EA3EF807D9F7EAEEF5E0A4
:101CC000119287E0E230F807D9F71092CE04109213
:101CD000CF041092D0041092D10425EA33E030935F
:101CE000A7042093A60489E993E09093AD04809320
:101CF000AC041092AE041092AF041092B004109293
:101D0000B1044AEA51E05093B3044093B204C1E0F5
:101D1000D0E0D093B504C093B40447E952E05093A7
:101D2000AB044093AA049093A1048093A004109262
:101D3000A2041092A3041092A4041092A50444EAF1
:101D400052E0509397044093960440EA54E0509335
:101D500099044093980410929F0410929E0430932B
:101D600083042093820490938904809388041092C2
:101D70008A0410928B0410928C0410928D0447EC0C
:101D800051E050938F0440938E04D0939104C093FC
:101D9000900440EB52E05093870440938604909364
:101DA0007D0480937C0410927E0410927F04109234
:101DB0008004109281044DEB52E0509373044093E1
:101DC00072044CE754E050937504409374041092ED
:101DD0007B0410927A0430935F0420935E04909306
:101DE0006504809364041092660410926704109254
:101DF00068041092690444EE51E050936B044093E0
:101E00006A04D0936D04C0936C0449EC52E0509383
:101E10006304409362049093590480935804109291
:101E20005A0410925B0410925C0410925D0446ED1B
:101E300052E050934F0440934E0448E554E05093D1
:101E4000510440935004109257041092560430935A
:101E50003B0420933A0490934104809340041092F1
:101E6000420410924304109244041092450421E06D
:101E700032E03093470420934604D0934904C09342
:101E8000480422EE32E030933F0420933E049093C6
:101E90003504809334041092360410923704109263
:101EA0003804109239048FEE92E090932B048093C3
:101EB0002A0484E394E090932D0480932C041092E0
:101EC00033041092320440910C0150910D01609145
:101ED0000E0170910F0186E294E00E94880081EB70
:101EE000E82E83E0F82EF0921704E092160403E83F
:101EF00013E010931D0400931C0410921E04109212
:101F00001F04109220041092210489EA9DE090930E
:101F1000230480932204D0932504C09324048BEFE0
:101F200092E090931B0480931A0440910801509111
:101F3000090160910A0170910B0182E194E00E9415
:101F40008800F0920304E0920204109309040093C5
:101F5000080410920A0410920B0410920C041092C0
:101F60000D0483ED9DE090930F0480930E04D093B5
:101F70001104C093100488E093E0909307048093C9
:101F80000604409104015091050160910601709191
:101F900007018EEF93E00E948800F092EF03E09239
:101FA000EE031093F5030093F4031092F6031092DE
:101FB000F7031092F8031092F9038DEC9CE09093D4
:101FC000FB038093FA03D093FD03C093FC0385E1E8
:101FD00093E09093F3038093F203409100015091BA
:101FE000010160910201709103018AEE93E00E9469
:101FF0008800F092DB03E092DA031093E103009390
:10200000E0031092E2031092E3031092E4031092B3
:10201000E5038FE79DE09093E7038093E603D09379
:10202000E903C093E80382E293E09093DF03809397
:10203000DE03F092CB03E092CA031093D103009326
:10204000D0031092D2031092D3031092D4031092B3
:10205000D50388E79DE09093D7038093D603D09370
:10206000D903C093D8038FE293E09093CF0380937A
:10207000CE03DF91CF911F910F91FF90EF900895C4
:102080001F93CF93DF93182FEB0161E00E9434146C
:10209000209711F460E004C0CF3FD10539F461E02E
:1020A000812FDF91CF911F910C947014E12FF0E0FC
:1020B000E859FF4FE491E330F9F048F4E130B9F02A
:1020C000E230A1F584B5806284BDC8BD34C0E6307D
:1020D000E9F0E73019F1E43049F580918000806241
:1020E00080938000D0938B00C0938A0024C084B575
:1020F000806884BDC7BD1FC08091800080688093C8
:102100008000D0938900C093880015C08091B000F2
:1021100080688093B000C093B3000DC08091B00080
:1021200080628093B000C093B40005C0C038D10570
:102130000CF0B5CFAFCFDF91CF911F9108958230D2
:10214000E8F4E82FF0E0EE0FFF1FE456F84F71833C
:102150006083813041F0809169008C7F482B4093EF
:102160006900E89A089580916900440F551F440F53
:10217000551F837F482B40936900E99A08951F9269
:102180000F920FB60F9211242F933F934F935F93AB
:102190006F937F938F939F93AF93BF93EF93FF932F
:1021A00080919C0790919D07892B29F0E0919C07D5
:1021B000F0919D070995FF91EF91BF91AF919F918C
:1021C0008F917F916F915F914F913F912F910F90E0
:1021D0000FBE0F901F9018951F920F920FB60F927F
:1021E00011242F933F934F935F936F937F938F931C
:1021F0009F93AF93BF93EF93FF9380919E0790912E
:102200009F07892B29F0E0919E07F0919F07099580
:10221000FF91EF91BF91AF919F918F917F916F91BE
:102220005F914F913F912F910F900FBE0F901F9094
:1022300018956F927F928F929F92AF92BF92CF929A
:10224000DF92EF92FF920F931F93CF93DF93EC01F6
:10225000009789F4CB01DF91CF911F910F91FF90EF
:10226000EF90DF90CF90BF90AF909F908F907F9036
:102270006F900C940212FC01E60FF71F9C01225094
:102280003109E217F30708F4ACC0D9010D911C9194
:10229000119706171707B0F00530110508F49FC015
:1022A000C80104978617970708F499C002501109CE
:1022B000061B170B019311936D937C93CF010E9422
:1022C00097128DC05B01A01AB10A4C01800E911EBD
:1022D000A0915508B091560840E050E0E12CF12C57
:1022E000109709F44AC0A815B905D1F56D907C90F6
:1022F0001197630182E0C80ED11CCA14DB0480F17F
:10230000A3014A195B096A0182E0C80ED11C12962A
:10231000BC9012971396AC91B5E0CB16D10440F067
:10232000B282A38351834083D9016D937C930AC009
:102330000E5F1F4FC301800F911FF90191838083AE
:10234000EB2DFA2FE114F10431F0D7011396FC9331
:10235000EE93129744C0F0935608E09355083FC09F
:102360008D919C9111974817590708F4AC017D0194
:1023700012960D90BC91A02DB3CF809153089091EF
:10238000540888159905E1F446175707C8F4809159
:10239000100190911101009741F48DB79EB74091C3
:1023A000140150911501841B950BE817F907C8F427
:1023B000F0935408E0935308F901718360830FC0D0
:1023C000CB010E9402127C01009759F0A801BE01C6
:1023D0000E94B717CE010E949712C70104C0CE0118
:1023E00002C080E090E0DF91CF911F910F91FF90AC
:1023F000EF90DF90CF90BF90AF909F908F907F90A5
:102400006F900895CF93DF938230910510F482E0AE
:1024100090E0E0915508F091560820E030E0C0E0EF
:10242000D0E0309711F14081518148175907C0F031
:102430004817590761F482819381209719F09B8393
:102440008A832BC0909356088093550826C0211587
:10245000310519F04217530718F49A01BE01DF0144
:10246000EF010280F381E02DDCCF2115310509F168
:10247000281B390B2430310590F412968D919C91D4
:1024800013976115710521F0FB019383828304C0CA
:102490009093560880935508FD01329644C0FD0183
:1024A000E20FF31F81939193225031092D933C93B6
:1024B0003AC02091530830915408232B41F42091C5
:1024C0001201309113013093540820935308209146
:1024D0001001309111012115310541F42DB73EB79E
:1024E0004091140150911501241B350BE0915308C4
:1024F000F0915408E217F307A0F42E1B3F0B2817A6
:10250000390778F0AC014E5F5F4F2417350748F06C
:102510004E0F5F1F5093540840935308819391933B
:1025200002C0E0E0F0E0CF01DF91CF9108950F937A
:102530001F93CF93DF93009709F48CC0FC0132976F
:102540001382128200915508109156080115110549
:1025500081F420813181820F931F209153083091A3
:1025600054082817390779F5F0935408E093530875
:1025700071C0D80140E050E0AE17BF0750F412968A
:102580002D913C911397AD012115310509F1D90128
:10259000F3CF9D01DA013383228360817181860F3D
:1025A000971F8217930769F4EC0128813981260F60
:1025B000371F2E5F3F4F318320838A819B81938316
:1025C0008283452B29F4F0935608E093550842C0C6
:1025D0001396FC93EE931297ED01499159919E0148
:1025E000240F351FE217F30771F480819181840F66
:1025F000951F029611969C938E93828193811396D8
:102600009C938E931297E0E0F0E0D80112968D91A2
:102610009C911397009719F0F8018C01F6CF8D91DA
:102620009C9198012E5F3F4F820F931F209153087A
:10263000309154082817390769F4309729F410921B
:1026400056081092550802C0138212821093540843
:1026500000935308DF91CF911F910F9108951F921E
:102660000F920FB60F9211242F933F938F939F9346
:10267000AF93BF938091A1079091A207A091A30768
:10268000B091A4073091A00723E0230F2D3720F449
:102690000196A11DB11D05C026E8230F0296A11DBC
:1026A000B11D2093A0078093A1079093A207A09348
:1026B000A307B093A4078091A5079091A607A091C6
:1026C000A707B091A8070196A11DB11D8093A5078A
:1026D0009093A607A093A707B093A807BF91AF91C7
:1026E0009F918F913F912F910F900FBE0F901F9050
:1026F00018952FB7F8946091A1077091A207809167
:10270000A3079091A4072FBF08953FB7F894809135
:10271000A5079091A607A091A707B091A80726B595
:10272000A89B05C02F3F19F00196A11DB11D3FBF09
:10273000BA2FA92F982F8827820F911DA11DB11D97
:10274000BC01CD0142E0660F771F881F991F4A9593
:10275000D1F70895CF92DF92EF92FF92CF93DF935C
:102760006B017C010E948513EB01C114D104E104CB
:10277000F10479F00E9485136C1B7D0B683E734059
:10278000A0F381E0C81AD108E108F108C851DC4F74
:10279000ECCFDF91CF91FF90EF90DF90CF90089535
:1027A000789484B5826084BD84B5816084BD85B52C
:1027B000826085BD85B5816085BDEEE6F0E08081F3
:1027C00081608083E1E8F0E0108280818260808314
:1027D000808181608083E0E8F0E080818160808397
:1027E000E1EBF0E0808184608083E0EBF0E08081C9
:1027F00081608083EAE7F0E080818460808380816B
:102800008260808380818160808380818068808312
:102810001092C1000895833081F028F4813099F03E
:102820008230A1F008958630A9F08730B9F0843065
:10283000D1F4809180008F7D03C0809180008F77DC
:1028400080938000089584B58F7702C084B58F7D12
:1028500084BD08958091B0008F7703C08091B0004F
:102860008F7D8093B0000895CF93DF9390E0FC01BB
:10287000E458FF4F2491FC01E057FF4F84918823D7
:1028800061F190E0880F991FFC01E255FF4FC5915F
:10289000D491FC01EC55FF4FA591B491611109C091
:1028A0009FB7F8948881209582238883EC912E230A
:1028B0000BC0623061F49FB7F8943881822F809505
:1028C00083238883EC912E2B2C939FBF06C08FB758
:1028D000F894E8812E2B28838FBFDF91CF91089544
:1028E0001F93CF93DF93282F30E0F901E859FF4F72
:1028F0008491F901E458FF4FD491F901E057FF4F5B
:10290000C491CC23C9F0162F81110E940B14EC2F17
:10291000F0E0EE0FFF1FEC55FF4FA591B4918FB77C
:10292000F894111105C09C91ED2FE095E92302C0A8
:10293000EC91ED2BEC938FBFDF91CF911F91089518
:10294000FC0124853585F901E05CFF4F8081918190
:10295000329620813181821B930B8F7399270895C2
:10296000DC011C96ED91FC911D97DF01A05CBF4F2F
:102970002D913C91119712968D919C91119728174A
:10298000390739F08D919C91E80FF91F808190E013
:1029900008958FEF9FEF0895FC01A485B585FD0193
:1029A000E05CFF4F20813181329680819181281730
:1029B000390779F080819181A80FB91F8C9120810E
:1029C00031812F5F3F4F2F7333273183208390E076
:1029D00008958FEF9FEF0895FC0181A1882329F0CE
:1029E000A489B5898C9186FFFBCF11A208950F931E
:1029F0001F93CF93DF93FC01A685B7858D01005C03
:102A00001F4FE8018881998101968F739927AD0145
:102A10004E5B5F4FEA012881398182179307D1F31A
:102A2000E80128813981A20FB31F6C93A685B78571
:102A3000A05CBF4F11969C938E93A689B7892C9169
:102A400081E090E0078C02C0880F991F0A94E2F79A
:102A5000822B8C9381E081A30488F589E02D80810D
:102A60008064808381E090E0DF91CF911F910F918E
:102A7000089508951F920F920FB60F9211242F936D
:102A80004F935F938F939F93EF93FF938091C00039
:102A900082FD1CC02091C60080914F089091500883
:102AA00001968F73992740915108509152088417CD
:102AB000950771F0E0914F08F0915008E15FF74FF2
:102AC00020839093500880934F0802C08091C600E5
:102AD000FF91EF919F918F915F914F912F910F9067
:102AE0000FBE0F901F90189589EA97E00E94A014DE
:102AF000892B11F00C94391508951F920F920FB67F
:102B00000F9211242F933F938F939F93EF93FF93F3
:102B100020910B0830910C0880910D0890910E08BF
:102B20002817390731F48091C1008F7D8093C1004F
:102B300014C0E0910D08F0910E08E553F84F208184
:102B400080910D0890910E0801968F7399279093AC
:102B50000E0880930D082093C600FF91EF919F917E
:102B60008F913F912F910F900FBE0F901F9018954E
:102B7000CF92DF92EF92FF920F931F93CF93DF9349
:102B8000EC016A017B014115514E6105710509F1A6
:102B9000EC89FD8981E090E008A002C0880F991FB0
:102BA0000A94E2F7808360E079E08DE390E0A7018A
:102BB00096010E94611789019A01015011092109AA
:102BC00031093695279517950795980101151041FC
:102BD000A8F0EC89FD89108260E874E88EE190E04D
:102BE000A70196010E946117DA01C9010197A109A5
:102BF000B109B695A795979587959C01E889F989BC
:102C00003083EA89FB89208319A2EE89FF894081FC
:102C100081E090E09C010C8C02C0220F331F0A94CB
:102C2000E2F7242B2083EE89FF8940819C010D8CE3
:102C300002C0220F331F0A94E2F7242B2083EE896F
:102C4000FF8940819C010E8C02C0220F331F0A9421
:102C5000E2F7242B2083EE89FF8920810F8C02C0AC
:102C6000880F991F0A94E2F7809582238083DF9171
:102C7000CF911F910F91FF90EF90DF90CF9008952B
:102C8000E9EAF7E01382128288EE93E0A0E0B0E078
:102C900084839583A683B7838DEB93E091838083B0
:102CA0008FE098E0958784878BEC97E097878687FD
:102CB00085EC90E0918B808B84EC90E0938B828B01
:102CC00080EC90E0958B848B81EC90E0978B868BE9
:102CD00082EC90E0918F808F86EC90E0938F828FD2
:102CE00084E0848F83E0858F87E0868F85E0878FFF
:102CF00081E080A30895CF92DF92EF92FF920F932D
:102D00001F93CF93DF936C01EB017B01E40EF51E63
:102D100000E010E0CE15DF0561F06991D601ED917C
:102D2000FC910190F081E02DC6010995080F191F53
:102D3000F1CFC801DF91CF911F910F91FF90EF90DC
:102D4000DF90CF9008950E94D0130E946608C4E7D8
:102D5000D5E10E949F0C2097E1F30E947415F9CFF2
:102D6000CF92DF92EF92FF920F931F93CF93DF9357
:102D70008C01EB01688179818A819B8120E03AECAA
:102D80004AE95BE30E946117F801C080D180E280CC
:102D9000F380C20ED31EE41EF51EC082D182E282F1
:102DA000F382688379838A839B83DF91CF911F911C
:102DB0000F91FF90EF90DF90CF9008950E94E5165D
:102DC0006894B1110C94371708950E941C1788F06D
:102DD0009F5798F0B92F9927B751B0F0E1F0660FDF
:102DE000771F881F991F1AF0BA95C9F714C0B13020
:102DF00091F00E943617B1E008950C943617672FB2
:102E0000782F8827B85F39F0B93FCCF3869577954E
:102E10006795B395D9F73EF4909580957095619537
:102E20007F4F8F4F9F4F089557FD9058440F551F68
:102E300059F05F3F71F04795880F97FB991F61F03C
:102E40009F3F79F087950895121613061406551FB3
:102E5000F2CF4695F1DF08C0161617061806991F1F
:102E6000F1CF86957105610508940895E894BB2714
:102E700066277727CB0197F90895DB018F939F93FE
:102E80000E948317BF91AF91A29F800D911DA39FB8
:102E9000900DB29F900D1124089597FB072E16F404
:102EA000009407D077FD09D00E948E1707FC05D04B
:102EB0003EF4909581959F4F0895709561957F4F51
:102EC0000895A1E21A2EAA1BBB1BFD010DC0AA1F6B
:102ED000BB1FEE1FFF1FA217B307E407F50720F083
:102EE000A21BB30BE40BF50B661F771F881F991FFE
:102EF0001A9469F760957095809590959B01AC0147
:102F0000BD01CF0108950E94A817A59F900DB49F01
:102F1000900DA49F800D911D11240895AA1BBB1B29
:102F200051E107C0AA1FBB1FA617B70710F0A61BC9
:102F3000B70B881F991F5A95A9F780959095BC01EA
:102F4000CD010895EE0FFF1F0590F491E02D099437
:102F5000A29FB001B39FC001A39F700D811D1124DA
:102F6000911DB29F700D811D1124911D0895FB01CB
:102F7000DC0102C001900D9241505040D8F70895F5
:102F8000A0E0B0E0E6ECF7E10C94641AAE014B5F10
:102F90005F4FFA0161917191AF0180915908909151
:102FA0005A080E94D617E2E00C94801AACE0B0E018
:102FB000ECEDF7E10C94541A7C016B018A01FC01E1
:102FC00017821682838181FFBDC1CE0101964C011B
:102FD000F7019381F60193FD859193FF81916F0134
:102FE000882309F4ABC1853239F493FD859193FFB1
:102FF00081916F01853229F4B70190E00E94BE19DA
:10300000E7CF512C312C20E02032A0F48B3269F034
:1030100030F4803259F0833269F420612CC08D3253
:1030200039F0803339F4216026C02260246023C047
:10303000286021C027FD27C030ED380F3A3078F4E2
:1030400026FF06C0FAE05F9E300D1124532E13C0F8
:103050008AE0389E300D1124332E20620CC08E324F
:1030600021F426FD6BC1206406C08C3611F4206863
:1030700002C0883641F4F60193FD859193FF81915A
:103080006F018111C1CF982F9F7D9554933028F403
:103090000C5F1F4FFFE3F9830DC0833631F0833798
:1030A00071F0833509F05BC022C0F801808189830B
:1030B0000E5F1F4F44244394512C540115C0380116
:1030C000F2E06F0E711CF801A080B18026FF03C0F2
:1030D000652D70E002C06FEF7FEFC5012C870E9465
:1030E000B3192C0183012C852F77222E17C03801AC
:1030F000F2E06F0E711CF801A080B18026FF03C0C2
:10310000652D70E002C06FEF7FEFC5012C870E9434
:10311000A8192C012C852068222E830123FC1BC0BA
:10312000832D90E048165906B0F4B70180E290E094
:103130000E94BE193A94F4CFF50127FC859127FE31
:1031400081915F01B70190E00E94BE1931103A945D
:10315000F1E04F1A51084114510471F7E5C084366B
:1031600011F0893639F5F80127FF07C060817181B8
:10317000828193810C5F1F4F08C060817181072E8F
:10318000000C880B990B0E5F1F4F2F76722E97FF46
:1031900009C090958095709561957F4F8F4F9F4F97
:1031A0002068722E2AE030E0A4010E94F619A82EB1
:1031B000A81844C0853729F42F7EB22E2AE030E0CB
:1031C00025C0F22FF97FBF2E8F36C1F018F4883555
:1031D00079F0B4C0803719F0883721F0AFC02F2FB5
:1031E0002061B22EB4FE0DC08B2D8460B82E09C0B4
:1031F00024FF0AC09F2F9660B92E06C028E030E059
:1032000005C020E130E002C020E132E0F801B7FE65
:1032100007C060817181828193810C5F1F4F06C05E
:103220006081718180E090E00E5F1F4FA4010E94D9
:10323000F619A82EA818FB2DFF777F2E76FE0BC05F
:10324000372D3E7FA51450F474FE0AC072FC08C0EE
:10325000372D3E7E05C0BA2C372D03C0BA2C01C0D5
:10326000B52C34FF0DC0FE01EA0DF11D80818033C5
:1032700011F4397E09C032FF06C0B394B39404C080
:10328000832F867809F0B39433FD13C030FF06C056
:103290005A2CB31418F4530C5B18B32CB31468F401
:1032A000B70180E290E03C870E94BE19B3943C8550
:1032B000F5CFB31410F43B1801C0312C34FF12C009
:1032C000B70180E390E03C870E94BE193C8532FF45
:1032D00017C031FD03C088E790E002C088E590E0A8
:1032E000B7010CC0832F867859F031FF02C08BE202
:1032F00001C080E237FD8DE2B70190E00E94BE1967
:10330000A51438F4B70180E390E00E94BE195A94E6
:10331000F7CFAA94F401EA0DF11D8081B70190E086
:103320000E94BE19A110F5CF332009F451CEB70188
:1033300080E290E00E94BE193A94F6CFF7018681B0
:10334000978102C08FEF9FEF2C96E2E10C94701AE8
:10335000FC010590615070400110D8F78095909560
:103360008E0F9F1F0895FC01615070400190011065
:10337000D8F7809590958E0F9F1F08950F931F93F8
:10338000CF93DF93FB01238121FD03C08FEF9FEFDC
:1033900028C022FF16C046815781248135814217FB
:1033A000530744F4A081B1819D012F5F3F4F3183CA
:1033B00020838C93268137812F5F3F4F378326836D
:1033C00010C0EB01092F182F0084F185E02D09951D
:1033D000892BE1F68E819F8101969F838E83812FB9
:1033E000902FDF91CF911F910F910895FA01AA2795
:1033F000283051F1203181F1E8946F936E7F6E5F38
:103400007F4F8F4F9F4FAF4FB1E03ED0B4E03CD0E5
:10341000670F781F891F9A1FA11D680F791F8A1FC8
:10342000911DA11D6A0F711D811D911DA11D20D02F
:1034300009F468943F912AE0269F11243019305DE9
:103440003193DEF6CF010895462F4770405D4193DA
:10345000B3E00FD0C9F7F6CF462F4F70405D4A3327
:1034600018F0495D31FD4052419302D0A9F7EACFEF
:10347000B4E0A6959795879577956795BA95C9F71E
:1034800000976105710508959B01AC010A2E069411
:103490005795479537952795BA95C9F7620F731FCA
:1034A000841F951FA01D08952F923F924F925F9207
:1034B0006F927F928F929F92AF92BF92CF92DF9244
:1034C000EF92FF920F931F93CF93DF93CDB7DEB7A9
:1034D000CA1BDB0B0FB6F894DEBF0FBECDBF09943D
:1034E0002A88398848885F846E847D848C849B8494
:1034F000AA84B984C884DF80EE80FD800C811B81A2
:10350000AA81B981CE0FD11D0FB6F894DEBF0FBED0
:0A351000CDBFED010895F894FFCF40
:10351A002C002E00060007002D0005000200030003
:10352A0000005D0880007374645F6D7367732F54C5
:10353A00696D650063643731363663373463353510
:10354A00326333313166626363326665356137628D
:10355A006332383900726F7373657269616C5F6DBB
:10356A007367732F546F706963496E666F003061B9
:10357A0064353166383866633434383932663863CC
:10358A0031303638343037373634363030350072E9
:10359A006F7373657269616C5F6D7367732F4C6FBC
:1035AA00670031316162643733316332353933331D
:1035BA0032363163643631383362643132643632DA
:1035CA0039350039663065393862646136353938DB
:1035DA00313938366464663533616661376134304F
:1035EA00653439007374645F6D7367732F466C6F4B
:1035FA006174333200373366636266343662343953
:10360A003139316536373239303865353038343208
:10361A006138336434007374645F6D7367732F4960
:10362A006E74333200646135393039666265333716
:10363A0038616561663835653534376538333063E6
:10364A006331626237002564006D6F746F723200F5
:10365A004D6573736167652066726F6D2064657668
:10366A006963652064726F707065643A206D657372
:10367A0073616765206C6172676572207468616E38
:10368A00206275666665722E00416C6C5F73746F9A
:10369A0070006D6F746F7233006D6F746F723000EB
:1036AA006D6F746F7231006D6F746F72302F726547
:1036BA00736574006D6F746F72302F7A65726F0064
:1036CA006D6F746F72312F7265736574006D6F74EC
:1036DA006F72312F7A65726F006D6F746F72322F4D
:1036EA007265736574006D6F746F72322F7A6572CA
:1036FA006F006D6F746F72332F7265736574006D2E
:10370A006F746F72332F7A65726F006D6F746F7298
:10371A00302F6D6F746F72006D6F746F72312F6D11
:10372A006F746F72006D6F746F72322F6D6F746F7A
:10373A0072006D6F746F72332F6D6F746F720061E8
:10374A006C6C00726F7373657269616C5F6D73671D
:10375A00732F52657175657374506172616D0000E3
:10376A00000000C800EC003201350100000000EC46
:10377A0003F10438013B0100000000C00399043E34
:10378A0001410100000000F402E105440147010083
:10379A000000004A015E017401770100000000F791
:1037AA000C5F0A5C02000000007A018E01A401A7E6
:1037BA0001000000003D02520256025902000000B8
:1037CA00001E02330237023A0200000000F7147B9F
:0A37DA0016A014CC14B014EC140077
:00000001FF
