:100000000C9492010C9411100C9442100C947310E7
:100010000C94A4100C94D5100C9406110C94371168
:100020000C9468110C94C3010C94C3010C94C3018B
:100030000C94C3010C94C3010C94C3010C94C30130
:100040000C94C3010C94C3010C94C3010C94C30120
:100050000C94C3010C94C3010C94C3010C94AF1312
:100060000C94C3010C941D160C940D170C94C30131
:100070000C94C3010C94C3010C94C3010C94C301F0
:100080000C94C3010C94C3010C94C3010C94C301E0
:100090000C9451160C944C170C94C3010C94C3018E
:1000A0000C94C3010C94C3010C94C3010C94C301C0
:1000B0000C94C3010C94C3010C94C3010C94C301B0
:1000C0000C94C3010C94C3010C94C3010C948516C9
:1000D0000C948B170C94C3010C94B9160C94CA178A
:1000E0000C94C301EB0FB50FBD0FC90FD60FF70F5F
:1000F0000410C914CC14BF14C3140315D014D414A1
:10010000DA14DE14E214E814EC14F0140315F614F7
:10011000FA14FE140C94B5150C94740C0C94BF14C2
:100120000C94C0150C94F0140C942F020C94D01461
:100130000C94D4020C9444020C94C6060C94EC1457
:100140000C94EC160C942C030C9495150C94C5018E
:100150000C94F6140C94D4140C9484030C9438026C
:100160000C94F70F0C943B020C940E080C94CC14D6
:100170000C94E9010C9479150C9404100C94DA1485
:100180000C9435020C9471020C9491180C943E025C
:100190000C9463190C941E070C94C00E0C94BD0FA4
:1001A0000C9469150C94B50F0C9477020C942105EE
:1001B0000C94C90F0C9432020C94C3140C94410299
:1001C0000C94D60F0C94DC030C94ED050C94DE1407
:1001D0000C94C9140C9474020C94FA140C94031526
:1001E0000C9447020C945B020C947C020C94E21475
:1001F0000C94FE140C94E8140C9419060C94EB0F58
:100200000000090A02080B0C0D0706030401000098
:1002100000000000000000000000000000000000DE
:1002200000000000000000000000000011100F009E
:1002300000000000000000000000000000000000BE
:1002400000000000000001021020200808102040DB
:10025000102040800201020108040201010204088A
:100260001020408080402010080402018004020118
:100270008040201008040201080402010102040861
:10028000102040800102040810204080050505056B
:10029000070508080808020202020A0A08080404FE
:1002A000040401010101010101010303030303032C
:1002B0000303040707070C0C0C0C0C0C0C0C0202BB
:1002C000020206060606060606060B0B0B0B0B0BB8
:1002D0000B0B000020002300260029002C002F001B
:1002E00032000001000003010601090100002200A4
:1002F000250028002B002E003100340002010000F0
:10030000050108010B0100002100240027002A003C
:100310002D003000330001010000040107010A0133
:10032000C00E911811241FBECFEFD1E2DEBFCDBFAA
:1003300000E00CBF13E0A0E0B2E0EAE9F4E300E083
:100340000BBF02C007900D92A43CB107D9F72BE078
:10035000A4ECB3E001C01D92A339B207E1F711E0AC
:10036000C2E9D1E000E006C021970109802FFE011B
:100370000E940C1AC039D10780E00807A9F70E9433
:100380008B190C944B1A0C940000DC01FB011296A3
:100390008C911297808313968C9113978183149676
:1003A0008C911497828315968C911597838316965A
:1003B0008C911697848317968C911797858318963E
:1003C0008C911897868319968C91878388E090E0AA
:1003D0000895FC01DB014C9150E060E070E0428345
:1003E00053836483758311968C911197582B4283A4
:1003F00053836483758312968C911297682B428382
:1004000053836483758313968C911397782B42835F
:1004100053836483758314964C91149750E060E085
:1004200070E0468357836087718715968C91159786
:10043000582B468357836087718716968C91169741
:10044000682B468357836087718717968C91782B2A
:10045000468357836087718788E090E0089586E13E
:1004600092E0089584E292E0089585E492E0089590
:100470008EE592E008958FE792E0089582E992E098
:10048000089581E593E0089583EB92E00895DC01FF
:10049000FB0112964C91129713962C911397149678
:1004A0009C91149715968C9140832183928383832A
:1004B00084E090E00895FB012181428150E060E0FA
:1004C00070E0BA0155274427522B2081422B23810B
:1004D000722BFC01428353836483758384E090E034
:1004E000089584ED92E0089583EE92E00895FC0172
:1004F000EA57FB4F80810895CF93DF9389E10E94F3
:100500004015EC0185E10E944015892B49F080914E
:100510000A0490910B04892B61F02097B1F009C077
:1005200080910A0490910B04892B79F0209739F17E
:100530000CC08091060490910704A0910804B0912A
:1005400009040197A109B1090BC08091060490919B
:100550000704A0910804B09109040196A11DB11DE2
:100560008093060490930704A0930804B0930904B1
:10057000D0930B04C0930A04DF91CF91089540916A
:1005800006045091070460910804709109044150D9
:10059000510961097109409306045093070460935F
:1005A000080470930904E4CFCF93DF9388E10E949D
:1005B0004015EC0184E10E944015892B49F080919F
:1005C000F4039091F503892B61F02097B1F009C0F5
:1005D0008091F4039091F503892B79F0209739F1FC
:1005E0000CC08091F0039091F103A091F203B091BF
:1005F000F3030197A109B1090BC08091F003909119
:10060000F103A091F203B091F3030196A11DB11D76
:100610008093F0039093F103A093F203B093F3035C
:10062000D093F503C093F403DF91CF9108954091E7
:10063000F0035091F1036091F2037091F303415084
:100640005109610971094093F0035093F1036093DC
:10065000F2037093F303E4CFCF93DF9387E10E941B
:100660004015EC0183E10E944015892B49F08091EF
:10067000DE039091DF03892B61F02097B1F009C070
:100680008091DE039091DF03892B79F0209739F177
:100690000CC08091DA039091DB03A091DC03B09150
:1006A000DD030197A109B1090BC08091DA03909194
:1006B000DB03A091DC03B091DD030196A11DB11D08
:1006C0008093DA039093DB03A093DC03B093DD0304
:1006D000D093DF03C093DE03DF91CF910895409163
:1006E000DA035091DB036091DC037091DD0341502C
:1006F0005109610971094093DA035093DB03609358
:10070000DC037093DD03E4CFCF93DF9386E10E9497
:100710004015EC0182E10E944015892B49F080913F
:10072000C8039091C903892B61F02097B1F009C0EB
:100730008091C8039091C903892B79F0209739F1F2
:100740000CC08091C4039091C503A091C603B091E1
:10075000C7030197A109B1090BC08091C40390910F
:10076000C503A091C603B091C7030196A11DB11D99
:100770008093C4039093C503A093C603B093C703AB
:10078000D093C903C093C803DF91CF9108954091DE
:10079000C4035091C5036091C6037091C7034150D3
:1007A0005109610971094093C4035093C5036093D3
:1007B000C6037093C703E4CFAF92BF92CF92DF928C
:1007C000EF92FF920F931F93CF93DF9300D01F926E
:1007D0001F92CDB7DEB78C016B01643671053CF01A
:1007E000FC01EA57FB4F8081882309F478C0DA01C5
:1007F000ED91FC910190F081E02DB801615E7D4F9B
:10080000CA0119957801B8EEEB1ABDEFFB0A2FEF7C
:10081000F70120832EEF3196208331968083319625
:1008200090833196292F280F209520833196C082FE
:10083000D801A25EBD4FDC9245E050E020E030E000
:10084000BC016A5F7F4F6417750734F0A1912A0FCE
:10085000311D4F5F5F4FF7CF6C01F8E0CF0ED11C19
:10086000800F911FFC01E15EFD4F2095208321E068
:10087000C21622E0D206CCF45701C5018E199F0999
:100880008C159D0584F4D80112968D919C91139737
:10089000F50161915F01DC01ED91FC910190F08126
:1008A000E02D1995EACFC6011CC089E893E09A8330
:1008B000898383E08B8384E093E09D838C83D801DC
:1008C000ED91FC910190F081E02DAE014F5F5F4F03
:1008D00067E070E0C80119958FEF9FEF02C080E0DC
:1008E00090E00F900F900F900F900F90DF91CF91AD
:1008F0001F910F91FF90EF90DF90CF90BF90AF903E
:100900000895CF93DF93AB01EC01AE81BF81ED91F0
:10091000FC9111976C817D810190F081E02DCD01DA
:10092000DF91CF911994CF93DF93EC0160E0888140
:100930000E94041560E08A81DF91CF910C94041528
:1009400066E174E08CE094E00C94810480910604EC
:1009500090910704A0910804B091090480931804B1
:1009600090931904A0931A04B0931B04089560E0B7
:1009700074E086EF93E00C9481048091F0039091F1
:10098000F103A091F203B091F303809302049093DA
:100990000304A0930404B093050408956AEE73E081
:1009A00080EE93E00C9481048091DA039091DB0354
:1009B000A091DC03B091DD038093EC039093ED03F1
:1009C000A093EE03B093EF03089564ED73E08AEC17
:1009D00093E00C9481048091C4039091C503A0918D
:1009E000C603B091C7038093D6039093D703A09317
:1009F000D803B093D90308950E94A6040E94BD04B1
:100A00000E94D4040C94EB04CF92DF92EF92FF92F9
:100A100020E030E06A017B01022E04C0F694E794E6
:100A2000D794C7940A94D2F7FC01C192CF01285FF2
:100A30003F4F2032310571F7FF90EF90DF90CF905C
:100A400008954F925F926F927F92AF92BF92CF9232
:100A5000DF92EF92FF920F931F93CF93DF93EC01FE
:100A60007B018A81FB0180838B8181838C818283DE
:100A70008D818383DB01179640E050E0BA01E4E00A
:100A8000F0E04A805B806C807D808F010C5F1F4F9F
:100A90004415550566057705C0F48A859B85E80FE2
:100AA000F91F3497D080218192818381FD01339792
:100AB000D08231962083319690838C93F8014F5FDA
:100AC0005F4F6F4F7F4F1496DCCFEE0DFF1D8C856F
:100AD00080838D8581838E8582838F85838380E06B
:100AE00090E040E050E0BA014C845D846E847F84E5
:100AF000F701E00FF11F0C5F1F4F44155505660508
:100B00007705B8F4AC89BD89A80FB91FCC901196B0
:100B1000DC90119712963C91129713962C91C082FB
:100B2000D182328323834F5F5F4F6F4F7F4F049695
:100B3000DBCF8E8980838F898183888D8283898DA5
:100B40008383412C512C32018E899F89A88DB98DC8
:100B5000481659066A067B0680F55201AA0CBB1C92
:100B6000EC8DFD8DEA0DFB1DA081B181FD01019091
:100B70000020E9F731976F01CA1ADB0AA60160E08D
:100B800070E0C701800F911F0E9404050C5F1F4F8A
:100B90008C8D9D8DFC01EA0DFB1D60817181A6018C
:100BA000C701800F911F0E94421A0C0D1D1DFFEFFF
:100BB0004F1A5F0A6F0A7F0AC7CFC801DF91CF9132
:100BC0001F910F91FF90EF90DF90CF90BF90AF906B
:100BD0007F906F905F904F900895EF92FF920F93E8
:100BE0001F93CF93DF938C017B01EC018A81FB0182
:100BF0008193AB81BC81ED0109900020E9F7219739
:100C0000CA1BDB0BAE0160E070E0CF010E9404055F
:100C1000F80163817481AE01C70105960E94421AF2
:100C2000CE010596DF91CF911F910F91FF90EF902C
:100C30000895CF92DF92EF92FF920F931F93CF937D
:100C4000DF936C01EB01FC018281888383818983BE
:100C5000A481B581FD0101900020E9F731978F0152
:100C60000A1B1B0BA80160E070E0CE0102960E94F7
:100C70000405F60164817581A801CE0106960E94E3
:100C8000421AC8010696F601A681B781FD010190BE
:100C90000020E9F731977F01EA1AFB0AA70160E01B
:100CA00070E08C0F9D1F0E940405065F1F4FF60128
:100CB00066817781A701CE01800F911F0E94421AA1
:100CC0000E0D1F1DF601A085B185FD0101900020CC
:100CD000E9F731977F01EA1AFB0AA70160E070E0AB
:100CE000CE01800F911F0E9404050C5F1F4FF6017B
:100CF00060857185A701CE01800F911F0E94421A65
:100D0000C8018E0D9F1DF6016285438534852585BA
:100D1000C80FD91F688349833A832B830496DF91D8
:100D2000CF911F910F91FF90EF90DF90CF9008959A
:100D3000CF92DF92EF92FF92FC0110821182128219
:100D40001382DB0120E030E04D9150E0022E02C022
:100D5000440F551F0A94E2F7052E000C660B770B23
:100D6000C080D180E280F3804C295D296E297F29E3
:100D70004083518362837383285F3F4F2032310564
:100D800019F7FF90EF90DF90CF9008958F929F9288
:100D9000AF92BF92CF92DF92EF92FF920F931F9389
:100DA000CF93DF9300D01F92CDB7DEB77C018B01CC
:100DB000FB018191BF01F7018283CE0101960E9460
:100DC000980689819A81AB81BC814C015D01F5E077
:100DD0008F0E911CA11CB11C680125E0C20ED11C14
:100DE000A601401B510B60E070E0481559056A05EB
:100DF0007B0548F4F60141916F019F0122503109B2
:100E0000F9014083EDCFF801E80FF91F14820C5F60
:100E10001F4FF7011483038305960F900F900F90D7
:100E20000F90DF91CF911F910F91FF90EF90DF9086
:100E3000CF90BF90AF909F908F9008954F925F9208
:100E40006F927F928F929F92AF92BF92CF92DF92DA
:100E5000EF92FF920F931F93CF93DF93CDB7DEB73F
:100E60002C970FB6F894DEBF0FBECDBF7C018B016F
:100E7000DB018C9190E0F7019383828311962C9192
:100E8000922B938382836E5F7F4FCE0109960E94DF
:100E9000980689849A84AB84BC84B501A4014A5F16
:100EA0005F4F6F4F7F4FF8013696CF01801B910B3C
:100EB000A0E0B0E084179507A607B70728F4819152
:100EC000DF0112978C93F1CFF801E80DF91D15821F
:100ED000C8010596D70115969C938E931497B4017B
:100EE0006A5F7F4F600F711FCE0105960E949806C2
:100EF000BAE08B0E911C4D815E816F817885240153
:100F0000092C000C66087708440E551E661E771ED5
:100F1000F801E80DF91DCF01801B910BA0E0B0E0B6
:100F200084159505A605B70528F48191DF01129770
:100F30008C93F1CF6401C40ED51EB8016C0D7D1DDC
:100F4000FB0131971082C4010197800F911FF701B7
:100F500097838683CE0101960E949806A6014C5F76
:100F60005F4F49805A806B807C804A01052E000CBF
:100F7000AA08BB08840C951CA61CB71CF801E40F3A
:100F8000F51F9F01201B310BC901A0E0B0E08815BF
:100F90009905AA05BB0528F48191DF0112978C936E
:100FA000F0CFCA01840D951DF801E80FF91FDF018C
:100FB00011971C929A0121503109020F131FD7017A
:100FC00019961C930E9318972181428150E060E09E
:100FD00070E0BA0155274427522B2081422B2381F0
:100FE000722BF701428753876487758704962C9686
:100FF0000FB6F894DEBF0FBECDBFDF91CF911F912A
:101000000F91FF90EF90DF90CF90BF90AF909F90A7
:101010008F907F906F905F904F9008952F923F92A6
:101020004F925F926F927F928F929F92AF92BF92F8
:10103000CF92DF92EF92FF920F931F93CF93DF93A4
:10104000CDB7DEB728970FB6F894DEBF0FBECDBF81
:101050008C015B01DB018C9111969C91119712968A
:10106000CC901297D12CE12CF12C7601DD24CC24EC
:10107000D92AC82A13968C91F82AF8018281938183
:10108000A481B5818C159D05AE05BF0570F4B60130
:10109000660F771F660F771F828593850E949911CF
:1010A000D8011B969C938E931A97F801C282D38223
:1010B000E482F582D5011796C12CD12C7601F4E09B
:1010C0008F2E912C98012A5F3F4FF8014281538166
:1010D00064817581C4010496C416D506E606F70638
:1010E00080F54C9150E060E070E0742F6627552742
:1010F0004427FD013397E0814E2BFD013297E081BB
:101100005E2BFD013197E0816E2BF80146835783FA
:10111000608771874C01089742855385840F951F1E
:10112000F9014081518162817381FC0140835183C7
:1011300062837383FFEFCF1ADF0AEF0AFF0A149668
:10114000C4CFF401EA0DFB1D20813181C280D12C76
:10115000E12CF12C7601DD24CC24D32AC22A238170
:10116000F22A4C01F80184859585A685B7858C15F2
:101170009D05AE05BF0570F4B601660F771F660FBB
:10118000771F848995890E949911D80155969C935F
:101190008E935497F801C486D586E686F78620E0BC
:1011A00030E0C12CD12C7601D8015096F80144854D
:1011B000558566857785F501E80DF91DC40104960E
:1011C000C416D506E606F70648F59180428150E040
:1011D00060E070E0BA0155274427592990804929D9
:1011E000E3817E2BF801408B518B628B738B4C011A
:1011F00084899589FC01E20FF31F4D915D916D91FA
:101200007C9113974083518362837383FFEFCF1ADE
:10121000DF0AEF0AFF0A2C5F3F4FC8CF20813181E0
:10122000C280D12CE12CF12C7601DD24CC24D32AF0
:10123000C22A2381F22A4C01F80186899789A08D60
:10124000B18D8C159D05AE05BF0560F4B601660F26
:10125000771F848D958D0E949911D8015D969C937E
:101260008E935C97F801C68AD78AE08EF18E412C66
:10127000512C32011801FAE12F0E311CF801868938
:101280009789A08DB18D481659066A067B0608F02D
:101290005AC0B501680D791DCE0101960E949806CD
:1012A00094012C5F3F4FC980DA80EB80FC80C9013C
:1012B000032E000CAA0BBB0BAC01BD014C0D5D1D38
:1012C0006E1D7F1D4D835E836F837887F501E20F6E
:1012D000F31FAF014A195B09CA01A0E0B0E04D81DC
:1012E0005E816F81788584179507A607B70728F474
:1012F0004191DF0112974C93ECCFC9018C0D9D1DDC
:10130000F501E80FF91F31971082215031092A0D9C
:101310003B1DD8015B963C932E935A974C01C2011A
:10132000880F991F5C96ED91FC915D97E80FF91F6E
:10133000D1018D919C9191838083BFEF4B1A5B0A01
:101340006B0A7B0A9BCFC40128960FB6F894DEBFC8
:101350000FBECDBFDF91CF911F910F91FF90EF9006
:10136000DF90CF90BF90AF909F908F907F906F90C5
:101370005F904F903F902F900895FC01E85EFB4FE7
:1013800020E030E041915191452B91F4F901E45F67
:10139000FD4FEE0FFF1FE80FF91F71836083235885
:1013A0003F4FFB01358324839783868381E0089533
:1013B0002F5F3F4F2931310529F780E008951092C2
:1013C0000B0410920A041092060410920704109263
:1013D0000804109209046CE074E08CE194E00E942F
:1013E000BD098CE092E00E94930441E050E06CE77C
:1013F00072E082E00E949D0F10921804109219046E
:1014000010921A0410921B0408951092F503109282
:10141000F4031092F0031092F1031092F203109271
:10142000F30366EF73E08CE194E00E94BD0988E06D
:1014300092E00E94930441E050E064ED72E083E0AA
:101440000E949D0F10920204109203041092040453
:101450001092050408951092DF031092DE0310929B
:10146000DA031092DB031092DC031092DD0360EECE
:1014700073E08CE194E00E94BD0984E092E00E9458
:10148000930441E050E06CE273E084E00E949D0F21
:101490001092EC031092ED031092EE031092EF0302
:1014A00008951092C9031092C8031092C4031092B9
:1014B000C5031092C6031092C7036AEC73E08CE177
:1014C00094E00E94BD0980E092E00E94930441E014
:1014D00050E064E873E085E00E949D0F1092D6030F
:1014E0001092D7031092D8031092D90308950E9446
:1014F000DF090E94050A0E942B0A0C94510AECE1B4
:10150000F4E04481558166817781828193810E94D4
:101510000918109299081092980810929B0810923E
:101520009A0810929F0810929E0810929D0810929F
:101530009C080C94770A0F931F93CF93DF93CDB73A
:10154000DEB72A970FB6F894DEBF0FBECDBF8C0171
:1015500081E793E09A8389831B821C821D821E820D
:101560001F82188619861A86D801ED91FC91019088
:10157000F081E02DAE014F5F5F4F6AE070E0C8017F
:1015800019950E94F913F801608771878287938704
:101590002A960FB6F894DEBF0FBECDBFDF91CF9174
:1015A0001F910F9108954F925F926F927F92AF9229
:1015B000BF92CF92DF92EF92FF920F931F93CF9340
:1015C000DF93CDB7DEB72E970FB6F894DEBF0FBE10
:1015D000CDBF8C018DE793E09A8389831C821B82A7
:1015E0008CE393E09E838D8398878F839A87898786
:1015F0001B861C861D861E86680188EEC81A8BEF26
:10160000D80A7801A6EBEA1AABEFFA0A412C92E06D
:10161000592E612C712CD601ED91FC913097B9F1C6
:10162000848195819C838B83808191819E838D832E
:1016300082819381DC01ED91FC910480F581E02DA4
:10164000199598878F83D601ED91FC9182819381C2
:10165000DC01ED91FC910680F781E02D19959A87C8
:1016600089874B865C866D867E86F80180819181B4
:10167000F601A081B18118966D917C911997DC01DA
:10168000ED91FC91AE014F5F5F4FC8011995B2E03B
:10169000CB0ED11CCE14DF0409F0BDCF6801E4E805
:1016A000CE1AEBEFDE0A412C82E0582E612C712C11
:1016B000F701A081B1811097E1F112968D919C9173
:1016C00013979C838B8314968D919C9115979E8381
:1016D0008D83ED91FC9111970480F581E02DCD0172
:1016E000199598878F83D7018D919C91DC01ED919D
:1016F000FC910680F781E02D19959A8789874B86A2
:101700005C866D867E86D801ED91FC91A080B180CB
:10171000F70180819181DC01ED91FC910280F381E0
:10172000E02D1995AE014F5F5F4FBC01C801F50177
:101730001995F2E0EF0EF11CEC14FD0409F0B8CF9E
:10174000F801EA57FB4F81E080832E960FB6F8949C
:10175000DEBF0FBECDBFDF91CF911F910F91FF90E4
:10176000EF90DF90CF90BF90AF907F906F905F90A1
:101770004F9008958F929F92AF92BF92CF92DF9237
:10178000EF92FF920F931F93CF93DF93CDB7DEB706
:101790002A970FB6F894DEBF0FBECDBF8C015B0158
:1017A00081E793E09A8389831B821C821D821E82BB
:1017B0001F82188619861A860E94F913F801C084C0
:1017C000D184E284F3849B01AC012C193D094E09BC
:1017D0005F0969017A01B501CE0101960E94E90114
:1017E00088EE882E83E0982EA12CB12CC701B6017B
:1017F000A50194010E94EA19CB80DC80ED80FE8077
:10180000C20ED31EE41EF51ECB82DC82ED82FE8268
:101810009B01AC0160E472E48FE090E00E94C61985
:10182000CF80D884E984FA84DC01CB018C0D9D1D26
:10183000AE1DBF1D8F839887A987BA870E94F913B1
:10184000CB80DC80ED80FE8031E0C31AD108E10856
:10185000F108A50194010E94EA19C21AD30AE40A08
:10186000F50AF801C486D586E686F786CF80D88447
:10187000E984FA84F6E3DF1AF5E6EF0AF4ECFF0AEE
:101880009B01AC0160E472E48FE090E00E94C61915
:10189000C61AD70AE80AF90AF801C08AD18AE28A88
:1018A000F38AB801605F7F4FC8010C960E949819B7
:1018B0000E94F913F801E557FB4F6083718382831F
:1018C00093832A960FB6F894DEBF0FBECDBFDF918B
:1018D000CF911F910F91FF90EF90DF90CF90BF902D
:1018E000AF909F908F9008952F923F924F925F926A
:1018F0006F927F928F929F92AF92BF92CF92DF9220
:10190000EF92FF920F931F93CF93DF93CDB7DEB784
:1019100060970FB6F894DEBF0FBECDBF988B8F8750
:101920000E94F9134B015C012F85388925573B4FE5
:101930003E832D83F90180819181A281B381A5012C
:101940009401281B390B4A0B5B0BDA01C901893F53
:101950009A42A105B10528F0EF85F889EA57FB4FB7
:1019600010820F85188904581B4FD8018D919C91C6
:10197000892B81F0EF85F889E157FB4F80819181B8
:10198000A281B38188159905AA05BB0518F4F80151
:10199000118210826F847888FCE76F1AFBEF7F0A50
:1019A0002F85388920583B4F3A832983CF84D888A4
:1019B00038E1C30ED11C4F8558894A575B4F588771
:1019C0004F832F8538892C563B4F3A8729874F857F
:1019D00058894D565B4F5C874B87EF84F88852E8F7
:1019E000E51A5BEFF50A2F8538892E573B4F3C836C
:1019F0002B834F85588941575B4F5E874D87140174
:101A0000250154E1250E311C411C511CEF85F8893C
:101A100084899589A689B789892B8A2B8B2B89F490
:101A2000AF85B88912968D919C911397DC01ED9149
:101A3000FC910680F781E02D19959C0197FF15C058
:101A400037C10E94F913DC01CB0188199909AA0951
:101A5000BB09EF85F8892489358946895789281774
:101A600039074A075B07E0F64BC1D3018D919C9182
:101A70001197820F931F8D939C93F80140815181A0
:101A800047305105D9F4AB81BC818D919C91119760
:101A9000AC014F5F5F4F4D935C93EF85F889E80F82
:101AA000F91F208FF70180819181019791838083B5
:101AB000892B09F0ABCF88E090E02FC0411551058C
:101AC00021F52F3F310569F481E090E0F801918321
:101AD0008083AD85BE852D923D924D925C92139789
:101AE00095CF0E94F913DC01CB0188199909AA0945
:101AF000BB0989389341A105B10508F487CFEF856B
:101B0000F889EA57FB4F1082FBC041305105B1F410
:101B10002E3F310531F482E090E0D8018D939C9303
:101B200075CFF80111821082AF81B8858C91811137
:101B30006DCF8F8598890E949B0A68CF42305105EE
:101B400069F4F70131832083AB81BC811D921C9223
:101B500083E090E0F801918380832EC043305105EB
:101B600061F4322F2227F70180819181280F391FDC
:101B70003183208384E090E0D0CF4430510581F45C
:101B800060E071E00E94D6198F3F910531F485E045
:101B900090E0F8019183808339CF1182108236CF93
:101BA0004530510569F4E981FA8131832083E6E00B
:101BB000F0E0D801ED93FC93D3012D933C9326CF15
:101BC0004630510599F4322F2227E981FA8180812C
:101BD0009181280F391F31832083E7E0F0E0D8019D
:101BE000ED93FC93D7018D919C9162CF48305105C4
:101BF00009F00CCFF8011182108260E071E00E94C0
:101C0000D6198F3F910509F001CFA981BA818D9135
:101C10009C910097C9F48F8598890E949B0A8F85B3
:101C200098890E94D30AEF85F889E957FB4F808293
:101C30009182A282B382ED81FE8180829182A28212
:101C4000B3828FEF9FEF61C08A30910531F4B60106
:101C50008F8598890E94BA0BD9CE8630910551F4B0
:101C6000B60189859A850E940E0881E0AB85BC8506
:101C70008C93CCCE8B30910521F4EF81F8851082C6
:101C8000C5CEFC01EF53FE4FEE0FFF1F2F853889A5
:101C9000E20FF31F80819181009709F4B7CEDC0138
:101CA000ED91FC910190F081E02DB6011995AECE39
:101CB000EF85F889EA57FB4F8081882321F10F8552
:101CC000188909571B4FF80180819181A281B38146
:101CD000A5019401281B390B4A0B5B0BDA01C901E2
:101CE000853C9940A105B10570F08F8598890E94C7
:101CF0009B0AD8018D929D92AD92BC92139703C01E
:101D00008EEF9FEF02C080E090E060960FB6F894EF
:101D1000DEBF0FBECDBFDF91CF911F910F91FF901E
:101D2000EF90DF90CF90BF90AF909F908F907F907B
:101D30006F905F904F903F902F9008950E94FC0409
:101D40000E94A0048CE194E00E94740C0E94B704ED
:101D50008CE194E00E94740C0E94CE048CE194E02B
:101D60000E94740C0C94E5040E949E0E8CE194E099
:101D70000E94740C61E070E080E090E00C942A1402
:101D800081EA93E090931D0480931C048DE499E014
:101D900090931F0480931E0480E091EEA0E0B0E0D9
:101DA0008093200490932104A0932204B0932304F1
:101DB0001092A20885E993E09093B1088093B0084F
:101DC0001092B2081092B3081092B4081092B5089D
:101DD0001092BB081092BA081092BC081092BD086D
:101DE0001092BE081092BF081092C5081092C40845
:101DF0001092C6081092C7081092C8081092C9081D
:101E00001092CD081092CC08E4E3F8E01192119200
:101E100088E0E636F807D1F7E6E6F8E0119211928D
:101E200088E0E839F807D1F7E4E3F4E0119286E0BE
:101E3000E433F807D9F7E4E3F6E0119288E0E433FD
:101E4000F807D9F71092300410923104109232043E
:101E5000109233048BEA93E0909317048093160456
:101E6000109218041092190410921A0410921B0474
:101E70002DE333E030930D0420930C0426E134E08D
:101E800030930F0420930E04109215041092140442
:101E900090930104809300041092020410920304B2
:101EA000109204041092050422E433E03093F70307
:101EB0002093F60320E034E03093F9032093F803F5
:101EC0001092FF031092FE039093EB038093EA03BA
:101ED0001092EC031092ED031092EE031092EF03B8
:101EE00027E433E03093E1032093E0032AEE33E06C
:101EF0003093E3032093E2031092E9031092E80386
:101F00009093D5038093D4031092D6031092D703F5
:101F10001092D8031092D9038CE493E09093CB03F2
:101F20008093CA0384ED93E09093CD038093CC0318
:101F30001092D3031092D2030895883008F070C035
:101F4000A82FB0E0AA0FBB1FA253B74F11967C93E6
:101F50006E9390E0FC013197E730F105A0F58827FA
:101F6000EE58FF4F8F4F0C940C1A809169008C7FB4
:101F7000482B40936900E89A089580916900440FC6
:101F8000551F440F551F837F482B40936900E99AE2
:101F900008958091690074E0440F551F7A95E1F728
:101FA0008F7C482B40936900EA9A089580916900DC
:101FB00066E0440F551F6A95E1F78F73482B4093F5
:101FC0006900EB9A089580916A008C7F482B4093BA
:101FD0006A00EC9A089580916A00440F551F440FDF
:101FE000551F837F482B40936A00ED9A0895809196
:101FF0006A0024E0440F551F2A95E1F78F7C482B97
:1020000040936A00EE9A089580916A0096E0440F2A
:10201000551F9A95E1F78F73482B40936A00EF9A0A
:1020200008951F920F920FB60F9211240BB60F92C4
:102030002F933F934F935F936F937F938F939F93D0
:10204000AF93BF93EF93FF938091D2089091D30801
:10205000892B29F0E091D208F091D3081995FF91CE
:10206000EF91BF91AF919F918F917F916F915F9110
:102070004F913F912F910F900BBE0F900FBE0F907D
:102080001F9018951F920F920FB60F9211240BB646
:102090000F922F933F934F935F936F937F938F9301
:1020A0009F93AF93BF93EF93FF938091D408909148
:1020B000D508892B29F0E091D408F091D50819951D
:1020C000FF91EF91BF91AF919F918F917F916F9110
:1020D0005F914F913F912F910F900BBE0F900FBECC
:1020E0000F901F9018951F920F920FB60F92112408
:1020F0000BB60F922F933F934F935F936F937F9302
:102100008F939F93AF93BF93EF93FF938091D608E4
:102110009091D708892B29F0E091D608F091D70843
:102120001995FF91EF91BF91AF919F918F917F9101
:102130006F915F914F913F912F910F900BBE0F9038
:102140000FBE0F901F9018951F920F920FB60F920F
:1021500011240BB60F922F933F934F935F936F937E
:102160007F938F939F93AF93BF93EF93FF93809150
:10217000D8089091D908892B29F0E091D808F091DE
:10218000D9081995FF91EF91BF91AF919F918F91D0
:102190007F916F915F914F913F912F910F900BBE67
:1021A0000F900FBE0F901F9018951F920F920FB6B1
:1021B0000F9211240BB60F922F933F934F935F937F
:1021C0006F937F938F939F93AF93BF93EF93FF93FF
:1021D0008091CE089091CF08892B29F0E091CE080C
:1021E000F091CF081995FF91EF91BF91AF919F9119
:1021F0008F917F916F915F914F913F912F910F90B0
:102200000BBE0F900FBE0F901F9018951F920F924C
:102210000FB60F9211240BB60F922F933F934F934B
:102220005F936F937F938F939F93AF93BF93EF933E
:10223000FF938091D0089091D108892B29F0E091EB
:10224000D008F091D1081995FF91EF91BF91AF910E
:102250009F918F917F916F915F914F913F912F91BE
:102260000F900BBE0F900FBE0F901F9018951F92EE
:102270000F920FB60F9211240BB60F922F933F932C
:102280004F935F936F937F938F939F93AF93BF937E
:10229000EF93FF938091DA089091DB08892B29F066
:1022A000E091DA08F091DB081995FF91EF91BF9169
:1022B000AF919F918F917F916F915F914F913F91DE
:1022C0002F910F900BBE0F900FBE0F901F9018957F
:1022D0001F920F920FB60F9211240BB60F922F93ED
:1022E0003F934F935F936F937F938F939F93AF939E
:1022F000BF93EF93FF938091DC089091DD08892BC9
:1023000029F0E091DC08F091DD081995FF91EF913B
:10231000BF91AF919F918F917F916F915F914F91FD
:102320003F912F910F900BBE0F900FBE0F901F90FB
:1023300018956F927F928F929F92AF92BF92CF9299
:10234000DF92EF92FF920F931F93CF93DF93EC01F5
:10235000009789F4CB01DF91CF911F910F91FF90EE
:10236000EF90DF90CF90BF90AF909F908F907F9035
:102370006F900C948212FC01E60FF71F9C01225013
:102380003109E217F30708F4ACC0D9010D911C9193
:10239000119706171707B0F00530110508F49FC014
:1023A000C80104978617970708F499C002501109CD
:1023B000061B170B019311936D937C93CF010E9421
:1023C00017138DC05B01A01AB10A4C01800E911E3B
:1023D000A091910BB091920B40E050E0E12CF12CD8
:1023E000109709F44AC0A815B905D1F56D907C90F5
:1023F0001197630182E0C80ED11CCA14DB0480F17E
:10240000A3014A195B096A0182E0C80ED11C129629
:10241000BC9012971396AC91B5E0CB16D10440F066
:10242000B282A38351834083D9016D937C930AC008
:102430000E5F1F4FC301800F911FF90191838083AD
:10244000EB2DFA2FE114F10431F0D7011396FC9330
:10245000EE93129744C0F093920BE093910B3FC020
:102460008D919C9111974817590708F4AC017D0193
:1024700012960D90BC91A02DB3CF80918F0B9091AF
:10248000900B88159905E1F446175707C8F4809119
:10249000100290911102009741F48DB79EB74091C0
:1024A000140250911502841B950BE817F907C8F424
:1024B000F093900BE0938F0BF901718360830FC051
:1024C000CB010E9482127C01009759F0A801BE0145
:1024D0000E94421ACE010E941713C70104C0CE0108
:1024E00002C080E090E0DF91CF911F910F91FF90AB
:1024F000EF90DF90CF90BF90AF909F908F907F90A4
:102500006F900895CF93DF938230910510F482E0AD
:1025100090E0E091910BF091920B20E030E0C0E070
:10252000D0E0309711F14081518148175907C0F030
:102530004817590761F482819381209719F09B8392
:102540008A832BC09093920B8093910B26C0211508
:10255000310519F04217530718F49A01BE01DF0143
:10256000EF010280F381E02DDCCF2115310509F167
:10257000281B390B2430310590F412968D919C91D3
:1025800013976115710521F0FB019383828304C0C9
:102590009093920B8093910BFD01329644C0FD0104
:1025A000E20FF31F81939193225031092D933C93B5
:1025B0003AC020918F0B3091900B232B41F4209146
:1025C0001202309113023093900B20938F0B2091C5
:1025D0001002309111022115310541F42DB73EB79B
:1025E0004091140250911502241B350BE0918F0B82
:1025F000F091900BE217F307A0F42E1B3F0B281766
:10260000390778F0AC014E5F5F4F2417350748F06B
:102610004E0F5F1F5093900B40938F0B81939193BC
:1026200002C0E0E0F0E0CF01DF91CF9108950F9379
:102630001F93CF93DF93009709F48CC0FC0132976E
:10264000138212820091910B1091920B01151105CA
:1026500081F420813181820F931F20918F0B309163
:10266000900B2817390779F5F093900BE0938F0BB7
:1026700071C0D80140E050E0AE17BF0750F4129689
:102680002D913C911397AD012115310509F1D90127
:10269000F3CF9D01DA013383228360817181860F3C
:1026A000971F8217930769F4EC0128813981260F5F
:1026B000371F2E5F3F4F318320838A819B81938315
:1026C0008283452B29F4F093920BE093910B42C047
:1026D0001396FC93EE931297ED01499159919E0147
:1026E000240F351FE217F30771F480819181840F65
:1026F000951F029611969C938E93828193811396D7
:102700009C938E931297E0E0F0E0D80112968D91A1
:102710009C911397009719F0F8018C01F6CF8D91D9
:102720009C9198012E5F3F4F820F931F20918F0B3A
:102730003091900B2817390769F4309729F41092DB
:10274000920B1092910B02C0138212821093900B85
:1027500000938F0BDF91CF911F910F9108951F92DE
:102760000F920FB60F9211242F933F938F939F9345
:10277000AF93BF938091DF089091E008A091E108AA
:10278000B091E2083091DE0823E0230F2D3720F4CA
:102790000196A11DB11D05C026E8230F0296A11DBB
:1027A000B11D2093DE088093DF089093E008A0938A
:1027B000E108B093E2088091E3089091E408A091C9
:1027C000E508B091E6080196A11DB11D8093E308CC
:1027D0009093E408A093E508B093E608BF91AF9109
:1027E0009F918F913F912F910F900FBE0F901F904F
:1027F00018952FB7F8946091DF087091E0088091E8
:10280000E1089091E2082FBF08953FB7F8948091B6
:10281000E3089091E408A091E508B091E60826B598
:10282000A89B05C02F3F19F00196A11DB11D3FBF08
:10283000BA2FA92F982F8827820F911DA11DB11D96
:10284000BC01CD0142E0660F771F881F991F4A9592
:10285000D1F70895CF92DF92EF92FF92CF93DF935B
:102860006B017C010E940514EB01C114D104E10449
:10287000F10479F00E9405146C1B7D0B683E7340D7
:10288000A0F381E0C81AD108E108F108C851DC4F73
:10289000ECCFDF91CF91FF90EF90DF90CF90089534
:1028A000789484B5826084BD84B5816084BD85B52B
:1028B000826085BD85B5816085BDEEE6F0E08081F2
:1028C00081608083E1E8F0E0108280818260808313
:1028D000808181608083E0E8F0E080818160808396
:1028E000E1EBF0E0808184608083E0EBF0E08081C8
:1028F00081608083E1E9F0E0808182608083808173
:1029000081608083E0E9F0E0808181608083E1EA9A
:10291000F0E0808182608083808181608083E0EA52
:10292000F0E0808181608083E1E2F1E0808182607B
:102930008083808181608083E0E2F1E0808181603A
:102940008083EAE7F0E08081846080838081826018
:102950008083808181608083808180688083109201
:10296000C100089590E0FC013197E131F10508F0D4
:102970004AC08827E758FF4F8F4F0C940C1A80915C
:1029800080008F7703C0809180008F7D80938000CE
:10299000089584B58F7702C084B58F7D84BD089576
:1029A0008091B0008F7703C08091B0008F7D8093BD
:1029B000B0000895809190008F7707C080919000BB
:1029C0008F7D03C080919000877F80939000089551
:1029D0008091A0008F7707C08091A0008F7D03C0F9
:1029E0008091A000877F8093A000089580912001AE
:1029F0008F7707C0809120018F7D03C080912001D7
:102A0000877F809320010895CF93DF9390E0FC01AE
:102A1000EA5BFD4F2491FC01E457FD4F849188232C
:102A200061F190E0880F991FFC01EA5FFC4FC591AE
:102A3000D491FC01E451FD4FA591B491611109C0FD
:102A40009FB7F8948881209582238883EC912E2368
:102A50000BC0623061F49FB7F8943881822F809563
:102A600083238883EC912E2B2C939FBF06C08FB7B6
:102A7000F894E8812E2B28838FBFDF91CF910895A2
:102A8000CF93DF93282F30E0F901E050FE4F84917F
:102A9000F901EA5BFD4FD491F901E457FD4FC49170
:102AA000CC2391F081110E94B214EC2FF0E0EE0FD4
:102AB000FF1FEE52FD4FA591B491EC91ED2381E003
:102AC00090E021F480E002C080E090E0DF91CF91BF
:102AD0000895FC0124853585F901E05CFF4F808174
:102AE0009181329620813181821B930B8F739927BC
:102AF0000895DC011C96ED91FC911D97DF01A05C0F
:102B0000BF4F2D913C91119712968D919C911197E9
:102B10002817390739F08D919C91E80FF91F8081B2
:102B200090E008958FEF9FEF0895FC01A485B5858F
:102B3000FD01E05CFF4F20813181329680819181DF
:102B40002817390779F080819181A80FB91F8C91DE
:102B5000208131812F5F3F4F2F73332731832083B3
:102B600090E008958FEF9FEF0895FC0181A18823E5
:102B700029F0A489B5898C9186FFFBCF11A2089515
:102B80000F931F93CF93DF93FC01A685B7858D012B
:102B9000005C1F4FE8018881998101968F73992706
:102BA000AD014E5B5F4FEA0128813981821793079F
:102BB000D1F3E80128813981A20FB31F6C93A68558
:102BC000B785A05CBF4F11969C938E93A689B78959
:102BD0002C9181E090E0078C02C0880F991F0A9425
:102BE000E2F7822B8C9381E081A30488F589E02DA4
:102BF00080818064808381E090E0DF91CF911F919C
:102C00000F910895FB01E05CFF4F208131812F5F20
:102C10003F4F2F733327DB01AE5BBF4F4D915C916C
:102C20002417350741F040815181DB01A40FB51F06
:102C30008C9331832083089508951F920F920FB6CD
:102C40000F9211240BB60F922F933F934F935F93E4
:102C50006F937F938F939F93AF93BF93EF93FF9364
:102C60008091C00082FD07C08091C6006BE47BE0CC
:102C70000E94021602C08091C600FF91EF91BF91A1
:102C8000AF919F918F917F916F915F914F913F9104
:102C90002F910F900BBE0F900FBE0F901F901895A5
:102CA00008951F920F920FB60F9211240BB60F9238
:102CB0002F933F934F935F936F937F938F939F9344
:102CC000AF93BF93EF93FF938091C80082FD07C03D
:102CD0008091CE0063EC7AE00E94021602C08091DF
:102CE000CE00FF91EF91BF91AF919F918F917F9116
:102CF0006F915F914F913F912F910F900BBE0F906D
:102D00000FBE0F901F90189508951F920F920FB647
:102D10000F9211240BB60F922F933F934F935F9313
:102D20006F937F938F939F93AF93BF93EF93FF9393
:102D30008091D00082FD07C08091D6006BE37AE0DD
:102D40000E94021602C08091D600FF91EF91BF91C0
:102D5000AF919F918F917F916F915F914F913F9133
:102D60002F910F900BBE0F900FBE0F901F901895D4
:102D700008951F920F920FB60F9211240BB60F9267
:102D80002F933F934F935F936F937F938F939F9373
:102D9000AF93BF93EF93FF938091300182FD07C003
:102DA0008091360163EB79E00E94021602C08091A7
:102DB0003601FF91EF91BF91AF919F918F917F91DC
:102DC0006F915F914F913F912F910F900BBE0F909C
:102DD0000FBE0F901F9018958DE499E00E94691521
:102DE000892B11F00E941C168BE299E00E94691554
:102DF000892B11F00E94501689E099E00E94691514
:102E0000892B11F00E94841687EE98E00E946915C4
:102E1000892B11F00C94B81608951F920F920FB6DB
:102E20000F9211240BB60F922F933F938F939F9382
:102E3000EF93FF932091470B3091480B8091490B02
:102E400090914A0B2817390731F48091C1008F7D8A
:102E50008093C10014C0E091490BF0914A0BE95FE7
:102E6000F44F20818091490B90914A0B01968F730A
:102E7000992790934A0B8093490B2093C600FF91AA
:102E8000EF919F918F913F912F910F900BBE0F90DB
:102E90000FBE0F901F9018951F920F920FB60F92B2
:102EA00011240BB60F922F933F938F939F93EF9321
:102EB000FF932091BF0A3091C00A8091C10A90917E
:102EC000C20A2817390731F48091C9008F7D809399
:102ED000C90014C0E091C10AF091C20AE158F54F4F
:102EE00020818091C10A9091C20A01968F7399271F
:102EF0009093C20A8093C10A2093CE00FF91EF9174
:102F00009F918F913F912F910F900BBE0F900FBE0D
:102F10000F901F9018951F920F920FB60F921124C9
:102F20000BB60F922F933F938F939F93EF93FF9343
:102F30002091370A3091380A8091390A90913A0AE3
:102F40002817390731F48091D1008F7D8093D1000B
:102F500014C0E091390AF0913A0AE950F64F208105
:102F60008091390A90913A0A01968F73992790932C
:102F70003A0A8093390A2093D600FF91EF919F91EE
:102F80008F913F912F910F900BBE0F900FBE0F901E
:102F90001F9018951F920F920FB60F9211240BB627
:102FA0000F922F933F938F939F93EF93FF932091D3
:102FB000AF093091B0098091B1099091B2092817F9
:102FC000390731F4809131018F7D8093310114C034
:102FD000E091B109F091B209E159F64F2081809159
:102FE000B1099091B20901968F7399279093B20914
:102FF0008093B10920933601FF91EF919F918F91BA
:103000003F912F910F900BBE0F900FBE0F901F900E
:103010001895CF92DF92EF92FF920F931F93CF9369
:10302000DF93EC016A017B014115514E6105710589
:1030300009F1EC89FD8981E090E008A002C0880FC9
:10304000991F0A94E2F7808360E079E08DE390E0D5
:10305000A70196010E94EA1989019A0101501109FC
:10306000210931093695279517950795980101157E
:103070001041A8F0EC89FD89108260E874E88EE1C7
:1030800090E0A70196010E94EA19DA01C9010197AF
:10309000A109B109B695A795979587959C01E889EF
:1030A000F9893083EA89FB89208319A2EE89FF8997
:1030B000408181E090E09C010C8C02C0220F331F04
:1030C0000A94E2F7242B2083EE89FF8940819C013A
:1030D0000D8C02C0220F331F0A94E2F7242B2083A9
:1030E000EE89FF8940819C010E8C02C0220F331FA4
:1030F0000A94E2F7242B2083EE89FF8920810F8C2C
:1031000002C0880F991F0A94E2F78095822380837A
:10311000DF91CF911F910F91FF90EF90DF90CF90B3
:103120000895CF92DF92EF92FF92EDE4F9E01382DF
:10313000128288EEC82E83E0D82EE12CF12CC482B6
:10314000D582E682F78267EB73E0718360838BE45C
:103150009BE09587848787E09BE09787868785EC4F
:1031600090E0918B808B84EC90E0938B828B80EC51
:1031700090E0958B848B81EC90E0978B868B82EC32
:1031800090E0918F808F86EC90E0938F828F44E067
:10319000448F33E0358F27E0268F95E0978F81E0CD
:1031A00080A3EBE2F9E013821282C482D582E68228
:1031B000F78271836083A3ECBAE0B587A487AFE799
:1031C000BAE0B787A687ADECB0E0B18BA08BACECD2
:1031D000B0E0B38BA28BA8ECB0E0B58BA48BA9ECCC
:1031E000B0E0B78BA68BAAECB0E0B18FA08FAEECAD
:1031F000B0E0B38FA28F448F358F268F978F80A337
:10320000E9E0F9E013821282C482D582E682F78275
:1032100071836083ABE3BAE0B587A487A7EFB9E019
:10322000B787A687A5EDB0E0B18BA08BA4EDB0E089
:10323000B38BA28BA0EDB0E0B58BA48BA1EDB0E079
:10324000B78BA68BA2EDB0E0B18FA08FA6EDB0E05A
:10325000B38FA28F448F358F268F978F80A3E7EE91
:10326000F8E013821282C482D582E682F7827183EB
:10327000608363EB79E0758764876FE679E0778731
:10328000668765E371E0718B608B64E371E0738B3B
:10329000628B60E371E0758B648B61E371E0778B27
:1032A000668B62E371E0718F608F66E371E0738F0C
:1032B000628F448F358F268F978F80A3FF90EF907A
:1032C000DF90CF900895CF92DF92EF92FF920F930D
:1032D0001F93CF93DF936C01EB017B01E40EF51E8E
:1032E00000E010E0CE15DF0561F06991D601ED91A7
:1032F000FC910190F081E02DC6011995080F191F6E
:10330000F1CFC801DF91CF911F910F91FF90EF9006
:10331000DF90CF9008950E9450140E947F0ACCEE57
:10332000D6E10E94B40E2097E1F30E94EC16F9CF8B
:10333000CF92DF92EF92FF920F931F93CF93DF9381
:103340008C01EB01688179818A819B8120E03AECD4
:103350004AE95BE30E94EA19F801C080D180E2806B
:10336000F380C20ED31EE41EF51EC082D182E2821B
:10337000F382688379838A839B83DF91CF911F9146
:103380000F91FF90EF90DF90CF900895DB018F9326
:103390009F930E94141ABF91AF91A29F800D911D1F
:1033A000A39F900DB29F900D1124089597FB072EB7
:1033B00016F4009407D077FD09D00E941F1A07FC6D
:1033C00005D03EF4909581959F4F08957095619535
:1033D0007F4F0895A1E21A2EAA1BBB1BFD010DC051
:1033E000AA1FBB1FEE1FFF1FA217B307E407F507B5
:1033F00020F0A21BB30BE40BF50B661F771F881F91
:10340000991F1A9469F760957095809590959B0126
:10341000AC01BD01CF010895EE0FFF1F881F8BBFC8
:103420000790F691E02D19940E94331AA59F900DF4
:10343000B49F900DA49F800D911D11240895AA1B87
:10344000BB1B51E107C0AA1FBB1FA617B70710F08F
:10345000A61BB70B881F991F5A95A9F780959095C1
:10346000BC01CD010895A29FB001B39FC001A39FED
:10347000700D811D1124911DB29F700D811D1124AD
:10348000911D0895FB01DC0102C001900D92415095
:0A3490005040D8F70895F894FFCFDC
:10349A001400180013001700120016001500190076
:1034AA000000930B80007374645F6D7367732F540D
:1034BA00696D650063643731363663373463353591
:1034CA00326333313166626363326665356137620E
:1034DA006332383900726F7373657269616C5F6D3C
:1034EA007367732F546F706963496E666F0030613A
:1034FA00643531663838666334343839326638634D
:10350A003130363834303737363436303035007269
:10351A006F7373657269616C5F6D7367732F4C6F3C
:10352A00670031316162643733316332353933339D
:10353A00323631636436313833626431326436325A
:10354A00393500396630653938626461363539385B
:10355A0031393836646466353361666137613430CF
:10356A00653439007374645F6D7367732F496E74C1
:10357A003332006461353930396662653337386110
:10358A00656166383565353437653833306363319C
:10359A00626237004D6573736167652066726F6D8D
:1035AA00206465766963652064726F707065643A39
:1035BA00206D657373616765206C6172676572203F
:1035CA007468616E206275666665722E00656E6348
:1035DA003000656E633100656E633200656E633379
:1035EA0000726F7373657269616C5F6D7367732FB5
:1035FA0052657175657374506172616D00000000E7
:10360A0000C501E9012F0232020000000019061E5E
:10361A00073502380200000000ED05C6063B023EEF
:10362A00020000000021050E0841024402000000C9
:10363A0000DC03740C77020000000047025B027191
:10364A0002740200000000C0156319691595157906
:04365A0015B515008D
:00000001FF
