:100000000C9454000C94B30D0C94E00D0C947C00F3
:100010000C947C000C947C000C947C000C947C0070
:100020000C947C000C947C000C947C000C947C0060
:100030000C947C000C947C000C947C000C947C0050
:100040000C9423100C947C000C94D5110C94181271
:100050000C947C000C947C000C947C000C947C0030
:100060000C947C000C947C00010204081020408059
:1000700001020408102001020408102004040404F2
:100080000404040402020202020203030303030342
:1000900000000000250028002B00000000002400C4
:1000A00027002A00D20BDB1211241FBECFEFD8E0AD
:1000B000DEBFCDBF13E0A0E0B1E0ECEFF7E202C09D
:1000C00005900D92AC30B107D9F727E0ACE0B3E072
:1000D00001C01D92A133B207E1F710E0C4E5D0E002
:1000E00004C02197FE010E94DE13C235D107C9F773
:1000F0000E943E130C94FC130C940000DC01FB01E5
:1001000012968C911297808313968C91139781830A
:1001100014968C911497828315968C9115978383EE
:1001200016968C911697848317968C9117978583D2
:1001300018968C911897868319968C91878388E0FE
:1001400090E00895FC01DB014C9150E060E070E02C
:10015000428353836483758311968C911197582B36
:10016000428353836483758312968C911297682B14
:10017000428353836483758313968C911397782BF2
:10018000428353836483758314964C91149750E093
:1001900060E070E0468357836087718715968C9185
:1001A0001597582B468357836087718716968C91D5
:1001B0001697682B468357836087718717968C91B3
:1001C000782B468357836087718788E090E0089595
:1001D00086E091E0089584E191E0089585E391E05F
:1001E00008958EE491E008958FE691E0089582E805
:1001F00091E008958DE892E0089583EA91E00895F2
:10020000FC0122818381FB012083818382E090E0D5
:100210000895FB01218130E0322F22274081242BD9
:10022000FC013383228382E090E0089584EC91E026
:10023000089583ED91E0089508950895089508952F
:1002400080919203909193030196909393038093EE
:100250009203089580919003909191030196909359
:10026000910380939003089580918E0390918F0362
:10027000019690938F0380938E03089580918C0351
:1002800090918D03019690938D0380938C03089534
:100290000F931F93CF93DF938C01EC012696CE0131
:1002A0000E940901D8011A96ED91FC911B97CE018D
:1002B000DF91CF911F910F910994FC018485958561
:1002C000089584EC91E0089583ED91E00895FC0198
:1002D000EA54FD4F80810895AF92BF92CF92DF9292
:1002E000EF92FF920F931F93CF93DF9300D000D034
:1002F0001F92CDB7DEB78C016B01643671053CF0FF
:10030000FC01EA54FD4F8081882309F478C0DA01AA
:10031000ED91FC910190F081E02DB801695C7E4F78
:10032000CA0109957801B0EDEB1ABEEFFB0A2FEF79
:10033000F70120832EEF319620833196808331960A
:1003400090833196292F280F209520833196C082E3
:10035000D801AA5CBE4FDC9245E050E020E030E0DE
:10036000BC016A5F7F4F6417750734F0A1912A0FB3
:10037000311D4F5F5F4FF7CF6C01F8E0CF0ED11CFE
:10038000800F911FFC01E95CFE4F2095208329E13D
:10039000C21621E0D206CCF45701C5018E199F097F
:1003A0008C159D0584F4D80112968D919C9113971C
:1003B000F50161915F01DC01ED91FC910190F0810B
:1003C000E02D0995EACFC6011CC085EC92E09A8326
:1003D000898383E08B8384EF91E09D838C83D801B4
:1003E000ED91FC910190F081E02DAE014F5F5F4FE8
:1003F00067E070E0C80109958FEF9FEF02C080E0D1
:1004000090E00F900F900F900F900F90DF91CF9191
:100410001F910F91FF90EF90DF90CF90BF90AF9022
:100420000895CF93DF93AB01EC01AE81BF81ED91D5
:10043000FC9111976C817D810190F081E02DCD01BF
:10044000DF91CF910994FC01862F6083718361E075
:100450000C94FF10CF92DF92EF92FF9220E030E0F9
:100460006A017B01022E04C0F694E794D794C794E6
:100470000A94D2F7FC01C192CF01285F3F4F20328E
:10048000310571F7FF90EF90DF90CF9008954F9274
:100490005F926F927F92AF92BF92CF92DF92EF9274
:1004A000FF920F931F93CF93DF93EC017B018A811F
:1004B000FB0180838B8181838C8182838D81838307
:1004C000DB01179640E050E0BA01E4E0F0E04A803A
:1004D0005B806C807D808F010C5F1F4F441555053C
:1004E00066057705C0F48A859B85E80FF91F349768
:1004F000D080218192818381FD013397D082319612
:100500002083319690838C93F8014F5F5F4F6F4F3C
:100510007F4F1496DCCFEE0DFF1D8C8580838D857B
:1005200081838E8582838F85838380E090E040E0A5
:1005300050E0BA014C845D846E847F84F701E00F43
:10054000F11F0C5F1F4F4415550566057705B8F47C
:10055000AC89BD89A80FB91FCC901196DC9011977A
:1005600012963C91129713962C91C082D1823283BD
:1005700023834F5F5F4F6F4F7F4F0496DBCF8E8992
:1005800080838F898183888D8283898D8383412CA9
:10059000512C32018E899F89A88DB98D4816590634
:1005A0006A067B0680F55201AA0CBB1CEC8DFD8D02
:1005B000EA0DFB1DA081B181FD0101900020E9F74A
:1005C00031976F01CA1ADB0AA60160E070E0C7012B
:1005D000800F911F0E942A020C5F1F4F8C8D9D8DF2
:1005E000FC01EA0DFB1D60817181A601C701800F2E
:1005F000911F0E94F3130C0D1D1DFFEF4F1A5F0A90
:100600006F0A7F0AC7CFC801DF91CF911F910F9169
:10061000FF90EF90DF90CF90BF90AF907F906F9062
:100620005F904F900895EF92FF920F931F93CF9397
:10063000DF938C017B01EC018A81FB018193AB810B
:10064000BC81ED0109900020E9F72197CA1BDB0B63
:10065000AE0160E070E0CF010E942A02F8016381E0
:100660007481AE01C70105960E94F313CE01059671
:10067000DF91CF911F910F91FF90EF900895CF924E
:10068000DF92EF92FF920F931F93CF93DF936C0152
:10069000EB01FC018281888383818983A481B581F8
:1006A000FD0101900020E9F731978F010A1B1B0B18
:1006B000A80160E070E0CE0102960E942A02F601D5
:1006C00064817581A801CE0106960E94F313C801CA
:1006D0000696F601A681B781FD0101900020E9F799
:1006E00031977F01EA1AFB0AA70160E070E08C0FE6
:1006F0009D1F0E942A02065F1F4FF60166817781C7
:10070000A701CE01800F911F0E94F3130E0D1F1D34
:10071000F601A085B185FD0101900020E9F7319730
:100720007F01EA1AFB0AA70160E070E0CE01800FAA
:10073000911F0E942A020C5F1F4FF6016085718590
:10074000A701CE01800F911F0E94F313C8018E0DE7
:100750009F1DF6016285438534852585C80FD91F05
:10076000688349833A832B830496DF91CF911F914D
:100770000F91FF90EF90DF90CF900895CF92DF928E
:10078000EF92FF92FC011082118212821382DB0130
:1007900020E030E04D9150E0022E02C0440F551F82
:1007A0000A94E2F7052E000C660B770BC080D1800F
:1007B000E280F3804C295D296E297F294083518393
:1007C00062837383285F3F4F2032310519F7FF9012
:1007D000EF90DF90CF9008958F929F92AF92BF924B
:1007E000CF92DF92EF92FF920F931F93CF93DF93FD
:1007F00000D000D0CDB7DEB77C018B01FB01819129
:10080000BF01F7018283CE0101960E94BE03898158
:100810009A81AB81BC814C015D01F5E08F0E911C8A
:10082000A11CB11C680125E0C20ED11CA601401B11
:10083000510B60E070E0481559056A057B0548F4E6
:10084000F60141916F019F0122503109F901408366
:10085000EDCFF801E80FF91F14820C5F1F4FF7016D
:100860001483038305960F900F900F900F90DF91E4
:10087000CF911F910F91FF90EF90DF90CF90BF909D
:10088000AF909F908F9008954F925F926F927F925A
:100890008F929F92AF92BF92CF92DF92EF92FF9290
:1008A0000F931F93CF93DF93CDB7DEB72C970FB67F
:1008B000F894DEBF0FBECDBF7C018B01DB018C91B4
:1008C00090E0F7019383828311962C91922B93836E
:1008D00082836E5F7F4FCE0109960E94BE0389849A
:1008E0009A84AB84BC84B501A4014A5F5F4F6F4F0B
:1008F0007F4FF8013696CF01801B910BA0E0B0E04E
:1009000084179507A607B70728F48191DF0112978E
:100910008C93F1CFF801E80DF91D1582C8010596F9
:10092000D70115969C938E931497B4016A5F7F4FFD
:10093000600F711FCE0105960E94BE03BAE08B0EB8
:10094000911C4D815E816F8178852401092C000CFA
:1009500066087708440E551E661E771EF801E80DDE
:10096000F91DCF01801B910BA0E0B0E08415950527
:10097000A605B70528F48191DF0112978C93F1CF7A
:100980006401C40ED51EB8016C0D7D1DFB013197AD
:100990001082C4010197800F911FF701978386830E
:1009A000CE0101960E94BE03A6014C5F5F4F4980B5
:1009B0005A806B807C804A01052E000CAA08BB0877
:1009C000840C951CA61CB71CF801E40FF51F9F01B1
:1009D000201B310BC901A0E0B0E088159905AA05DC
:1009E000BB0528F48191DF0112978C93F0CFCA01E7
:1009F000840D951DF801E80FF91FDF0111971C9276
:100A00009A0121503109020F131FD70119961C9327
:100A10000E9318972181428150E060E070E0BA01A6
:100A200055274427522B2081422B2381722BF7011B
:100A3000428753876487758704962C960FB6F8947F
:100A4000DEBF0FBECDBFDF91CF911F910F91FF9001
:100A5000EF90DF90CF90BF90AF909F908F907F905E
:100A60006F905F904F9008952F923F924F925F92B8
:100A70006F927F928F929F92AF92BF92CF92DF92AE
:100A8000EF92FF920F931F93CF93DF93CDB7DEB713
:100A900028970FB6F894DEBF0FBECDBF8C015B0167
:100AA000DB018C9111969C9111971296CC90129724
:100AB000D12CE12CF12C7601DD24CC24D92AC82AB2
:100AC00013968C91F82AF80182819381A481B581D3
:100AD0008C159D05AE05BF0570F4B601660F771F36
:100AE000660F771F828593850E940D0ED8011B9695
:100AF0009C938E931A97F801C282D382E482F58286
:100B0000D5011796C12CD12C7601F4E08F2E912CB3
:100B100098012A5F3F4FF8014281538164817581BA
:100B2000C4010496C416D506E606F70680F54C9176
:100B300050E060E070E0742F662755274427FD01E0
:100B40003397E0814E2BFD013297E0815E2BFD0152
:100B50003197E0816E2BF801468357836087718758
:100B60004C01089742855385840F951FF9014081F8
:100B7000518162817381FC0140835183628373835D
:100B8000FFEFCF1ADF0AEF0AFF0A1496C4CFF40171
:100B9000EA0DFB1D20813181C280D12CE12CF12C8A
:100BA0007601DD24CC24D32AC22A2381F22A4C01E7
:100BB000F80184859585A685B7858C159D05AE05BC
:100BC000BF0570F4B601660F771F660F771F848923
:100BD00095890E940D0ED80155969C938E9354973B
:100BE000F801C486D586E686F78620E030E0C12C81
:100BF000D12C7601D8015096F8014485558566853B
:100C00007785F501E80DF91DC4010496C416D506D3
:100C1000E606F70648F59180428150E060E070E01A
:100C2000BA0155274427592990804929E3817E2B11
:100C3000F801408B518B628B738B4C0184899589B1
:100C4000FC01E20FF31F4D915D916D917C91139723
:100C50004083518362837383FFEFCF1ADF0AEF0A69
:100C6000FF0A2C5F3F4FC8CF20813181C280D12C39
:100C7000E12CF12C7601DD24CC24D32AC22A238155
:100C8000F22A4C01F80186899789A08DB18D8C15C7
:100C90009D05AE05BF0560F4B601660F771F848D14
:100CA000958D0E940D0ED8015D969C938E935C9756
:100CB000F801C68AD78AE08EF18E412C512C320180
:100CC0001801FAE12F0E311CF80186899789A08D51
:100CD000B18D481659066A067B0608F05AC0B50160
:100CE000680D791DCE0101960E94BE0394012C5F10
:100CF0003F4FC980DA80EB80FC80C901032E000CD5
:100D0000AA0BBB0BAC01BD014C0D5D1D6E1D7F1D03
:100D10004D835E836F837887F501E20FF31FAF0188
:100D20004A195B09CA01A0E0B0E04D815E816F8184
:100D3000788584179507A607B70728F44191DF0146
:100D400012974C93ECCFC9018C0D9D1DF501E80F56
:100D5000F91F31971082215031092A0D3B1DD8010E
:100D60005B963C932E935A974C01C201880F991FB2
:100D70005C96ED91FC915D97E80FF91FD1018D9183
:100D80009C9191838083BFEF4B1A5B0A6B0A7B0AAD
:100D90009BCFC40128960FB6F894DEBF0FBECDBF1F
:100DA000DF91CF911F910F91FF90EF90DF90CF9047
:100DB000BF90AF909F908F907F906F905F904F907B
:100DC0003F902F900895FC01E85BFD4F20E030E05C
:100DD00041915191452B91F4F901EC5DFE4FEE0FDD
:100DE000FF1FE80FF91F7183608323583F4FFB01FA
:100DF000358324839783868381E008952F5F3F4F57
:100E00002931310529F780E00895DC01A658BD4F4E
:100E100020E030E04D915D91452B81F4F901E35CD8
:100E2000FE4FEE0FFF1FE80FF91F718360832C59EF
:100E30003F4FFB013383228381E008952F5F3F4FB3
:100E40002931310539F780E00895E4E9F3E0448180
:100E5000558166817781828193810E94531210921D
:100E600041061092400610924306109242061092DC
:100E7000470610924606109245061092440662E715
:100E800073E084E993E00E94E30668E673E084E996
:100E900093E00E94E3066EE573E084E993E00E942C
:100EA000E30664E573E084E993E00E94E30666E309
:100EB00073E084E993E00E94050768E273E084E947
:100EC00093E00E9405076AE173E084E993E00E94E1
:100ED00005076CE073E084E993E00E94050742E0B7
:100EE00050E060E271E082E00E94930D42E050E049
:100EF0006AE271E083E00E94930D42E050E064E317
:100F000071E084E00E94930D42E050E06EE371E0F6
:100F100085E00C94930D0F931F93CF93DF93CDB780
:100F2000DEB72A970FB6F894DEBF0FBECDBF8C0197
:100F30008DEA92E09A8389831B821C821D821E8225
:100F40001F82188619861A86D801ED91FC910190AE
:100F5000F081E02DAE014F5F5F4F6AE070E0C801A5
:100F600009950E946D10F8016087718782879387C9
:100F70002A960FB6F894DEBF0FBECDBFDF91CF919A
:100F80001F910F9108954F925F926F927F92AF924F
:100F9000BF92CF92DF92EF92FF920F931F93CF9366
:100FA000DF93CDB7DEB72E970FB6F894DEBF0FBE36
:100FB000CDBF8C0189EB92E09A8389831C821B82CE
:100FC0008CE292E09E838D8398878F839A878987AE
:100FD0001B861C861D861E86680188EBC81A8DEF4D
:100FE000D80A7801A6E8EA1AADEFFA0A98E1492E84
:100FF00055245394612C712CD601ED91FC913097BE
:10100000B9F1848195819C838B83808191819E83BA
:101010008D8382819381DC01ED91FC910480F581C7
:10102000E02D099598878F83D601ED91FC918281FF
:101030009381DC01ED91FC910680F781E02D09950B
:101040009A8789874B865C866D867E86F8018081CB
:101050009181F601A081B18118966D917C911997CB
:10106000DC01ED91FC91AE014F5F5F4FC801099526
:10107000B2E0CB0ED11CCE14DF0409F0BDCF680165
:10108000E4E5CE1AEDEFDE0A88E1482E55245394AC
:10109000612C712CF701A081B1811097E1F11296BA
:1010A0008D919C9113979C838B8314968D919C9129
:1010B00015979E838D83ED91FC9111970480F581A6
:1010C000E02DCD01099598878F83D7018D919C9153
:1010D000DC01ED91FC910680F781E02D09959A875E
:1010E00089874B865C866D867E86D801ED91FC9162
:1010F000A080B180F70180819181DC01ED91FC91AC
:101100000280F381E02D0995AE014F5F5F4FBC0176
:10111000C801F5010995F2E0EF0EF11CEC14FD0495
:1011200009F0B8CFF801EA54FD4F81E080832E9694
:101130000FB6F894DEBF0FBECDBFDF91CF911F91E8
:101140000F91FF90EF90DF90CF90BF90AF907F9086
:101150006F905F904F9008958F929F92AF92BF9241
:10116000CF92DF92EF92FF920F931F93CF93DF9373
:10117000CDB7DEB72A970FB6F894DEBF0FBECDBF4E
:101180008C015B018DEA92E09A8389831B821C8229
:101190001D821E821F82188619861A860E946D1073
:1011A000F801C084D184E284F3849B01AC012C1942
:1011B0003D094E095F0969017A01B501CE01019629
:1011C0000E94A20088EE882E83E0982EA12CB12CDC
:1011D000C701B601A50194010E949D13CB80DC805C
:1011E000ED80FE80C20ED31EE41EF51ECB82DC8293
:1011F000ED82FE829B01AC0160E472E48FE090E03E
:101200000E947913CF80D884E984FA84DC01CB0171
:101210008C0D9D1DAE1DBF1D8F839887A987BA8732
:101220000E946D10CB80DC80ED80FE8031E0C31A1F
:10123000D108E108F108A50194010E949D13C21A8A
:10124000D30AE40AF50AF801C486D586E686F7864D
:10125000CF80D884E984FA84F6E3DF1AF5E6EF0A52
:10126000F4ECFF0A9B01AC0160E472E48FE090E0D3
:101270000E947913C61AD70AE80AF90AF801C08A47
:10128000D18AE28AF38AB801605F7F4FC8010C9669
:101290000E944B130E946D10F801E554FD4F6083CE
:1012A0007183828393832A960FB6F894DEBF0FBEB4
:1012B000CDBFDF91CF911F910F91FF90EF90DF9005
:1012C000CF90BF90AF909F908F9008952F923F92B4
:1012D0004F925F926F927F928F929F92AF92BF9246
:1012E000CF92DF92EF92FF920F931F93CF93DF93F2
:1012F000CDB7DEB760970FB6F894DEBF0FBECDBF97
:10130000988B8F870E946D104B015C012F85388967
:1013100025543D4F3E832D83F90180819181A28127
:10132000B381A5019401281B390B4A0B5B0BDA0131
:10133000C901893F9A42A105B10528F0EF85F889D6
:10134000EA54FD4F10820F85188904551D4FD801AE
:101350008D919C91892B81F0EF85F889E154FD4FA7
:1013600080819181A281B38188159905AA05BB0569
:1013700018F4F801118210826F847888FCE46F1AE7
:10138000FDEF7F0A2F85388920553D4F3A83298309
:10139000CF84D88838E1C30ED11C4F8558894A5470
:1013A0005D4F58874F832F8538892C533D4F3A879F
:1013B00029874F8558894D535D4F5C874B87EF8454
:1013C000F88852E5E51A5DEFF50A2F8538892E5425
:1013D0003D4F3C832B834F85588941545D4F5E8739
:1013E0004D871401250154E1250E311C411C511C6F
:1013F000EF85F88984899589A689B789892B8A2BF5
:101400008B2B89F4AF85B88912968D919C91139797
:10141000DC01ED91FC910680F781E02D09959C019E
:1014200097FF15C037C10E946D10DC01CB018819F0
:101430009909AA09BB09EF85F88924893589468964
:101440005789281739074A075B07E0F64BC1D301D4
:101450008D919C911197820F931F8D939C93F8010E
:101460004081518147305105D9F4AB81BC818D91C8
:101470009C911197AC014F5F5F4F4D935C93EF854B
:10148000F889E80FF91F208FF7018081918101977A
:1014900091838083892B09F0ABCF88E090E02FC047
:1014A0004115510521F52F3F310569F481E090E0A8
:1014B000F80191838083AD85BE852D923D924D923A
:1014C0005C92139795CF0E946D10DC01CB018819B7
:1014D0009909AA09BB0989389341A105B10508F406
:1014E00087CFEF85F889EA54FD4F1082FBC0413069
:1014F0005105B1F42E3F310531F482E090E0D8017E
:101500008D939C9375CFF80111821082AF81B885BD
:101510008C9181116DCF8F8598890E948B0768CF40
:101520004230510569F4F70131832083AB81BC81DE
:101530001D921C9283E090E0F801918380832EC07D
:101540004330510561F4322F2227F70180819181C8
:10155000280F391F3183208384E090E0D0CF4430BE
:10156000510581F460E071E00E9489138F3F91057D
:1015700031F485E090E0F8019183808339CF1182C6
:10158000108236CF4530510569F4E981FA81318303
:101590002083E6E0F0E0D801ED93FC93D3012D9396
:1015A0003C9326CF4630510599F4322F2227E9810A
:1015B000FA8180819181280F391F31832083E7E0F0
:1015C000F0E0D801ED93FC93D7018D919C9162CF0F
:1015D0004830510509F00CCFF8011182108260E00B
:1015E00071E00E9489138F3F910509F001CFA98115
:1015F000BA818D919C910097C9F48F8598890E943A
:101600008B078F8598890E94C307EF85F889E95475
:10161000FD4F80829182A282B382ED81FE81808221
:101620009182A282B3828FEF9FEF61C08A309105D1
:1016300031F4B6018F8598890E94AC08D9CE8630E6
:10164000910551F4B60189859A850E94340581E09F
:10165000AB85BC858C93CCCE8B30910521F4EF818A
:10166000F8851082C5CEFC01E752FF4FEE0FFF1F39
:101670002F853889E20FF31F80819181009709F44B
:10168000B7CEDC01ED91FC910190F081E02DB60127
:101690000995AECEEF85F889EA54FD4F8081882305
:1016A00021F10F85188909541D4FF801808191811E
:1016B000A281B381A5019401281B390B4A0B5B0B56
:1016C000DA01C901853C9940A105B10570F08F850B
:1016D00098890E948B07D8018D929D92AD92BC9201
:1016E000139703C08EEF9FEF02C080E090E06096FA
:1016F0000FB6F894DEBF0FBECDBFDF91CF911F9123
:101700000F91FF90EF90DF90CF90BF90AF909F90A0
:101710008F907F906F905F904F903F902F900895A3
:10172000809192039091930390938B0380938A030B
:101730008091900390919103909387038093860307
:1017400080918E0390918F03909383038093820303
:1017500080918C0390918D0390937F0380937E03FF
:1017600068E873E082E793E00E94110264E873E0A6
:1017700088E693E00E94110260E873E08EE593E052
:101780000E9411026CE773E084E593E00E9411026D
:1017900084E993E00E9466096AE070E080E090E0EE
:1017A0000C949E100F931F93CF93DF9300D000D023
:1017B000CDB7DEB789EE92E09093950380939403C2
:1017C00083E896E0909397038093960380E091EEF0
:1017D000A0E0B0E08093980390939903A0939A03BC
:1017E000B0939B0310924A0681ED92E090935906C4
:1017F0008093580610925A0610925B0610925C066F
:1018000010925D06109263061092620610926406B2
:1018100010926506109266061092670610926D0689
:1018200010926C0610926E0610926F06109270065F
:10183000109271061092750610927406ECEDF5E0A8
:101840001192119286E0EE30F807D1F7EEE0F6E063
:101850001192119286E0E034F807D1F7ECEAF3E058
:10186000119284E0E43CF807D9F7E4ECF4E011923B
:1018700085E0EC3DF807D9F71092A8031092A90370
:101880001092AA031092AB0310929303109292034A
:10189000109291031092900310928F0310928E0376
:1018A00010928D0310928C030DED12E010938903BA
:1018B0000093880310928B0310928A031093850380
:1018C0000093840310928703109286031093810380
:1018D00000938003109283031092820310937D0380
:1018E00000937C0310927F0310927E038DE292E0BE
:1018F000909373038093720388E893E09093750349
:101900008093740310927B0310927A0388E392E031
:10191000909369038093680384E893E090936B034A
:1019200080936A03109271031092700383E492E033
:1019300090935F0380935E0380E893E0909361034C
:101940008093600310926703109266038EE492E026
:1019500090935503809354038CE793E0909357033F
:101960008093560310925D0310925C0362E070E076
:10197000CE0103960E94230263E070E0CE0101963F
:101980000E94230289819A812B813C8130935103EB
:1019900020935003909353038093520364E070E0CC
:1019A000CE0103960E94230265E070E0CE0101960D
:1019B0000E94230289819A812B813C8130934D03BF
:1019C00020934C0390934F0380934E0366E070E0A6
:1019D000CE0103960E94230267E070E0CE010196DB
:1019E0000E94230289819A812B813C813093490393
:1019F0002093480390934B0380934A036DE270E079
:101A0000CE0103960E9423026EE270E0CE010196A1
:101A10000E94230289819A812B813C813093450366
:101A200020934403909347038093460323EF32E0CF
:101A3000309337032093360310933D0300933C0308
:101A400010923F0310923E038CE191E0909341038A
:101A50008093400381E090E090934303809342039E
:101A600049E552E050933B0340933A0330932903F6
:101A70002093280310932F0300932E031092310319
:101A8000109230034DE151E0509333034093320301
:101A9000909335038093340346E652E050932D0330
:101AA00040932C0330931B0320931A0310932103BC
:101AB0000093200310922303109222034EE151E081
:101AC0005093250340932403909327038093260388
:101AD00043E752E050931F0340931E0330930D03DE
:101AE00020930C0310931303009312031092150319
:101AF000109214032FE131E0309317032093160363
:101B0000909319038093180380E892E09093110357
:101B1000809310030F900F900F900F90DF91CF9153
:101B20001F910F9108958230E8F4E82FF0E0EE0F56
:101B3000FF1FEA58F94F71836083813041F0809133
:101B400069008C7F482B40936900E89A0895809142
:101B50006900440F551F440F551F837F482B409346
:101B60006900E99A08951F920F920FB60F921124FF
:101B70002F933F934F935F936F937F938F939F9395
:101B8000AF93BF93EF93FF93809176069091770682
:101B9000892B29F0E0917606F09177060995FF915F
:101BA000EF91BF91AF919F918F917F916F915F91D5
:101BB0004F913F912F910F900FBE0F901F9018954E
:101BC0001F920F920FB60F9211242F933F934F93B2
:101BD0005F936F937F938F939F93AF93BF93EF9395
:101BE000FF938091780690917906892B29F0E091F6
:101BF0007806F09179060995FF91EF91BF91AF9129
:101C00009F918F917F916F915F914F913F912F9114
:101C10000F900FBE0F901F9018956F927F928F922A
:101C20009F92AF92BF92CF92DF92EF92FF920F936B
:101C30001F93CF93DF93EC01009789F4CB01DF91E1
:101C4000CF911F910F91FF90EF90DF90CF90BF90B9
:101C5000AF909F908F907F906F900C94F60EFC0148
:101C6000E60FF71F9C0122503109E217F30708F431
:101C7000ACC0D9010D911C91119706171707B0F050
:101C80000530110508F49FC0C8010497861797070F
:101C900008F499C002501109061B170B0193119308
:101CA0006D937C93CF010E948B0F8DC05B01A01AB6
:101CB000B10A4C01800E911EA0912F07B091300700
:101CC00040E050E0E12CF12C109709F44AC0A8152F
:101CD000B905D1F56D907C901197630182E0C80E33
:101CE000D11CCA14DB0480F1A3014A195B096A0103
:101CF00082E0C80ED11C1296BC9012971396AC913C
:101D0000B5E0CB16D10440F0B282A3835183408367
:101D1000D9016D937C930AC00E5F1F4FC301800FE2
:101D2000911FF90191838083EB2DFA2FE114F104C7
:101D300031F0D7011396FC93EE93129744C0F093C1
:101D40003007E0932F073FC08D919C911197481762
:101D5000590708F4AC017D0112960D90BC91A02D9D
:101D6000B3CF80912D0790912E0788159905E1F446
:101D700046175707C8F48091000190910101009720
:101D800041F48DB79EB74091040150910501841B29
:101D9000950BE817F907C8F4F0932E07E0932D0789
:101DA000F901718360830FC0CB010E94F60E7C01A4
:101DB000009759F0A801BE010E94F313CE010E94C2
:101DC0008B0FC70104C0CE0102C080E090E0DF911C
:101DD000CF911F910F91FF90EF90DF90CF90BF9028
:101DE000AF909F908F907F906F900895CF93DF93E7
:101DF0008230910510F482E090E0E0912F07F0919D
:101E0000300720E030E0C0E0D0E0309711F14081B1
:101E1000518148175907C0F04817590761F482816A
:101E20009381209719F09B838A832BC0909330076E
:101E300080932F0726C02115310519F0421753074B
:101E400018F49A01BE01DF01EF010280F381E02D59
:101E5000DCCF2115310509F1281B390B2430310560
:101E600090F412968D919C9113976115710521F054
:101E7000FB019383828304C09093300780932F07E4
:101E8000FD01329644C0FD01E20FF31F819391934F
:101E9000225031092D933C933AC020912D07309167
:101EA0002E07232B41F4209102013091030130933E
:101EB0002E0720932D07209100013091010121155B
:101EC000310541F42DB73EB7409104015091050111
:101ED000241B350BE0912D07F0912E07E217F30735
:101EE000A0F42E1B3F0B2817390778F0AC014E5F8A
:101EF0005F4F2417350748F04E0F5F1F50932E0792
:101F000040932D078193919302C0E0E0F0E0CF0170
:101F1000DF91CF9108950F931F93CF93DF93009795
:101F200009F48CC0FC0132971382128200912F07B2
:101F3000109130070115110581F420813181820F44
:101F4000931F20912D0730912E072817390779F517
:101F5000F0932E07E0932D0771C0D80140E050E0C8
:101F6000AE17BF0750F412962D913C911397AD0117
:101F70002115310509F1D901F3CF9D01DA01338330
:101F8000228360817181860F971F8217930769F4FE
:101F9000EC0128813981260F371F2E5F3F4F318397
:101FA00020838A819B8193838283452B29F4F0933C
:101FB0003007E0932F0742C01396FC93EE931297DD
:101FC000ED01499159919E01240F351FE217F30746
:101FD00071F480819181840F951F029611969C93D4
:101FE0008E938281938113969C938E931297E0E057
:101FF000F0E0D80112968D919C911397009719F0FB
:10200000F8018C01F6CF8D919C9198012E5F3F4F86
:10201000820F931F20912D0730912E072817390723
:1020200069F4309729F41092300710922F0702C0FC
:102030001382128210932E0700932D07DF91CF9108
:102040001F910F9108951F920F920FB60F921124B6
:102050002F933F938F939F93AF93BF9380917B0672
:1020600090917C06A0917D06B0917E0630917A0613
:1020700023E0230F2D3720F40196A11DB11D05C0CB
:1020800026E8230F0296A11DB11D20937A068093A6
:102090007B0690937C06A0937D06B0937E0680918C
:1020A0007F0690918006A0918106B09182060196EC
:1020B000A11DB11D80937F0690938006A093810699
:1020C000B0938206BF91AF919F918F913F912F91D5
:1020D0000F900FBE0F901F9018952FB7F894609136
:1020E0007B0670917C0680917D0690917E062FBFC5
:1020F00008953FB7F89480917F0690918006A09153
:102100008106B091820626B5A89B05C02F3F19F025
:102110000196A11DB11D3FBFBA2FA92F982F882767
:10212000820F911DA11DB11DBC01CD0142E0660FC2
:10213000771F881F991F4A95D1F70895CF92DF9294
:10214000EF92FF92CF93DF936B017C010E94791095
:10215000EB01C114D104E104F10479F00E9479107B
:102160006C1B7D0B683E7340A0F381E0C81AD10858
:10217000E108F108C851DC4FECCFDF91CF91FF901F
:10218000EF90DF90CF900895789484B5826084BDFD
:1021900084B5816084BD85B5826085BD85B581606B
:1021A00085BDEEE6F0E0808181608083E1E8F0E0CB
:1021B0001082808182608083808181608083E0E8FA
:1021C000F0E0808181608083E1EBF0E080818460D9
:1021D0008083E0EBF0E0808181608083EAE7F0E0DB
:1021E000808184608083808182608083808181603F
:1021F00080838081806880831092C1000895CF938E
:10220000DF9390E0FC01E859FF4F2491FC01E45872
:10221000FF4F8491882361F190E0880F991FFC01A2
:10222000E656FF4FC591D491FC01E057FF4FA591B1
:10223000B491611109C09FB7F894888120958223D9
:102240008883EC912E230BC0623061F49FB7F89421
:102250003881822F809583238883EC912E2B2C93B9
:102260009FBF06C08FB7F894E8812E2B28838FBFBD
:10227000DF91CF910895FC0124853585F901E05C5B
:10228000FF4F80819181329620813181821B930B97
:102290008F7399270895DC011C96ED91FC911D9791
:1022A000DF01A05CBF4F2D913C91119712968D914B
:1022B0009C9111972817390739F08D919C91E80F5F
:1022C000F91F808190E008958FEF9FEF0895FC0142
:1022D000A485B585FD01E05CFF4F208131813296F8
:1022E000808191812817390779F080819181A80F29
:1022F000B91F8C91208131812F5F3F4F2F7333277E
:102300003183208390E008958FEF9FEF0895FC01C3
:1023100081A1882329F0A489B5898C9186FFFBCF00
:1023200011A208950F931F93CF93DF93FC01A6850D
:10233000B7858D01005C1F4FE80188819981019666
:102340008F739927AD014E5B5F4FEA012881398178
:1023500082179307D1F3E80128813981A20FB31FB7
:102360006C93A685B785A05CBF4F11969C938E9306
:10237000A689B7892C9181E090E0078C02C0880F74
:10238000991F0A94E2F7822B8C9381E081A3048841
:10239000F589E02D80818064808381E090E0DF9189
:1023A000CF911F910F91089508951F920F920FB62C
:1023B0000F9211242F934F935F938F939F93EF93DB
:1023C000FF938091C00082FD1CC02091C6008091C7
:1023D000290790912A0701968F73992740912B071F
:1023E00050912C078417950771F0E0912907F0911F
:1023F0002A07E751F94F208390932A0780932907F2
:1024000002C08091C600FF91EF919F918F915F91E3
:102410004F912F910F900FBE0F901F90189583E84A
:1024200096E00E943B11892B11F00C94D411089571
:102430001F920F920FB60F9211242F933F938F93F9
:102440009F93EF93FF932091E5063091E6068091EC
:10245000E7069091E8062817390731F48091C1000A
:102460008F7D8093C10014C0E091E706F091E806EB
:10247000EB55F94F20818091E7069091E80601968F
:102480008F7399279093E8068093E7062093C60000
:10249000FF91EF919F918F913F912F910F900FBEE0
:1024A0000F901F901895CF92DF92EF92FF920F93AB
:1024B0001F93CF93DF93EC016A017B014115514ECD
:1024C0006105710509F1EC89FD8981E090E008A0C2
:1024D00002C0880F991F0A94E2F7808360E079E0D8
:1024E0008DE390E0A70196010E949D1389019A0156
:1024F000015011092109310936952795179507953E
:10250000980101151041A8F0EC89FD89108260E85E
:1025100074E88EE190E0A70196010E949D13DA0114
:10252000C9010197A109B109B695A7959795879516
:102530009C01E889F9893083EA89FB89208319A203
:10254000EE89FF89408181E090E09C010C8C02C003
:10255000220F331F0A94E2F7242B2083EE89FF8990
:1025600040819C010D8C02C0220F331F0A94E2F7B8
:10257000242B2083EE89FF8940819C010E8C02C0B0
:10258000220F331F0A94E2F7242B2083EE89FF8960
:1025900020810F8C02C0880F991F0A94E2F7809562
:1025A00082238083DF91CF911F910F91FF90EF9055
:1025B000DF90CF900895E3E8F6E01382128288EE70
:1025C00093E0A0E0B0E084839583A683B7838FEF88
:1025D00092E09183808389EE96E09587848785EAEF
:1025E00096E09787868785EC90E0918B808B84ECD2
:1025F00090E0938B828B80EC90E0958B848B81ECC8
:1026000090E0978B868B82EC90E0918F808F86ECA8
:1026100090E0938F828F84E0848F83E0858F87E0C2
:10262000868F85E0878F81E080A30895CF92DF9227
:10263000EF92FF920F931F93CF93DF936C01EB0107
:102640007B01E40EF51E00E010E0CE15DF0561F021
:102650006991D601ED91FC910190F081E02DC601C8
:102660000995080F191FF1CFC801DF91CF911F9174
:102670000F91FF90EF90DF90CF9008950E94C410CB
:102680000E942507CFE0D2E10E94900B2097E1F352
:102690000E940F12F9CFCF92DF92EF92FF920F9329
:1026A0001F93CF93DF938C01EB01688179818A813D
:1026B0009B8120E03AEC4AE95BE30E949D13F8011C
:1026C000C080D180E280F380C20ED31EE41EF51ECE
:1026D000C082D182E282F382688379838A839B837A
:1026E000DF91CF911F910F91FF90EF90DF90CF90EE
:1026F0000895DB018F939F930E94BF13BF91AF9109
:10270000A29F800D911DA39F900DB29F900D11244B
:10271000089597FB072E16F4009407D077FD09D093
:102720000E94CA1307FC05D03EF4909581959F4FF7
:102730000895709561957F4F0895A1E21A2EAA1B06
:10274000BB1BFD010DC0AA1FBB1FEE1FFF1FA21761
:10275000B307E407F50720F0A21BB30BE40BF50B5E
:10276000661F771F881F991F1A9469F760957095E7
:10277000809590959B01AC01BD01CF0108950E9409
:10278000E413A59F900DB49F900DA49F800D911D03
:1027900011240895AA1BBB1B51E107C0AA1FBB1F30
:1027A000A617B70710F0A61BB70B881F991F5A95DD
:1027B000A9F780959095BC01CD010895EE0FFF1FFC
:1027C0000590F491E02D0994A29FB001B39FC00140
:1027D000A39F700D811D1124911DB29F700D811D4D
:1027E0001124911D0895FB01DC0102C001900D929E
:0C27F00041505040D8F70895F894FFCFF6
:1027FC000000310780007374645F6D7367732F542E
:10280C00696D65006364373136366337346335354B
:10281C0032633331316662636332666535613762C8
:10282C006332383900726F7373657269616C5F6DF6
:10283C007367732F546F706963496E666F003061F4
:10284C006435316638386663343438393266386307
:10285C003130363834303737363436303035007224
:10286C006F7373657269616C5F6D7367732F4C6FF7
:10287C006700313161626437333163323539333358
:10288C003236316364363138336264313264363215
:10289C003935003966306539386264613635393816
:1028AC00313938366464663533616661376134308A
:1028BC00653439007374645F6D7367732F496E747C
:1028CC003136003835323435383665333466626427
:1028DC003763623163303863356635663163613036
:1028EC00653537004D6573736167652066726F6D72
:1028FC00206465766963652064726F707065643AF4
:10290C00206D657373616765206C617267657220F9
:10291C007468616E206275666665722E006D6F74E8
:10292C006F72302F656E63006D6F746F72312F652F
:10293C006E63006D6F746F72322F656E63006D6F16
:10294C00746F72332F656E63006D6F746F72302FFE
:10295C006D6F746F72006D6F746F72312F6D6F7459
:10296C006F72006D6F746F72322F6D6F746F7200B7
:10297C006D6F746F72332F6D6F746F7200726F7333
:10298C0073657269616C5F6D7367732F52657175D6
:10299C00657374506172616D00000000007E00A2CE
:1029AC0000E800EB00000000003F034404EE00F1DF
:1029BC0000000000001303EC03F400F7000000001B
:1029CC000047023405FA00FD000000000000010978
:1029DC000116011901000000006C01660967010075
:1029EC0000000048015D01610164010000000092DB
:0C29FC001116133B1167114B11871100DD
:00000001FF
