:100000000C9444010C9475010C9475010C947501C9
:100010000C9475010C9475010C9475010C94750188
:100020000C9475010C9475010C9475010C94750178
:100030000C9475010C9475010C9475010C94750168
:100040000C9475010C9475010C9475010C94750158
:100050000C9475010C9475010C9475010C945A075D
:100060000C9475010C94F8020C94E8030C9475013F
:100070000C9475010C9475010C9475010C94750128
:100080000C9475010C9475010C9475010C94750118
:100090000C942C030C9427040C9475010C9475019A
:1000A0000C9475010C9475010C9475010C947501F8
:1000B0000C9475010C9475010C9475010C947501E8
:1000C0000C9475010C9475010C9475010C946003EB
:1000D0000C9466040C9475010C9494030C94A50480
:1000E0000C947501A401A7019A019E01DE01AB01E8
:1000F000AF01B501B901BD01C301C701CB01DE01EB
:10010000D101D501D9010C94B9010C94C7010C940B
:10011000D1010C94DE010C9470020C943E060C94F8
:100120006C050C9490020C94A7010C94CB010C94D8
:1001300044020C94AB010C94AF010C949A010C9402
:10014000D5010C94BD010C94C7030C9454020C947B
:100150009B020C94B5010C949E010C94D9010C9453
:10016000A4010C94C3010000090A02080B0C0D073E
:100170000603040100000000000000000000000071
:10018000000000000000000000000000000000006F
:10019000000011100F00000000000000000000002F
:1001A000000000000000000000000000010210201C
:1001B000200808102040102040800201020108049D
:1001C0000201010204081020408080402010080431
:1001D000020180040201804020100804020108048A
:1001E00002010102040810204080010204081020CE
:1001F00040800505050507050808080802020202F7
:100200000A0A0808040404040101010101010101B2
:100210000303030303030303040707070C0C0C0C7D
:100220000C0C0C0C02020202060606060606060666
:100230000B0B0B0B0B0B0B0B0000200023002600FD
:1002400029002C002F0032000001000003010601EC
:10025000090100002200250028002B002E0031009B
:10026000340002010000050108010B01000021001B
:10027000240027002A002D00300033000101000077
:10028000040107010A016C0511241FBECFEFD1E262
:10029000DEBFCDBF00E00CBF12E0A0E0B2E0E4E6BC
:1002A000F0E100E00BBF02C007900D92A031B10752
:1002B000D9F724E0A0E1B2E001C01D92A13CB20751
:1002C000E1F711E0C4E4D1E000E006C021970109A4
:1002D000802FFE010E942808C334D10780E0080760
:1002E000A9F70E944D070C9430080C94000062E0BE
:1002F00080E00E94DF0140E855E260E070E086E7C0
:1003000092E00C94E40482E00E941B024AE050E078
:10031000BC0186E792E00C94360790E0FC0131972F
:10032000E131F10508F04AC08827EE58FF4F8F4FA2
:100330000C942808809180008F7703C08091800002
:100340008F7D80938000089584B58F7702C084B537
:100350008F7D84BD08958091B0008F7703C0809118
:10036000B0008F7D8093B0000895809190008F77CA
:1003700007C0809190008F7D03C080919000877F9F
:100380008093900008958091A0008F7707C080919E
:10039000A0008F7D03C08091A000877F8093A00084
:1003A0000895809120018F7707C0809120018F7D73
:1003B00003C080912001877F809320010895CF930F
:1003C000DF9390E0FC01E455FE4F2491FC01EE50D8
:1003D000FE4F8491882361F190E0880F991FFC0102
:1003E000E459FD4FC591D491FC01EE5AFD4FA59102
:1003F000B491611109C09FB7F89488812095822338
:100400008883EC912E230BC0623061F49FB7F8947F
:100410003881822F809583238883EC912E2B2C9317
:100420009FBF06C08FB7F894E8812E2B28838FBF1B
:10043000DF91CF910895CF93DF93282F30E0F9011A
:10044000EA59FE4F8491F901E455FE4FD491F90128
:10045000EE50FE4FC491CC2391F081110E948D018A
:10046000EC2FF0E0EE0FFF1FE85CFD4FA591B4917B
:10047000EC91ED2381E090E021F480E002C080E087
:1004800090E0DF91CF910895FC0124853585F90135
:10049000E05CFF4F80819181329620813181821B07
:1004A000930B8F7399270895DC011C96ED91FC91B5
:1004B0001D97DF01A05CBF4F2D913C9111971296C3
:1004C0008D919C9111972817390739F08D919C9146
:1004D000E80FF91F808190E008958FEF9FEF089556
:1004E000FC01A485B585FD01E05CFF4F20813181D1
:1004F0003296808191812817390779F08081918126
:10050000A80FB91F8C91208131812F5F3F4F2F732E
:1005100033273183208390E008958FEF9FEF089574
:10052000FC0181A1882329F0A489B5898C9186FFDB
:10053000FBCF11A208950F931F93CF93DF93FC017C
:10054000A685B7858D01005C1F4FE80188819981E0
:1005500001968F739927AD014E5B5F4FEA012881A9
:10056000398182179307D1F3E80128813981A20FDD
:10057000B31F6C93A685B785A05CBF4F11969C9363
:100580008E93A689B7892C9181E090E0078C02C0F8
:10059000880F991F0A94E2F7822B8C9381E081A344
:1005A0000488F589E02D80818064808381E090E07B
:1005B000DF91CF911F910F910895FB01E05CFF4FF8
:1005C000208131812F5F3F4F2F733327DB01AE5BDB
:1005D000BF4F4D915C912417350741F04081518107
:1005E000DB01A40FB51F8C933183208308950895F8
:1005F0001F920F920FB60F9211240BB60F922F93EA
:100600003F934F935F936F937F938F939F93AF939A
:10061000BF93EF93FF938091C00082FD07C080914C
:10062000C60064E774E00E94DD0202C08091C6004B
:10063000FF91EF91BF91AF919F918F917F916F91BA
:100640005F914F913F912F910F900BBE0F900FBE76
:100650000F901F90189508951F920F920FB60F924A
:1006600011240BB60F922F933F934F935F936F9389
:100670007F938F939F93AF93BF93EF93FF9380915B
:10068000C80082FD07C08091CE006CEE73E00E942E
:10069000DD0202C08091CE00FF91EF91BF91AF913A
:1006A0009F918F917F916F915F914F913F912F918A
:1006B0000F900BBE0F900FBE0F901F9018950895CE
:1006C0001F920F920FB60F9211240BB60F922F9319
:1006D0003F934F935F936F937F938F939F93AF93CA
:1006E000BF93EF93FF938091D00082FD07C080916C
:1006F000D60064E673E00E94DD0202C08091D6005D
:10070000FF91EF91BF91AF919F918F917F916F91E9
:100710005F914F913F912F910F900BBE0F900FBEA5
:100720000F901F90189508951F920F920FB60F9279
:1007300011240BB60F922F933F934F935F936F93B8
:100740007F938F939F93AF93BF93EF93FF9380918A
:10075000300182FD07C0809136016CED72E00E948D
:10076000DD0202C080913601FF91EF91BF91AF9100
:100770009F918F917F916F915F914F913F912F91B9
:100780000F900BBE0F900FBE0F901F90189586E72D
:1007900092E00E944402892B11F00E94F70284E546
:1007A00092E00E944402892B11F00E942B0382E305
:1007B00092E00E944402892B11F00E945F0380E1C5
:1007C00092E00E944402892B11F00C949303089547
:1007D0001F920F920FB60F9211240BB60F922F9308
:1007E0003F938F939F93EF93FF93209170043091E9
:1007F000710480917204909173042817390731F4C1
:100800008091C1008F7D8093C10014C0E09172047B
:10081000F0917304E05DFB4F208180917204909110
:10082000730401968F7399279093730480937204D5
:100830002093C600FF91EF919F918F913F912F914F
:100840000F900BBE0F900FBE0F901F9018951F9228
:100850000F920FB60F9211240BB60F922F933F9366
:100860008F939F93EF93FF932091E8033091E903D7
:100870008091EA039091EB032817390731F48091B6
:10088000C9008F7D8093C90014C0E091EA03F09104
:10089000EB03E855FC4F20818091EA039091EB0334
:1008A00001968F7399279093EB038093EA0320932B
:1008B000CE00FF91EF919F918F913F912F910F90DB
:1008C0000BBE0F900FBE0F901F9018951F920F92A6
:1008D0000FB60F9211240BB60F922F933F938F9365
:1008E0009F93EF93FF932091600330916103809178
:1008F0006203909163032817390731F48091D10086
:100900008F7D8093D10014C0E0916203F091630366
:10091000E05EFC4F20818091620390916303019619
:100920008F73992790936303809362032093D6007B
:10093000FF91EF919F918F913F912F910F900BBE5F
:100940000F900FBE0F901F9018951F920F920FB629
:100950000F9211240BB60F922F933F938F939F9377
:10096000EF93FF932091D8023091D9028091DA025F
:100970009091DB022817390731F4809131018F7D86
:100980008093310114C0E091DA02F091DB02E85665
:10099000FD4F20818091DA029091DB0201968F73E6
:1009A00099279093DB028093DA0220933601FF911E
:1009B000EF919F918F913F912F910F900BBE0F90D0
:1009C0000FBE0F901F901895CF92DF92EF92FF927B
:1009D0000F931F93CF93DF93EC016A017B014115C5
:1009E000514E6105710509F1EC89FD8981E090E0C6
:1009F00008A002C0880F991F0A94E2F7808360E084
:100A000079E08DE390E0A70196010E940608890134
:100A10009A01015011092109310936952795179539
:100A20000795980101151041A8F0EC89FD89108205
:100A300060E874E88EE190E0A70196010E94060844
:100A4000DA01C9010197A109B109B695A795979552
:100A500087959C01E889F9893083EA89FB8920839D
:100A600019A2EE89FF89408181E090E09C010C8C05
:100A700002C0220F331F0A94E2F7242B2083EE8951
:100A8000FF8940819C010D8C02C0220F331F0A9404
:100A9000E2F7242B2083EE89FF8940819C010E8C94
:100AA00002C0220F331F0A94E2F7242B2083EE8921
:100AB000FF8920810F8C02C0880F991F0A94E2F7EA
:100AC000809582238083DF91CF911F910F91FF90BA
:100AD000EF90DF90CF900895CF92DF92EF92FF9248
:100AE000E6E7F2E01382128288EEC82E83E0D82E69
:100AF000E12CF12CC482D582E682F78264E072E0B8
:100B00007183608384E794E09587848780E394E031
:100B10009787868785EC90E0918B808B84EC90E0C2
:100B2000938B828B80EC90E0958B848B81EC90E0B2
:100B3000978B868B82EC90E0918F808F86EC90E093
:100B4000938F828F44E0448F33E0358F27E0268FE8
:100B500095E0978F81E080A3E4E5F2E013821282B2
:100B6000C482D582E682F78271836083ACEEB3E003
:100B7000B587A487A8EAB3E0B787A687ADECB0E055
:100B8000B18BA08BACECB0E0B38BA28BA8ECB0E047
:100B9000B58BA48BA9ECB0E0B78BA68BAAECB0E028
:100BA000B18FA08FAEECB0E0B38FA28F448F358FA2
:100BB000268F978F80A3E2E3F2E013821282C48231
:100BC000D582E682F78271836083A4E6B3E0B587BD
:100BD000A487A0E2B3E0B787A687A5EDB0E0B18B0C
:100BE000A08BA4EDB0E0B38BA28BA0EDB0E0B58BF1
:100BF000A48BA1EDB0E0B78BA68BA2EDB0E0B18FD6
:100C0000A08FA6EDB0E0B38FA28F448F358F268FD3
:100C1000978F80A3E0E1F2E013821282C482D58232
:100C2000E682F782718360836CED72E0758764877A
:100C300068E972E07787668765E371E0718B608BA6
:100C400064E371E0738B628B60E371E0758B648B9E
:100C500061E371E0778B668B62E371E0718F608F87
:100C600066E371E0738F628F448F358F268F978F85
:100C700080A3FF90EF90DF90CF900895CF92DF9206
:100C8000EF92FF920F931F93CF93DF936C01EB01D1
:100C90007B01E40EF51E00E010E0CE15DF0561F0EB
:100CA0006991D601ED91FC910190F081E02DC60192
:100CB0001995080F191FF1CFC801DF91CF911F912E
:100CC0000F91FF90EF90DF90CF900895611571051F
:100CD00079F0FB0101900020E9F73197AF01461B45
:100CE000570BDC01ED91FC910280F381E02D19940A
:100CF00080E090E00895DC01ED91FC910190F0819D
:100D0000E02D19940F931F93CF93DF93EC016DE0C7
:100D10000E947B068C016AE0CE010E947B06800F58
:100D2000911FDF91CF911F910F9108958F929F9204
:100D3000AF92BF92CF92DF92EF92FF920F931F93E9
:100D4000CF93DF93CDB7DEB7A1970FB6F894DEBF90
:100D50000FBECDBF6C01142FE52FCB01022F19A2BE
:100D6000223008F40AE07E0121E2E20EF11C802E1E
:100D7000912CA12CB12C612F7E2FA50194010E94F2
:100D80000608029F1019112481E0E81AF1081A30B0
:100D900014F4105D01C0195CF7011083122FE32FCA
:100DA000CA01232B242B252B31F7B701C6010E9442
:100DB0006606A1960FB6F894DEBF0FBECDBFDF91D9
:100DC000CF911F910F91FF90EF90DF90CF90BF9048
:100DD000AF909F908F900895CF92DF92EF92FF9205
:100DE0000F931F93CF93DF93EC016A017B012115D1
:100DF000310579F4E881F9810190F081E02D642FCB
:100E0000DF91CF911F910F91FF90EF90DF90CF90E6
:100E100019942A303105E9F477FF1AC06DE20E9477
:100E20007B068C0144275527BA014C195D096E09D0
:100E30007F092AE0CE010E949606800F911FDF9164
:100E4000CF911F910F91FF90EF90DF90CF90089579
:100E50002AE0B701A601CE01DF91CF911F910F913A
:100E6000FF90EF90DF90CF900C9496060F931F9316
:100E7000CF93DF93EC019A01AB01770F660B770BF1
:100E80000E94EC068C01CE010E948206800F911F09
:100E9000DF91CF911F910F9108950E94A4070E94A6
:100EA0007701C7ECD3E00E9483012097E1F30E9411
:100EB000C703F9CF1F920F920FB60F9211242F93F1
:100EC0003F938F939F93AF93BF938091B904909179
:100ED000BA04A091BB04B091BC043091B80423E0E3
:100EE000230F2D3720F40196A11DB11D05C026E862
:100EF000230F0296A11DB11D2093B8048093B9045D
:100F00009093BA04A093BB04B093BC048091BD0439
:100F10009091BE04A091BF04B091C0040196A11DA0
:100F2000B11D8093BD049093BE04A093BF04B09301
:100F3000C004BF91AF919F918F913F912F910F90DE
:100F40000FBE0F901F901895789484B5826084BD71
:100F500084B5816084BD85B5826085BD85B58160BD
:100F600085BDEEE6F0E0808181608083E1E8F0E01D
:100F70001082808182608083808181608083E0E84C
:100F8000F0E0808181608083E1EBF0E0808184602B
:100F90008083E0EBF0E0808181608083E1E9F0E034
:100FA000808182608083808181608083E0E9F0E0DD
:100FB000808181608083E1EAF0E0808182608083CB
:100FC000808181608083E0EAF0E0808181608083BD
:100FD000E1E2F1E0808182608083808181608083B2
:100FE000E0E2F1E0808181608083EAE7F0E08081E7
:100FF000846080838081826080838081816080833F
:101000008081806880831092C1000895A1E21A2E29
:10101000AA1BBB1BFD010DC0AA1FBB1FEE1FFF1F9C
:10102000A217B307E407F50720F0A21BB30BE40BEC
:10103000F50B661F771F881F991F1A9469F7609533
:101040007095809590959B01AC01BD01CF010895ED
:10105000EE0FFF1F881F8BBF0790F691E02D1994AC
:04106000F894FFCF32
:10106400000000009B023E064402700254029002FB
:00000001FF
