:100000000C94D7010C944A110C947B110C94AC11F4
:100010000C94DD110C940E120C943F120C9470127F
:100020000C94A1120C9408020C9408020C9408027F
:100030000C9408020C9408020C9408020C94080218
:100040000C9408020C9408020C9408020C94080208
:100050000C9408020C9408020C9408020C94E81406
:100060000C9408020C9486170C9476180C940802D1
:100070000C9408020C9408020C9408020C940802D8
:100080000C9408020C9408020C9408020C940802C8
:100090000C94BA170C94B5180C9408020C9408022E
:1000A0000C9408020C9408020C9408020C940802A8
:1000B0000C9408020C9408020C9408020C94080298
:1000C0000C9408020C9408020C9408020C94EE178D
:1000D0000C94F4180C9408020C9422180C94331904
:1000E0000C940802401045104A105410CD105E10B8
:1000F00066106E10781082108C109B10A510CD1019
:10010000AF10B910C3102411EE10F61002110F1128
:1001100030113D1102160516F815FC153C1609168E
:100120000D16131617161B162116251629163C1622
:100130002F16331637160C9434030C9440100C947D
:100140003C160C94D2160C94CC1A0C948C100C9473
:100150005E100C9425160C94EA090C9437030C9449
:10016000FC150C94E2160C94F6020C94B3040C9457
:10017000F9020C94FA190C94C6020C94FC020C942B
:10018000F1090C948C050C9424110C94030A0C9422
:1001900054100C94CC020C94E0020C9433160C9482
:1001A00015030C9429170C94FE160C94C3020C949E
:1001B000E4050C94DF040C9405030C9417160C94BE
:1001C000F6100C9437160C9402160C94B9100C947B
:1001D0002F160C94EE100C9405160C94B4020C948B
:1001E000300C0C943C030C944A020C9445100C9473
:1001F000A5100C94C9020C94AF100C9402110C942D
:1002000030110C9431030C942D030C94CD100C94EC
:100210001B160C943D110C9413160C943F090C946E
:1002200021160C94BA020C940F110C9455180C94CE
:1002300082100C94F8150C94660E0C941E170C94F6
:1002400029160C94C3100C94E7030C946E100C94B4
:10025000BD020C9466100C9478100C949B100C94B6
:100260000D160C9412030C9469090C946E020C94F4
:1002700009160C9418030C94D4060C94C0020C9428
:100280002D0A0C94B7020C944A100000090A0208C7
:100290000B0C0D0706030401000000000000000025
:1002A000000000000000000000000000000000004E
:1002B00000000000000011100F000000000000000E
:1002C000000000000000000000000000000000002E
:1002D0000102102020080810204010204080020158
:1002E000020108040201010204081020408080403D
:1002F000201008040201800402018040201008043C
:1003000002010804020101020408102040800102D9
:1003100004081020408005050505070508080808A1
:10032000020202020A0A080804040404010101018D
:100330000101010103030303030303030407070788
:100340000C0C0C0C0C0C0C0C02020202060606062D
:10035000060606060B0B0B0B0B0B0B0B000020000D
:100360002300260029002C002F003200000100008D
:1003700003010601090100002200250028002B00CE
:100380002E003100340002010000050108010B01BC
:1003900000002100240027002A002D003000330037
:1003A00001010000040107010A01660EFA19112477
:1003B0001FBECFEFD1E2DEBFCDBF00E00CBF14E027
:1003C000A0E0B2E0E0EAFDE300E00BBF02C007906E
:1003D0000D92AE33B107D9F72CE0AEE3B4E001C023
:1003E0001D92A935B207E1F711E0C7EDD1E000E0B9
:1003F00006C021970109802FFE010E94D41BC53D34
:10040000D10780E00807A9F70E94F41A0C94CE1EC9
:100410000C940000CF93DF93EC01842F4883598321
:100420006A837B8361E00E943D1661E08A81DF91EF
:10043000CF910C943D160F931F93CF93DF938C01B4
:10044000EB016F3F710509F03CF461307F4F74F0B0
:100450001C161D061CF00CC0CFEFD0E0BE01F80149
:1004600080810E94171060E070E00CC0C1E0DFEFF7
:1004700060E070E0F80180810E94171066277727FE
:100480006C1B7D0BF8018281DF91CF911F910F9141
:100490000C941710DC01FB0112968C91129780834B
:1004A00013968C911397818314968C911497828361
:1004B00015968C911597838316968C911697848345
:1004C00017968C911797858318968C911897868329
:1004D00019968C91878388E090E00895FC01DB01F8
:1004E0004C9150E060E070E04283538364837583F5
:1004F00011968C911197582B428353836483758393
:1005000012968C911297682B428353836483758370
:1005100013968C911397782B42835383648375834E
:1005200014964C91149750E060E070E04683578336
:100530006087718715968C911597582B4683578342
:100540006087718716968C911697682B4683578320
:100550006087718717968C91782B468357836087C5
:10056000718788E090E008958AE192E0089588E23A
:1005700092E0089589E492E0089582E692E0089579
:1005800083E892E0089586E992E0089583EB93E092
:10059000089587EB92E00895FB01DC0112964C91DF
:1005A000129713963C91139714962C9114971596C5
:1005B0008C91408331832283838384E090E008958B
:1005C000FB012181428150E060E070E0BA015527D3
:1005D0004427522B2081422B2381722BFC01428322
:1005E00053836483758384E090E0089588ED92E0FE
:1005F000089589EE92E00895FC0122818381FB0138
:100600002083818382E090E00895FB01218130E026
:10061000322F22274081242BFC013383228382E066
:1006200090E008958AE093E0089589E193E00895C9
:100630000F931F93CF93DF938C01EC012696CE018D
:100640000E94E002D8011C96ED91FC911D97CE010D
:10065000DF91CF911F910F911994FC0186859785A9
:10066000089588ED92E0089589EE92E00895FC01E6
:10067000EA57FB4F80810895CF93DF9389E10E9471
:10068000A916EC0185E10E94A916892B49F08091F9
:10069000CC049091CD04892B61F02097B1F009C072
:1006A0008091CC049091CD04892B79F0209739F179
:1006B0000CC08091C8049091C904A091CA04B09163
:1006C000CB040197A109B1090BC08091C804909196
:1006D000C904A091CA04B091CB040196A11DB11D1B
:1006E0008093C8049093C904A093CA04B093CB0428
:1006F000D093CD04C093CC04DF91CF910895409165
:10070000C8045091C9046091CA047091CB0441504F
:100710005109610971094093C8045093C904609359
:10072000CA047093CB04E4CFCF93DF93AB01EC0109
:10073000AE81BF81ED91FC9111976C817D8101901B
:10074000F081E02DCD01DF91CF911994CF93DF930C
:10075000EC0160E088810E943D1660E08A81DF91B3
:10076000CF910C943D1668ED74E08EEC94E00C94FF
:1007700094038091C8049091C904A091CA04B091D7
:10078000CB049093DB048093DA0408950E94B903AC
:100790000C94B303CF92DF92EF92FF9220E030E00F
:1007A0006A017B01022E04C0F694E794D794C794A3
:1007B0000A94D2F7FC01C192CF01285F3F4F20324B
:1007C000310571F7FF90EF90DF90CF9008954F9231
:1007D0005F926F927F92AF92BF92CF92DF92EF9231
:1007E000FF920F931F93CF93DF93EC017B018A81DC
:1007F000FB0180838B8181838C8182838D818383C4
:10080000DB01179640E050E0BA01E4E0F0E04A80F6
:100810005B806C807D808F010C5F1F4F44155505F8
:1008200066057705C0F48A859B85E80FF91F349724
:10083000D080218192818381FD013397D0823196CE
:100840002083319690838C93F8014F5F5F4F6F4FF9
:100850007F4F1496DCCFEE0DFF1D8C8580838D8538
:1008600081838E8582838F85838380E090E040E062
:1008700050E0BA014C845D846E847F84F701E00F00
:10088000F11F0C5F1F4F4415550566057705B8F439
:10089000AC89BD89A80FB91FCC901196DC90119737
:1008A00012963C91129713962C91C082D18232837A
:1008B00023834F5F5F4F6F4F7F4F0496DBCF8E894F
:1008C00080838F898183888D8283898D8383412C66
:1008D000512C32018E899F89A88DB98D48165906F1
:1008E0006A067B0680F55201AA0CBB1CEC8DFD8DBF
:1008F000EA0DFB1DA081B181FD0101900020E9F707
:1009000031976F01CA1ADB0AA60160E070E0C701E7
:10091000800F911F0E94CA030C5F1F4F8C8D9D8D0D
:10092000FC01EA0DFB1D60817181A601C701800FEA
:10093000911F0E940A1C0C0D1D1DFFEF4F1A5F0A2C
:100940006F0A7F0AC7CFC801DF91CF911F910F9126
:10095000FF90EF90DF90CF90BF90AF907F906F901F
:100960005F904F900895EF92FF920F931F93CF9354
:10097000DF938C017B01EC018A81FB018193AB81C8
:10098000BC81ED0109900020E9F72197CA1BDB0B20
:10099000AE0160E070E0CF010E94CA03F8016381FC
:1009A0007481AE01C70105960E940A1CCE0105960E
:1009B000DF91CF911F910F91FF90EF900895CF920B
:1009C000DF92EF92FF920F931F93CF93DF936C010F
:1009D000EB01FC018281888383818983A481B581B5
:1009E000FD0101900020E9F731978F010A1B1B0BD5
:1009F000A80160E070E0CE0102960E94CA03F601F1
:100A000064817581A801CE0106960E940A1CC80166
:100A10000696F601A681B781FD0101900020E9F755
:100A200031977F01EA1AFB0AA70160E070E08C0FA2
:100A30009D1F0E94CA03065F1F4FF60166817781E2
:100A4000A701CE01800F911F0E940A1C0E0D1F1DD1
:100A5000F601A085B185FD0101900020E9F73197ED
:100A60007F01EA1AFB0AA70160E070E0CE01800F67
:100A7000911F0E94CA030C5F1F4FF60160857185AC
:100A8000A701CE01800F911F0E940A1CC8018E0D84
:100A90009F1DF6016285438534852585C80FD91FC2
:100AA000688349833A832B830496DF91CF911F910A
:100AB0000F91FF90EF90DF90CF900895CF92DF924B
:100AC000EF92FF92FC011082118212821382DB01ED
:100AD00020E030E04D9150E0022E02C0440F551F3F
:100AE0000A94E2F7052E000C660B770BC080D180CC
:100AF000E280F3804C295D296E297F294083518350
:100B000062837383285F3F4F2032310519F7FF90CE
:100B1000EF90DF90CF9008958F929F92AF92BF9207
:100B2000CF92DF92EF92FF920F931F93CF93DF93B9
:100B300000D01F92CDB7DEB77C018B01FB01819104
:100B4000BF01F7018283CE0101960E945E05898173
:100B50009A81AB81BC814C015D01F5E08F0E911C47
:100B6000A11CB11C680125E0C20ED11CA601401BCE
:100B7000510B60E070E0481559056A057B0548F4A3
:100B8000F60141916F019F0122503109F901408323
:100B9000EDCFF801E80FF91F14820C5F1F4FF7012A
:100BA0001483038305960F900F900F900F90DF91A1
:100BB000CF911F910F91FF90EF90DF90CF90BF905A
:100BC000AF909F908F9008954F925F926F927F9217
:100BD0008F929F92AF92BF92CF92DF92EF92FF924D
:100BE0000F931F93CF93DF93CDB7DEB72C970FB63C
:100BF000F894DEBF0FBECDBF7C018B01DB018C9171
:100C000090E0F7019383828311962C91922B93832A
:100C100082836E5F7F4FCE0109960E945E058984B4
:100C20009A84AB84BC84B501A4014A5F5F4F6F4FC7
:100C30007F4FF8013696CF01801B910BA0E0B0E00A
:100C400084179507A607B70728F48191DF0112974B
:100C50008C93F1CFF801E80DF91D1582C8010596B6
:100C6000D70115969C938E931497B4016A5F7F4FBA
:100C7000600F711FCE0105960E945E05BAE08B0ED3
:100C8000911C4D815E816F8178852401092C000CB7
:100C900066087708440E551E661E771EF801E80D9B
:100CA000F91DCF01801B910BA0E0B0E084159505E4
:100CB000A605B70528F48191DF0112978C93F1CF37
:100CC0006401C40ED51EB8016C0D7D1DFB0131976A
:100CD0001082C4010197800F911FF70197838683CB
:100CE000CE0101960E945E05A6014C5F5F4F4980D0
:100CF0005A806B807C804A01052E000CAA08BB0834
:100D0000840C951CA61CB71CF801E40FF51F9F016D
:100D1000201B310BC901A0E0B0E088159905AA0598
:100D2000BB0528F48191DF0112978C93F0CFCA01A3
:100D3000840D951DF801E80FF91FDF0111971C9232
:100D40009A0121503109020F131FD70119961C93E4
:100D50000E9318972181428150E060E070E0BA0163
:100D600055274427522B2081422B2381722BF701D8
:100D7000428753876487758704962C960FB6F8943C
:100D8000DEBF0FBECDBFDF91CF911F910F91FF90BE
:100D9000EF90DF90CF90BF90AF909F908F907F901B
:100DA0006F905F904F9008952F923F924F925F9275
:100DB0006F927F928F929F92AF92BF92CF92DF926B
:100DC000EF92FF920F931F93CF93DF93CDB7DEB7D0
:100DD00028970FB6F894DEBF0FBECDBF8C015B0124
:100DE000DB018C9111969C9111971296CC901297E1
:100DF000D12CE12CF12C7601DD24CC24D92AC82A6F
:100E000013968C91F82AF80182819381A481B5818F
:100E10008C159D05AE05BF0570F4B601660F771FF2
:100E2000660F771F828593850E94D212D8011B9688
:100E30009C938E931A97F801C282D382E482F58242
:100E4000D5011796C12CD12C7601F4E08F2E912C70
:100E500098012A5F3F4FF801428153816481758177
:100E6000C4010496C416D506E606F70680F54C9133
:100E700050E060E070E0742F662755274427FD019D
:100E80003397E0814E2BFD013297E0815E2BFD010F
:100E90003197E0816E2BF801468357836087718715
:100EA0004C01089742855385840F951FF9014081B5
:100EB000518162817381FC0140835183628373831A
:100EC000FFEFCF1ADF0AEF0AFF0A1496C4CFF4012E
:100ED000EA0DFB1D20813181C280D12CE12CF12C47
:100EE0007601DD24CC24D32AC22A2381F22A4C01A4
:100EF000F80184859585A685B7858C159D05AE0579
:100F0000BF0570F4B601660F771F660F771F8489DF
:100F100095890E94D212D80155969C938E9354972E
:100F2000F801C486D586E686F78620E030E0C12C3D
:100F3000D12C7601D8015096F801448555856685F7
:100F40007785F501E80DF91DC4010496C416D50690
:100F5000E606F70648F59180428150E060E070E0D7
:100F6000BA0155274427592990804929E3817E2BCE
:100F7000F801408B518B628B738B4C01848995896E
:100F8000FC01E20FF31F4D915D916D917C911397E0
:100F90004083518362837383FFEFCF1ADF0AEF0A26
:100FA000FF0A2C5F3F4FC8CF20813181C280D12CF6
:100FB000E12CF12C7601DD24CC24D32AC22A238112
:100FC000F22A4C01F80186899789A08DB18D8C1584
:100FD0009D05AE05BF0560F4B601660F771F848DD1
:100FE000958D0E94D212D8015D969C938E935C974A
:100FF000F801C68AD78AE08EF18E412C512C32013D
:101000001801FAE12F0E311CF80186899789A08D0D
:10101000B18D481659066A067B0608F05AC0B5011C
:10102000680D791DCE0101960E945E0594012C5F2A
:101030003F4FC980DA80EB80FC80C901032E000C91
:10104000AA0BBB0BAC01BD014C0D5D1D6E1D7F1DC0
:101050004D835E836F837887F501E20FF31FAF0145
:101060004A195B09CA01A0E0B0E04D815E816F8141
:10107000788584179507A607B70728F44191DF0103
:1010800012974C93ECCFC9018C0D9D1DF501E80F13
:10109000F91F31971082215031092A0D3B1DD801CB
:1010A0005B963C932E935A974C01C201880F991F6F
:1010B0005C96ED91FC915D97E80FF91FD1018D9140
:1010C0009C9191838083BFEF4B1A5B0A6B0A7B0A6A
:1010D0009BCFC40128960FB6F894DEBF0FBECDBFDC
:1010E000DF91CF911F910F91FF90EF90DF90CF9004
:1010F000BF90AF909F908F907F906F905F904F9038
:101100003F902F900895FC01E85EFB4F20E030E017
:1011100041915191452B91F4F901E45FFD4FEE0FA0
:10112000FF1FE80FF91F7183608323583F4FFB01B6
:10113000358324839783868381E008952F5F3F4F13
:101140002931310529F780E008951092CD041092DD
:10115000CC041092C8041092C9041092CA041092D0
:10116000CB046EEC74E08CED94E00E94830880E187
:1011700092E00E94A60341E050E06CE373E082E05D
:101180000E94D6101092DB041092DA040895DC015C
:10119000A65BBB4F20E030E04D915D91452B81F483
:1011A000F901EB5DFD4FEE0FFF1FE80FF91F718393
:1011B00060832C593F4FFB013383228381E00895E4
:1011C0002F5F3F4F2931310539F780E008956AE8F4
:1011D00074E08CED94E00E94C70866E774E08CED43
:1011E00094E00E94C70862E674E08CED94E00E94EF
:1011F000C7086EE474E08CED94E00C94C708ECED45
:10120000F4E04481558166817781828193810E94D7
:101210007219109259091092580910925B09109294
:101220005A0910925F0910925E0910925D0910929E
:101230005C090E94E7080C94A508CF93DF9300D0C7
:101240001F921F92CDB7DEB72BEE33E03A8329838E
:101250006B835D834C83DC01ED91FC910190F08107
:10126000E02DAE014F5F5F4F67E070E019950F9082
:101270000F900F900F900F90DF91CF910895CF9323
:10128000DF93EC016A817B818C819D810E942F1B01
:1012900086E894E00E941B028D818F938C818F934E
:1012A0008B818F938A818F938AE393E09F938F93AF
:1012B0000E94131C0F900F900F900F900F900F90A3
:1012C0004DE353E061E08CED94E0DF91CF910C941D
:1012D0001D09CF92DF92EF92FF920F931F93CF934E
:1012E000DF93EC017B01643671053CF0FE01EA57A7
:1012F000FB4F8081882309F462C0DA01ED91FC91F3
:101300000190F081E02DBE01615E7D4FCA0119950B
:101310008E01085E1D4F2FEFF80120832EEF3196CE
:10132000208331968083319690833196292F280F20
:10133000209520833196E082DE01A25EBD4FFC92B3
:1013400045E050E020E030E0BC016A5F7F4F641769
:10135000750734F0A1912A0F311D4F5F5F4FF7CF12
:101360007C01F8E0EF0EF11C8C0F9D1FFC01E15E8B
:10137000FD4F2095208341E0E41642E0F406B4F4EA
:101380006801C601801B910B8E159F056CF48A8144
:101390009B81D6016D916D01DC01ED91FC91019075
:1013A000F081E02D1995EDCFC7010BC044E453E067
:1013B00063E0CE010E941D098FEF9FEF02C080E025
:1013C00090E0DF91CF911F910F91FF90EF90DF9010
:1013D000CF9008954DE753E061E08CED94E00C94DC
:1013E0001D09FC0162817381848195810E942F1BFC
:1013F0008EE594E00E941B0246E853E061E08CED2C
:1014000094E00C941D09CF93DF93EC016A817B81FA
:101410008C819D810E942F1B82E794E00E941B0219
:101420008D818F938C818F938B818F938A818F9302
:101430008AE393E09F938F930E94131C0F900F9069
:101440000F900F900F900F904DE853E061E08CEDFE
:1014500094E0DF91CF910C941D09CF93DF93EC01C1
:101460006A817B818C819D810E942F1B8AE994E097
:101470000E941B028D818F938C818F938B818F9320
:101480008A818F938AE393E09F938F930E94131C2A
:101490000F900F900F900F900F900F9044E953E032
:1014A00061E08CED94E0DF91CF910C941D090F93D6
:1014B0001F93CF93DF93CDB7DEB72A970FB6F8947B
:1014C000DEBF0FBECDBF8C0183ED93E09A8389838D
:1014D0001B821C821D821E821F82188619861A8614
:1014E000D801ED91FC910190F081E02DAE014F5FAC
:1014F0005F4F6AE070E0C80119950E943215F8014B
:1015000060877187828793872A960FB6F894DEBF2B
:101510000FBECDBFDF91CF911F910F9108954F92D4
:101520005F926F927F92AF92BF92CF92DF92EF92D3
:10153000FF920F931F93CF93DF93CDB7DEB72E9714
:101540000FB6F894DEBF0FBECDBF8C018FED93E0D8
:101550009A8389831C821B828CE793E09E838D8310
:1015600098878F839A8789871B861C861D861E868F
:10157000680188EEC81A8BEFD80A7801A6EBEA1A40
:10158000ABEFFA0A412C92E0592E612C712CD60156
:10159000ED91FC913097B9F1848195819C838B8387
:1015A000808191819E838D8382819381DC01ED9185
:1015B000FC910480F581E02D199598878F83D601E1
:1015C000ED91FC9182819381DC01ED91FC9106808B
:1015D000F781E02D19959A8789874B865C866D8601
:1015E0007E86F80180819181F601A081B1811896F3
:1015F0006D917C911997DC01ED91FC91AE014F5FEB
:101600005F4FC8011995B2E0CB0ED11CCE14DF0498
:1016100009F0BDCF6801E4E8CE1AEBEFDE0A412CF9
:1016200082E0582E612C712CF701A081B1811097B6
:10163000E1F112968D919C9113979C838B83149664
:101640008D919C9115979E838D83ED91FC911197BF
:101650000480F581E02DCD01199598878F83D701FE
:101660008D919C91DC01ED91FC910680F781E02D3C
:1016700019959A8789874B865C866D867E86D80108
:10168000ED91FC91A080B180F70180819181DC0116
:10169000ED91FC910280F381E02D1995AE014F5F31
:1016A0005F4FBC01C801F5011995F2E0EF0EF11C86
:1016B000EC14FD0409F0B8CFF801EA57FB4F81E0C4
:1016C00080832E960FB6F894DEBF0FBECDBFDF919C
:1016D000CF911F910F91FF90EF90DF90CF90BF902F
:1016E000AF907F906F905F904F9008958F929F92F0
:1016F000AF92BF92CF92DF92EF92FF920F931F9320
:10170000CF93DF93CDB7DEB72A970FB6F894DEBF3D
:101710000FBECDBF8C015B0183ED93E09A8389837B
:101720001B821C821D821E821F82188619861A86C1
:101730000E943215F801C084D184E284F3849B01B5
:10174000AC012C193D094E095F0969017A01B50107
:10175000CE0101960E946E0288EE882E83E0982EBC
:10176000A12CB12CC701B601A50194010E94B21BA6
:10177000CB80DC80ED80FE80C20ED31EE41EF51E01
:10178000CB82DC82ED82FE829B01AC0160E472E4DC
:101790008FE090E00E948E1BCF80D884E984FA8489
:1017A000DC01CB018C0D9D1DAE1DBF1D8F83988765
:1017B000A987BA870E943215CB80DC80ED80FE803D
:1017C00031E0C31AD108E108F108A50194010E9493
:1017D000B21BC21AD30AE40AF50AF801C486D586F8
:1017E000E686F786CF80D884E984FA84F6E3DF1AA8
:1017F000F5E6EF0AF4ECFF0A9B01AC0160E472E449
:101800008FE090E00E948E1BC61AD70AE80AF90AF8
:10181000F801C08AD18AE28AF38AB801605F7F4FFB
:10182000C8010C960E94011B0E943215F801E55771
:10183000FB4F60837183828393832A960FB6F8945B
:10184000DEBF0FBECDBFDF91CF911F910F91FF90F3
:10185000EF90DF90CF90BF90AF909F908F900895C2
:101860002F923F924F925F926F927F928F929F92B0
:10187000AF92BF92CF92DF92EF92FF920F931F939E
:10188000CF93DF93CDB7DEB760970FB6F894DEBF86
:101890000FBECDBF988B8F870E9432154B015C0124
:1018A0002F85388925573B4F3E832D83F901808151
:1018B0009181A281B381A5019401281B390B4A0BA8
:1018C0005B0BDA01C901893F9A42A105B10528F0F5
:1018D000EF85F889EA57FB4F10820F851889045865
:1018E0001B4FD8018D919C91892B81F0EF85F88950
:1018F000E157FB4F80819181A281B38188159905C1
:10190000AA05BB0518F4F801118210826F8478884B
:10191000FCE76F1AFBEF7F0A2F85388920583B4F71
:101920003A832983CF84D88838E1C30ED11C4F85F0
:1019300058894A575B4F58874F832F8538892C56D3
:101940003B4F3A8729874F8558894D565B4F5C87B7
:101950004B87EF84F88852E8E51A5BEFF50A2F858C
:1019600038892E573B4F3C832B834F8558894157ED
:101970005B4F5E874D871401250154E1250E311C14
:10198000411C511CEF85F88984899589A689B789FE
:10199000892B8A2B8B2B89F4AF85B88912968D9170
:1019A0009C911397DC01ED91FC910680F781E02D6D
:1019B00019959C0197FF15C037C10E943215DC01B3
:1019C000CB0188199909AA09BB09EF85F8892489EF
:1019D000358946895789281739074A075B07E0F692
:1019E0004BC1D3018D919C911197820F931F8D93C1
:1019F0009C93F8014081518147305105D9F4AB8166
:101A0000BC818D919C911197AC014F5F5F4F4D93BD
:101A10005C93EF85F889E80FF91F208FF70180812B
:101A20009181019791838083892B09F0ABCF88E066
:101A300090E02FC04115510521F52F3F310569F484
:101A400081E090E0F80191838083AD85BE852D9281
:101A50003D924D925C92139795CF0E943215DC0116
:101A6000CB0188199909AA09BB0989389341A105B5
:101A7000B10508F487CFEF85F889EA57FB4F10824C
:101A8000FBC041305105B1F42E3F310531F482E005
:101A900090E0D8018D939C9375CFF801118210824C
:101AA000AF81B8858C9181116DCF8F8598890E9407
:101AB000570A68CF4230510569F4F701318320831A
:101AC000AB81BC811D921C9283E090E0F801918370
:101AD00080832EC04330510561F4322F2227F70155
:101AE00080819181280F391F3183208384E090E029
:101AF000D0CF4430510581F460E071E00E949E1B1C
:101B00008F3F910531F485E090E0F8019183808367
:101B100039CF1182108236CF4530510569F4E98101
:101B2000FA8131832083E6E0F0E0D801ED93FC9365
:101B3000D3012D933C9326CF4630510599F4322F93
:101B40002227E981FA8180819181280F391F318311
:101B50002083E7E0F0E0D801ED93FC93D7018D916D
:101B60009C9162CF4830510509F00CCFF8011182E9
:101B7000108260E071E00E949E1B8F3F910509F08A
:101B800001CFA981BA818D919C910097C9F48F856D
:101B900098890E94570A8F8598890E948F0AEF853D
:101BA000F889E957FB4F80829182A282B382ED814E
:101BB000FE8180829182A282B3828FEF9FEF61C00B
:101BC0008A30910531F4B6018F8598890E94760B91
:101BD000D9CE8630910551F4B60189859A850E9447
:101BE000D40681E0AB85BC858C93CCCE8B3091053F
:101BF00021F4EF81F8851082C5CEFC01EF53FE4F32
:101C0000EE0FFF1F2F853889E20FF31F808191812E
:101C1000009709F4B7CEDC01ED91FC910190F081C1
:101C2000E02DB6011995AECEEF85F889EA57FB4F46
:101C30008081882321F10F85188909571B4FF801EE
:101C400080819181A281B381A5019401281B390B68
:101C50004A0B5B0BDA01C901853C9940A105B1052E
:101C600070F08F8598890E94570AD8018D929D92B5
:101C7000AD92BC92139703C08EEF9FEF02C080E03D
:101C800090E060960FB6F894DEBF0FBECDBFDF9137
:101C9000CF911F910F91FF90EF90DF90CF90BF9069
:101CA000AF909F908F907F906F905F904F903F90FC
:101CB0002F9008950E94C6038CED94E00E94300C92
:101CC00061E070E080E090E00C946315EF92FF9289
:101CD0000F931F93CF93DF938FE094E09093DD04F5
:101CE0008093DC048DE09AE09093DF048093DE041F
:101CF00080E091EEA0E0B0E08093E0049093E104F6
:101D0000A093E204B093E3041092620987EF93E09A
:101D1000909371098093700910927209109273095F
:101D2000109274091092750910927B0910927A0929
:101D300010927C0910927D0910927E0910927F0901
:101D400010928509109284091092860910928709D1
:101D5000109288091092890910928D0910928C09AD
:101D6000E4EFF8E01192119289E0E632F807D1F73A
:101D7000E6E2F9E01192119289E0E835F807D1F72F
:101D8000E4EFF4E0119286E0E43FF807D9F7E4EFDE
:101D9000F6E0119288E0E43FF807D9F71092F004DA
:101DA0001092F1041092F2041092F30489E194E08D
:101DB0009093D9048093D8041092DB041092DA0433
:101DC0002BE933E03093CF042093CE0428ED34E0A8
:101DD0003093D1042093D0041092D7041092D604EB
:101DE0009093C5048093C4041092C7041092C60453
:101DF00020EA33E03093BB042093BA0424EC34E0AF
:101E00003093BD042093BC041092C3041092C2040A
:101E10009093B7048093B6041092B9041092B8045A
:101E200025EA33E03093AD042093AC0426EB34E094
:101E30003093AF042093AE041092B5041092B40412
:101E40009093A9048093A8041092AB041092AA0462
:101E50008AEA93E090939F0480939E0488EA94E03A
:101E60009093A1048093A0041092A7041092A6045A
:101E700040910C0250910D0260910E0270910F0280
:101E80008AE994E00E940A0285E2E82E84E0F82EB6
:101E9000F0928B04E0928A0403E014E01093910422
:101EA0000093900410929204109293041092940460
:101EB000109295048DE29AE0909397048093960493
:101EC000C1E0D0E0D0939904C093980484E993E0F2
:101ED00090938F0480938E044091080250910902E0
:101EE00060910A0270910B0286E894E00E940A0257
:101EF000F0927704E092760410937D0400937C04C2
:101F000010927E0410927F0410928004109281043B
:101F10008FE399E09093830480938204D0938504A7
:101F2000C09384048DE393E090937B0480937A04C0
:101F300040910402509105026091060270910702DF
:101F400082E794E00E940A02F0926304E092620445
:101F5000109369040093680410926A0410926B0451
:101F600010926C0410926D0483E09AE090936F04D9
:101F700080936E04D0937104C09370048DE893E055
:101F8000909367048093660440910002509101028F
:101F900060910202709103028EE594E00E940A02B1
:101FA000F0924F04E0924E041093550400935404B1
:101FB000109256041092570410925804109259042B
:101FC00081EF99E090935B0480935A04D0935D0471
:101FD000C0935C0486E893E090935304809352048A
:101FE000F0923F04E0923E041093450400934404B1
:101FF000109246041092470410924804109249042B
:102000008AEE99E090934B0480934A04D0934D0458
:10201000C0934C048FEA93E090934304809342046E
:10202000DF91CF911F910F91FF90EF9008951F9333
:10203000CF93DF93182FEB0161E00E943D162097AC
:1020400011F460E004C0CF3FD10539F461E0812F85
:10205000DF91CF911F910C947916E12FF0E0E657B4
:10206000FD4FE4914E2F50E0FA013197E131F10537
:1020700008F093C08827EE58FF4F8F4F0C94D41B65
:1020800084B5806884BDC7BD8DC084B5806284BDC1
:10209000C8BD88C080918000806880938000D09304
:1020A0008900C09388007EC0809180008062809308
:1020B0008000D0938B00C0938A0074C08091B000E0
:1020C00080688093B000C093B3006CC08091B00072
:1020D00080628093B000C093B40064C0809190008F
:1020E000806880939000D0939900C09398005AC064
:1020F00080919000806280939000D0939B00C09369
:102100009A0050C080919000886080939000D09396
:102110009D00C0939C0046C08091A0008068809381
:10212000A0008091A0008F7B8093A000D093A90095
:10213000C093A80037C08091A00080628093A00067
:10214000D093AB00C093AA002DC08091A0008860FE
:102150008093A000D093AD00C093AC0023C08091C9
:102160002001806880932001D0932901C093280129
:1021700019C080912001806280932001D0932B01AF
:10218000C0932A010FC080912001886080932001B4
:10219000D0932D01C0932C0105C0C038D1050CF09F
:1021A00055CF4FCFDF91CF911F910895883008F020
:1021B00070C0A82FB0E0AA0FBB1FA257B64F119650
:1021C0007C936E9390E0FC013197E730F105A0F528
:1021D0008827ED57FF4F8F4F0C94D41B80916900D7
:1021E0008C7F482B40936900E89A0895809169009C
:1021F000440F551F440F551F837F482B40936900A0
:10220000E99A08958091690074E0440F551F7A950A
:10221000E1F78F7C482B40936900EA9A08958091FA
:10222000690066E0440F551F6A95E1F78F73482BEC
:1022300040936900EB9A089580916A008C7F482B47
:1022400040936A00EC9A089580916A00440F551FEC
:10225000440F551F837F482B40936A00ED9A0895E1
:1022600080916A0024E0440F551F2A95E1F78F7C86
:10227000482B40936A00EE9A089580916A0096E098
:10228000440F551F9A95E1F78F73482B40936A00CE
:10229000EF9A08951F920F920FB60F9211240BB66A
:1022A0000F922F933F934F935F936F937F938F93EF
:1022B0009F93AF93BF93EF93FF9380919209909177
:1022C0009309892B29F0E0919209F09193091995CE
:1022D000FF91EF91BF91AF919F918F917F916F91FE
:1022E0005F914F913F912F910F900BBE0F900FBEBA
:1022F0000F901F9018951F920F920FB60F921124F6
:102300000BB60F922F933F934F935F936F937F93EF
:102310008F939F93AF93BF93EF93FF938091940913
:1023200090919509892B29F0E0919409F0919509F4
:102330001995FF91EF91BF91AF919F918F917F91EF
:102340006F915F914F913F912F910F900BBE0F9026
:102350000FBE0F901F9018951F920F920FB60F92FD
:1023600011240BB60F922F933F934F935F936F936C
:102370007F938F939F93AF93BF93EF93FF9380913E
:10238000960990919709892B29F0E0919609F0918F
:1023900097091995FF91EF91BF91AF919F918F91FF
:1023A0007F916F915F914F913F912F910F900BBE55
:1023B0000F900FBE0F901F9018951F920F920FB69F
:1023C0000F9211240BB60F922F933F934F935F936D
:1023D0006F937F938F939F93AF93BF93EF93FF93ED
:1023E0008091980990919909892B29F0E091980999
:1023F000F09199091995FF91EF91BF91AF919F913C
:102400008F917F916F915F914F913F912F910F909D
:102410000BBE0F900FBE0F901F9018951F920F923A
:102420000FB60F9211240BB60F922F933F934F9339
:102430005F936F937F938F939F93AF93BF93EF932C
:10244000FF9380918E0990918F09892B29F0E0915B
:102450008E09F0918F091995FF91EF91BF91AF917E
:102460009F918F917F916F915F914F913F912F91AC
:102470000F900BBE0F900FBE0F901F9018951F92DC
:102480000F920FB60F9211240BB60F922F933F931A
:102490004F935F936F937F938F939F93AF93BF936C
:1024A000EF93FF938091900990919109892B29F0E6
:1024B000E0919009F09191091995FF91EF91BF91E9
:1024C000AF919F918F917F916F915F914F913F91CC
:1024D0002F910F900BBE0F900FBE0F901F9018956D
:1024E0001F920F920FB60F9211240BB60F922F93DB
:1024F0003F934F935F936F937F938F939F93AF938C
:10250000BF93EF93FF9380919A0990919B09892B38
:1025100029F0E0919A09F0919B091995FF91EF91AB
:10252000BF91AF919F918F917F916F915F914F91EB
:102530003F912F910F900BBE0F900FBE0F901F90E9
:1025400018951F920F920FB60F9211240BB60F928F
:102550002F933F934F935F936F937F938F939F93AB
:10256000AF93BF93EF93FF9380919C0990919D0946
:10257000892B29F0E0919C09F0919D091995FF9113
:10258000EF91BF91AF919F918F917F916F915F91EB
:102590004F913F912F910F900BBE0F900FBE0F9058
:1025A0001F9018956F927F928F929F92AF92BF92D9
:1025B000CF92DF92EF92FF920F931F93CF93DF930F
:1025C000EC01009789F4CB01DF91CF911F910F911E
:1025D000FF90EF90DF90CF90BF90AF909F908F9043
:1025E0007F906F900C94BB13FC01E60FF71F9C01CA
:1025F00022503109E217F30708F4ACC0D9010D915C
:102600001C91119706171707B0F00530110508F453
:102610009FC0C80104978617970708F499C0025015
:102620001109061B170B019311936D937C93CF0136
:102630000E9450148DC05B01A01AB10A4C01800E9B
:10264000911EA091510CB091520C40E050E0E12C51
:10265000F12C109709F44AC0A815B905D1F56D9071
:102660007C901197630182E0C80ED11CCA14DB0470
:1026700080F1A3014A195B096A0182E0C80ED11CEE
:102680001296BC9012971396AC91B5E0CB16D1047C
:1026900040F0B282A38351834083D9016D937C9330
:1026A0000AC00E5F1F4FC301800F911FF901918374
:1026B0008083EB2DFA2FE114F10431F0D70113964A
:1026C000FC93EE93129744C0F093520CE093510C9C
:1026D0003FC08D919C9111974817590708F4AC01A0
:1026E0007D0112960D90BC91A02DB3CF80914F0C1F
:1026F0009091500C88159905E1F446175707C8F4D6
:102700008091140290911502009741F48DB79EB705
:102710004091180250911902841B950BE817F90794
:10272000C8F4F093500CE0934F0CF901718360836F
:102730000FC0CB010E94BB137C01009759F0A80188
:10274000BE010E940A1CCE010E945014C70104C0A1
:10275000CE0102C080E090E0DF91CF911F910F91F8
:10276000FF90EF90DF90CF90BF90AF909F908F90B1
:102770007F906F900895CF93DF938230910510F48E
:1027800082E090E0E091510CF091520C20E030E0BA
:10279000C0E0D0E0309711F14081518148175907CE
:1027A000C0F04817590761F482819381209719F08E
:1027B0009B838A832BC09093520C8093510C26C02C
:1027C0002115310519F04217530718F49A01BE017B
:1027D000DF01EF010280F381E02DDCCF211531050F
:1027E00009F1281B390B2430310590F412968D9194
:1027F0009C9113976115710521F0FB0193838283EE
:1028000004C09093520C8093510CFD01329644C049
:10281000FD01E20FF31F81939193225031092D9313
:102820003C933AC020914F0C3091500C232B41F433
:1028300020911602309117023093500C20934F0CC8
:1028400020911402309115022115310541F42DB764
:102850003EB74091180250911902241B350BE091AC
:102860004F0CF091500CE217F307A0F42E1B3F0B16
:102870002817390778F0AC014E5F5F4F24173507F2
:1028800048F04E0F5F1F5093500C40934F0C8193B4
:10289000919302C0E0E0F0E0CF01DF91CF91089585
:1028A0000F931F93CF93DF93009709F48CC0FC0123
:1028B0003297138212820091510C1091520C011523
:1028C000110581F420813181820F931F20914F0CDB
:1028D0003091500C2817390779F5F093500CE0939C
:1028E0004F0C71C0D80140E050E0AE17BF0750F464
:1028F00012962D913C911397AD012115310509F1E7
:10290000D901F3CF9D01DA01338322836081718184
:10291000860F971F8217930769F4EC01288139818C
:10292000260F371F2E5F3F4F318320838A819B8183
:1029300093838283452B29F4F093520CE093510C3E
:1029400042C01396FC93EE931297ED014991599171
:102950009E01240F351FE217F30771F480819181E6
:10296000840F951F029611969C938E93828193817A
:1029700013969C938E931297E0E0F0E0D8011296A4
:102980008D919C911397009719F0F8018C01F6CF67
:102990008D919C9198012E5F3F4F820F931F209144
:1029A0004F0C3091500C2817390769F4309729F4EF
:1029B0001092520C1092510C02C01382128210938A
:1029C000500C00934F0CDF91CF911F910F91089500
:1029D0001F920F920FB60F9211242F933F938F9354
:1029E0009F93AF93BF9380919F099091A009A0916D
:1029F000A109B091A20930919E0923E0230F2D3740
:102A000020F40196A11DB11D05C026E8230F0296F2
:102A1000A11DB11D20939E0980939F099093A00949
:102A2000A093A109B093A2098091A3099091A40950
:102A3000A091A509B091A6090196A11DB11D809391
:102A4000A3099093A409A093A509B093A609BF91E7
:102A5000AF919F918F913F912F910F900FBE0F904B
:102A60001F9018952FB7F89460919F097091A00955
:102A70008091A1099091A2092FBF08953FB7F894C2
:102A80008091A3099091A409A091A509B091A609EC
:102A900026B5A89B05C02F3F19F00196A11DB11DB9
:102AA0003FBFBA2FA92F982F8827820F911DA11DF4
:102AB000B11DBC01CD0142E0660F771F881F991F31
:102AC0004A95D1F70895CF92DF92EF92FF92CF937C
:102AD000DF936B017C010E943E15EB01C114D10410
:102AE000E104F10479F00E943E156C1B7D0B683EF9
:102AF0007340A0F381E0C81AD108E108F108C85179
:102B0000DC4FECCFDF91CF91FF90EF90DF90CF9033
:102B10000895789484B5826084BD84B5816084BD55
:102B200085B5826085BD85B5816085BDEEE6F0E046
:102B3000808181608083E1E8F0E0108280818260A2
:102B40008083808181608083E0E8F0E08081816023
:102B50008083E1EBF0E0808184608083E0EBF0E053
:102B6000808181608083E1E9F0E080818260808300
:102B7000808181608083E0E9F0E0808181608083F2
:102B8000E1EAF0E0808182608083808181608083DF
:102B9000E0EAF0E0808181608083E1E2F1E0808121
:102BA00082608083808181608083E0E2F1E08081C7
:102BB00081608083EAE7F0E08081846080838081A7
:102BC000826080838081816080838081806880834F
:102BD0001092C100089590E0FC013197E131F105B8
:102BE00008F04AC08827E657FF4F8F4F0C94D41B3C
:102BF000809180008F7703C0809180008F7D8093CB
:102C00008000089584B58F7702C084B58F7D84BD20
:102C100008958091B0008F7703C08091B0008F7DC0
:102C20008093B0000895809190008F7707C08091C5
:102C300090008F7D03C080919000877F80939000EB
:102C400008958091A0008F7707C08091A0008F7DAC
:102C500003C08091A000877F8093A0000895809199
:102C600020018F7707C0809120018F7D03C0809164
:102C70002001877F809320010895CF93DF9390E018
:102C8000FC01E053FD4F2491FC01EA5EFC4F84916E
:102C9000882361F190E0880F991FFC01E057FC4FF9
:102CA000C591D491FC01EA58FC4FA591B4916111F2
:102CB00009C09FB7F8948881209582238883EC917E
:102CC0002E230BC0623061F49FB7F8943881822FB5
:102CD000809583238883EC912E2B2C939FBF06C075
:102CE0008FB7F894E8812E2B28838FBFDF91CF9187
:102CF00008951F93CF93DF93282F30E0F901E65713
:102D0000FD4F8491F901E053FD4FD491F901EA5E42
:102D1000FC4FC491CC23C9F0162F81110E94EB15F2
:102D2000EC2FF0E0EE0FFF1FEA58FC4FA591B49195
:102D30008FB7F894111105C09C91ED2FE095E92310
:102D400002C0EC91ED2BEC938FBFDF91CF911F91DF
:102D50000895CF93DF93282F30E0F901E657FD4F18
:102D60008491F901E053FD4FD491F901EA5EFC4FE3
:102D7000C491CC2391F081110E94EB15EC2FF0E06F
:102D8000EE0FFF1FE45AFC4FA591B491EC91ED2397
:102D900081E090E021F480E002C080E090E0DF91EB
:102DA000CF910895FC0124853585F901E05CFF4F42
:102DB00080819181329620813181821B930B8F73A8
:102DC00099270895DC011C96ED91FC911D97DF0178
:102DD000A05CBF4F2D913C91119712968D919C91C3
:102DE00011972817390739F08D919C91E80FF91F39
:102DF000808190E008958FEF9FEF0895FC01A485F6
:102E0000B585FD01E05CFF4F2081318132968081E4
:102E100091812817390779F080819181A80FB91F16
:102E20008C91208131812F5F3F4F2F733327318366
:102E3000208390E008958FEF9FEF0895FC0181A11A
:102E4000882329F0A489B5898C9186FFFBCF11A234
:102E500008950F931F93CF93DF93FC01A685B78549
:102E60008D01005C1F4FE8018881998101968F7365
:102E70009927AD014E5B5F4FEA01288139818217A6
:102E80009307D1F3E80128813981A20FB31F6C9316
:102E9000A685B785A05CBF4F11969C938E93A6899B
:102EA000B7892C9181E090E0078C02C0880F991FB0
:102EB0000A94E2F7822B8C9381E081A30488F58940
:102EC000E02D80818064808381E090E0DF91CF916C
:102ED0001F910F910895FB01E05CFF4F208131812C
:102EE0002F5F3F4F2F733327DB01AE5BBF4F4D91F9
:102EF0005C912417350741F040815181DB01A40F1B
:102F0000B51F8C9331832083089508951F920F92EB
:102F10000FB60F9211240BB60F922F933F934F933E
:102F20005F936F937F938F939F93AF93BF93EF9331
:102F3000FF938091C00082FD07C08091C6006BE0C6
:102F40007CE00E946B1702C08091C600FF91EF9158
:102F5000BF91AF919F918F917F916F915F914F91B1
:102F60003F912F910F900BBE0F900FBE0F901F90AF
:102F7000189508951F920F920FB60F9211240BB659
:102F80000F922F933F934F935F936F937F938F9302
:102F90009F93AF93BF93EF93FF938091C80082FDFF
:102FA00007C08091CE0063E87BE00E946B1702C0EF
:102FB0008091CE00FF91EF91BF91AF919F918F9142
:102FC0007F916F915F914F913F912F910F900BBE29
:102FD0000F900FBE0F901F90189508951F920F929B
:102FE0000FB60F9211240BB60F922F933F934F936E
:102FF0005F936F937F938F939F93AF93BF93EF9361
:10300000FF938091D00082FD07C08091D6006BEFC6
:103010007AE00E946B1702C08091D600FF91EF9179
:10302000BF91AF919F918F917F916F915F914F91E0
:103030003F912F910F900BBE0F900FBE0F901F90DE
:10304000189508951F920F920FB60F9211240BB688
:103050000F922F933F934F935F936F937F938F9331
:103060009F93AF93BF93EF93FF938091300182FDC5
:1030700007C08091360163E77AE00E946B1702C0B7
:1030800080913601FF91EF91BF91AF919F918F9108
:103090007F916F915F914F913F912F910F900BBE58
:1030A0000F900FBE0F901F9018958DE09AE00E9430
:1030B000D216892B11F00E9485178BEE99E00E94A1
:1030C000D216892B11F00E94B91789EC99E00E9461
:1030D000D216892B11F00E94ED1787EA99E00E9421
:1030E000D216892B11F00C94211808951F920F927B
:1030F0000FB60F9211240BB60F922F933F938F931D
:103100009F93EF93FF932091070C3091080C8091CF
:10311000090C90910A0C2817390731F48091C100ED
:103120008F7D8093C10014C0E091090CF0910A0CCE
:10313000E953F44F20818091090C90910A0C01967B
:103140008F73992790930A0C8093090C2093C600E3
:10315000FF91EF919F918F913F912F910F900BBE17
:103160000F900FBE0F901F9018951F920F920FB6E1
:103170000F9211240BB60F922F933F938F939F932F
:10318000EF93FF9320917F0B3091800B8091810B07
:103190009091820B2817390731F48091C9008F7DF7
:1031A0008093C90014C0E091810BF091820BE15C27
:1031B000F44F20818091810B9091820B01968F7347
:1031C00099279093820B8093810B2093CE00FF91DF
:1031D000EF919F918F913F912F910F900BBE0F9088
:1031E0000FBE0F901F9018951F920F920FB60F925F
:1031F00011240BB60F922F933F938F939F93EF93CE
:10320000FF932091F70A3091F80A8091F90A909182
:10321000FA0A2817390731F48091D1008F7D809305
:10322000D10014C0E091F90AF091FA0AE954F54F7F
:1032300020818091F90A9091FA0A01968F7399275B
:103240009093FA0A8093F90A2093D600FF91EF91A8
:103250009F918F913F912F910F900BBE0F900FBEBA
:103260000F901F9018951F920F920FB60F92112476
:103270000BB60F922F933F938F939F93EF93FF93F0
:1032800020916F0A3091700A8091710A9091720AB0
:103290002817390731F4809131018F7D80933101F6
:1032A00014C0E091710AF091720AE15DF54F20813E
:1032B0008091710A9091720A01968F739927909369
:1032C000720A8093710A20933601FF91EF919F91CA
:1032D0008F913F912F910F900BBE0F900FBE0F90CB
:1032E0001F901895CF92DF92EF92FF920F931F934A
:1032F000CF93DF93EC016A017B014115514E6105CB
:10330000710509F1EC89FD8981E090E008A002C017
:10331000880F991F0A94E2F7808360E079E08DE3DB
:1033200090E0A70196010E94B21B89019A01015009
:1033300011092109310936952795179507959801A7
:1033400001151041A8F0EC89FD89108260E874E84D
:103350008EE190E0A70196010E94B21BDA01C9013B
:103360000197A109B109B695A795979587959C01F5
:10337000E889F9893083EA89FB89208319A2EE89DB
:10338000FF89408181E090E09C010C8C02C0220FFB
:10339000331F0A94E2F7242B2083EE89FF894081B2
:1033A0009C010D8C02C0220F331F0A94E2F7242BDC
:1033B0002083EE89FF8940819C010E8C02C0220F80
:1033C000331F0A94E2F7242B2083EE89FF892081A2
:1033D0000F8C02C0880F991F0A94E2F78095822310
:1033E0008083DF91CF911F910F91FF90EF90DF903D
:1033F000CF900895CF92DF92EF92FF92EDE0FAE046
:103400001382128288EEC82E83E0D82EE12CF12C94
:10341000C482D582E682F78261E374E071836083BF
:103420008BE09CE09587848787EC9BE09787868775
:1034300085EC90E0918B808B84EC90E0938B828B79
:1034400080EC90E0958B848B81EC90E0978B868B61
:1034500082EC90E0918F808F86EC90E0938F828F4A
:1034600044E0448F33E0358F27E0268F95E0978F37
:1034700081E080A3EBEEF9E013821282C482D58250
:10348000E682F78271836083A3E8BBE0B587A487F7
:10349000AFE3BBE0B787A687ADECB0E0B18BA08B04
:1034A000ACECB0E0B38BA28BA8ECB0E0B58BA48BF6
:1034B000A9ECB0E0B78BA68BAAECB0E0B18FA08FDF
:1034C000AEECB0E0B38FA28F448F358F268F978FED
:1034D00080A3E9ECF9E013821282C482D582E682ED
:1034E000F78271836083ABEFBAE0B587A487A7EB5F
:1034F000BAE0B787A687A5EDB0E0B18BA08BA4EDAD
:10350000B0E0B38BA28BA0EDB0E0B58BA48BA1EDA6
:10351000B0E0B78BA68BA2EDB0E0B18FA08FA6ED87
:10352000B0E0B38FA28F448F358F268F978F80A303
:10353000E7EAF9E013821282C482D582E682F7823A
:103540007183608363E77AE0758764876FE27AE06E
:103550007787668765E371E0718B608B64E371E068
:10356000738B628B60E371E0758B648B61E371E058
:10357000778B668B62E371E0718F608F66E371E039
:10358000738F628F448F358F268F978F80A3FF9024
:10359000EF90DF90CF900895CF92DF92EF92FF925D
:1035A0000F931F93CF93DF936C01EB017B01E40E2C
:1035B000F51E00E010E0CE15DF0561F06991D6013F
:1035C000ED91FC910190F081E02DC6011995080F55
:1035D000191FF1CFC801DF91CF911F910F91FF907B
:1035E000EF90DF90CF9008950E9489150E94FF0808
:1035F000C5E5D8E10E945A0E2097E1F30E945518C4
:10360000F9CFCF92DF92EF92FF920F931F93CF9358
:10361000DF938C01EB01688179818A819B8120E0B5
:103620003AEC4AE95BE30E94B21BF801C080D1800A
:10363000E280F380C20ED31EE41EF51EC082D1824A
:10364000E282F382688379838A839B83DF91CF91BF
:103650001F910F91FF90EF90DF90CF9008950E94FF
:10366000361B6894B1110C94881B08950E946D1B41
:1036700088F09F5798F0B92F9927B751B0F0E1F033
:10368000660F771F881F991F1AF0BA95C9F714C0E3
:10369000B13091F00E94871BB1E008950C94871B14
:1036A000672F782F8827B85F39F0B93FCCF386951C
:1036B00077956795B395D9F73EF490958095709579
:1036C00061957F4F8F4F9F4F089557FD9058440F3E
:1036D000551F59F05F3F71F04795880F97FB991F71
:1036E00061F09F3F79F0879508951216130614062E
:1036F000551FF2CF4695F1DF08C0161617061806BB
:10370000991FF1CF86957105610508940895E89495
:10371000BB2766277727CB0197F90895DB018F93A5
:103720009F930E94DC1BBF91AF91A29F800D911DC2
:10373000A39F900DB29F900D1124089597FB072E23
:1037400016F4009407D077FD09D00E94E71B07FC10
:1037500005D03EF4909581959F4F089570956195A1
:103760007F4F0895A1E21A2EAA1BBB1BFD010DC0BD
:10377000AA1FBB1FEE1FFF1FA217B307E407F50721
:1037800020F0A21BB30BE40BF50B661F771F881FFD
:10379000991F1A9469F760957095809590959B0193
:1037A000AC01BD01CF010895EE0FFF1F881F8BBF35
:1037B0000790F691E02D19940E94FB1BA59F900D98
:1037C000B49F900DA49F800D911D11240895AA1BF4
:1037D000BB1B51E107C0AA1FBB1FA617B70710F0FC
:1037E000A61BB70B881F991F5A95A9F7809590952E
:1037F000BC01CD010895A29FB001B39FC001A39F5A
:10380000700D811D1124911DB29F700D811D112419
:10381000911D0895FB01DC0102C001900D92415001
:103820005040D8F70895CF93DF93CDB7DEB7AE0100
:103830004A5F5F4FFA0161917191AF018091550C20
:103840009091560C0E94271CDF91CF9108952F92E2
:103850003F924F925F926F927F928F929F92AF9220
:10386000BF92CF92DF92EF92FF920F931F93CF936D
:10387000DF93CDB7DEB72C970FB6F894DEBF0FBE3F
:10388000CDBF7C016B018A01FC0117821682838106
:1038900081FFBDC1CE0101964C01F7019381F60174
:1038A00093FD859193FF81916F01882309F4ABC14A
:1038B000853239F493FD859193FF81916F018532B3
:1038C00029F4B70190E00E94381EE7CF512C312C2B
:1038D00020E02032A0F48B3269F030F4803259F0CD
:1038E000833269F420612CC08D3239F0803339F491
:1038F000216026C02260246023C0286021C027FDEB
:1039000027C030ED380F3A3078F426FF06C0FAE0D1
:103910005F9E300D1124532E13C08AE0389E300D67
:103920001124332E20620CC08E3221F426FD6BC18F
:10393000206406C08C3611F4206802C0883641F439
:10394000F60193FD859193FF81916F018111C1CFA4
:10395000982F9F7D9554933028F40C5F1F4FFFE301
:10396000F9830DC0833631F0833771F0833509F068
:103970005BC022C0F801808189830E5F1F4F442401
:103980004394512C540115C03801F2E06F0E711CA4
:10399000F801A080B18026FF03C0652D70E002C051
:1039A0006FEF7FEFC5012C870E942D1E2C01830134
:1039B0002C852F77222E17C03801F2E06F0E711C74
:1039C000F801A080B18026FF03C0652D70E002C021
:1039D0006FEF7FEFC5012C870E94221E2C012C85E2
:1039E0002068222E830123FC1BC0832D90E0481603
:1039F0005906B0F4B70180E290E00E94381E3A9474
:103A0000F4CFF50127FC859127FE81915F01B70175
:103A100090E00E94381E31103A94F1E04F1A51089C
:103A20004114510471F7E5C0843611F0893639F537
:103A3000F80127FF07C060817181828193810C5F4B
:103A40001F4F08C060817181072E000C880B990BF5
:103A50000E5F1F4F2F76722E97FF09C090958095AD
:103A6000709561957F4F8F4F9F4F2068722E2AE08F
:103A700030E0A4010E94701EA82EA81844C085370B
:103A800029F42F7EB22E2AE030E025C0F22FF97FF4
:103A9000BF2E8F36C1F018F4883579F0B4C0803766
:103AA00019F0883721F0AFC02F2F2061B22EB4FE5D
:103AB0000DC08B2D8460B82E09C024FF0AC09F2F33
:103AC0009660B92E06C028E030E005C020E130E065
:103AD00002C020E132E0F801B7FE07C060817181C9
:103AE000828193810C5F1F4F06C06081718180E0ED
:103AF00090E00E5F1F4FA4010E94701EA82EA81810
:103B0000FB2DFF777F2E76FE0BC0372D3E7FA51451
:103B100050F474FE0AC072FC08C0372D3E7E05C00A
:103B2000BA2C372D03C0BA2C01C0B52C34FF0DC000
:103B3000FE01EA0DF11D8081803311F4397E09C048
:103B400032FF06C0B394B39404C0832F867809F083
:103B5000B39433FD13C030FF06C05A2CB31418F4CD
:103B6000530C5B18B32CB31468F4B70180E290E0F7
:103B70003C870E94381EB3943C85F5CFB31410F4F3
:103B80003B1801C0312C34FF12C0B70180E390E034
:103B90003C870E94381E3C8532FF17C031FD03C0B0
:103BA00088E790E002C088E590E0B7010CC0832F61
:103BB000867859F031FF02C08BE201C080E237FD08
:103BC0008DE2B70190E00E94381EA51438F4B701C9
:103BD00080E390E00E94381E5A94F7CFAA94F40133
:103BE000EA0DF11D8081B70190E00E94381EA110FE
:103BF000F5CF332009F451CEB70180E290E00E9466
:103C0000381E3A94F6CFF7018681978102C08FEF74
:103C10009FEF2C960FB6F894DEBF0FBECDBFDF919D
:103C2000CF911F910F91FF90EF90DF90CF90BF90B9
:103C3000AF909F908F907F906F905F904F903F904C
:103C40002F900895FC010590615070400110D8F745
:103C5000809590958E0F9F1F0895FC0161507040D4
:103C600001900110D8F7809590958E0F9F1F0895B1
:103C70000F931F93CF93DF93FB01238121FD03C09B
:103C80008FEF9FEF28C022FF16C046815781248105
:103C900035814217530744F4A081B1819D012F5F04
:103CA0003F4F318320838C93268137812F5F3F4F95
:103CB0003783268310C0EB01092F182F0084F1856C
:103CC000E02D1995892BE1F68E819F8101969F83C6
:103CD0008E83812F902FDF91CF911F910F910895A7
:103CE000FA01AA27283051F1203181F1E8946F932D
:103CF0006E7F6E5F7F4F8F4F9F4FAF4FB1E03ED0D3
:103D0000B4E03CD0670F781F891F9A1FA11D680F70
:103D1000791F8A1F911DA11D6A0F711D811D911DA3
:103D2000A11D20D009F468943F912AE0269F112418
:103D30003019305D3193DEF6CF010895462F47707C
:103D4000405D4193B3E00FD0C9F7F6CF462F4F70D7
:103D5000405D4A3318F0495D31FD4052419302D035
:103D6000A9F7EACFB4E0A6959795879577956795DB
:103D7000BA95C9F700976105710508959B01AC01DB
:103D80000A2E06945795479537952795BA95C9F702
:103D9000620F731F841F951FA01D0895F894FFCF15
:103DA00009000A00060007000400050002000300E5
:103DB000150019000000590C80007374645F6D7366
:103DC00067732F54696D6500636437313636633726
:103DD000346335353263333131666263633266652D
:103DE000356137626332383900726F737365726997
:103DF000616C5F6D7367732F546F706963496E6692
:103E00006F00306164353166383866633434383970
:103E100032663863313036383430373736343630FE
:103E2000303500726F7373657269616C5F6D7367B3
:103E3000732F4C6F67003131616264373331633205
:103E40003539333332363163643631383362643175
:103E5000326436323935003966306539386264612A
:103E600036353938313938366464663533616661E0
:103E700037613430653439007374645F6D73677310
:103E80002F466C6F61743332003733666362663479
:103E90003662343931393165363732393038653543
:103EA000303834326138336434007374645F6D7356
:103EB00067732F496E7431360038353234353836F1
:103EC0006533346662643763623163303863356604
:103ED000356631636130653537002564006D6F7478
:103EE0006F7231004D6573736167652066726F6D27
:103EF000206465766963652064726F707065643AEA
:103F0000206D657373616765206C617267657220EF
:103F10007468616E206275666665722E00416C6C15
:103F20005F73746F70006D6F746F7233006D6F74B8
:103F30006F7232006D6F746F723000656E633000A7
:103F4000656E633100656E633200656E63330061D8
:103F50006C6C00726F7373657269616C5F6D73670F
:103F6000732F52657175657374506172616D0000D5
:103F70000000004A026E02B402B70200000000DF37
:103F800004E405BA02BD0200000000B3048C05C0C1
:103F900002C30200000000E703D406C602C9020003
:103FA000000000CC02E002F602F902000000006905
:103FB00009300C370300000000FC02050312031552
:103FC000030000000018032D033103340300000038
:0E3FD000002917CC1AD216FE16E2161E170094
:00000001FF
