:100000000C94DD010C9403130C9434130C946513BD
:100010000C9496130C94C7130C94F8130C94291495
:100020000C945A140C940E020C940E020C940E02B2
:100030000C940E020C940E020C940E020C940E0200
:100040000C940E020C940E020C940E020C940E02F0
:100050000C940E020C940E020C940E020C94A11639
:100060000C940E020C943F190C942F1A0C940E024F
:100070000C940E020C940E020C940E020C940E02C0
:100080000C940E020C940E020C940E020C940E02B0
:100090000C9473190C946E1A0C940E020C940E02AC
:1000A0000C940E020C940E020C940E020C940E0290
:1000B0000C940E020C940E020C940E020C940E0280
:1000C0000C940E020C940E020C940E020C94A719C0
:1000D0000C94AD1A0C940E020C94DB190C94EC1ACF
:1000E0000C940E02F911FE1103120D128612171252
:1000F0001F12271231123B12451254125E12861241
:10010000681272127C12DD12A712AF12BB12C81253
:10011000E912F612BB17BE17B117B517F517C217BC
:10012000C617CC17D017D417DA17DE17E217F51752
:10013000E817EC17F0170C942D030C94DE170C94B1
:10014000E5030C94BB120C943B120C94CC170C944A
:10015000A10B0C9430030C9472120C948B180C9419
:10016000EF020C94FB050C94F2020C94BF020C9469
:10017000F5020C94A80B0C94D4060C94BA0B0C94B6
:10018000B1170C94C5020C9417120C94D9020C945C
:100190000E030C947C120C94D7180C949B180C949E
:1001A000BC020C942C070C94B5170C9427060C94E5
:1001B000FE020C94FE110C94DA170C94C6170C94E2
:1001C0001F120C9445120C94C8120C940E1A0C9425
:1001D000E2180C94AD020C94BE170C94E2170C9428
:1001E000E70D0C9435030C94A7120C945E120C943A
:1001F00043020C94C2020C940D120C948D030C94C7
:1002000086120C94DD120C942A030C9426030C9491
:10021000D4170C94F60A0C9403120C94E8170C945F
:10022000B3020C94F0170C94D0170C943D040C946A
:10023000F9110C9454120C94F6120C9468120C944C
:10024000B31B0C941D100C94B7180C942F050C9430
:10025000B6020C94E9120C94F5170C94C2170C9486
:100260000B030C94200B0C9467020C94BB170C949A
:1002700027120C9411030C9431120C941C080C944A
:10028000B9020C94EC170C94E40B0C94851C0C94A0
:10029000AF120C94B0020000090A02080B0C0D0703
:1002A0000603040100000000000000000000000040
:1002B000000000000000000000000000000000003E
:1002C000000011100F0000000000000000000000FE
:1002D00000000000000000000000000001021020EB
:1002E000200808102040102040800201020108046C
:1002F0000201010204081020408080402010080400
:100300000201800402018040201008040201080458
:10031000020101020408102040800102040810209C
:1003200040800505050507050808080802020202C5
:100330000A0A080804040404010101010101010181
:100340000303030303030303040707070C0C0C0C4C
:100350000C0C0C0C02020202060606060606060635
:100360000B0B0B0B0B0B0B0B0000200023002600CC
:1003700029002C002F0032000001000003010601BB
:10038000090100002200250028002B002E0031006A
:10039000340002010000050108010B0100002100EA
:1003A000240027002A002D00300033000101000046
:1003B000040107010A011D10B31B11241FBECFEF5A
:1003C000D1E2DEBFCDBF00E00CBF14E0A0E0B2E0A0
:1003D000E2E1F1E400E00BBF02C007900D92A2350C
:1003E000B107D9F72CE0A2E5B4E001C01D92AF3708
:1003F000B207E1F711E0CDEDD1E000E006C02197B2
:100400000109802FFE010E948D1DCB3DD10780E0A8
:100410000807A9F70E94AD1C0C9487200C940000DB
:10042000CF93DF93EC01842F488359836A837B83C6
:1004300061E00E94F61761E08A81DF91CF910C9410
:10044000F6170F931F93CF93DF938C01EB011C16CC
:100450001D063CF4FC0180810E94D01160E070E038
:100460000AC060E070E0FC0180810E94D011662724
:1004700077276C1B7D0BF8018281DF91CF911F9153
:100480000F910C94D011DC01FB0112968C91129704
:10049000808313968C911397818314968C91149773
:1004A000828315968C911597838316968C91169757
:1004B000848317968C911797858318968C9118973B
:1004C000868319968C91878388E090E00895FC01DB
:1004D000DB014C9150E060E070E042835383648321
:1004E000758311968C911197582B428353836483A3
:1004F000758312968C911297682B42835383648381
:10050000758313968C911397782B4283538364835E
:10051000758314964C91149750E060E070E0468328
:1005200057836087718715968C911597582B468352
:1005300057836087718716968C911697682B468330
:1005400057836087718717968C91782B46835783E2
:100550006087718788E090E0089588E292E00895CE
:1005600086E392E0089587E592E0089580E792E0BF
:10057000089581E992E0089584EA92E0089588EC74
:1005800093E0089585EC92E00895FB01DC0112965A
:100590004C91129713963C91139714962C911497A3
:1005A00015968C91408331832283838384E090E08D
:1005B0000895FB012181428150E060E070E0BA01C2
:1005C00055274427522B2081422B2381722BFC017B
:1005D000428353836483758384E090E0089586EEBC
:1005E00092E0089587EF92E00895FC0122818381D3
:1005F000FB012083818382E090E00895FB0121814B
:1006000030E0322F22274081242BFC0133832283C8
:1006100082E090E0089588E193E0089587E293E016
:1006200008950F931F93CF93DF938C01EC012696CF
:10063000CE010E94D902D8011C96ED91FC911D9724
:10064000CE01DF91CF911F910F911994FC01868506
:100650009785089586EE92E0089587EF92E00895D9
:10066000FC01EA57FB4F80810895CF93DF9389E126
:100670000E946218EC0185E10E946218892B49F002
:100680008091F2049091F304892B61F02097B1F0EE
:1006900009C08091F2049091F304892B79F020979E
:1006A00039F10CC08091EE049091EF04A091F00418
:1006B000B091F1040197A109B1090BC08091EE043A
:1006C0009091EF04A091F004B091F1040196A11D66
:1006D000B11D8093EE049093EF04A093F004B093C7
:1006E000F104D093F304C093F204DF91CF91089505
:1006F0004091EE045091EF046091F0047091F10488
:1007000041505109610971094093EE045093EF047F
:100710006093F0047093F104E4CFCF93DF9386E10C
:100720000E946218EC0182E10E946218892B49F054
:100730008091DE049091DF04892B61F02097B1F065
:1007400009C08091DE049091DF04892B79F0209715
:1007500039F10CC08091DA049091DB04A091DC04A3
:10076000B091DD040197A109B1090BC08091DA04B1
:100770009091DB04A091DC04B091DD040196A11DF1
:10078000B11D8093DA049093DB04A093DC04B09352
:10079000DD04D093DF04C093DE04DF91CF91089590
:1007A0004091DA045091DB046091DC047091DD0427
:1007B00041505109610971094093DA045093DB04F7
:1007C0006093DC047093DD04E4CFCF93DF9387E183
:1007D0000E946218EC0183E10E946218892B49F0A3
:1007E0008091CA049091CB04892B61F02097B1F0DD
:1007F00009C08091CA049091CB04892B79F020978D
:1008000039F10CC08091C6049091C704A091C8042E
:10081000B091C9040197A109B1090BC08091C60428
:100820009091C704A091C804B091C9040196A11D7C
:10083000B11D8093C6049093C704A093C804B093DD
:10084000C904D093CB04C093CA04DF91CF9108951B
:100850004091C6045091C7046091C8047091C904C6
:1008600041505109610971094093C6045093C7046E
:100870006093C8047093C904E4CFCF93DF9388E1F9
:100880000E946218EC0184E10E946218892B49F0F1
:100890008091B6049091B704892B61F02097B1F054
:1008A00009C08091B6049091B704892B79F0209704
:1008B00039F10CC08091B2049091B304A091B404BA
:1008C000B091B5040197A109B1090BC08091B204A0
:1008D0009091B304A091B404B091B5040196A11D08
:1008E000B11D8093B2049093B304A093B404B09369
:1008F000B504D093B704C093B604DF91CF910895A7
:100900004091B2045091B3046091B4047091B50465
:1009100041505109610971094093B2045093B304E5
:100920006093B4047093B504E4CFCF93DF93AB012D
:10093000EC01AE81BF81ED91FC9111976C817D81BD
:100940000190F081E02DCD01DF91CF911994CF93EB
:10095000DF93EC0160E088810E94F61760E08A81F5
:10096000DF91CF910C94F6176EEF74E084EF94E072
:100970000C9495048091EE049091EF04A091F00402
:10098000B091F104909301058093000508956AEEFB
:1009900074E080EE94E00C9495048091DA049091D8
:1009A000DB04A091DC04B091DD049093ED0480930E
:1009B000EC04089566ED74E08CEC94E00C949504DE
:1009C0008091C6049091C704A091C804B091C90455
:1009D0009093D9048093D804089562EC74E088EB76
:1009E00094E00C9495048091B2049091B304A0918A
:1009F000B404B091B5049093C5048093C4040895E1
:100A00000E94BA040E94CD040E94E0040C94F304F6
:100A10000E9400050E94B4040E94C7040E94DA04E8
:100A20000C94ED04CF92DF92EF92FF9220E030E041
:100A30006A017B01022E04C0F694E794D794C79410
:100A40000A94D2F7FC01C192CF01285F3F4F2032B8
:100A5000310571F7FF90EF90DF90CF9008954F929E
:100A60005F926F927F92AF92BF92CF92DF92EF929E
:100A7000FF920F931F93CF93DF93EC017B018A8149
:100A8000FB0180838B8181838C8182838D81838331
:100A9000DB01179640E050E0BA01E4E0F0E04A8064
:100AA0005B806C807D808F010C5F1F4F4415550566
:100AB00066057705C0F48A859B85E80FF91F349792
:100AC000D080218192818381FD013397D08231963C
:100AD0002083319690838C93F8014F5F5F4F6F4F67
:100AE0007F4F1496DCCFEE0DFF1D8C8580838D85A6
:100AF00081838E8582838F85838380E090E040E0D0
:100B000050E0BA014C845D846E847F84F701E00F6D
:100B1000F11F0C5F1F4F4415550566057705B8F4A6
:100B2000AC89BD89A80FB91FCC901196DC901197A4
:100B300012963C91129713962C91C082D1823283E7
:100B400023834F5F5F4F6F4F7F4F0496DBCF8E89BC
:100B500080838F898183888D8283898D8383412CD3
:100B6000512C32018E899F89A88DB98D481659065E
:100B70006A067B0680F55201AA0CBB1CEC8DFD8D2C
:100B8000EA0DFB1DA081B181FD0101900020E9F774
:100B900031976F01CA1ADB0AA60160E070E0C70155
:100BA000800F911F0E9412050C5F1F4F8C8D9D8D31
:100BB000FC01EA0DFB1D60817181A601C701800F58
:100BC000911F0E94C31D0C0D1D1DFFEF4F1A5F0AE0
:100BD0006F0A7F0AC7CFC801DF91CF911F910F9194
:100BE000FF90EF90DF90CF90BF90AF907F906F908D
:100BF0005F904F900895EF92FF920F931F93CF93C2
:100C0000DF938C017B01EC018A81FB018193AB8135
:100C1000BC81ED0109900020E9F72197CA1BDB0B8D
:100C2000AE0160E070E0CF010E941205F80163811F
:100C30007481AE01C70105960E94C31DCE010596C1
:100C4000DF91CF911F910F91FF90EF900895CF9278
:100C5000DF92EF92FF920F931F93CF93DF936C017C
:100C6000EB01FC018281888383818983A481B58122
:100C7000FD0101900020E9F731978F010A1B1B0B42
:100C8000A80160E070E0CE0102960E941205F60114
:100C900064817581A801CE0106960E94C31DC8011A
:100CA0000696F601A681B781FD0101900020E9F7C3
:100CB00031977F01EA1AFB0AA70160E070E08C0F10
:100CC0009D1F0E941205065F1F4FF6016681778106
:100CD000A701CE01800F911F0E94C31D0E0D1F1D85
:100CE000F601A085B185FD0101900020E9F731975B
:100CF0007F01EA1AFB0AA70160E070E0CE01800FD5
:100D0000911F0E9412050C5F1F4FF60160857185CF
:100D1000A701CE01800F911F0E94C31DC8018E0D37
:100D20009F1DF6016285438534852585C80FD91F2F
:100D3000688349833A832B830496DF91CF911F9177
:100D40000F91FF90EF90DF90CF900895CF92DF92B8
:100D5000EF92FF92FC011082118212821382DB015A
:100D600020E030E04D9150E0022E02C0440F551FAC
:100D70000A94E2F7052E000C660B770BC080D18039
:100D8000E280F3804C295D296E297F2940835183BD
:100D900062837383285F3F4F2032310519F7FF903C
:100DA000EF90DF90CF9008958F929F92AF92BF9275
:100DB000CF92DF92EF92FF920F931F93CF93DF9327
:100DC00000D01F92CDB7DEB77C018B01FB01819172
:100DD000BF01F7018283CE0101960E94A606898198
:100DE0009A81AB81BC814C015D01F5E08F0E911CB5
:100DF000A11CB11C680125E0C20ED11CA601401B3C
:100E0000510B60E070E0481559056A057B0548F410
:100E1000F60141916F019F0122503109F901408390
:100E2000EDCFF801E80FF91F14820C5F1F4FF70197
:100E30001483038305960F900F900F900F90DF910E
:100E4000CF911F910F91FF90EF90DF90CF90BF90C7
:100E5000AF909F908F9008954F925F926F927F9284
:100E60008F929F92AF92BF92CF92DF92EF92FF92BA
:100E70000F931F93CF93DF93CDB7DEB72C970FB6A9
:100E8000F894DEBF0FBECDBF7C018B01DB018C91DE
:100E900090E0F7019383828311962C91922B938398
:100EA00082836E5F7F4FCE0109960E94A6068984D9
:100EB0009A84AB84BC84B501A4014A5F5F4F6F4F35
:100EC0007F4FF8013696CF01801B910BA0E0B0E078
:100ED00084179507A607B70728F48191DF011297B9
:100EE0008C93F1CFF801E80DF91D1582C801059624
:100EF000D70115969C938E931497B4016A5F7F4F28
:100F0000600F711FCE0105960E94A606BAE08B0EF7
:100F1000911C4D815E816F8178852401092C000C24
:100F200066087708440E551E661E771EF801E80D08
:100F3000F91DCF01801B910BA0E0B0E08415950551
:100F4000A605B70528F48191DF0112978C93F1CFA4
:100F50006401C40ED51EB8016C0D7D1DFB013197D7
:100F60001082C4010197800F911FF7019783868338
:100F7000CE0101960E94A606A6014C5F5F4F4980F4
:100F80005A806B807C804A01052E000CAA08BB08A1
:100F9000840C951CA61CB71CF801E40FF51F9F01DB
:100FA000201B310BC901A0E0B0E088159905AA0506
:100FB000BB0528F48191DF0112978C93F0CFCA0111
:100FC000840D951DF801E80FF91FDF0111971C92A0
:100FD0009A0121503109020F131FD70119961C9352
:100FE0000E9318972181428150E060E070E0BA01D1
:100FF00055274427522B2081422B2381722BF70146
:10100000428753876487758704962C960FB6F894A9
:10101000DEBF0FBECDBFDF91CF911F910F91FF902B
:10102000EF90DF90CF90BF90AF909F908F907F9088
:101030006F905F904F9008952F923F924F925F92E2
:101040006F927F928F929F92AF92BF92CF92DF92D8
:10105000EF92FF920F931F93CF93DF93CDB7DEB73D
:1010600028970FB6F894DEBF0FBECDBF8C015B0191
:10107000DB018C9111969C9111971296CC9012974E
:10108000D12CE12CF12C7601DD24CC24D92AC82ADC
:1010900013968C91F82AF80182819381A481B581FD
:1010A0008C159D05AE05BF0570F4B601660F771F60
:1010B000660F771F828593850E948B14D8011B963B
:1010C0009C938E931A97F801C282D382E482F582B0
:1010D000D5011796C12CD12C7601F4E08F2E912CDE
:1010E00098012A5F3F4FF8014281538164817581E5
:1010F000C4010496C416D506E606F70680F54C91A1
:1011000050E060E070E0742F662755274427FD010A
:101110003397E0814E2BFD013297E0815E2BFD017C
:101120003197E0816E2BF801468357836087718782
:101130004C01089742855385840F951FF901408122
:10114000518162817381FC01408351836283738387
:10115000FFEFCF1ADF0AEF0AFF0A1496C4CFF4019B
:10116000EA0DFB1D20813181C280D12CE12CF12CB4
:101170007601DD24CC24D32AC22A2381F22A4C0111
:10118000F80184859585A685B7858C159D05AE05E6
:10119000BF0570F4B601660F771F660F771F84894D
:1011A00095890E948B14D80155969C938E935497E1
:1011B000F801C486D586E686F78620E030E0C12CAB
:1011C000D12C7601D8015096F80144855585668565
:1011D0007785F501E80DF91DC4010496C416D506FE
:1011E000E606F70648F59180428150E060E070E045
:1011F000BA0155274427592990804929E3817E2B3C
:10120000F801408B518B628B738B4C0184899589DB
:10121000FC01E20FF31F4D915D916D917C9113974D
:101220004083518362837383FFEFCF1ADF0AEF0A93
:10123000FF0A2C5F3F4FC8CF20813181C280D12C63
:10124000E12CF12C7601DD24CC24D32AC22A23817F
:10125000F22A4C01F80186899789A08DB18D8C15F1
:101260009D05AE05BF0560F4B601660F771F848D3E
:10127000958D0E948B14D8015D969C938E935C97FC
:10128000F801C68AD78AE08EF18E412C512C3201AA
:101290001801FAE12F0E311CF80186899789A08D7B
:1012A000B18D481659066A067B0608F05AC0B5018A
:1012B000680D791DCE0101960E94A60694012C5F4F
:1012C0003F4FC980DA80EB80FC80C901032E000CFF
:1012D000AA0BBB0BAC01BD014C0D5D1D6E1D7F1D2E
:1012E0004D835E836F837887F501E20FF31FAF01B3
:1012F0004A195B09CA01A0E0B0E04D815E816F81AF
:10130000788584179507A607B70728F44191DF0170
:1013100012974C93ECCFC9018C0D9D1DF501E80F80
:10132000F91F31971082215031092A0D3B1DD80138
:101330005B963C932E935A974C01C201880F991FDC
:101340005C96ED91FC915D97E80FF91FD1018D91AD
:101350009C9191838083BFEF4B1A5B0A6B0A7B0AD7
:101360009BCFC40128960FB6F894DEBF0FBECDBF49
:10137000DF91CF911F910F91FF90EF90DF90CF9071
:10138000BF90AF909F908F907F906F905F904F90A5
:101390003F902F900895FC01E85EFB4F20E030E085
:1013A00041915191452B91F4F901E45FFD4FEE0F0E
:1013B000FF1FE80FF91F7183608323583F4FFB0124
:1013C000358324839783868381E008952F5F3F4F81
:1013D0002931310529F780E008951092F304109225
:1013E000F2041092EE041092EF041092F0041092A6
:1013F000F10464EF74E082E095E00E94CB098EE195
:1014000092E00E94A70441E050E065E373E082E0CF
:101410000E948F12109201051092000508951092FB
:10142000DF041092DE041092DA041092DB041092B2
:10143000DC041092DD0460EE74E082E095E00E942E
:10144000CB098AE192E00E94A70441E050E06DE8F8
:1014500073E083E00E948F121092ED041092EC046E
:1014600008951092CB041092CA041092C6041092F0
:10147000C7041092C8041092C9046CEC74E082E0B6
:1014800095E00E94CB0986E192E00E94A70441E02A
:1014900050E065EE73E084E00E948F121092D90450
:1014A0001092D80408951092B7041092B6041092C6
:1014B000B2041092B3041092B4041092B50468EB15
:1014C00074E082E095E00E94CB0982E192E00E9404
:1014D000A70441E050E06DE374E085E00E948F12C4
:1014E0001092C5041092C40408950E94ED090E9450
:1014F0000F0A0E94310A0C94530ADC01A65BBB4F11
:1015000020E030E04D915D91452B81F4F901EB5DD8
:10151000FD4FEE0FFF1FE80FF91F718360832C59F9
:101520003F4FFB013383228381E008952F5F3F4FBC
:101530002931310539F780E008956EE974E082E0E1
:1015400095E00E947D0A6AE874E082E095E00E94DE
:101550007D0A66E774E082E095E00E947D0A62E61B
:1015600074E082E095E00C947D0A0E949D0A0E943E
:10157000750AE2E0F5E044815581668177818281D8
:1015800093810E942B1B10927F0910927E0910926A
:101590008109109280091092850910928409109295
:1015A0008309109282090895CF93DF9300D01F9290
:1015B0001F92CDB7DEB720E034E03A8329836B83F6
:1015C0005D834C83DC01ED91FC910190F081E02D75
:1015D000AE014F5F5F4F67E070E019950F900F907D
:1015E0000F900F900F90DF91CF910895CF93DF93DD
:1015F000EC016A817B818C819D810E94E81C8AE9D3
:1016000094E00E9421028D818F938C818F938B8136
:101610008F938A818F9388E493E09F938F930E94A6
:10162000CC1D0F900F900F900F900F900F904BE4E8
:1016300053E061E082E095E0DF91CF910C94D40A11
:10164000CF92DF92EF92FF920F931F93CF93DF938E
:10165000EC017B01643671053CF0FE01EA57FB4F5B
:101660008081882309F462C0DA01ED91FC91019038
:10167000F081E02DBE01615E7D4FCA0119958E019A
:10168000085E1D4F2FEFF80120832EEF3196208347
:1016900031968083319690833196292F280F20959B
:1016A00020833196E082DE01A25EBD4FFC9245E0D0
:1016B00050E020E030E0BC016A5F7F4F641775079F
:1016C00034F0A1912A0F311D4F5F5F4FF7CF7C019E
:1016D000F8E0EF0EF11C8C0F9D1FFC01E15EFD4F49
:1016E0002095208341E0E41642E0F406B4F468015A
:1016F000C601801B910B8E159F056CF48A819B811E
:10170000D6016D916D01DC01ED91FC910190F081AC
:10171000E02D1995EDCFC7010BC042E553E063E022
:10172000CE010E94D40A8FEF9FEF02C080E090E0CC
:10173000DF91CF911F910F91FF90EF90DF90CF90AD
:1017400008954BE853E061E082E095E00C94D40A00
:10175000FC0162817381848195810E94E81C82E78B
:1017600094E00E94210244E953E061E082E095E0C8
:101770000C94D40ACF93DF93EC016A817B818C8136
:101780009D810E94E81C86E894E00E9421028D81E0
:101790008F938C818F938B818F938A818F9388E431
:1017A00093E09F938F930E94CC1D0F900F900F900A
:1017B0000F900F900F904BE953E061E082E095E0CD
:1017C000DF91CF910C94D40ACF93DF93EC016A811F
:1017D0007B818C819D810E94E81C8EEA94E00E94AE
:1017E00021028D818F938C818F938B818F938A813E
:1017F0008F9388E493E09F938F930E94CC1D0F906A
:101800000F900F900F900F900F9042EA53E061E01D
:1018100082E095E0DF91CF910C94D40A0F931F934F
:10182000CF93DF93CDB7DEB72A970FB6F894DEBF1C
:101830000FBECDBF8C0188EE93E09A8389831B8213
:101840001C821D821E821F82188619861A86D80164
:10185000ED91FC910190F081E02DAE014F5F5F4F63
:101860006AE070E0C80119950E94EB16F8016087E4
:101870007187828793872A960FB6F894DEBF0FBED2
:10188000CDBFDF91CF911F910F9108954F925F923D
:101890006F927F92AF92BF92CF92DF92EF92FF92C0
:1018A0000F931F93CF93DF93CDB7DEB72E970FB66D
:1018B000F894DEBF0FBECDBF8C0184EF93E09A8316
:1018C00089831C821B828AE893E09E838D8398879C
:1018D0008F839A8789871B861C861D861E866801D2
:1018E00088EEC81A8BEFD80A7801A6EBEA1AABEF9C
:1018F000FA0A412C92E0592E612C712CD601ED91FF
:10190000FC913097B9F1848195819C838B83808190
:1019100091819E838D8382819381DC01ED91FC9185
:101920000480F581E02D199598878F83D601ED917C
:10193000FC9182819381DC01ED91FC910680F7811D
:10194000E02D19959A8789874B865C866D867E8601
:10195000F80180819181F601A081B18118966D9185
:101960007C911997DC01ED91FC91AE014F5F5F4FC7
:10197000C8011995B2E0CB0ED11CCE14DF0409F0DA
:10198000BDCF6801E4E8CE1AEBEFDE0A412C82E01D
:10199000582E612C712CF701A081B1811097E1F1D3
:1019A00012968D919C9113979C838B8314968D91A5
:1019B0009C9115979E838D83ED91FC9111970480E6
:1019C000F581E02DCD01199598878F83D7018D91F1
:1019D0009C91DC01ED91FC910680F781E02D199539
:1019E0009A8789874B865C866D867E86D801ED91C5
:1019F000FC91A080B180F70180819181DC01ED91A3
:101A0000FC910280F381E02D1995AE014F5F5F4F8D
:101A1000BC01C801F5011995F2E0EF0EF11CEC14C0
:101A2000FD0409F0B8CFF801EA57FB4F81E080834D
:101A30002E960FB6F894DEBF0FBECDBFDF91CF91CB
:101A40001F910F91FF90EF90DF90CF90BF90AF90DC
:101A50007F906F905F904F9008958F929F92AF927A
:101A6000BF92CF92DF92EF92FF920F931F93CF938B
:101A7000DF93CDB7DEB72A970FB6F894DEBF0FBE5F
:101A8000CDBF8C015B0188EE93E09A8389831B8232
:101A90001C821D821E821F82188619861A860E9449
:101AA000EB16F801C084D184E284F3849B01AC017D
:101AB0002C193D094E095F0969017A01B501CE0172
:101AC00001960E94670288EE882E83E0982EA12C52
:101AD000B12CC701B601A50194010E946B1DCB80FA
:101AE000DC80ED80FE80C20ED31EE41EF51ECB828C
:101AF000DC82ED82FE829B01AC0160E472E48FE047
:101B000090E00E94471DCF80D884E984FA84DC01EC
:101B1000CB018C0D9D1DAE1DBF1D8F839887A9879E
:101B2000BA870E94EB16CB80DC80ED80FE8031E02E
:101B3000C31AD108E108F108A50194010E946B1DA8
:101B4000C21AD30AE40AF50AF801C486D586E686E5
:101B5000F786CF80D884E984FA84F6E3DF1AF5E6C5
:101B6000EF0AF4ECFF0A9B01AC0160E472E48FE041
:101B700090E00E94471DC61AD70AE80AF90AF80140
:101B8000C08AD18AE28AF38AB801605F7F4FC801B8
:101B90000C960E94BA1C0E94EB16F801E557FB4F09
:101BA00060837183828393832A960FB6F894DEBF95
:101BB0000FBECDBFDF91CF911F910F91FF90EF909E
:101BC000DF90CF90BF90AF909F908F9008952F920D
:101BD0003F924F925F926F927F928F929F92AF92BD
:101BE000BF92CF92DF92EF92FF920F931F93CF930A
:101BF000DF93CDB7DEB760970FB6F894DEBF0FBEA8
:101C0000CDBF988B8F870E94EB164B015C012F850F
:101C1000388925573B4F3E832D83F901808191817F
:101C2000A281B381A5019401281B390B4A0B5B0BE0
:101C3000DA01C901893F9A42A105B10528F0EF8573
:101C4000F889EA57FB4F10820F85188904581B4FFB
:101C5000D8018D919C91892B81F0EF85F889E1570E
:101C6000FB4F80819181A281B38188159905AA05D6
:101C7000BB0518F4F801118210826F847888FCE7A4
:101C80006F1AFBEF7F0A2F85388920583B4F3A8324
:101C90002983CF84D88838E1C30ED11C4F85588959
:101CA0004A575B4F58874F832F8538892C563B4FB7
:101CB0003A8729874F8558894D565B4F5C874B87FC
:101CC000EF84F88852E8E51A5BEFF50A2F8538892A
:101CD0002E573B4F3C832B834F85588941575B4F91
:101CE0005E874D871401250154E1250E311C411CEE
:101CF000511CEF85F88984899589A689B789892B34
:101D00008A2B8B2B89F4AF85B88912968D919C9183
:101D10001397DC01ED91FC910680F781E02D199578
:101D20009C0197FF15C037C10E94EB16DC01CB0167
:101D300088199909AA09BB09EF85F8892489358989
:101D400046895789281739074A075B07E0F64BC1D0
:101D5000D3018D919C911197820F931F8D939C932A
:101D6000F8014081518147305105D9F4AB81BC81E4
:101D70008D919C911197AC014F5F5F4F4D935C9398
:101D8000EF85F889E80FF91F208FF7018081918195
:101D9000019791838083892B09F0ABCF88E090E095
:101DA0002FC04115510521F52F3F310569F481E020
:101DB00090E0F80191838083AD85BE852D923D92A0
:101DC0004D925C92139795CF0E94EB16DC01CB01EC
:101DD00088199909AA09BB0989389341A105B10558
:101DE00008F487CFEF85F889EA57FB4F1082FBC0D4
:101DF00041305105B1F42E3F310531F482E090E0DD
:101E0000D8018D939C9375CFF80111821082AF8118
:101E1000B8858C9181116DCF8F8598890E940E0CA9
:101E200068CF4230510569F4F70131832083AB81DB
:101E3000BC811D921C9283E090E0F8019183808325
:101E40002EC04330510561F4322F2227F7018081E3
:101E50009181280F391F3183208384E090E0D0CF17
:101E60004430510581F460E071E00E94571D8F3FBE
:101E7000910531F485E090E0F8019183808339CFBA
:101E80001182108236CF4530510569F4E981FA811B
:101E900031832083E6E0F0E0D801ED93FC93D30199
:101EA0002D933C9326CF4630510599F4322F2227AB
:101EB000E981FA8180819181280F391F3183208344
:101EC000E7E0F0E0D801ED93FC93D7018D919C9170
:101ED00062CF4830510509F00CCFF8011182108211
:101EE00060E071E00E94571D8F3F910509F001CF1E
:101EF000A981BA818D919C910097C9F48F859889A9
:101F00000E940E0C8F8598890E94460CEF85F889F7
:101F1000E957FB4F80829182A282B382ED81FE81DC
:101F200080829182A282B3828FEF9FEF61C08A305C
:101F3000910531F4B6018F8598890E942D0DD9CE77
:101F40008630910551F4B60189859A850E941C0856
:101F500081E0AB85BC858C93CCCE8B30910521F490
:101F6000EF81F8851082C5CEFC01EF53FE4FEE0FD6
:101F7000FF1F2F853889E20FF31F80819181009721
:101F800009F4B7CEDC01ED91FC910190F081E02DD8
:101F9000B6011995AECEEF85F889EA57FB4F8081DF
:101FA000882321F10F85188909571B4FF80180817B
:101FB0009181A281B381A5019401281B390B4A0BA1
:101FC0005B0BDA01C901853C9940A105B10570F0B0
:101FD0008F8598890E940E0CD8018D929D92AD92AA
:101FE000BC92139703C08EEF9FEF02C080E090E099
:101FF00060960FB6F894DEBF0FBECDBFDF91CF91D4
:102000001F910F91FF90EF90DF90CF90BF90AF9016
:102010009F908F907F906F905F904F903F902F9008
:1020200008950E94080582E095E00E94E70D65E0B2
:1020300070E080E090E00C941C17EF92FF920F93F9
:102040001F93CF93DF9384E294E0909303058093F2
:10205000020583E39AE0909305058093040580E0F0
:1020600091EEA0E0B0E08093060590930705A09361
:102070000805B0930905109288098CE094E09093CC
:1020800097098093960910929809109299091092D5
:102090009A0910929B091092A1091092A00910921E
:1020A000A2091092A3091092A4091092A5091092F6
:1020B000AB091092AA091092AC091092AD091092C6
:1020C000AE091092AF091092B3091092B209EAE179
:1020D000F9E01192119289E0EC34F807D1F7ECE4C1
:1020E000F9E01192119289E0EE37F807D1F7EAE1B1
:1020F000F5E0119287E0EA31F807D9F7EAE1F7E075
:10210000119289E0EA31F807D9F71092160510927A
:10211000170510921805109219058EE294E090931D
:10212000FF048093FE04109201051092000529EA35
:1021300033E03093F5042093F4042EEF34E0309331
:10214000F7042093F6041092FD041092FC0490937F
:10215000EB048093EA041092ED041092EC042EEA52
:1021600033E03093E1042093E0042AEE34E030932E
:10217000E3042093E2041092E9041092E80490939F
:10218000D7048093D6041092D9041092D80423EB7C
:1021900033E03093CD042093CC0426ED34E030932B
:1021A000CF042093CE041092D5041092D4049093BF
:1021B000C3048093C2041092C5041092C40488EB37
:1021C00093E09093B9048093B80482EC94E09093E8
:1021D000BB048093BA041092C1041092C0044091D1
:1021E0000E0250910F0260911002709111028EEA5E
:1021F00094E00E94100280910C0290910D022AE35B
:10220000E22E24E0F22EF0929F04E0929E0408E178
:1022100014E01093A5040093A4041092A604109255
:10222000A7041092A8041092A90424EE3BE0309376
:10223000AB042093AA04C1E0D0E0D093AD04C093D6
:10224000AC049093A3048093A2044091080250919F
:10225000090260910A0270910B028AE994E00E94DF
:102260001002F0928B04E0928A0410939104009380
:10227000900410929204109293041092940410927D
:10228000950486EF9AE09093970480939604D093F8
:102290009904C09398048BE493E090938F04809307
:1022A0008E044091040250910502609106027091E3
:1022B000070286E894E00E941002F0927704E09210
:1022C000760410937D0400937C0410927E04109297
:1022D0007F0410928004109281048AEB9BE090931B
:1022E000830480938204D0938504C09384048BE993
:1022F00093E090937B0480937A0440910002509184
:102300000102609102027091030282E794E00E9450
:102310001002F0926304E092620410936904009347
:10232000680410926A0410926B0410926C0410926C
:102330006D0488EA9BE090936F0480936E04D093C1
:102340007104C093700484E993E0909367048093D0
:102350006604F0925304E0925204109359040093DF
:10236000580410925A0410925B0410925C0410926C
:102370005D0481EA9BE090935F0480935E04D093B8
:102380006104C09360048DEB93E0909357048093B5
:102390005604DF91CF911F910F91FF90EF90089518
:1023A0001F93CF93DF93182FEB0161E00E94F61784
:1023B000209711F460E004C0CF3FD10539F461E00B
:1023C000812FDF91CF911F910C943218E12FF0E013
:1023D000EA56FD4FE4914E2F50E0FA013197E1317A
:1023E000F10508F093C08827EE58FF4F8F4F0C94EB
:1023F0008D1D84B5806884BDC7BD8DC084B58062E5
:1024000084BDC8BD88C080918000806880938000B2
:10241000D0938900C09388007EC080918000806244
:1024200080938000D0938B00C0938A0074C0809109
:10243000B00080688093B000C093B3006CC08091FE
:10244000B00080628093B000C093B40064C08091FB
:102450009000806880939000D0939900C09398007A
:102460005AC080919000806280939000D0939B002E
:10247000C0939A0050C08091900088608093900033
:10248000D0939D00C0939C0046C08091A0008068BE
:102490008093A0008091A0008F7B8093A000D093B8
:1024A000A900C093A80037C08091A00080628093EB
:1024B000A000D093AB00C093AA002DC08091A000D3
:1024C00088608093A000D093AD00C093AC0023C07F
:1024D00080912001806880932001D0932901C093CE
:1024E000280119C080912001806280932001D0933F
:1024F0002B01C0932A010FC0809120018860809336
:102500002001D0932D01C0932C0105C0C038D10506
:102510000CF055CF4FCFDF91CF911F9108958830A8
:1025200008F070C0A82FB0E0AA0FBB1FAC54B64F84
:1025300011967C936E9390E0FC013197E730F105A2
:10254000A0F58827ED57FF4F8F4F0C948D1D80917C
:1025500069008C7F482B40936900E89A0895809128
:102560006900440F551F440F551F837F482B40932C
:102570006900E99A08958091690074E0440F551F3D
:102580007A95E1F78F7C482B40936900EA9A089589
:102590008091690066E0440F551F6A95E1F78F73DB
:1025A000482B40936900EB9A089580916A008C7FD4
:1025B000482B40936A00EC9A089580916A00440F7A
:1025C000551F440F551F837F482B40936A00ED9A97
:1025D000089580916A0024E0440F551F2A95E1F781
:1025E0008F7C482B40936A00EE9A089580916A0090
:1025F00096E0440F551F9A95E1F78F73482B40934F
:102600006A00EF9A08951F920F920FB60F9211244D
:102610000BB60F922F933F934F935F936F937F93DC
:102620008F939F93AF93BF93EF93FF938091B809DC
:102630009091B909892B29F0E091B809F091B90975
:102640001995FF91EF91BF91AF919F918F917F91DC
:102650006F915F914F913F912F910F900BBE0F9013
:102660000FBE0F901F9018951F920F920FB60F92EA
:1026700011240BB60F922F933F934F935F936F9359
:102680007F938F939F93AF93BF93EF93FF9380912B
:10269000BA099091BB09892B29F0E091BA09F09110
:1026A000BB091995FF91EF91BF91AF919F918F91C8
:1026B0007F916F915F914F913F912F910F900BBE42
:1026C0000F900FBE0F901F9018951F920F920FB68C
:1026D0000F9211240BB60F922F933F934F935F935A
:1026E0006F937F938F939F93AF93BF93EF93FF93DA
:1026F0008091BC099091BD09892B29F0E091BC091A
:10270000F091BD091995FF91EF91BF91AF919F9104
:102710008F917F916F915F914F913F912F910F908A
:102720000BBE0F900FBE0F901F9018951F920F9227
:102730000FB60F9211240BB60F922F933F934F9326
:102740005F936F937F938F939F93AF93BF93EF9319
:10275000FF938091BE099091BF09892B29F0E091E8
:10276000BE09F091BF091995FF91EF91BF91AF910B
:102770009F918F917F916F915F914F913F912F9199
:102780000F900BBE0F900FBE0F901F9018951F92C9
:102790000F920FB60F9211240BB60F922F933F9307
:1027A0004F935F936F937F938F939F93AF93BF9359
:1027B000EF93FF938091B4099091B509892B29F08B
:1027C000E091B409F091B5091995FF91EF91BF918E
:1027D000AF919F918F917F916F915F914F913F91B9
:1027E0002F910F900BBE0F900FBE0F901F9018955A
:1027F0001F920F920FB60F9211240BB60F922F93C8
:102800003F934F935F936F937F938F939F93AF9378
:10281000BF93EF93FF938091B6099091B709892BED
:1028200029F0E091B609F091B7091995FF91EF9160
:10283000BF91AF919F918F917F916F915F914F91D8
:102840003F912F910F900BBE0F900FBE0F901F90D6
:1028500018951F920F920FB60F9211240BB60F927C
:102860002F933F934F935F936F937F938F939F9398
:10287000AF93BF93EF93FF938091C0099091C109EB
:10288000892B29F0E091C009F091C1091995FF91B8
:10289000EF91BF91AF919F918F917F916F915F91D8
:1028A0004F913F912F910F900BBE0F900FBE0F9045
:1028B0001F9018951F920F920FB60F9211240BB60E
:1028C0000F922F933F934F935F936F937F938F93C9
:1028D0009F93AF93BF93EF93FF938091C209909121
:1028E000C309892B29F0E091C209F091C309199518
:1028F000FF91EF91BF91AF919F918F917F916F91D8
:102900005F914F913F912F910F900BBE0F900FBE93
:102910000F901F9018956F927F928F929F92AF9217
:10292000BF92CF92DF92EF92FF920F931F93CF93BC
:10293000DF93EC01009789F4CB01DF91CF911F91D8
:102940000F91FF90EF90DF90CF90BF90AF909F904E
:102950008F907F906F900C947415FC01E60FF71F19
:102960009C0122503109E217F30708F4ACC0D901E9
:102970000D911C91119706171707B0F0053011053E
:1029800008F49FC0C80104978617970708F499C0F8
:1029900002501109061B170B019311936D937C9341
:1029A000CF010E9409168DC05B01A01AB10A4C012B
:1029B000800E911EA091770CB091780C40E050E011
:1029C000E12CF12C109709F44AC0A815B905D1F5EE
:1029D0006D907C901197630182E0C80ED11CCA14DF
:1029E000DB0480F1A3014A195B096A0182E0C80E89
:1029F000D11C1296BC9012971396AC91B5E0CB16F1
:102A0000D10440F0B282A38351834083D9016D93F6
:102A10007C930AC00E5F1F4FC301800F911FF90105
:102A200091838083EB2DFA2FE114F10431F0D7016B
:102A30001396FC93EE93129744C0F093780CE093B6
:102A4000770C3FC08D919C9111974817590708F456
:102A5000AC017D0112960D90BC91A02DB3CF809159
:102A6000750C9091760C88159905E1F44617570777
:102A7000C8F48091220290912302009741F48DB70F
:102A80009EB74091260250912702841B950BE817B0
:102A9000F907C8F4F093760CE093750CF901718393
:102AA00060830FC0CB010E9474157C01009759F020
:102AB000A801BE010E94C31DCE010E940916C701D4
:102AC00004C0CE0102C080E090E0DF91CF911F9161
:102AD0000F91FF90EF90DF90CF90BF90AF909F90BD
:102AE0008F907F906F900895CF93DF938230910500
:102AF00010F482E090E0E091770CF091780C20E007
:102B000030E0C0E0D0E0309711F1408151814817AA
:102B10005907C0F04817590761F4828193812097C3
:102B200019F09B838A832BC09093780C8093770C49
:102B300026C02115310519F04217530718F49A01E0
:102B4000BE01DF01EF010280F381E02DDCCF211512
:102B5000310509F1281B390B2430310590F4129608
:102B60008D919C9113976115710521F0FB01938361
:102B7000828304C09093780C8093770CFD01329689
:102B800044C0FD01E20FF31F81939193225031095C
:102B90002D933C933AC02091750C3091760C232BE9
:102BA00041F420912402309125023093760C209339
:102BB000750C20912202309123022115310541F438
:102BC0002DB73EB74091260250912702241B350BAA
:102BD000E091750CF091760CE217F307A0F42E1B30
:102BE0003F0B2817390778F0AC014E5F5F4F241771
:102BF000350748F04E0F5F1F5093760C4093750CCD
:102C00008193919302C0E0E0F0E0CF01DF91CF919A
:102C100008950F931F93CF93DF93009709F48CC00F
:102C2000FC013297138212820091770C1091780C7C
:102C30000115110581F420813181820F931F2091AC
:102C4000750C3091760C2817390779F5F093760CCE
:102C5000E093750C71C0D80140E050E0AE17BF079B
:102C600050F412962D913C911397AD012115310529
:102C700009F1D901F3CF9D01DA0133832283608109
:102C80007181860F971F8217930769F4EC012881E1
:102C90003981260F371F2E5F3F4F318320838A8172
:102CA0009B8193838283452B29F4F093780CE093E6
:102CB000770C42C01396FC93EE931297ED01499165
:102CC00059919E01240F351FE217F30771F480819B
:102CD0009181840F951F029611969C938E93828109
:102CE000938113969C938E931297E0E0F0E0D801C5
:102CF00012968D919C911397009719F0F8018C0111
:102D0000F6CF8D919C9198012E5F3F4F820F931FBC
:102D10002091750C3091760C2817390769F430979B
:102D200029F41092780C1092770C02C01382128250
:102D30001093760C0093750CDF91CF911F910F913A
:102D400008951F920F920FB60F9211242F933F9365
:102D50008F939F93AF93BF938091C5099091C609BC
:102D6000A091C709B091C8093091C40923E0230F8D
:102D70002D3720F40196A11DB11D05C026E8230FB3
:102D80000296A11DB11D2093C4098093C50990939B
:102D9000C609A093C709B093C8098091C909909149
:102DA000CA09A091CB09B091CC090196A11DB11D12
:102DB0008093C9099093CA09A093CB09B093CC0919
:102DC000BF91AF919F918F913F912F910F900FBE27
:102DD0000F901F9018952FB7F8946091C5097091C6
:102DE000C6098091C7099091C8092FBF08953FB7C0
:102DF000F8948091C9099091CA09A091CB09B0912A
:102E0000CC0926B5A89B05C02F3F19F00196A11D3E
:102E1000B11D3FBFBA2FA92F982F8827820F911D70
:102E2000A11DB11DBC01CD0142E0660F771F881FB7
:102E3000991F4A95D1F70895CF92DF92EF92FF92B2
:102E4000CF93DF936B017C010E94F716EB01C11455
:102E5000D104E104F10479F00E94F7166C1B7D0B9C
:102E6000683E7340A0F381E0C81AD108E108F10878
:102E7000C851DC4FECCFDF91CF91FF90EF90DF9006
:102E8000CF900895789484B5826084BD84B58160C4
:102E900084BD85B5826085BD85B5816085BDEEE662
:102EA000F0E0808181608083E1E8F0E01082808141
:102EB00082608083808181608083E0E8F0E08081AF
:102EC00081608083E1EBF0E0808184608083E0EBCF
:102ED000F0E0808181608083E1E9F0E080818260C0
:102EE0008083808181608083E0E9F0E0808181607F
:102EF0008083E1EAF0E0808182608083808181606C
:102F00008083E0EAF0E0808181608083E1E2F1E0AB
:102F1000808182608083808181608083E0E2F1E053
:102F2000808181608083EAE7F0E080818460808333
:102F300080818260808380818160808380818068DD
:102F400080831092C100089590E0FC013197E13137
:102F5000F10508F04AC08827E657FF4F8F4F0C94C1
:102F60008D1D809180008F7703C0809180008F7DC0
:102F700080938000089584B58F7702C084B58F7DDB
:102F800084BD08958091B0008F7703C08091B00018
:102F90008F7D8093B0000895809190008F7707C057
:102FA000809190008F7D03C080919000877F8093F7
:102FB000900008958091A0008F7707C08091A000B5
:102FC0008F7D03C08091A000877F8093A00008952B
:102FD000809120018F7707C0809120018F7D03C0F1
:102FE00080912001877F809320010895CF93DF9304
:102FF00090E0FC01E452FD4F2491FC01EE5DFC4F9A
:103000008491882361F190E0880F991FFC01E456B8
:10301000FC4FC591D491FC01EE57FC4FA591B491A2
:10302000611109C09FB7F894888120958223888315
:10303000EC912E230BC0623061F49FB7F894388175
:10304000822F809583238883EC912E2B2C939FBF16
:1030500006C08FB7F894E8812E2B28838FBFDF91AD
:10306000CF9108951F93CF93DF93282F30E0F9017C
:10307000EA56FD4F8491F901E452FD4FD491F901D4
:10308000EE5DFC4FC491CC23C9F0162F81110E9434
:10309000A417EC2FF0E0EE0FFF1FEE57FC4FA591A9
:1030A000B4918FB7F894111105C09C91ED2FE09564
:1030B000E92302C0EC91ED2BEC938FBFDF91CF9110
:1030C0001F910895CF93DF93282F30E0F901EA563E
:1030D000FD4F8491F901E452FD4FD491F901EE5D69
:1030E000FC4FC491CC2391F081110E94A417EC2FC6
:1030F000F0E0EE0FFF1FE859FC4FA591B491EC9161
:10310000ED2381E090E021F480E002C080E090E0D7
:10311000DF91CF910895FC0124853585F901E05CAC
:10312000FF4F80819181329620813181821B930BE8
:103130008F7399270895DC011C96ED91FC911D97E2
:10314000DF01A05CBF4F2D913C91119712968D919C
:103150009C9111972817390739F08D919C91E80FB0
:10316000F91F808190E008958FEF9FEF0895FC0193
:10317000A485B585FD01E05CFF4F20813181329649
:10318000808191812817390779F080819181A80F7A
:10319000B91F8C91208131812F5F3F4F2F733327CF
:1031A0003183208390E008958FEF9FEF0895FC0115
:1031B00081A1882329F0A489B5898C9186FFFBCF52
:1031C00011A208950F931F93CF93DF93FC01A6855F
:1031D000B7858D01005C1F4FE801888199810196B8
:1031E0008F739927AD014E5B5F4FEA0128813981CA
:1031F00082179307D1F3E80128813981A20FB31F09
:103200006C93A685B785A05CBF4F11969C938E9357
:10321000A689B7892C9181E090E0078C02C0880FC5
:10322000991F0A94E2F7822B8C9381E081A3048892
:10323000F589E02D80818064808381E090E0DF91DA
:10324000CF911F910F910895FB01E05CFF4F20810A
:1032500031812F5F3F4F2F733327DB01AE5BBF4FB1
:103260004D915C912417350741F040815181DB017C
:10327000A40FB51F8C9331832083089508951F9266
:103280000F920FB60F9211240BB60F922F933F930C
:103290004F935F936F937F938F939F93AF93BF935E
:1032A000EF93FF938091C00082FD07C08091C6001C
:1032B00061E37CE00E94241902C08091C600FF9166
:1032C000EF91BF91AF919F918F917F916F915F919E
:1032D0004F913F912F910F900BBE0F900FBE0F900B
:1032E0001F90189508951F920F920FB60F921124F8
:1032F0000BB60F922F933F934F935F936F937F93F0
:103300008F939F93AF93BF93EF93FF938091C800E8
:1033100082FD07C08091CE0069EA7BE00E942419FB
:1033200002C08091CE00FF91EF91BF91AF919F912C
:103330008F917F916F915F914F913F912F910F905E
:103340000BBE0F900FBE0F901F90189508951F92FF
:103350000F920FB60F9211240BB60F922F933F933B
:103360004F935F936F937F938F939F93AF93BF938D
:10337000EF93FF938091D00082FD07C08091D6002B
:1033800061E27BE00E94241902C08091D600FF9187
:10339000EF91BF91AF919F918F917F916F915F91CD
:1033A0004F913F912F910F900BBE0F900FBE0F903A
:1033B0001F90189508951F920F920FB60F92112427
:1033C0000BB60F922F933F934F935F936F937F931F
:1033D0008F939F93AF93BF93EF93FF9380913001AF
:1033E00082FD07C08091360169E97AE00E942419C4
:1033F00002C080913601FF91EF91BF91AF919F91F3
:103400008F917F916F915F914F913F912F910F908D
:103410000BBE0F900FBE0F901F90189583E39AE09C
:103420000E948B18892B11F00E943E1981E19AE0CD
:103430000E948B18892B11F00E9472198FEE99E06F
:103440000E948B18892B11F00E94A6198DEC99E02F
:103450000E948B18892B11F00C94DA1908951F9291
:103460000F920FB60F9211240BB60F922F933F932A
:103470008F939F93EF93FF9320912D0C30912E0CFF
:1034800080912F0C9091300C2817390731F48091DE
:10349000C1008F7D8093C10014C0E0912F0CF0918A
:1034A000300CE351F44F208180912F0C9091300C1F
:1034B00001968F7399279093300C80932F0C209353
:1034C000C600FF91EF919F918F913F912F910F90A7
:1034D0000BBE0F900FBE0F901F9018951F920F926A
:1034E0000FB60F9211240BB60F922F933F938F9329
:1034F0009F93EF93FF932091A50B3091A60B8091A2
:10350000A70B9091A80B2817390731F48091C900B7
:103510008F7D8093C90014C0E091A70BF091A80B98
:10352000EB59F44F20818091A70B9091A80B019645
:103530008F7399279093A80B8093A70B2093CE00AD
:10354000FF91EF919F918F913F912F910F900BBE23
:103550000F900FBE0F901F9018951F920F920FB6ED
:103560000F9211240BB60F922F933F938F939F933B
:10357000EF93FF9320911D0B30911E0B80911F0B39
:103580009091200B2817390731F48091D1008F7D5D
:103590008093D10014C0E0911F0BF091200BE352F7
:1035A000F54F208180911F0B9091200B01968F7316
:1035B00099279093200B80931F0B2093D600FF91A7
:1035C000EF919F918F913F912F910F900BBE0F9094
:1035D0000FBE0F901F9018951F920F920FB60F926B
:1035E00011240BB60F922F933F938F939F93EF93DA
:1035F000FF932091950A3091960A8091970A9091B5
:10360000980A2817390731F4809131018F7D809312
:10361000310114C0E091970AF091980AEB5AF54FE6
:1036200020818091970A9091980A01968F7399272B
:103630009093980A8093970A20933601FF91EF9117
:103640009F918F913F912F910F900BBE0F900FBEC6
:103650000F901F901895CF92DF92EF92FF920F93E9
:103660001F93CF93DF93EC016A017B014115514E0B
:103670006105710509F1EC89FD8981E090E008A000
:1036800002C0880F991F0A94E2F7808360E079E016
:103690008DE390E0A70196010E946B1D89019A01BC
:1036A000015011092109310936952795179507957C
:1036B000980101151041A8F0EC89FD89108260E89D
:1036C00074E88EE190E0A70196010E946B1DDA017B
:1036D000C9010197A109B109B695A7959795879555
:1036E0009C01E889F9893083EA89FB89208319A242
:1036F000EE89FF89408181E090E09C010C8C02C042
:10370000220F331F0A94E2F7242B2083EE89FF89CE
:1037100040819C010D8C02C0220F331F0A94E2F7F6
:10372000242B2083EE89FF8940819C010E8C02C0EE
:10373000220F331F0A94E2F7242B2083EE89FF899E
:1037400020810F8C02C0880F991F0A94E2F78095A0
:1037500082238083DF91CF911F910F91FF90EF9093
:10376000DF90CF900895CF92DF92EF92FF92E3E344
:10377000FAE01382128288EEC82E83E0D82EE12C64
:10378000F12CC482D582E682F78266E474E071830C
:10379000608381E39CE0958784878DEE9BE097872B
:1037A000868785EC90E0918B808B84EC90E0938B06
:1037B000828B80EC90E0958B848B81EC90E0978BF2
:1037C000868B82EC90E0918F808F86EC90E0938FD7
:1037D000828F44E0448F33E0358F27E0268F95E0D9
:1037E000978F81E080A3E1E1FAE013821282C48224
:1037F000D582E682F78271836083A9EABBE0B58750
:10380000A487A5E6BBE0B787A687ADECB0E0B18B97
:10381000A08BACECB0E0B38BA28BA8ECB0E0B58B86
:10382000A48BA9ECB0E0B78BA68BAAECB0E0B18F6B
:10383000A08FAEECB0E0B38FA28F448F358F268F70
:10384000978F80A3EFEEF9E013821282C482D582B3
:10385000E682F78271836083A1E2BBE0B587A4872B
:10386000ADEDBAE0B787A687A5EDB0E0B18BA08B30
:10387000A4EDB0E0B38BA28BA0EDB0E0B58BA48B30
:10388000A1EDB0E0B78BA68BA2EDB0E0B18FA08F19
:10389000A6EDB0E0B38FA28F448F358F268F978F20
:1038A00080A3EDECF9E013821282C482D582E68215
:1038B000F7827183608369E97AE07587648765E5DB
:1038C0007AE07787668765E371E0718B608B64E3EC
:1038D00071E0738B628B60E371E0758B648B61E3E5
:1038E00071E0778B668B62E371E0718F608F66E3C6
:1038F00071E0738F628F448F358F268F978F80A3EF
:10390000FF90EF90DF90CF900895CF92DF92EF92EB
:10391000FF920F931F93CF93DF936C01EB017B0119
:10392000E40EF51E00E010E0CE15DF0561F06991B0
:10393000D601ED91FC910190F081E02DC601199521
:10394000080F191FF1CFC801DF91CF911F910F917F
:10395000FF90EF90DF90CF9008950E9442170E9451
:10396000B50ACEE0DAE10E9411102097E1F30E943F
:103970000E1AF9CFCF92DF92EF92FF920F931F931F
:10398000CF93DF938C01EB01688179818A819B81E0
:1039900020E03AEC4AE95BE30E946B1DF801C0802D
:1039A000D180E280F380C20ED31EE41EF51EC082D9
:1039B000D182E282F382688379838A839B83DF9159
:1039C000CF911F910F91FF90EF90DF90CF900895CE
:1039D0000E94EF1C6894B1110C94411D08950E943F
:1039E000261D88F09F5798F0B92F9927B751B0F04E
:1039F000E1F0660F771F881F991F1AF0BA95C9F773
:103A000014C0B13091F00E94401DB1E008950C94B3
:103A1000401D672F782F8827B85F39F0B93FCCF366
:103A2000869577956795B395D9F73EF490958095EF
:103A3000709561957F4F8F4F9F4F089557FD905818
:103A4000440F551F59F05F3F71F04795880F97FB62
:103A5000991F61F09F3F79F087950895121613061C
:103A60001406551FF2CF4695F1DF08C0161617064B
:103A70001806991FF1CF8695710561050894089580
:103A8000E894BB2766277727CB0197F90895DB01D8
:103A90008F939F930E94951DBF91AF91A29F800D20
:103AA000911DA39F900DB29F900D1124089597FB37
:103AB000072E16F4009407D077FD09D00E94A01DB0
:103AC00007FC05D03EF4909581959F4F0895709521
:103AD00061957F4F0895A1E21A2EAA1BBB1BFD0121
:103AE0000DC0AA1FBB1FEE1FFF1FA217B307E407DD
:103AF000F50720F0A21BB30BE40BF50B661F771F35
:103B0000881F991F1A9469F7609570958095909514
:103B10009B01AC01BD01CF010895EE0FFF1F881F6F
:103B20008BBF0790F691E02D19940E94B41DA59FBC
:103B3000900DB49F900DA49F800D911D11240895A8
:103B4000AA1BBB1B51E107C0AA1FBB1FA617B707C3
:103B500010F0A61BB70B881F991F5A95A9F78095DF
:103B60009095BC01CD010895A29FB001B39FC00103
:103B7000A39F700D811D1124911DB29F700D811D99
:103B80001124911D0895FB01DC0102C001900D92EA
:103B900041505040D8F70895CF93DF93CDB7DEB7AB
:103BA000AE014A5F5F4FFA0161917191AF0180915F
:103BB0007B0C90917C0C0E94E01DDF91CF910895C9
:103BC0002F923F924F925F926F927F928F929F922D
:103BD000AF92BF92CF92DF92EF92FF920F931F931B
:103BE000CF93DF93CDB7DEB72C970FB6F894DEBF37
:103BF0000FBECDBF7C016B018A01FC0117821682CA
:103C0000838181FFBDC1CE0101964C01F7019381F3
:103C1000F60193FD859193FF81916F01882309F44B
:103C2000ABC1853239F493FD859193FF81916F018A
:103C3000853229F4B70190E00E94F11FE7CF512CA3
:103C4000312C20E02032A0F48B3269F030F4803245
:103C500059F0833269F420612CC08D3239F0803301
:103C600039F4216026C02260246023C0286021C06E
:103C700027FD27C030ED380F3A3078F426FF06C014
:103C8000FAE05F9E300D1124532E13C08AE0389E57
:103C9000300D1124332E20620CC08E3221F426FD0B
:103CA0006BC1206406C08C3611F4206802C08836CF
:103CB00041F4F60193FD859193FF81916F0181118C
:103CC000C1CF982F9F7D9554933028F40C5F1F4FE0
:103CD000FFE3F9830DC0833631F0833771F083350C
:103CE00009F05BC022C0F801808189830E5F1F4FFD
:103CF00044244394512C540115C03801F2E06F0E56
:103D0000711CF801A080B18026FF03C0652D70E012
:103D100002C06FEF7FEFC5012C870E94E61F2C01C8
:103D200083012C852F77222E17C03801F2E06F0E09
:103D3000711CF801A080B18026FF03C0652D70E0E2
:103D400002C06FEF7FEFC5012C870E94DB1F2C01A3
:103D50002C852068222E830123FC1BC0832D90E03C
:103D600048165906B0F4B70180E290E00E94F11FB6
:103D70003A94F4CFF50127FC859127FE81915F01EC
:103D8000B70190E00E94F11F31103A94F1E04F1A10
:103D900051084114510471F7E5C0843611F0893699
:103DA00039F5F80127FF07C0608171818281938115
:103DB0000C5F1F4F08C060817181072E000C880BBB
:103DC000990B0E5F1F4F2F76722E97FF09C09095AB
:103DD0008095709561957F4F8F4F9F4F2068722E11
:103DE0002AE030E0A4010E942920A82EA81844C08F
:103DF000853729F42F7EB22E2AE030E025C0F22F3D
:103E0000F97FBF2E8F36C1F018F4883579F0B4C031
:103E1000803719F0883721F0AFC02F2F2061B22EE4
:103E2000B4FE0DC08B2D8460B82E09C024FF0AC0DB
:103E30009F2F9660B92E06C028E030E005C020E133
:103E400030E002C020E132E0F801B7FE07C0608137
:103E50007181828193810C5F1F4F06C060817181E7
:103E600080E090E00E5F1F4FA4010E942920A82E41
:103E7000A818FB2DFF777F2E76FE0BC0372D3E7FD7
:103E8000A51450F474FE0AC072FC08C0372D3E7EA3
:103E900005C0BA2C372D03C0BA2C01C0B52C34FF95
:103EA0000DC0FE01EA0DF11D8081803311F4397ED1
:103EB00009C032FF06C0B394B39404C0832F867840
:103EC00009F0B39433FD13C030FF06C05A2CB3146D
:103ED00018F4530C5B18B32CB31468F4B70180E2E8
:103EE00090E03C870E94F11FB3943C85F5CFB3145A
:103EF00010F43B1801C0312C34FF12C0B70180E32D
:103F000090E03C870E94F11F3C8532FF17C031FDD5
:103F100003C088E790E002C088E590E0B7010CC0DC
:103F2000832F867859F031FF02C08BE201C080E216
:103F300037FD8DE2B70190E00E94F11FA51438F41F
:103F4000B70180E390E00E94F11F5A94F7CFAA9442
:103F5000F401EA0DF11D8081B70190E00E94F11F8C
:103F6000A110F5CF332009F451CEB70180E290E0E3
:103F70000E94F11F3A94F6CFF7018681978102C023
:103F80008FEF9FEF2C960FB6F894DEBF0FBECDBF1C
:103F9000DF91CF911F910F91FF90EF90DF90CF9025
:103FA000BF90AF909F908F907F906F905F904F9059
:103FB0003F902F900895FC010590615070400110D2
:103FC000D8F7809590958E0F9F1F0895FC01615042
:103FD000704001900110D8F7809590958E0F9F1F2B
:103FE00008950F931F93CF93DF93FB01238121FD4E
:103FF00003C08FEF9FEF28C022FF16C04681578174
:10400000248135814217530744F4A081B1819D0179
:104010002F5F3F4F318320838C93268137812F5F21
:104020003F4F3783268310C0EB01092F182F0084E0
:10403000F185E02D1995892BE1F68E819F810196FE
:104040009F838E83812F902FDF91CF911F910F91AE
:104050000895FA01AA27283051F1203181F1E8941E
:104060006F936E7F6E5F7F4F8F4F9F4FAF4FB1E06B
:104070003ED0B4E03CD0670F781F891F9A1FA11D66
:10408000680F791F8A1F911DA11D6A0F711D811D67
:10409000911DA11D20D009F468943F912AE0269F2C
:1040A00011243019305D3193DEF6CF010895462F8B
:1040B0004770405D4193B3E00FD0C9F7F6CF462F6C
:1040C0004F70405D4A3318F0495D31FD40524193D5
:1040D00002D0A9F7EACFB4E0A69597958795779592
:1040E0006795BA95C9F700976105710508959B0119
:1040F000AC010A2E06945795479537952795BA95A2
:10410000C9F7620F731F841F951FA01D0895F894AF
:02411000FFCFDF
:1041120009000A000600070004000500C1030200AE
:1041220003001200160013001700140018001500F7
:10413200190000007F0C80007374645F6D736773F5
:104142002F54696D650063643731363663373463E3
:1041520035353263333131666263633266653561A8
:1041620037626332383900726F7373657269616CDA
:104172005F6D7367732F546F706963496E666F006A
:1041820030616435316638386663343438393266C2
:1041920038633130363834303737363436303035AC
:1041A20000726F7373657269616C5F6D7367732FF1
:1041B2004C6F6700313161626437333163323539B4
:1041C20033333236316364363138336264313264C8
:1041D20036323935003966306539386264613635D0
:1041E200393831393836646466353361666137612E
:1041F2003430653439007374645F6D7367732F46AE
:104202006C6F6174333200373366636266343662D0
:1042120034393139316536373239303865353038ED
:1042220034326138336434007374645F6D7367735E
:104232002F496E74313600383532343538366533AD
:10424200346662643763623163303863356635667B
:1042520031636130653537002564006D6F746F72AC
:1042620031004D6573736167652066726F6D2064FE
:1042720065766963652064726F707065643A206D5B
:10428200657373616765206C61726765722074681B
:10429200616E206275666665722E00416C6C5F739A
:1042A200746F70006D6F746F7233006D6F746F7224
:1042B20032006D6F746F723000656E633000656E30
:1042C200633100656E633200656E633300616C6C4E
:1042D200006D6F746F5F3000726F73736572696126
:1042E2006C5F6D7367732F5265717565737450617E
:1042F20072616D000000000043026702AD02B0026D
:104302000000000027062C07B302B60200000000DE
:10431200FB05D406B902BC02000000002F051C08F0
:10432200BF02C20200000000C502D902EF02F2027F
:1043320000000000200BE70D300300000000F50232
:10434200FE020B030E0300000000110326032A03E2
:104352002D0300000000E218851C8B18B7189B186B
:02436200D7186A
:00000001FF
