:100000000C945E000C9486000C9486000C94860080
:100010000C9486000C9486000C9486000C94860048
:100020000C9486000C9486000C9486000C94860038
:100030000C9486000C9486000C9486000C94860028
:100040000C947F0F0C9486000C943F110C94821139
:100050000C9486000C9486000C9486000C94860008
:100060000C9486000C94860000000007000201003A
:100070000003040600000000000000000102040864
:100080001020408001020408102001020408102002
:10009000040404040404040402020202020203032E
:1000A0000303030300000000250028002B000000CC
:1000B0000000240027002A00DB0B451211241FBE7C
:1000C000CFEFD8E0DEBFCDBF13E0A0E0B1E0E4E2C7
:1000D000FDE202C005900D92AA31B107D9F727E0E1
:1000E000AAE1B3E001C01D92A930B207E1F710E028
:1000F000CEE5D0E004C02197FE010E94A713CC35C5
:10010000D107C9F70E94A8120C9490160C94000015
:10011000CF93DF93EC01842F488359836A837B83D9
:1001200061E00E94391061E08A81DF91CF910C94E7
:1001300039100F931F93CF93DF938C01EB011C16A3
:100140001D063CF4FC0180810E940A0D60E070E015
:100150000AC060E070E0FC0180810E940A0D662701
:1001600077276C1B7D0BF8018281DF91CF911F9166
:100170000F910C940A0DDC01FB0112968C911297E1
:10018000808313968C911397818314968C91149786
:10019000828315968C911597838316968C9116976A
:1001A000848317968C911797858318968C9118974E
:1001B000868319968C91878388E090E00895FC01EE
:1001C000DB014C9150E060E070E042835383648334
:1001D000758311968C911197582B428353836483B6
:1001E000758312968C911297682B42835383648394
:1001F000758313968C911397782B42835383648372
:10020000758314964C91149750E060E070E046833B
:1002100057836087718715968C911597582B468365
:1002200057836087718716968C911697682B468343
:1002300057836087718717968C91782B46835783F5
:100240006087718788E090E0089586E191E00895E5
:1002500084E291E0089585E491E008958EE591E0CF
:1002600008958FE791E0089582E991E008958CE97F
:1002700092E0089583EB91E00895FB01DC01129672
:100280004C91129713963C91139714962C911497B6
:1002900015968C91408331832283838384E090E0A0
:1002A0000895FB012181428150E060E070E0BA01D5
:1002B00055274427522B2081422B2381722BFC018E
:1002C000428353836483758384E090E0089584EDD2
:1002D00091E0089585EE91E008950F931F93CF93D9
:1002E000DF938C01EC012696CE010E945101D801CA
:1002F0001C96ED91FC911D97CE01DF91CF911F913E
:100300000F910994FC0186859785089584ED91E00D
:10031000089585EE91E00895FC01EA54FD4F808137
:100320000895CF92DF92EF92FF9220E030E06A01D1
:100330007B01022E04C0F694E794D794C7940A94E4
:10034000D2F7FC01C192CF01285F3F4F2032310527
:1003500071F7FF90EF90DF90CF9008954F925F92EA
:100360006F927F92AF92BF92CF92DF92EF92FF9205
:100370000F931F93CF93DF93EC017B018A81FB01E5
:1003800080838B8181838C8182838D818383DB0158
:10039000179640E050E0BA01E4E0F0E04A805B806C
:1003A0006C807D808F010C5F1F4F441555056605DD
:1003B0007705C0F48A859B85E80FF91F3497D080B4
:1003C000218192818381FD013397D08231962083F0
:1003D000319690838C93F8014F5F5F4F6F4F7F4F43
:1003E0001496DCCFEE0DFF1D8C8580838D85818377
:1003F0008E8582838F85838380E090E040E050E0AB
:10040000BA014C845D846E847F84F701E00FF11F94
:100410000C5F1F4F4415550566057705B8F4AC8988
:10042000BD89A80FB91FCC901196DC901197129638
:100430003C91129713962C91C082D18232832383F0
:100440004F5F5F4F6F4F7F4F0496DBCF8E89808366
:100450008F898183888D8283898D8383412C512C60
:1004600032018E899F89A88DB98D481659066A0672
:100470007B0680F55201AA0CBB1CEC8DFD8DEA0DAC
:10048000FB1DA081B181FD0101900020E9F73197AA
:100490006F01CA1ADB0AA60160E070E0C701800F95
:1004A000911F0E9491010C5F1F4F8C8D9D8DFC014F
:1004B000EA0DFB1D60817181A601C701800F911FAC
:1004C0000E94BC130C0D1D1DFFEF4F1A5F0A6F0A2F
:1004D0007F0AC7CFC801DF91CF911F910F91FF9085
:1004E000EF90DF90CF90BF90AF907F906F905F9034
:1004F0004F900895EF92FF920F931F93CF93DF9346
:100500008C017B01EC018A81FB018193AB81BC8171
:10051000ED0109900020E9F72197CA1BDB0BAE0122
:1005200060E070E0CF010E949101F8016381748165
:10053000AE01C70105960E94BC13CE010596DF915E
:10054000CF911F910F91FF90EF900895CF92DF927E
:10055000EF92FF920F931F93CF93DF936C01EB0108
:10056000FC018281888383818983A481B581FD0117
:1005700001900020E9F731978F010A1B1B0BA8019E
:1005800060E070E0CE0102960E949101F601648164
:100590007581A801CE0106960E94BC13C80106967B
:1005A000F601A681B781FD0101900020E9F731979E
:1005B0007F01EA1AFB0AA70160E070E08C0F9D1F23
:1005C0000E949101065F1F4FF60166817781A701A6
:1005D000CE01800F911F0E94BC130E0D1F1DF6014E
:1005E000A085B185FD0101900020E9F731977F01D9
:1005F000EA1AFB0AA70160E070E0CE01800F911FAC
:100600000E9491010C5F1F4FF60160857185A70163
:10061000CE01800F911F0E94BC13C8018E0D9F1D3B
:10062000F6016285438534852585C80FD91F688307
:1006300049833A832B830496DF91CF911F910F91C9
:10064000FF90EF90DF90CF900895CF92DF92EF92DE
:10065000FF92FC011082118212821382DB0120E0E2
:1006600030E04D9150E0022E02C0440F551F0A9415
:10067000E2F7052E000C660B770BC080D180E2807C
:10068000F3804C295D296E297F2940835183628341
:100690007383285F3F4F2032310519F7FF90EF90A9
:1006A000DF90CF9008958F929F92AF92BF92CF929A
:1006B000DF92EF92FF920F931F93CF93DF9300D0BF
:1006C00000D0CDB7DEB77C018B01FB018191BF016A
:1006D000F7018283CE0101960E94250389819A81C8
:1006E000AB81BC814C015D01F5E08F0E911CA11C1A
:1006F000B11C680125E0C20ED11CA601401B510BA4
:1007000060E070E0481559056A057B0548F4F6017C
:1007100041916F019F0122503109F9014083EDCFD2
:10072000F801E80FF91F14820C5F1F4FF7011483C3
:10073000038305960F900F900F900F90DF91CF914C
:100740001F910F91FF90EF90DF90CF90BF90AF90EF
:100750009F908F9008954F925F926F927F928F92A9
:100760009F92AF92BF92CF92DF92EF92FF920F9340
:100770001F93CF93DF93CDB7DEB72C970FB6F894C6
:10078000DEBF0FBECDBF7C018B01DB018C9190E001
:10079000F7019383828311962C91922B938382830A
:1007A0006E5F7F4FCE0109960E94250389849A844B
:1007B000AB84BC84B501A4014A5F5F4F6F4F7F4F8C
:1007C000F8013696CF01801B910BA0E0B0E08417B2
:1007D0009507A607B70728F48191DF0112978C933C
:1007E000F1CFF801E80DF91D1582C8010596D70172
:1007F00015969C938E931497B4016A5F7F4F600F98
:10080000711FCE0105960E942503BAE08B0E911C44
:100810004D815E816F8178852401092C000C66086A
:100820007708440E551E661E771EF801E80DF91D67
:10083000CF01801B910BA0E0B0E084159505A605C3
:10084000B70528F48191DF0112978C93F1CF6401F1
:10085000C40ED51EB8016C0D7D1DFB0131971082B1
:10086000C4010197800F911FF70197838683CE0102
:1008700001960E942503A6014C5F5F4F49805A8074
:100880006B807C804A01052E000CAA08BB08840CF2
:10089000951CA61CB71CF801E40FF51F9F01201B37
:1008A000310BC901A0E0B0E088159905AA05BB0588
:1008B00028F48191DF0112978C93F0CFCA01840D47
:1008C000951DF801E80FF91FDF0111971C929A019D
:1008D00021503109020F131FD70119961C930E9353
:1008E00018972181428150E060E070E0BA015527FD
:1008F0004427522B2081422B2381722BF701428700
:1009000053876487758704962C960FB6F894DEBFDC
:100910000FBECDBFDF91CF911F910F91FF90EF9050
:10092000DF90CF90BF90AF909F908F907F906F900F
:100930005F904F9008952F923F924F925F926F92E7
:100940007F928F929F92AF92BF92CF92DF92EF925F
:10095000FF920F931F93CF93DF93CDB7DEB7289706
:100960000FB6F894DEBF0FBECDBF8C015B01DB017B
:100970008C9111969C9111971296CC901297D12C34
:10098000E12CF12C7601DD24CC24D92AC82A139637
:100990008C91F82AF80182819381A481B5818C150C
:1009A0009D05AE05BF0570F4B601660F771F660F93
:1009B000771F828593850E94690DD8011B969C93B1
:1009C0008E931A97F801C282D382E482F582D50110
:1009D0001796C12CD12C7601F4E08F2E912C980122
:1009E0002A5F3F4FF8014281538164817581C401C0
:1009F0000496C416D506E606F70680F54C9150E03D
:100A000060E070E0742F662755274427FD01339777
:100A1000E0814E2BFD013297E0815E2BFD01319785
:100A2000E0816E2BF80146835783608771874C0104
:100A3000089742855385840F951FF90140815181A4
:100A400062817381FC014083518362837383FFEF72
:100A5000CF1ADF0AEF0AFF0A1496C4CFF401EA0D99
:100A6000FB1D20813181C280D12CE12CF12C76013B
:100A7000DD24CC24D32AC22A2381F22A4C01F80196
:100A800084859585A685B7858C159D05AE05BF0522
:100A900070F4B601660F771F660F771F84899589FA
:100AA0000E94690DD80155969C938E935497F80136
:100AB000C486D586E686F78620E030E0C12CD12CAE
:100AC0007601D8015096F80144855585668577856D
:100AD000F501E80DF91DC4010496C416D506E60615
:100AE000F70648F59180428150E060E070E0BA017D
:100AF00055274427592990804929E3817E2BF80105
:100B0000408B518B628B738B4C0184899589FC01DE
:100B1000E20FF31F4D915D916D917C91139740838E
:100B2000518362837383FFEFCF1ADF0AEF0AFF0A54
:100B30002C5F3F4FC8CF20813181C280D12CE12C66
:100B4000F12C7601DD24CC24D32AC22A2381F22A77
:100B50004C01F80186899789A08DB18D8C159D0572
:100B6000AE05BF0560F4B601660F771F848D958DC5
:100B70000E94690DD8015D969C938E935C97F80155
:100B8000C68AD78AE08EF18E412C512C3201180191
:100B9000FAE12F0E311CF80186899789A08DB18D5D
:100BA000481659066A067B0608F05AC0B501680D5A
:100BB000791DCE0101960E94250394012C5F3F4FC1
:100BC000C980DA80EB80FC80C901032E000CAA0BDF
:100BD000BB0BAC01BD014C0D5D1D6E1D7F1D4D831A
:100BE0005E836F837887F501E20FF31FAF014A1927
:100BF0005B09CA01A0E0B0E04D815E816F8178851C
:100C000084179507A607B70728F44191DF011297CB
:100C10004C93ECCFC9018C0D9D1DF501E80FF91F18
:100C200031971082215031092A0D3B1DD8015B9666
:100C30003C932E935A974C01C201880F991F5C96E2
:100C4000ED91FC915D97E80FF91FD1018D919C9179
:100C500091838083BFEF4B1A5B0A6B0A7B0A9BCFA1
:100C6000C40128960FB6F894DEBF0FBECDBFDF914A
:100C7000CF911F910F91FF90EF90DF90CF90BF9099
:100C8000AF909F908F907F906F905F904F903F902C
:100C90002F900895DC01A658BD4F20E030E04D9123
:100CA0005D91452B81F4F901E35CFE4FEE0FFF1FD0
:100CB000E80FF91F718360832C593F4FFB01338389
:100CC000228381E008952F5F3F4F2931310539F7A5
:100CD00080E0089566E573E08AE693E00E944A06A4
:100CE00062E473E08AE693E00E944A066EE273E0F3
:100CF0008AE693E00E944A066AE173E08AE693E09E
:100D00000C944A060E946A06EAE6F3E044815581A3
:100D100066817781828193810E94BD1110921706AE
:100D200010921606109219061092180610921D06BF
:100D300010921C0610921B0610921A060895CF936B
:100D4000DF9300D000D01F92CDB7DEB724ED32E0A4
:100D50003A8329836B835D834C83DC01ED91FC91A5
:100D60000190F081E02DAE014F5F5F4F67E070E0D2
:100D700009950F900F900F900F900F90DF91CF91EA
:100D80000895CF93DF93EC016A817B818C819D81F3
:100D90000E94E3128EE393E00E9499008D818F936D
:100DA0008C818F938B818F938A818F9386E092E0E1
:100DB0009F938F930E94C5130F900F900F900F90E9
:100DC0000F900F9049E052E061E08AE693E0DF91F6
:100DD000CF910C949F06CF92DF92EF92FF920F93E8
:100DE0001F93CF93DF93EC017B01643671053CF0D8
:100DF000FE01EA54FD4F8081882309F462C0DA01C4
:100E0000ED91FC910190F081E02DBE01695C7E4F77
:100E1000CA0109958E01005D1E4F2FEFF801208356
:100E20002EEF3196208331968083319690833196D0
:100E3000292F280F209520833196E082DE01AA5CBD
:100E4000BE4FFC9245E050E020E030E0BC016A5F1C
:100E50007F4F6417750734F0A1912A0F311D4F5F42
:100E60005F4FF7CF7C01F8E0EF0EF11C8C0F9D1F58
:100E7000FC01E95CFE4F2095208349E1E41641E046
:100E8000F406B4F46801C601801B910B8E159F0512
:100E90006CF48A819B81D6016D916D01DC01ED912D
:100EA000FC910190F081E02D0995EDCFC7010BC0B9
:100EB00043E152E063E0CE010E949F068FEF9FEF77
:100EC00002C080E090E0DF91CF911F910F91FF90E1
:100ED000EF90DF90CF900895FC016281738184814F
:100EE00095810E94E3128AE293E00E9499004CE40B
:100EF00052E061E08AE693E00C949F06CF93DF9383
:100F0000EC016A817B818C819D810E94E31286E6DF
:100F100093E00E9499008D818F938C818F938B81B8
:100F20008F938A818F9386E092E09F938F930E94A4
:100F3000C5130F900F900F900F900F900F9047E5F3
:100F400052E061E08AE693E0DF91CF910C949F0636
:100F5000CF93DF93EC016A817B818C819D810E941C
:100F6000E31282E593E00E9499008D818F938C813A
:100F70008F938B818F938A818F9386E092E09F93EA
:100F80008F930E94C5130F900F900F900F900F90AA
:100F90000F9040E652E061E08AE693E0DF91CF9166
:100FA0000C949F060F931F93CF93DF93CDB7DEB7BB
:100FB0002A970FB6F894DEBF0FBECDBF8C018CEB25
:100FC00092E09A8389831B821C821D821E821F826B
:100FD000188619861A86D801ED91FC910190F0814E
:100FE000E02DAE014F5F5F4F6AE070E0C8010995E8
:100FF0000E94C90FF80160877187828793872A96BC
:101000000FB6F894DEBF0FBECDBFDF91CF911F9119
:101010000F9108954F925F926F927F92AF92BF921D
:10102000CF92DF92EF92FF920F931F93CF93DF93B4
:10103000CDB7DEB72E970FB6F894DEBF0FBECDBF8B
:101040008C0188EC92E09A8389831C821B828BE45A
:1010500092E09E838D8398878F839A8789871B86EA
:101060001C861D861E86680188EBC81A8DEFD80A7B
:101070007801A6E8EA1AADEFFA0A98E1492E55245C
:101080005394612C712CD601ED91FC913097B9F1FC
:10109000848195819C838B83808191819E838D83C4
:1010A00082819381DC01ED91FC910480F581E02D3A
:1010B000099598878F83D601ED91FC918281938168
:1010C000DC01ED91FC910680F781E02D09959A876E
:1010D00089874B865C866D867E86F801808191814A
:1010E000F601A081B18118966D917C911997DC0170
:1010F000ED91FC91AE014F5F5F4FC8010995B2E0E1
:10110000CB0ED11CCE14DF0409F0BDCF6801E4E59D
:10111000CE1AEDEFDE0A88E1482E55245394612C57
:10112000712CF701A081B1811097E1F112968D9198
:101130009C9113979C838B8314968D919C9115970A
:101140009E838D83ED91FC9111970480F581E02DB4
:10115000CD01099598878F83D7018D919C91DC01F2
:10116000ED91FC910680F781E02D09959A8789879A
:101170004B865C866D867E86D801ED91FC91A080C1
:10118000B180F70180819181DC01ED91FC910280B9
:10119000F381E02D0995AE014F5F5F4FBC01C8019F
:1011A000F5010995F2E0EF0EF11CEC14FD0409F0D5
:1011B000B8CFF801EA54FD4F81E080832E960FB638
:1011C000F894DEBF0FBECDBFDF91CF911F910F917D
:1011D000FF90EF90DF90CF90BF90AF907F906F9097
:1011E0005F904F9008958F929F92AF92BF92CF924F
:1011F000DF92EF92FF920F931F93CF93DF93CDB7C0
:10120000DEB72A970FB6F894DEBF0FBECDBF8C01B4
:101210005B018CEB92E09A8389831B821C821D8286
:101220001E821F82188619861A860E94C90FF8012D
:10123000C084D184E284F3849B01AC012C193D0964
:101240004E095F0969017A01B501CE0101960E943C
:10125000DF0088EE882E83E0982EA12CB12CC701E8
:10126000B601A50194010E946613CB80DC80ED805D
:10127000FE80C20ED31EE41EF51ECB82DC82ED8200
:10128000FE829B01AC0160E472E48FE090E00E947A
:101290004213CF80D884E984FA84DC01CB018C0D21
:1012A0009D1DAE1DBF1D8F839887A987BA870E9499
:1012B000C90FCB80DC80ED80FE8031E0C31AD108FD
:1012C000E108F108A50194010E946613C21AD30A2D
:1012D000E40AF50AF801C486D586E686F786CF804B
:1012E000D884E984FA84F6E3DF1AF5E6EF0AF4EC31
:1012F000FF0A9B01AC0160E472E48FE090E00E9481
:101300004213C61AD70AE80AF90AF801C08AD18A34
:10131000E28AF38AB801605F7F4FC8010C960E9491
:10132000B5120E94C90FF801E554FD4F6083718327
:10133000828393832A960FB6F894DEBF0FBECDBF8B
:10134000DF91CF911F910F91FF90EF90DF90CF90A1
:10135000BF90AF909F908F9008952F923F924F92A1
:101360005F926F927F928F929F92AF92BF92CF9235
:10137000DF92EF92FF920F931F93CF93DF93CDB73E
:10138000DEB760970FB6F894DEBF0FBECDBF988B67
:101390008F870E94C90F4B015C012F853889255426
:1013A0003D4F3E832D83F90180819181A281B381DC
:1013B000A5019401281B390B4A0B5B0BDA01C9010B
:1013C000893F9A42A105B10528F0EF85F889EA54D2
:1013D000FD4F10820F85188904551D4FD8018D913E
:1013E0009C91892B81F0EF85F889E154FD4F808134
:1013F0009181A281B38188159905AA05BB0518F4CE
:10140000F801118210826F847888FCE46F1AFDEF76
:101410007F0A2F85388920553D4F3A832983CF8411
:10142000D88838E1C30ED11C4F8558894A545D4F86
:1014300058874F832F8538892C533D4F3A8729870A
:101440004F8558894D535D4F5C874B87EF84F888F3
:1014500052E5E51A5DEFF50A2F8538892E543D4F88
:101460003C832B834F85588941545D4F5E874D8760
:101470001401250154E1250E311C411C511CEF853E
:10148000F88984899589A689B789892B8A2B8B2B22
:1014900089F4AF85B88912968D919C911397DC01E0
:1014A000ED91FC910680F781E02D09959C0197FF55
:1014B00015C037C10E94C90FDC01CB0188199909F9
:1014C000AA09BB09EF85F889248935894689578996
:1014D000281739074A075B07E0F64BC1D3018D9106
:1014E0009C911197820F931F8D939C93F8014081DB
:1014F000518147305105D9F4AB81BC818D919C91CC
:101500001197AC014F5F5F4F4D935C93EF85F88966
:10151000E80FF91F208FF701808191810197918356
:101520008083892B09F0ABCF88E090E02FC0411574
:10153000510521F52F3F310569F481E090E0F80174
:1015400091838083AD85BE852D923D924D925C92B4
:10155000139795CF0E94C90FDC01CB018819990917
:10156000AA09BB0989389341A105B10508F487CFC1
:10157000EF85F889EA54FD4F1082FBC041305105D8
:10158000B1F42E3F310531F482E090E0D8018D9323
:101590009C9375CFF80111821082AF81B8858C9130
:1015A00081116DCF8F8598890E94D20768CF423014
:1015B000510569F4F70131832083AB81BC811D9211
:1015C0001C9283E090E0F801918380832EC0433029
:1015D000510561F4322F2227F70180819181280F74
:1015E000391F3183208384E090E0D0CF443051050F
:1015F00081F460E071E00E9452138F3F910531F455
:1016000085E090E0F8019183808339CF11821082C8
:1016100036CF4530510569F4E981FA813183208361
:10162000E6E0F0E0D801ED93FC93D3012D933C93D9
:1016300026CF4630510599F4322F2227E981FA81CD
:1016400080819181280F391F31832083E7E0F0E00A
:10165000D801ED93FC93D7018D919C9162CF4830D6
:10166000510509F00CCFF8011182108260E071E0A1
:101670000E9452138F3F910509F001CFA981BA81D1
:101680008D919C910097C9F48F8598890E94D2070B
:101690008F8598890E940A08EF85F889E954FD4FE3
:1016A00080829182A282B382ED81FE8180829182CA
:1016B000A282B3828FEF9FEF61C08A30910531F42F
:1016C000B6018F8598890E94F308D9CE863091059E
:1016D00051F4B60189859A850E949B0481E0AB850F
:1016E000BC858C93CCCE8B30910521F4EF81F885AD
:1016F0001082C5CEFC01E752FF4FEE0FFF1F2F8572
:101700003889E20FF31F80819181009709F4B7CEE9
:10171000DC01ED91FC910190F081E02DB60109957D
:10172000AECEEF85F889EA54FD4F8081882321F100
:101730000F85188909541D4FF80180819181A2817C
:10174000B381A5019401281B390B4A0B5B0BDA010D
:10175000C901853C9940A105B10570F08F85988934
:101760000E94D207D8018D929D92AD92BC921397A0
:1017700003C08EEF9FEF02C080E090E060960FB64E
:10178000F894DEBF0FBECDBFDF91CF911F910F91B7
:10179000FF90EF90DF90CF90BF90AF909F908F9091
:1017A0007F906F905F904F903F902F9008958AE6C2
:1017B00093E00C94AD09EF92FF920F931F93CF9398
:1017C000DF9388EF92E090936B0380936A0385E543
:1017D00096E090936D0380936C0380E091EEA0E01F
:1017E000B0E080936E0390936F03A0937003B09367
:1017F00071031092200680EE92E090932F06809362
:101800002E06109230061092310610923206109277
:101810003306109239061092380610923A0610924A
:101820003B0610923C0610923D0610924306109221
:1018300042061092440610924506109246061092F7
:10184000470610924B0610924A06E2EBF5E0119221
:10185000119285E0E43EF807D1F7E4EEF5E011924D
:10186000119286E0E631F807D1F7E2E8F3E0119251
:1018700084E0EA39F807D9F7EAE9F4E0119285E063
:10188000E23BF807D9F710927E0310927F03109283
:1018900080031092810340910C0150910D016091E1
:1018A0000E0170910F0186E693E00E94880082E0AD
:1018B000E82E83E0F82EF0925703E09256030CEEE8
:1018C00012E010935D0300935C0310925E0310928C
:1018D0005F0310926003109261038EE797E090938C
:1018E000630380936203C1E0D0E0D0936503C093AB
:1018F000640388E692E090935B0380935A034091DF
:1019000008015091090160910A0170910B0182E573
:1019100093E00E948800F0924303E0924203109308
:1019200049030093480310924A0310924B0310920C
:101930004C0310924D0388EA97E090934F038093F5
:101940004E03D0935103C093500385E792E09093E8
:101950004703809346034091040150910501609133
:101960000601709107018EE393E00E948800F092D7
:101970002F03E0922E03109335030093340310924B
:10198000360310923703109238031092390381EC1A
:1019900096E090933B0380933A03D0933D03C0932A
:1019A0003C0382E892E090933303809332034091AA
:1019B00000015091010160910201709103018AE2DE
:1019C00093E00E948800F0921B03E0921A031093A8
:1019D00021030093200310922203109223031092FC
:1019E0002403109225038CE697E0909327038093BD
:1019F0002603D0932903C09328038FE892E09093A5
:101A00001F0380931E03DF91CF911F910F91FF90D1
:101A1000EF9008951F93CF93DF93182FEB0161E0B0
:101A20000E943910209711F460E004C0CF3FD10527
:101A300039F461E0812FDF91CF911F910C947510E3
:101A4000E12FF0E0E859FF4FE491E330F9F048F47A
:101A5000E130B9F0E230A1F584B5806284BDC8BD43
:101A600034C0E630E9F0E73019F1E43049F580910F
:101A70008000806280938000D0938B00C0938A00A6
:101A800024C084B5806884BDC7BD1FC0809180001C
:101A9000806880938000D0938900C093880015C02F
:101AA0008091B00080688093B000C093B3000DC0F7
:101AB0008091B00080628093B000C093B40005C0F4
:101AC000C038D1050CF0B5CFAFCFDF91CF911F91CA
:101AD00008956F927F928F929F92AF92BF92CF9212
:101AE000DF92EF92FF920F931F93CF93DF93EC015E
:101AF000009789F4CB01DF91CF911F910F91FF9057
:101B0000EF90DF90CF90BF90AF909F908F907F909D
:101B10006F900C94520EFC01E60FF71F9C012250AF
:101B20003109E217F30708F4ACC0D9010D911C91FB
:101B3000119706171707B0F00530110508F49FC07C
:101B4000C80104978617970708F499C00250110935
:101B5000061B170B019311936D937C93CF010E9489
:101B6000E70E8DC05B01A01AB10A4C01800E911ED8
:101B7000A0910107B091020740E050E0E12CF12C68
:101B8000109709F44AC0A815B905D1F56D907C905D
:101B90001197630182E0C80ED11CCA14DB0480F1E6
:101BA000A3014A195B096A0182E0C80ED11C129692
:101BB000BC9012971396AC91B5E0CB16D10440F0CF
:101BC000B282A38351834083D9016D937C930AC071
:101BD0000E5F1F4FC301800F911FF9019183808316
:101BE000EB2DFA2FE114F10431F0D7011396FC9399
:101BF000EE93129744C0F0930207E09301073FC0B1
:101C00008D919C9111974817590708F4AC017D01FB
:101C100012960D90BC91A02DB3CF8091FF069091AC
:101C2000000788159905E1F446175707C8F4809115
:101C3000100190911101009741F48DB79EB740912A
:101C4000140150911501841B950BE817F907C8F48E
:101C5000F0930007E093FF06F901718360830FC0E2
:101C6000CB010E94520E7C01009759F0A801BE01E1
:101C70000E94BC13CE010E94E70EC70104C0CE0132
:101C800002C080E090E0DF91CF911F910F91FF9013
:101C9000EF90DF90CF90BF90AF909F908F907F900C
:101CA0006F900895CF93DF938230910510F482E016
:101CB00090E0E0910107F091020720E030E0C0E001
:101CC000D0E0309711F14081518148175907C0F099
:101CD0004817590761F482819381209719F09B83FB
:101CE0008A832BC0909302078093010726C0211599
:101CF000310519F04217530718F49A01BE01DF01AC
:101D0000EF010280F381E02DDCCF2115310509F1CF
:101D1000281B390B2430310590F412968D919C913B
:101D200013976115710521F0FB019383828304C031
:101D30009093020780930107FD01329644C0FD0194
:101D4000E20FF31F81939193225031092D933C931D
:101D50003AC02091FF0630910007232B41F42091D7
:101D6000120130911301309300072093FF06209158
:101D70001001309111012115310541F42DB73EB705
:101D80004091140150911501241B350BE091FF0681
:101D9000F0910007E217F307A0F42E1B3F0B281762
:101DA000390778F0AC014E5F5F4F2417350748F0D4
:101DB0004E0F5F1F509300074093FF06819391934E
:101DC00002C0E0E0F0E0CF01DF91CF9108950F93E2
:101DD0001F93CF93DF93009709F48CC0FC013297D7
:101DE000138212820091010710910207011511055B
:101DF00081F420813181820F931F2091FF06309161
:101E000000072817390779F5F0930007E093FF06DC
:101E100071C0D80140E050E0AE17BF0750F41296F1
:101E20002D913C911397AD012115310509F1D9018F
:101E3000F3CF9D01DA013383228360817181860FA4
:101E4000971F8217930769F4EC0128813981260FC7
:101E5000371F2E5F3F4F318320838A819B8193837D
:101E60008283452B29F4F0930207E093010742C0D7
:101E70001396FC93EE931297ED01499159919E01AF
:101E8000240F351FE217F30771F480819181840FCD
:101E9000951F029611969C938E938281938113963F
:101EA0009C938E931297E0E0F0E0D80112968D910A
:101EB0009C911397009719F0F8018C01F6CF8D9142
:101EC0009C9198012E5F3F4F820F931F2091FF0638
:101ED000309100072817390769F4309729F41092D8
:101EE00002071092010702C01382128210930007AA
:101EF0000093FF06DF91CF911F910F9108951F92DC
:101F00000F920FB60F9211242F933F938F939F93AD
:101F1000AF93BF9380914D0690914E06A0914F06CE
:101F2000B091500630914C0623E0230F2D3720F45A
:101F30000196A11DB11D05C026E8230F0296A11D23
:101F4000B11D20934C0680934D0690934E06A093AE
:101F50004F06B09350068091510690915206A09181
:101F60005306B09154060196A11DB11D80935106F0
:101F700090935206A0935306B0935406BF91AF912D
:101F80009F918F913F912F910F900FBE0F901F90B7
:101F900018952FB7F89460914D0670914E06809178
:101FA0004F06909150062FBF0895789484B58260B3
:101FB00084BD84B5816084BD85B5826085BD85B5ED
:101FC000816085BDEEE6F0E0808181608083E1E89C
:101FD000F0E01082808182608083808181608083D4
:101FE000E0E8F0E0808181608083E1EBF0E08081D7
:101FF00084608083E0EBF0E0808181608083EAE7A9
:10200000F0E0808184608083808182608083808131
:10201000816080838081806880831092C1000895F0
:10202000833081F028F4813099F08230A1F0089556
:102030008630A9F08730B9F08430D1F480918000E7
:102040008F7D03C0809180008F77809380000895FA
:1020500084B58F7702C084B58F7D84BD089580914B
:10206000B0008F7703C08091B0008F7D8093B00067
:102070000895CF93DF9390E0FC01E458FF4F249143
:10208000FC01E057FF4F8491882361F190E0880FB5
:10209000991FFC01E255FF4FC591D491FC01EC550D
:1020A000FF4FA591B491611109C09FB7F894888141
:1020B000209582238883EC912E230BC0623061F43B
:1020C0009FB7F8943881822F809583238883EC9181
:1020D0002E2B2C939FBF06C08FB7F894E8812E2B30
:1020E00028838FBFDF91CF9108951F93CF93DF9304
:1020F000282F30E0F901E859FF4F8491F901E458A5
:10210000FF4FD491F901E057FF4FC491CC23C9F0A0
:10211000162F81110E941010EC2FF0E0EE0FFF1F20
:10212000EC55FF4FA591B4918FB7F894111105C0EC
:102130009C91ED2FE095E92302C0EC91ED2BEC93FF
:102140008FBFDF91CF911F910895FC0124853585C4
:10215000F901E05CFF4F80819181329620813181CD
:10216000821B930B8F7399270895DC011C96ED91C8
:10217000FC911D97DF01A05CBF4F2D913C91119701
:1021800012968D919C9111972817390739F08D91EE
:102190009C91E80FF91F808190E008958FEF9FEFE9
:1021A0000895FC01A485B585FD01E05CFF4F208109
:1021B00031813296808191812817390779F08081A9
:1021C0009181A80FB91F8C91208131812F5F3F4FE2
:1021D0002F7333273183208390E008958FEF9FEF93
:1021E0000895FC0181A1882329F0A489B5898C91E7
:1021F00086FFFBCF11A208950F931F93CF93DF9318
:10220000FC01A685B7858D01005C1F4FE801888120
:10221000998101968F739927AD014E5B5F4FEA015B
:102220002881398182179307D1F3E8012881398108
:10223000A20FB31F6C93A685B785A05CBF4F119604
:102240009C938E93A689B7892C9181E090E0078CAE
:1022500002C0880F991F0A94E2F7822B8C9381E0C9
:1022600081A30488F589E02D80818064808381E0EA
:1022700090E0DF91CF911F910F91089508951F92E3
:102280000F920FB60F9211242F934F935F938F935A
:102290009F93EF93FF938091C00082FD1CC020911B
:1022A000C6008091FB069091FC0601968F739927DA
:1022B0004091FD065091FE068417950771F0E0915C
:1022C000FB06F091FC06E554F94F20839093FC0641
:1022D0008093FB0602C08091C600FF91EF919F9111
:1022E0008F915F914F912F910F900FBE0F901F9084
:1022F000189585E596E00E94A510892B11F00C94A5
:102300003E1108951F920F920FB60F9211242F9332
:102310003F938F939F93EF93FF932091B706309154
:10232000B8068091B9069091BA062817390731F49A
:102330008091C1008F7D8093C10014C0E091B906E7
:10234000F091BA06E958F94F20818091B906909131
:10235000BA0601968F7399279093BA068093B906AF
:102360002093C600FF91EF919F918F913F912F9104
:102370000F900FBE0F901F901895CF92DF92EF92A3
:10238000FF920F931F93CF93DF93EC016A017B01C0
:102390004115514E6105710509F1EC89FD8981E016
:1023A00090E008A002C0880F991F0A94E2F780838A
:1023B00060E079E08DE390E0A70196010E9466134A
:1023C00089019A0101501109210931093695279592
:1023D00017950795980101151041A8F0EC89FD8922
:1023E000108260E874E88EE190E0A70196010E94F7
:1023F0006613DA01C9010197A109B109B695A7953C
:10240000979587959C01E889F9893083EA89FB894A
:10241000208319A2EE89FF89408181E090E09C0130
:102420000C8C02C0220F331F0A94E2F7242B208366
:10243000EE89FF8940819C010D8C02C0220F331F61
:102440000A94E2F7242B2083EE89FF8940819C01C6
:102450000E8C02C0220F331F0A94E2F7242B208334
:10246000EE89FF8920810F8C02C0880F991F0A9482
:10247000E2F7809582238083DF91CF911F910F91A6
:10248000FF90EF90DF90CF900895E5E5F6E013829E
:10249000128288EE93E0A0E0B0E084839583A68367
:1024A000B7838EE093E0918380838BEB96E09587F2
:1024B000848787E796E09787868785EC90E0918B05
:1024C000808B84EC90E0938B828B80EC90E0958BFA
:1024D000848B81EC90E0978B868B82EC90E0918FDF
:1024E000808F86EC90E0938F828F84E0848F83E0EE
:1024F000858F87E0868F85E0878F81E080A30895B0
:10250000CF92DF92EF92FF920F931F93CF93DF93BF
:102510006C01EB017B01E40EF51E00E010E0CE152E
:10252000DF0561F06991D601ED91FC910190F08198
:10253000E02DC6010995080F191FF1CFC801DF91E1
:10254000CF911F910F91FF90EF90DF90CF90089562
:102550000E94D50F0E948206C9E7D1E10E94D70BE5
:102560002097E1F30E947911F9CFCF92DF92EF9299
:10257000FF920F931F93CF93DF938C01EB01688140
:1025800079818A819B8120E03AEC4AE95BE30E94F1
:102590006613F801C080D180E280F380C20ED31EA2
:1025A000E41EF51EC082D182E282F38268837983C1
:1025B0008A839B83DF91CF911F910F91FF90EF90C2
:1025C000DF90CF9008950E94EA126894B1110C94A4
:1025D0003C1308950E94211388F09F5798F0B92F5B
:1025E0009927B751B0F0E1F0660F771F881F991F48
:1025F0001AF0BA95C9F714C0B13091F00E943B139C
:10260000B1E008950C943B13672F782F8827B85FAB
:1026100039F0B93FCCF3869577956795B395D9F79F
:102620003EF490958095709561957F4F8F4F9F4FA9
:10263000089557FD9058440F551F59F05F3F71F0B2
:102640004795880F97FB991F61F09F3F79F0879519
:102650000895121613061406551FF2CF4695F1DFA2
:1026600008C0161617061806991FF1CF8695710532
:10267000610508940895E894BB2766277727CB0166
:1026800097F90895DB018F939F930E948813BF9160
:10269000AF91A29F800D911DA39F900DB29F900DB1
:1026A0001124089597FB072E16F4009407D077FDA8
:1026B00009D00E94931307FC05D03EF490958195B4
:1026C0009F4F0895709561957F4F0895A1E21A2E4E
:1026D000AA1BBB1BFD010DC0AA1FBB1FEE1FFF1FC6
:1026E000A217B307E407F50720F0A21BB30BE40B16
:1026F000F50B661F771F881F991F1A9469F760955D
:102700007095809590959B01AC01BD01CF01089516
:102710000E94AD13A59F900DB49F900DA49F800DB6
:10272000911D11240895AA1BBB1B51E107C0AA1FCC
:10273000BB1FA617B70710F0A61BB70B881F991F62
:102740005A95A9F780959095BC01CD010895EE0F9B
:10275000FF1F0590F491E02D0994A29FB001B39F53
:10276000C001A39F700D811D1124911DB29F700D9A
:10277000811D1124911D0895FB01DC0102C001900F
:102780000D9241505040D8F70895A0E0B0E0EBEC36
:10279000F3E10C946916AE014B5F5F4FFA01619152
:1027A0007191AF0180910507909106070E94DB139C
:1027B000E2E00C948516ACE0B0E0E1EEF3E10C94BD
:1027C00059167C016B018A01FC01178216828381F4
:1027D00081FFBDC1CE0101964C01F7019381F60145
:1027E00093FD859193FF81916F01882309F4ABC11B
:1027F000853239F493FD859193FF81916F01853284
:1028000029F4B70190E00E94C315E7CF512C312C79
:1028100020E02032A0F48B3269F030F4803259F09D
:10282000833269F420612CC08D3239F0803339F461
:10283000216026C02260246023C0286021C027FDBB
:1028400027C030ED380F3A3078F426FF06C0FAE0A2
:102850005F9E300D1124532E13C08AE0389E300D38
:102860001124332E20620CC08E3221F426FD6BC160
:10287000206406C08C3611F4206802C0883641F40A
:10288000F60193FD859193FF81916F018111C1CF75
:10289000982F9F7D9554933028F40C5F1F4FFFE3D2
:1028A000F9830DC0833631F0833771F0833509F039
:1028B0005BC022C0F801808189830E5F1F4F4424D2
:1028C0004394512C540115C03801F2E06F0E711C75
:1028D000F801A080B18026FF03C0652D70E002C022
:1028E0006FEF7FEFC5012C870E94B8152C01830183
:1028F0002C852F77222E17C03801F2E06F0E711C45
:10290000F801A080B18026FF03C0652D70E002C0F1
:102910006FEF7FEFC5012C870E94AD152C012C8530
:102920002068222E830123FC1BC0832D90E04816D3
:102930005906B0F4B70180E290E00E94C3153A94C2
:10294000F4CFF50127FC859127FE81915F01B70146
:1029500090E00E94C31531103A94F1E04F1A5108EB
:102960004114510471F7E5C0843611F0893639F508
:10297000F80127FF07C060817181828193810C5F1C
:102980001F4F08C060817181072E000C880B990BC6
:102990000E5F1F4F2F76722E97FF09C0909580957E
:1029A000709561957F4F8F4F9F4F2068722E2AE060
:1029B00030E0A4010E94FB15A82EA81844C085375A
:1029C00029F42F7EB22E2AE030E025C0F22FF97FC5
:1029D000BF2E8F36C1F018F4883579F0B4C0803737
:1029E00019F0883721F0AFC02F2F2061B22EB4FE2E
:1029F0000DC08B2D8460B82E09C024FF0AC09F2F04
:102A00009660B92E06C028E030E005C020E130E035
:102A100002C020E132E0F801B7FE07C06081718199
:102A2000828193810C5F1F4F06C06081718180E0BD
:102A300090E00E5F1F4FA4010E94FB15A82EA8185E
:102A4000FB2DFF777F2E76FE0BC0372D3E7FA51422
:102A500050F474FE0AC072FC08C0372D3E7E05C0DB
:102A6000BA2C372D03C0BA2C01C0B52C34FF0DC0D1
:102A7000FE01EA0DF11D8081803311F4397E09C019
:102A800032FF06C0B394B39404C0832F867809F054
:102A9000B39433FD13C030FF06C05A2CB31418F49E
:102AA000530C5B18B32CB31468F4B70180E290E0C8
:102AB0003C870E94C315B3943C85F5CFB31410F442
:102AC0003B1801C0312C34FF12C0B70180E390E005
:102AD0003C870E94C3153C8532FF17C031FD03C0FF
:102AE00088E790E002C088E590E0B7010CC0832F32
:102AF000867859F031FF02C08BE201C080E237FDD9
:102B00008DE2B70190E00E94C315A51438F4B70117
:102B100080E390E00E94C3155A94F7CFAA94F40181
:102B2000EA0DF11D8081B70190E00E94C315A1104C
:102B3000F5CF332009F451CEB70180E290E00E9436
:102B4000C3153A94F6CFF7018681978102C08FEFC3
:102B50009FEF2C96E2E10C947516FC0105906150F4
:102B600070400110D8F7809590958E0F9F1F0895A3
:102B7000FC016150704001900110D8F7809590954C
:102B80008E0F9F1F08950F931F93CF93DF93FB0129
:102B9000238121FD03C08FEF9FEF28C022FF16C0C5
:102BA00046815781248135814217530744F4A0811F
:102BB000B1819D012F5F3F4F318320838C9326810C
:102BC00037812F5F3F4F3783268310C0EB01092FDA
:102BD000182F0084F185E02D0995892BE1F68E816F
:102BE0009F8101969F838E83812F902FDF91CF91BC
:102BF0001F910F910895FA01AA27283051F1203131
:102C000081F1E8946F936E7F6E5F7F4F8F4F9F4F80
:102C1000AF4FB1E03ED0B4E03CD0670F781F891FC2
:102C20009A1FA11D680F791F8A1F911DA11D6A0F90
:102C3000711D811D911DA11D20D009F468943F9143
:102C40002AE0269F11243019305D3193DEF6CF0142
:102C50000895462F4770405D4193B3E00FD0C9F708
:102C6000F6CF462F4F70405D4A3318F0495D31FD75
:102C70004052419302D0A9F7EACFB4E0A6959795C8
:102C8000879577956795BA95C9F70097610571059E
:102C900008959B01AC010A2E0694579547953795E8
:102CA0002795BA95C9F7620F731F841F951FA01D42
:102CB00008952F923F924F925F926F927F928F92E0
:102CC0009F92AF92BF92CF92DF92EF92FF920F93BB
:102CD0001F93CF93DF93CDB7DEB7CA1BDB0B0FB6C5
:102CE000F894DEBF0FBECDBF09942A883988488882
:102CF0005F846E847D848C849B84AA84B984C88418
:102D0000DF80EE80FD800C811B81AA81B981CE0F0E
:102D1000D11D0FB6F894DEBF0FBECDBFED010895F3
:042D2000F894FFCF55
:102D24000800090006000700040005000200030073
:102D34000000090780007374645F6D7367732F5418
:102D4400696D65006364373136366337346335350E
:102D5400326333313166626363326665356137628B
:102D64006332383900726F7373657269616C5F6DB9
:102D74007367732F546F706963496E666F003061B7
:102D840064353166383866633434383932663863CA
:102D940031303638343037373634363030350072E7
:102DA4006F7373657269616C5F6D7367732F4C6FBA
:102DB400670031316162643733316332353933331B
:102DC40032363163643631383362643132643632D8
:102DD40039350039663065393862646136353938D9
:102DE400313938366464663533616661376134304D
:102DF400653439007374645F6D7367732F466C6F49
:102E04006174333200373366636266343662343950
:102E14003139316536373239303865353038343206
:102E2400613833643400256400646F776E5F6C65C9
:102E34006674004D6573736167652066726F6D20FB
:102E44006465766963652064726F707065643A20A6
:102E54006D657373616765206C6172676572207458
:102E640068616E206275666665722E00646F776EA7
:102E74005F72696768740075705F7269676874006F
:102E840075705F6C656674006D6F746F725F7572D8
:102E94005F737562006D6F746F725F756C5F7375CD
:102EA40062006D6F746F725F646C5F737562006D46
:102EB4006F746F725F64725F73756200726F7373A5
:102EC400657269616C5F6D7367732F5265717565A7
:102ED4007374506172616D0000000000BB00DF007C
:102EE4002501280100000000A602AB032B012E01DE
:102EF400000000007A025303310134010000000095
:102F0400AE019B0437013A01000000003D0151016C
:102F140067016A0100000000EB06AD098C010000A6
:102F240000006D0182018601890100000000FC108F
:0A2F34008012A510D110B510F110A5
:00000001FF
